:1000000000800020BD01000029850000E18400007F
:10001000E1840000E1840000E1840000E18400004C
:10002000E1840000E1840000E184000029850000F3
:1000300029850000E184000029850000D1840000AA
:1000400029850000298500002985000029850000F8
:1000500029850000298500002985000029850000E8
:1000600029850000298500002985000029850000D8
:1000700029850000298500002985000029850000C8
:1000800029850000298500002985000029850000B8
:1000900029850000298500002985000029850000A8
:1000A0002985000029850000298500002985000098
:1000B0002985000029850000298500002985000088
:1000C0002985000029850000298500002985000078
:1000D0002985000029850000298500002985000068
:1000E0002985000029850000298500002985000058
:1000F00029850000A98A000029850000E18D000003
:1001000029850000C19F0000298500002985000085
:100110002985000029850000298500002985000027
:100120002985000029850000298500002985000017
:100130002985000029850000298500002985000007
:1001400029850000298500002985000029850000F7
:1001500029850000298500002985000029850000E7
:10016000298500005D900000298500002985000098
:1001700029850000298500002985000029850000C7
:1001800029850000298500002985000029850000B7
:1001900029850000298500002985000029850000A7
:1001A0002985000029850000298500002985000097
:1001B000298500002985000029850000564B4CF256
:1001C000205210B51A804DF628121A8000BF00BFC9
:1001D00008F0AEF9514B4FF010621A60504A9A6025
:1001E000504ADA60504A136813F4807304D14F49BF
:1001F0000B604FF4A85313604D4B1A78110703D5C9
:100200001A7842F008021A704A4B4B492A221A7097
:100210004A4A4B4B8B4204D252F8040F43F8040B6A
:10022000F8E7484B484900228B4202D243F8042B9E
:10023000FAE74649464A002352F8230041F82300D2
:1002400001336F2BF8D1434B434A802103F8011B44
:100250009342FBD1414B3D4A1A60414B8A221A70AE
:10026000A3F5805324225A70A0221A709A7992071B
:10027000FCD59A79D406FCD43A4A937903F00C035E
:10028000082B384BF9D103221A7140225A719A79FE
:100290009006FCD5334A9179324B4906FBD5324A58
:1002A000324911600221516020221A709A7902F0BD
:1002B0000C020C2AFAD12E4B2E4A1A602E4B2F4AD2
:1002C0001A6000225A60072243F8042C2C4AC3F813
:1002D0000C2D62B608F05EFA144B1B68DA0705D5E0
:1002E000284808F0C9F9284B284A1A60284B1B787F
:1002F0005B0609D5244C254B22689A4204D121483B
:1003000008F0BAF9002323600DF092FE08F016F908
:1003100009F05AFDFEE700BF0E2005403080044082
:10032000823F04000100002B10D0034014D0034092
:1003300002D0074000E00740E095FF1F4C58010045
:100340002087FF1FE095FF1F4CB4FF1F0082FF1F97
:100350000000000000E400E05FE400E008ED00E0E1
:100360000050064000400640448004400000030165
:1003700004800440C010050014E000E0FF76010096
:1003800000002020A5F26C041CE00340A5C3945A91
:1003900000F00740FFFFFFFFFFFFFFFFFFFFFFFF32
:1003A000FFFFFFFFFFFFFFFFFFFFFFFFFFFFFFFF5D
:1003B000FFFFFFFFFFFFFFFFFFFFFFFFFFFFFFFF4D
:1003C000FFFFFFFFFFFFFFFFFFFFFFFFFFFFFFFF3D
:1003D000FFFFFFFFFFFFFFFFFFFFFFFFFFFFFFFF2D
:1003E000FFFFFFFFFFFFFFFFFFFFFFFFFFFFFFFF1D
:1003F000FFFFFFFFFFFFFFFFFFFFFFFFFFFFFFFF0D
:10040000FFFFFFFFFFFFFFFFFFFFFFFFDEF9FFFF23
:1004100010B5054C237833B9044B13B10448AFF33E
:1004200000800123237010BDE095FF1F0000000035
:1004300048580100084B10B51BB108490848AFF3F4
:1004400000800848036803B910BD074B002BFBD0A0
:10045000BDE81040184700BF00000000E495FF1FF2
:1004600048580100E095FF1F0000000009F00EBB96
:1004700009F0E6BA09F0C0BA09F0FABA09F0D6BB39
:1004800009F0B0BB0846114609F01CBB084609F04C
:100490009DBB00BF70B52A4B2A4918799A681B7B0F
:1004A000294D84B004AC8DF80400982002928DF898
:1004B0000C3044F8101D09F08FFC2146064605F06B
:1004C00049FEE0202E6009F087FC044605F062FD3D
:1004D0001E4B4FF460701C6009F07EFC044606F071
:1004E000BFFC1B4B60201C6009F076FC044600F04A
:1004F00079FE184B01201C6009F06EFC044600F0E8
:100500004BFA154B41F288301C6008F0F5F80121D8
:100510000D2008F0C9F801210C2008F0C5F80F4A99
:100520000F49286805F052FE4FF40B7009F054FC97
:10053000044604F005F90B4B1C6004B070BD00BF0D
:10054000808BFF1F103E01003096FF1F3896FF1F63
:100550003C96FF1F2096FF1F2896FF1F303E01008C
:10056000483E01002496FF1F38B5304C206806F045
:1005700013FDB0FA80F20546520901212C4800F023
:10058000CFFB05BB03212A4800F0CEFB04212848FD
:1005900000F0CAFB0521264800F0C6FB06212448CE
:1005A00000F0C2FB0721224800F0BEFB214B186877
:1005B00000F044FEB0FA80F2520902211C48BDE866
:1005C000384000F0ADBB206806F0F6FCB0FA80F2CF
:1005D00052090321164800F0A3FB206806F0FCFC3A
:1005E000B0FA80F252090421114800F099FB20680A
:1005F00006F002FDB0FA80F2520905210C4800F025
:100600008FFB206806F008FDB0FA80F2520906213F
:10061000074800F085FB206806F00EFDB0FA80F276
:1006200052090721024800F07BFBBFE73C96FF1F01
:10063000FC95FF1F2096FF1F30B5274B274D1B68E9
:10064000286883B00193019C07F046F8244B186892
:1006500001F09CF8234B186806F0DAFA224B1A686E
:10066000A2422FD9214B1A68A24224D9204B1A68E2
:10067000A24209D842F2107204F164019442196056
:1006800027D8286806F0F2FC1A4B1A68A24210D844
:10069000194D01210C200A341C6007F0FFFF286867
:1006A00004F0C8FE0C20002107F0F8FF286804F0D1
:1006B000BBFE03B030BD04F1C80210481A6000F060
:1006C00037FBD3E704F57A7228681A6006F0B2FEA9
:1006D000C8E7FFF749FFD4E768B1FF1F3C96FF1F4B
:1006E0002096FF1F3096FF1F3496FF1F1896FF1F9E
:1006F0001C96FF1F2C96FF1F2496FF1FFC95FF1FC3
:1007000008B507F05BFE0248BDE8084000F000BBFA
:10071000FC95FF1F00207047F8B51E1E03680446B5
:10072000CCBF02EB420500250F469B68D8BF16469A
:1007300098477A19236862605B690A4A6661934246
:1007400001D12046F8BD204698470028F9D0064A36
:10075000064B516893FBF0F0884238BF0846506062
:100760002046F8BD150700004096FF1F40420F00CD
:1007700070B40F4C2268531C8A4283B0236013DB91
:100780000C4D0D4A2968019101992D680095166854
:10079000009D15604FF47A720025891B02FB03F35C
:1007A0002560B3FBF1F3438003B070BC704700BF1A
:1007B0005496FF1F68B1FF1F5C96FF1F2DE9F04F95
:1007C00043682D4C83B006468946002B4BD107F079
:1007D00071FFF36820601BB14846B16898478146B5
:1007E000264B1C680025002C36D07388A77C6168D6
:1007F0006269632B236898BFA574D3F804808DF8D1
:1008000004508DF805508DF80650B9F1000F1CD03A
:1008100004F10B030DF1040E04F10E0C13F801BFEB
:10082000BBF1000F0DD093F803A00AF101000BFB00
:100830000000BAF1000F04D009FB00F0000C8EF8A4
:10084000000063450EF1010EE8D1204601ABC04720
:10085000A774A468002CC8D130461921FFF788FF7F
:1008600003B0BDE8F08F07F025FF22687368801A97
:100870009842AAD3ABE700BF5896FF1F5096FF1FC0
:1008800000207047044B0022FF204FF0FF3118700A
:1008900099605A80DA6070474096FF1F4069704740
:1008A000044B1B68B3F85A23B3F85C3302600B6047
:1008B000704700BF3C96FF1FF0B4104C104E2568E7
:1008C000049CD5F8C4720760D5F8C0020860D5F85A
:1008D000C81286FB0106C917C1EBA6011160D5F845
:1008E000CC2202EB820252001A60D5F8DC2264238B
:1008F00003FB02F32360F0BC704700BF3C96FF1F70
:1009000067666666064B07491B6810B50446D3F850
:10091000D8020CF0C5FF0DF0C5F9206010BD00BF76
:100920003C96FF1F00007A44024B1B6893F9B432D7
:10093000036070473C96FF1F044B1B68B3F85E339F
:10094000036000230B601360704700BF3C96FF1FDD
:1009500038B5094B1B6804460D46D3F8E802074931
:100960000CF09EFF0DF078F9054B2860197D1846B4
:1009700000F08CF8206038BD3C96FF1F0000C84294
:100980006496FF1F10B50446024800F0ADFB2060DE
:1009900010BD00BF7C96FF1F38B50546012007F04B
:1009A00055FD124CE8B9022007F050FD18B110496E
:1009B000206800F051FC20680E4900F051FC2068CE
:1009C0000D4900F04FFC20680C4900F04DFC2068F8
:1009D0000B4900F04BFC20680A4900F049FC28460E
:1009E00038BD0949206800F039FCDCE72096FF1F7C
:1009F00051090000B9080000850900000509000040
:100A00002909000039090000A108000008B50648BE
:100A100000F0B0F80121084607F032FD0121022064
:100A2000BDE8084007F02CBD6496FF1F014800F0A8
:100A300015B900BF6496FF1F08B507F0BFFC044856
:100A400000F0DEF90348BDE8084000F0D7B800BF69
:100A50007C96FF1F6496FF1F70B50346017B094A11
:100A6000006953F8216014689D6882B00CF08EFA1A
:100A70003246CDE900012B462046034905F0A6FB8E
:100A800002B070BD3096FF1F583E010038B50D1DF5
:100A900000EB450304461B79D3B1012B08D054F871
:100AA000251000200CF0FCFEBDE8384009F0F0BB3A
:100AB0000E4B1B68D3F8E4020DF0CEF80CF09CFE50
:100AC00054F825100CF0ECFEBDE8384009F0E0BB0E
:100AD000064B1B68D3F840030CF08EFE54F825102B
:100AE0000CF0DEFEBDE8384009F0D2BB3C96FF1F9B
:100AF00008B508460DF088FA0CF074FD09F052FCB8
:100B000009F0C6FB40B208BDF8B5044600681746B8
:100B10001E460D460DF008FE58B1294660680DF0DE
:100B200003FE012530B131462046FFF7E1FF0020EA
:100B3000F8BD05463946A0680DF0F6FD0028F2D153
:100B400031462046FFF7D4FFE9B20646A5812020B2
:100B500007F096FC30460CF04FFE0146044809F0C1
:100B600095FCF1B22061212007F08AFC0120F8BD3C
:100B700000002041012170B50446084607F080FCC2
:100B80000121022007F07CFC2046164B164A17492B
:100B9000FFF7BAFF2046134B154A1649FFF7B4FF7B
:100BA0004024A4F140012046C9B2013407F068FC9A
:100BB000482CF6D12046042107F062FC4C21492044
:100BC00007F05EFC0C4B03F24C465D1C03F14B003E
:100BD0005C1C5978401B07F053FCB4422346F5D106
:100BE00070BD00BF703E0100783E0100883E0100EC
:100BF000983E0100B03E01002387FF1F38B5134A1D
:100C0000134B1449426000258360016004468582CD
:100C1000202007F01BFCA081212007F017FC40B228
:100C20000CF0EAFD01460C4809F030FC2061284632
:100C300007F00CFC6A2806D02046FFF79BFF2846E9
:100C40006A2107F01DFC204638BD00BF883E010028
:100C5000783E0100BC3E010000002041F0B524496F
:100C600083B0074600200EF0B3FE002836D00446BD
:100C70001F4900200EF0ACFE0546002834D01C4968
:100C800000200EF0A5FE06463846B6B133462A4689
:100C90002146FFF739FF174B40B1009618681649F7
:100CA0002B46224605F092FA03B0F0BD13491868AE
:100CB00003B0BDE8F04005F089BA114B2A46214641
:100CC000FFF722FF0B4B0028F0D018680D492B4688
:100CD000224603B0BDE8F04005F078BA384603B0CC
:100CE000BDE8F040FFF7B8BE024B0749DFE700BFA1
:100CF000444801003096FF1F843F0100143F01006B
:100D0000103F0100543F0100D43E010007F056BBE4
:100D100000220D21017042758275C27502767047FE
:100D200001444A70704700BF014400234B70704774
:100D300010B5037E0446052B0DD8DFE803F00D2F18
:100D4000384249030021007807F0A8FCA37D002267
:100D50000133A375227610BD437D002B42D0827DE6
:100D600093420FD8002383754375014611F8012F74
:100D700022B1627DA01801326275C37201330A2B61
:100D8000F4D1002222440121D37A2176013BE3757C
:100D900020780121BDE8104007F080BC00210078D8
:100DA00007F07CFCE37DD3B10223237610BD012143
:100DB000007807F073FCE37D0122013BE3752276A6
:100DC00010BD0021007807F069FC0423237610BDD4
:100DD0000021007807F062FC0523237610BD032371
:100DE000237610BD4375014611F8012F22B1627DB3
:100DF000A01801326275C37201330A2BF4D1C7E720
:100E0000002280F80028A0F80228A0F80428A0F802
:100E1000062870472DE9F047804608468A460DF0BF
:100E2000EFFDB8F8069809F00F06F601002408EB6C
:100E3000060725460CE01AF80330A3F120025E2ACB
:100E400005D86A1C7B55504695B20DF0D9FD01348A
:100E5000A3B28342EFD346440023735509F101093D
:100E6000A8F80698BDE8F08708B5084610F002FA21
:100E7000C0B2A0F14103192B0BD9A0F13003092B0B
:100E800004D91F288CBF25203F2008BD1538C0B2CB
:100E900008BD4038C0B208BDF8B5B0F80458B0F885
:100EA0000638AB421CD005F00F0600EBC616044610
:100EB00030460DF0A5FD94F8007887420AD27B1CDD
:100EC00084F80038F15D204601F07F01BDE8F8406C
:100ED000FFF7CABF01350023A4F8045884F800388E
:100EE0000020F8BD38B508460C4627490CF08AFEAC
:100EF000A0B1264920460CF08FFE00283BD0244CA0
:100F00004FF400654FF07C5120460CF0C1FB0CF013
:100F1000A3FEC0F30900284480B238BD1D49204615
:100F20000CF070FE0546C0B120461B490CF06CFD6C
:100F30004FF480650446002120460CF063FE002833
:100F4000E0D14FF07C5120460CF0A0FB0CF084FE69
:100F5000C0F30900284480B238BD104920460CF087
:100F600051FE0028E7D120460B490CF099FC4FF4C4
:100F700040650446DFE7204608490CF045FD4FF484
:100F800000650446D7E700BF00401C4600CEC747B7
:100F900000C07F4400007A44000020410000C842A5
:100FA00070B50D460646122900F29580DFE801F083
:100FB000181E2328323B40454A4F575C626D727DB4
:100FC00082870A00454B1B68B3F80403B0F5805FC5
:100FD00034BF00B240F6FF7040EA053080B270BD09
:100FE000FFF75AFF044600286ED1F5E7B0F8020873
:100FF000C0F30B00F0E7394B1B68B3F86E03E5E76D
:10100000364B37481B68D3F87033A0FB0330C0F36E
:101010004F10DBE7314B33481B68B3F8D032A0FBED
:101020000330C008D2E72D4B1B6893F8BC02D3E70E
:101030002A4B1B6893F8BD02CEE7284B1B6893F838
:10104000AA02C9E7254B1B68B3F8AC02BEE7234BE5
:101050001B68D3F8E4020CF0FFFD80B2B6E71F4B2B
:101060001B68B3F84003B1E71C4B1B6893F9B4024B
:1010700080B2ABE7194B1B68B3F844030CF0B8FB24
:1010800001463046FFF72EFFA0E7144B1B68B3F86C
:1010900068039BE7114B186805F0DEFF0CF0A8FB16
:1010A00001463046FFF71EFF90E70C4B1B68B3F874
:1010B0006C038BE7094B1B68B3F8000386E7074B0B
:1010C0001B68B3F8060381E73046FFF7E5FE40EA08
:1010D000841080B27AE700207EE700BF3C96FF1FB5
:1010E0001F85EB51CDCCCCCC2DE9F04FDFF8F09043
:1010F00099F8001083B0834679B9B0F80448B0F885
:101100000628944209D0FFF74BFF0123044689F8D3
:101110000030204603B0BDE8F08FDFF8C080DFF874
:10112000B8A02B4F1225464698F800105846FFF7F6
:1011300037FF9AF800300446002B43D0327837F856
:10114000123083421FD0BBF80218224B27F81240FE
:10115000501CC0B20025122823F8121089F8005044
:101160000BD9012201312046ABF8021888F8002083
:101170008AF8002003B0BDE8F08F88F80000204610
:1011800003B0BDE8F08F134B282133F812300193E0
:10119000142008F05DFE019BBBF802181844884239
:1011A00013DB33780133DBB2122B03D83370013DEC
:1011B000BAD1AEE7084A01230131ABF80218337007
:1011C0001370F4E7054B1A78BDE7044B1A78BCE7B7
:1011D000A49EFF1F849EFF1FC59EFF1F708BFF1FD5
:1011E000C49EFF1F10B5002304468370C3700371B3
:1011F000437183718360C360036143618361C36131
:10120000036243628362C362036343638363C363B2
:10121000036443648364C364036543658365C36592
:1012200040F6055007F078FB034B1022A0219A717D
:1012300099705A71204610BD00A0064008B5054BB4
:101240000C21186804F078FFB0F5966FACBF002051
:10125000012008BD3896FF1F4164704781647047C4
:10126000C16470470165704741657047816570478B
:10127000C16570477E2938B50C46054612D07D29D8
:10128000084609D007F0B6FB2B88E11801EB1121C5
:1012900001F0FF01298038BD07F0ACFB5D2007F0AD
:1012A000A9FBF1E77D2007F0A5FB5E2007F0A2FB7C
:1012B000EAE700BF30B583B01D4D0092ADF80610CF
:1012C000AB7943F02003AB7104461021FFF7D2FF46
:1012D00020469DF80610FFF7CDFF20469DF8071029
:1012E000FFF7C8FF20469DF80010FFF7C3FF204618
:1012F0009DF80110FFF7BEFF20469DF80210FFF792
:10130000B9FF9DF803102046FFF7B4FFB4F90000C1
:10131000C0F1FF00C0B207F06DFB0023238007F08F
:1013200073FBAB7983F02003AB7103B030BD00BF1A
:1013300000A0064030B583B01A4DADF80610AB7969
:1013400043F02003AB7104460021FFF793FF2046D2
:101350009DF80610FFF78EFF20469DF80710FFF757
:1013600089FF20460021FFF785FF20460021FFF777
:1013700081FF20460021FFF77DFF00212046FFF777
:1013800079FFB4F90000C0F1FF00C0B207F032FBF2
:101390000023238007F038FBAB7983F02003AB7187
:1013A00003B030BD00A00640F0B5B74B85B01B6858
:1013B00003936A290546039E00F0A3800C4608D9D2
:1013C000C6295CD0E42928D0832900F0AE8005B07E
:1013D000F0BD222974D0452938D00029F7D1AB4B74
:1013E0000D21186804F08EFE6A6C002AEFD02B796C
:1013F000002B00F07281012BE9D1A54F3B68B3426D
:1014000080F08081AA684FF48871284606F5FA7644
:10141000FFF750FF3E602C71D9E79C4B10211868F4
:1014200004F070FE2B6D002BD1D09A4C2268B24292
:1014300080F0938005F12C0098476436EA6A2846CC
:101440004FF4A061FFF736FF2660C0E78F4B1121F4
:10145000186804F057FEAB6D002BB8D08E4C226894
:10146000B24274D205F13400984706F5FA766A6BF9
:1014700028464FF4C061FFF71DFF2660A7E7834BA6
:101480001121186804F03EFEEB6D002B9FD0AC7963
:10149000002C9CD1814F3A68B24264D205F14002DF
:1014A00005F13C0105F13800984706F5FA76AA6B7C
:1014B0004FF4E0612846FFF7FDFE3E60AC7186E721
:1014C000724B0E21186804F01DFEAA6C002A3FF42E
:1014D0007EAFEB78002B00F0EB80012B7FF477AF31
:1014E0006F4C2368B34280F019816A694FF4007130
:1014F0002846FFF7DFFE06F5FA7600232660EB703C
:1015000065E7624B1221186804F0FCFD6B6D002B3F
:101510003FF45DAF634C2268B242C0F0A880284619
:101520004FF42061FFF706FF51E7584B0F21186871
:1015300004F0E8FDEC6C002C3FF449AF6B79042B10
:101540003FF645AFDFE803F04426158170002846DA
:101550004FF4C061FFF7EEFE39E728464FF4A06173
:10156000FFF7E8FE33E728464FF4E061FFF7E2FEBD
:101570002DE74D4C2368B34280F0E8802A6A4FF48F
:1015800002612846FFF796FE06F5FA7603232660E9
:101590006B711CE7444F3B68B34280F0CB80EA6933
:1015A0004249002A4FEAE27381FB0212C0F2DA805C
:1015B000C3EB621303EB43035A004FF40061284668
:1015C000FFF778FE06F5FA7602233E606B71FEE6C1
:1015D000354F3B68B34280F0AD8005F1280300939E
:1015E00005F1200205F1240305F11C0105F11800A5
:1015F000A047AA692D49002A4FEAE27381FB021233
:10160000C0F2B880C3EB621303EB43035A0042F00D
:1016100000424FF400612846FFF74CFE06F5FA76CB
:1016200001233E606B71D2E61F4C2368B34280F009
:101630008780AA6A4FF404612846FFF73BFE06F54F
:10164000FA76002326606B71C1E6174C2368B3421B
:1016500080F082806A6A4FF403612846FFF72AFE11
:101660002368042203F5FA7323606A71AFE605F17B
:101670003000984706F5FA762A6B28464FF4206129
:10168000FFF718FE2660A2E668B1FF1F3896FF1F1D
:10169000D09EFF1FD49EFF1FD89EFF1FCC9EFF1F12
:1016A000C89EFF1FDC9EFF1FE09EFF1F1F85EB51A2
:1016B000344C2368B34237D205F1140105F1100010
:1016C00090472A694FF404712846FFF7F3FD06F5A9
:1016D000FA7601232660EB7079E62B4C2368B3423F
:1016E00016D205F1080105F10C009047EA684FF4A5
:1016F00080712846FFF7DEFD06F5FA7601232660A5
:101700002B7164E628464FF48871FFF713FE5EE6FE
:1017100028464FF48071FFF70DFE58E628464FF437
:101720000071FFF707FE52E628464FF40471FFF7F9
:1017300001FE4CE628464FF40061FFF7FBFD46E64C
:1017400028464FF40461FFF7F5FD40E628464FF4C4
:101750000261FFF7EFFD3AE628464FF40361FFF719
:10176000E9FD34E6A3EB621303EB43035A0042F0B6
:10177000804222E7A3EB621303EB43035A0042F0DB
:10178000404246E7C89EFF1FD09EFF1FF8B50F4E90
:101790000546002707F044F9A0B107F051F90C21E4
:1017A000C4B2306804F0AEFC7E2C0CD0AB78002BB9
:1017B000F0D021462846FFF7F7FDAF7007F030F96B
:1017C0000028EAD1F8BD0123AB70E3E73896FF1F8C
:1017D0004FF4C870704700BF4FF4C870704700BF27
:1017E0004FF4C870704700BF4FF4C870704700BF17
:1017F0004FF4C870704700BF4FF4C870704700BF07
:101800004FF4C870704700BF4FF4C870704700BFF6
:1018100010B501210446052006F046FF8022024B48
:10182000A261E36110BD00BFC0F00F4010B50121FF
:101830000446152006F038FF4022024BA261E36106
:1018400010BD00BFC0F00F4010B5012104461420A8
:1018500006F02AFF2022024BA261E36110BD00BF07
:10186000C0F00F4010B501210446062006F01CFF11
:101870001022024BA261E36110BD00BFC0F00F4017
:1018800010B501210446082006F00EFF0822024B85
:10189000A261E36110BD00BFC0F00F4010B501218F
:1018A0000446072006F000FF0422024BA261E36118
:1018B00010BD00BFC0F00F4010B5012104460E203E
:1018C00006F0F2FE0222024BA261E36110BD00BFEE
:1018D000C0F00F4010B501210446022006F0E4FEDE
:1018E0000122024BA261E36110BD00BFC0F00F40B6
:1018F000F0B58BB0002305688DF804308DF8053005
:101900008DF806302E68374A8DF8083096428DF8EB
:1019100009308DF80A305FD1827C04910446012A97
:1019200001A805918DF81E308DF81F308DF82030FC
:10193000039015D08DF81D308DF81C308DF81B30BC
:101940008DF81A308DF819308DF818300023AA69F7
:101950008DF821302046099303A990470BB0F0BDC4
:10196000214A1378013303F0070313F0010F14BF6A
:101970008021002113709A0744BF41F04001C9B291
:101980005B0748BF41F0200110310022C9B20DF1C0
:101990001B030DF11E074FF4807EAAB19EFBF2F2ED
:1019A000D2B2501CC0B200FB01152D121870EEB25D
:1019B00005B1013E03F8036C00B11A7001339F4278
:1019C00008D0DA78002AE9D11A7003F8032C013321
:1019D0009F42F6D12568B9E70A4602AB01A9B04794
:1019E0000BB0F0BDB11A0000E49EFF1FF0B5857C7E
:1019F0001C785E789B7889B0012D01910292039248
:101A00008DF816408DF817608DF8183017D0002328
:101A10008DF815308DF814308DF813308DF81230A4
:101A20008DF811308DF810300368002203219B6976
:101A30008DF81910079201A9984709B0F0BD1B4A0B
:101A40001378013303F0070313F0010F137014BF71
:101A500080220022990744BF42F04002D2B25B07C5
:101A600048BF42F020021032D2B20DF113030DF143
:101A700016074FF4807EACB19EFBF4F4E4B2611C17
:101A8000C9B201FB02252D121970EEB205B1013E5B
:101A900003F8036C01B11C700133BB42C4D0DC7885
:101AA000002CE9D11C7003F8034CF5E7E49EFF1FFE
:101AB000F0B5857C1C785E789B7889B0012D01910A
:101AC000029203928DF816408DF817608DF8183049
:101AD00016D000238DF815308DF814308DF81330A2
:101AE0008DF812308DF811308DF810300268002317
:101AF00092698DF81930079301A9904709B0F0BD9C
:101B00001B4A1378013303F0070313F0010F13701E
:101B100014BF80220022990744BF42F04002D2B293
:101B20005B0748BF42F020021032D2B20DF113031E
:101B30000DF116074FF4807EACB19EFBF4F4E4B2D5
:101B4000611CC9B201FB02252D121970EEB205B15C
:101B5000013E03F8036C01B11C700133BB42C5D0D8
:101B6000DC78002CE9D11C7003F8034CF5E700BFCA
:101B7000E49EFF1F2DE9F04F8BB0044609900891B9
:101B800006F098FD238CC01A83B2312BF8D9089C3B
:101B90009E4AE07B13680290207C657C0190204681
:101BA000667BD4F8008094F80C9094F80EA003950E
:101BB000A77CE57C94F814E0954994F915400494C9
:101BC00043F08073D0F804B013600A689148924BD8
:101BD00042F001020A60002202601A681A68019845
:101BE00022F080021A6098F80140861B5FFA86FC9A
:101BF000002C40F057826B1C059372B6854B196818
:101C0000BBF1000F01F1780140F3BB807A1C069212
:101C100081480EF1010207921F46029AC9EB0209A0
:101C2000019ACCEB020C039ACAEB020A5FFA89F91B
:101C30005FFA8CFC5FFA8AFA72B61A688A4205D992
:101C40001A68521AB2F5935F00F2E88005680668D8
:101C500045F0800526F080064FF0070E1A688A428C
:101C6000FCD339680560220601F1780100F1958006
:101C70001A688A1A682AFBD86400BEF1010E066051
:101C8000E4B2EBD11A689142FCD8396805602406A9
:101C900001F1780100F18B801A688A1A682AFBD852
:101CA000066098F800403CB184FA59F4069AE4B210
:101CB00004FB02F4C4F307244FF0070E1A689142A4
:101CC000FCD839680560220601F1780179D41A68D8
:101CD0008A1A682AFBD86400BEF1010E0660E4B2DD
:101CE000ECD11A689142FCD839680560240601F1EC
:101CF00078016FD41A688A1A682AFBD8066098F8A7
:101D000002403CB184FA5AF4079AE4B204FB02F4AC
:101D1000C4F307244FF0070E1A688A42FCD33968CF
:101D20000560220601F178015DD41A688A1A682AD2
:101D3000FBD86400BEF1010E0660E4B2ECD11A6873
:101D40009142FCD839680560240601F1780153D42A
:101D50001A688A1A682AFBD8049A066090440BF124
:101D6000FF3B98F801403CB184FA5CF4059AE4B278
:101D700002FB04F4C4F3072462B6BBF1000F7FF446
:101D80004CAF62B6234B1B68002B48D006F092FC88
:101D9000099B18840BB0BDE8F08F1A688A1A2C2AA8
:101DA0007FF66AAF1A688A1A2C2AF6D864E71A688E
:101DB0008A1A2C2A7FF674AF1A688A1A2C2AF6D847
:101DC0006EE71A688A1A2C2A85D91A688A1A2C2A68
:101DD000F7D880E71A688A1A2C2A8FD91A688A1AC3
:101DE0002C2AF7D88AE71A688A1A2C2AA1D91A68E5
:101DF0008A1A2C2AF7D89CE71A688A1A2C2AABD997
:101E00001A688A1A2C2AF7D8A6E700BFFCED00E072
:101E1000001000E0041000E0C0F00F4062B662B6AF
:101E20004FF4C863013BFDD172B6089FA54AF97B08
:101E300013687E7C02913C46397C94F915E0089C3D
:101E4000A1487D7B019143F08073D7F8008097F81B
:101E50000CA097F80E900396F97CBE7CCDF810E0AC
:101E60003F7DD4F804B013600268984C984B42F060
:101E700001020260002222601A681A6822F08002C1
:101E80001A60019B98F801405D1B5FFA85FC002CED
:101E900000F0128184FA5CF4E3B24A1C02FB03F303
:101EA0000592C3F3072472B6884B1968BBF1000F83
:101EB00001F1780140F3BA80721C069284487A1CC2
:101EC00007921F46029ACAEB020A019ACCEB020C57
:101ED000039AC9EB02095FFA8AFA5FFA8CFC5FFA8F
:101EE00089F972B61A688A4205D91A68521AB2F587
:101EF000935F00F2E4800668056846F0800625F0EE
:101F000080054FF0070E1A688A42FCD339680660D4
:101F1000220601F1780100F18D801A688A1A682A78
:101F2000FBD86400BEF1010E0560E4B2EBD11A6883
:101F30009142FCD839680660240601F1780100F16D
:101F400083801A688A1A682AFBD8056098F80040CE
:101F50003CB184FA5AF4069AE4B204FB02F4C4F3E6
:101F600007244FF0070E1A688A42FCD339680660CE
:101F7000220601F1780171D41A688A1A682AFBD8FE
:101F80006400BEF1010E0560E4B2ECD11A68914222
:101F9000FCD839680660240601F1780167D41A6814
:101FA0008A1A682AFBD8056098F802403CB184FA86
:101FB00059F4079AE4B204FB02F4C4F307244FF087
:101FC000070E1A688A42FCD339680660220601F1BE
:101FD000780155D41A688A1A682AFBD86400BEF1C1
:101FE000010E0560E4B2ECD11A689142FCD8396860
:101FF0000660220601F178014BD41A688A1A682A11
:10200000FBD8049A056090440BF1FF3B98F801401F
:102010003CB184FA5CF4059AE4B202FB04F4C4F324
:10202000072462B6BBF1000F7FF44CAF62B6274BBA
:102030001B68ABE61A688A1A2C2A7FF672AF1A68F8
:102040008A1A2C2AF6D86CE71A688A1A2C2A7FF684
:102050007CAF1A688A1A2C2AF6D876E71A688A1A88
:102060002C2A8DD91A688A1A2C2AF7D888E71A6878
:102070008A1A2C2A97D91A688A1A2C2AF7D892E732
:102080001A688A1A2C2AA9D91A688A1A2C2AF7D807
:10209000A4E71A688A1A2C2AB3D91A688A1A2C2A31
:1020A000F7D8AEE784FA5CF4E3B26A1C02FB03F3F0
:1020B0000592C3F30724A0E54B1C0593F3E662B633
:1020C00064E600BFFCED00E0001000E0041000E05A
:1020D000C0F00F402DE9F04F8BB0044609900891F5
:1020E00006F0E8FA238CC01A83B2312BF8D9089C89
:1020F0009E4AE07B13680290207C657C019020461C
:10210000667BD4F8008094F80C9094F80EA00395A8
:10211000A77CE57C94F814E0954994F91540049463
:1021200043F08073D0F804B013600A689148924B72
:1021300042F001020A60002202601A681A680198DF
:1021400022F040021A6098F80140861B5FFA86FC74
:10215000002C40F057826B1C059372B6854B1968B2
:10216000BBF1000F01F1780140F3BB807A1C0692AD
:1021700081480EF1010207921F46029AC9EB02093B
:10218000019ACCEB020C039ACAEB020A5FFA89F9B6
:102190005FFA8CFC5FFA8AFA72B61A688A4205D92D
:1021A0001A68521AB2F5935F00F2E8800568066873
:1021B00045F0400526F040064FF0070E1A688A42A7
:1021C000FCD339680560220601F1780100F19580A1
:1021D0001A688A1A682AFBD86400BEF1010E0660EC
:1021E000E4B2EBD11A689142FCD839680560240644
:1021F00001F1780100F18B801A688A1A682AFBD8ED
:10220000066098F800403CB184FA59F4069AE4B2AA
:1022100004FB02F4C4F307244FF0070E1A6891423E
:10222000FCD839680560220601F1780179D41A6872
:102230008A1A682AFBD86400BEF1010E0660E4B277
:10224000ECD11A689142FCD839680560240601F186
:1022500078016FD41A688A1A682AFBD8066098F841
:1022600002403CB184FA5AF4079AE4B204FB02F447
:10227000C4F307244FF0070E1A688A42FCD339686A
:102280000560220601F178015DD41A688A1A682A6D
:10229000FBD86400BEF1010E0660E4B2ECD11A680E
:1022A0009142FCD839680560240601F1780153D4C5
:1022B0001A688A1A682AFBD8049A066090440BF1BF
:1022C000FF3B98F801403CB184FA5CF4059AE4B213
:1022D00002FB04F4C4F3072462B6BBF1000F7FF4E1
:1022E0004CAF62B6234B1B68002B48D006F0E2F9D6
:1022F000099B18840BB0BDE8F08F1A688A1A2C2A43
:102300007FF66AAF1A688A1A2C2AF6D864E71A6828
:102310008A1A2C2A7FF674AF1A688A1A2C2AF6D8E1
:102320006EE71A688A1A2C2A85D91A688A1A2C2A02
:10233000F7D880E71A688A1A2C2A8FD91A688A1A5D
:102340002C2AF7D88AE71A688A1A2C2AA1D91A687F
:102350008A1A2C2AF7D89CE71A688A1A2C2AABD931
:102360001A688A1A2C2AF7D8A6E700BFFCED00E00D
:10237000001000E0041000E0C0F00F4062B662B64A
:102380004FF4C863013BFDD172B6089FA54AF97BA3
:1023900013687E7C02913C46397C94F915E0089CD8
:1023A000A1487D7B019143F08073D7F8008097F8B6
:1023B0000CA097F80E900396F97CBE7CCDF810E047
:1023C0003F7DD4F804B013600268984C984B42F0FB
:1023D00001020260002222601A681A6822F040029C
:1023E0001A60019B98F801405D1B5FFA85FC002C88
:1023F00000F0128184FA5CF4E3B24A1C02FB03F39E
:102400000592C3F3072472B6884B1968BBF1000F1D
:1024100001F1780140F3BA80721C069284487A1C5C
:1024200007921F46029ACAEB020A019ACCEB020CF1
:10243000039AC9EB02095FFA8AFA5FFA8CFC5FFA29
:1024400089F972B61A688A4205D91A68521AB2F521
:10245000935F00F2E4800668056846F0400625F0C8
:1024600040054FF0070E1A688A42FCD339680660AF
:10247000220601F1780100F18D801A688A1A682A13
:10248000FBD86400BEF1010E0560E4B2EBD11A681E
:102490009142FCD839680660240601F1780100F108
:1024A00083801A688A1A682AFBD8056098F8004069
:1024B0003CB184FA5AF4069AE4B204FB02F4C4F381
:1024C00007244FF0070E1A688A42FCD33968066069
:1024D000220601F1780171D41A688A1A682AFBD899
:1024E0006400BEF1010E0560E4B2ECD11A689142BD
:1024F000FCD839680660240601F1780167D41A68AF
:102500008A1A682AFBD8056098F802403CB184FA20
:1025100059F4079AE4B204FB02F4C4F307244FF021
:10252000070E1A688A42FCD339680660220601F158
:10253000780155D41A688A1A682AFBD86400BEF15B
:10254000010E0560E4B2ECD11A689142FCD83968FA
:102550000660220601F178014BD41A688A1A682AAB
:10256000FBD8049A056090440BF1FF3B98F80140BA
:102570003CB184FA5CF4059AE4B202FB04F4C4F3BF
:10258000072462B6BBF1000F7FF44CAF62B6274B55
:102590001B68ABE61A688A1A2C2A7FF672AF1A6893
:1025A0008A1A2C2AF6D86CE71A688A1A2C2A7FF61F
:1025B0007CAF1A688A1A2C2AF6D876E71A688A1A23
:1025C0002C2A8DD91A688A1A2C2AF7D888E71A6813
:1025D0008A1A2C2A97D91A688A1A2C2AF7D892E7CD
:1025E0001A688A1A2C2AA9D91A688A1A2C2AF7D8A2
:1025F000A4E71A688A1A2C2AB3D91A688A1A2C2ACC
:10260000F7D8AEE784FA5CF4E3B26A1C02FB03F38A
:102610000592C3F30724A0E54B1C0593F3E662B6CD
:1026200064E600BFFCED00E0001000E0041000E0F4
:10263000C0F00F402DE9F04F8BB00446099008918F
:1026400006F038F8238CC01A83B2312BF8D9089CD5
:102650009E4AE07B13680290207C657C01902046B6
:10266000667BD4F8008094F80C9094F80EA0039543
:10267000A77CE57C94F814E0954994F915400494FE
:1026800043F08073D0F804B013600A689148924B0D
:1026900042F001020A60002202601A681A6801987A
:1026A00022F002021A6098F80140861B5FFA86FC4D
:1026B000002C40F057826B1C059372B6854B19684D
:1026C000BBF1000F01F1780140F3BB807A1C069248
:1026D00081480EF1010207921F46029AC9EB0209D6
:1026E000019ACCEB020C039ACAEB020A5FFA89F951
:1026F0005FFA8CFC5FFA8AFA72B61A688A4205D9C8
:102700001A68521AB2F5935F00F2E880056806680D
:1027100045F0020526F002064FF0070E1A688A42BD
:10272000FCD339680560220601F1780100F195803B
:102730001A688A1A682AFBD86400BEF1010E066086
:10274000E4B2EBD11A689142FCD8396805602406DE
:1027500001F1780100F18B801A688A1A682AFBD887
:10276000066098F800403CB184FA59F4069AE4B245
:1027700004FB02F4C4F307244FF0070E1A689142D9
:10278000FCD839680560220601F1780179D41A680D
:102790008A1A682AFBD86400BEF1010E0660E4B212
:1027A000ECD11A689142FCD839680560240601F121
:1027B00078016FD41A688A1A682AFBD8066098F8DC
:1027C00002403CB184FA5AF4079AE4B204FB02F4E2
:1027D000C4F307244FF0070E1A688A42FCD3396805
:1027E0000560220601F178015DD41A688A1A682A08
:1027F000FBD86400BEF1010E0660E4B2ECD11A68A9
:102800009142FCD839680560240601F1780153D45F
:102810001A688A1A682AFBD8049A066090440BF159
:10282000FF3B98F801403CB184FA5CF4059AE4B2AD
:1028300002FB04F4C4F3072462B6BBF1000F7FF47B
:102840004CAF62B6234B1B68002B48D005F032FF1B
:10285000099B18840BB0BDE8F08F1A688A1A2C2ADD
:102860007FF66AAF1A688A1A2C2AF6D864E71A68C3
:102870008A1A2C2A7FF674AF1A688A1A2C2AF6D87C
:102880006EE71A688A1A2C2A85D91A688A1A2C2A9D
:10289000F7D880E71A688A1A2C2A8FD91A688A1AF8
:1028A0002C2AF7D88AE71A688A1A2C2AA1D91A681A
:1028B0008A1A2C2AF7D89CE71A688A1A2C2AABD9CC
:1028C0001A688A1A2C2AF7D8A6E700BFFCED00E0A8
:1028D000001000E0041000E0C0F00F4062B662B6E5
:1028E0004FF4C863013BFDD172B6089FA54AF97B3E
:1028F00013687E7C02913C46397C94F915E0089C73
:10290000A1487D7B019143F08073D7F8008097F850
:102910000CA097F80E900396F97CBE7CCDF810E0E1
:102920003F7DD4F804B013600268984C984B42F095
:1029300001020260002222601A681A6822F0020274
:102940001A60019B98F801405D1B5FFA85FC002C22
:1029500000F0128184FA5CF4E3B24A1C02FB03F338
:102960000592C3F3072472B6884B1968BBF1000FB8
:1029700001F1780140F3BA80721C069284487A1CF7
:1029800007921F46029ACAEB020A019ACCEB020C8C
:10299000039AC9EB02095FFA8AFA5FFA8CFC5FFAC4
:1029A00089F972B61A688A4205D91A68521AB2F5BC
:1029B000935F00F2E4800668056846F0020625F0A1
:1029C00002054FF0070E1A688A42FCD33968066088
:1029D000220601F1780100F18D801A688A1A682AAE
:1029E000FBD86400BEF1010E0560E4B2EBD11A68B9
:1029F0009142FCD839680660240601F1780100F1A3
:102A000083801A688A1A682AFBD8056098F8004003
:102A10003CB184FA5AF4069AE4B204FB02F4C4F31B
:102A200007244FF0070E1A688A42FCD33968066003
:102A3000220601F1780171D41A688A1A682AFBD833
:102A40006400BEF1010E0560E4B2ECD11A68914257
:102A5000FCD839680660240601F1780167D41A6849
:102A60008A1A682AFBD8056098F802403CB184FABB
:102A700059F4079AE4B204FB02F4C4F307244FF0BC
:102A8000070E1A688A42FCD339680660220601F1F3
:102A9000780155D41A688A1A682AFBD86400BEF1F6
:102AA000010E0560E4B2ECD11A689142FCD8396895
:102AB0000660220601F178014BD41A688A1A682A46
:102AC000FBD8049A056090440BF1FF3B98F8014055
:102AD0003CB184FA5CF4059AE4B202FB04F4C4F35A
:102AE000072462B6BBF1000F7FF44CAF62B6274BF0
:102AF0001B68ABE61A688A1A2C2A7FF672AF1A682E
:102B00008A1A2C2AF6D86CE71A688A1A2C2A7FF6B9
:102B10007CAF1A688A1A2C2AF6D876E71A688A1ABD
:102B20002C2A8DD91A688A1A2C2AF7D888E71A68AD
:102B30008A1A2C2A97D91A688A1A2C2AF7D892E767
:102B40001A688A1A2C2AA9D91A688A1A2C2AF7D83C
:102B5000A4E71A688A1A2C2AB3D91A688A1A2C2A66
:102B6000F7D8AEE784FA5CF4E3B26A1C02FB03F325
:102B70000592C3F30724A0E54B1C0593F3E662B668
:102B800064E600BFFCED00E0001000E0041000E08F
:102B9000C0F00F402DE9F04F8BB00446099008912A
:102BA00005F088FD238CC01A83B2312BF8D9089C1C
:102BB0009E4AE07B13680290207C657C0190204651
:102BC000667BD4F8008094F80C9094F80EA00395DE
:102BD000A77CE57C94F814E0954994F91540049499
:102BE00043F08073D0F804B013600A689148924BA8
:102BF00042F001020A60002202601A681A68019815
:102C000022F001021A6098F80140861B5FFA86FCE8
:102C1000002C40F057826B1C059372B6854B1968E7
:102C2000BBF1000F01F1780140F3BB807A1C0692E2
:102C300081480EF1010207921F46029AC9EB020970
:102C4000019ACCEB020C039ACAEB020A5FFA89F9EB
:102C50005FFA8CFC5FFA8AFA72B61A688A4205D962
:102C60001A68521AB2F5935F00F2E88005680668A8
:102C700045F0010526F001064FF0070E1A688A425A
:102C8000FCD339680560220601F1780100F19580D6
:102C90001A688A1A682AFBD86400BEF1010E066021
:102CA000E4B2EBD11A689142FCD839680560240679
:102CB00001F1780100F18B801A688A1A682AFBD822
:102CC000066098F800403CB184FA59F4069AE4B2E0
:102CD00004FB02F4C4F307244FF0070E1A68914274
:102CE000FCD839680560220601F1780179D41A68A8
:102CF0008A1A682AFBD86400BEF1010E0660E4B2AD
:102D0000ECD11A689142FCD839680560240601F1BB
:102D100078016FD41A688A1A682AFBD8066098F876
:102D200002403CB184FA5AF4079AE4B204FB02F47C
:102D3000C4F307244FF0070E1A688A42FCD339689F
:102D40000560220601F178015DD41A688A1A682AA2
:102D5000FBD86400BEF1010E0660E4B2ECD11A6843
:102D60009142FCD839680560240601F1780153D4FA
:102D70001A688A1A682AFBD8049A066090440BF1F4
:102D8000FF3B98F801403CB184FA5CF4059AE4B248
:102D900002FB04F4C4F3072462B6BBF1000F7FF416
:102DA0004CAF62B6234B1B68002B48D005F082FC69
:102DB000099B18840BB0BDE8F08F1A688A1A2C2A78
:102DC0007FF66AAF1A688A1A2C2AF6D864E71A685E
:102DD0008A1A2C2A7FF674AF1A688A1A2C2AF6D817
:102DE0006EE71A688A1A2C2A85D91A688A1A2C2A38
:102DF000F7D880E71A688A1A2C2A8FD91A688A1A93
:102E00002C2AF7D88AE71A688A1A2C2AA1D91A68B4
:102E10008A1A2C2AF7D89CE71A688A1A2C2AABD966
:102E20001A688A1A2C2AF7D8A6E700BFFCED00E042
:102E3000001000E0041000E0C0F00F4062B662B67F
:102E40004FF4C863013BFDD172B6089FA54AF97BD8
:102E500013687E7C02913C46397C94F915E0089C0D
:102E6000A1487D7B019143F08073D7F8008097F8EB
:102E70000CA097F80E900396F97CBE7CCDF810E07C
:102E80003F7DD4F804B013600268984C984B42F030
:102E900001020260002222601A681A6822F0010210
:102EA0001A60019B98F801405D1B5FFA85FC002CBD
:102EB00000F0128184FA5CF4E3B24A1C02FB03F3D3
:102EC0000592C3F3072472B6884B1968BBF1000F53
:102ED00001F1780140F3BA80721C069284487A1C92
:102EE00007921F46029ACAEB020A019ACCEB020C27
:102EF000039AC9EB02095FFA8AFA5FFA8CFC5FFA5F
:102F000089F972B61A688A4205D91A68521AB2F556
:102F1000935F00F2E4800668056846F0010625F03C
:102F200001054FF0070E1A688A42FCD33968066023
:102F3000220601F1780100F18D801A688A1A682A48
:102F4000FBD86400BEF1010E0560E4B2EBD11A6853
:102F50009142FCD839680660240601F1780100F13D
:102F600083801A688A1A682AFBD8056098F800409E
:102F70003CB184FA5AF4069AE4B204FB02F4C4F3B6
:102F800007244FF0070E1A688A42FCD3396806609E
:102F9000220601F1780171D41A688A1A682AFBD8CE
:102FA0006400BEF1010E0560E4B2ECD11A689142F2
:102FB000FCD839680660240601F1780167D41A68E4
:102FC0008A1A682AFBD8056098F802403CB184FA56
:102FD00059F4079AE4B204FB02F4C4F307244FF057
:102FE000070E1A688A42FCD339680660220601F18E
:102FF000780155D41A688A1A682AFBD86400BEF191
:10300000010E0560E4B2ECD11A689142FCD839682F
:103010000660220601F178014BD41A688A1A682AE0
:10302000FBD8049A056090440BF1FF3B98F80140EF
:103030003CB184FA5CF4059AE4B202FB04F4C4F3F4
:10304000072462B6BBF1000F7FF44CAF62B6274B8A
:103050001B68ABE61A688A1A2C2A7FF672AF1A68C8
:103060008A1A2C2AF6D86CE71A688A1A2C2A7FF654
:103070007CAF1A688A1A2C2AF6D876E71A688A1A58
:103080002C2A8DD91A688A1A2C2AF7D888E71A6848
:103090008A1A2C2A97D91A688A1A2C2AF7D892E702
:1030A0001A688A1A2C2AA9D91A688A1A2C2AF7D8D7
:1030B000A4E71A688A1A2C2AB3D91A688A1A2C2A01
:1030C000F7D8AEE784FA5CF4E3B26A1C02FB03F3C0
:1030D0000592C3F30724A0E54B1C0593F3E662B603
:1030E00064E600BFFCED00E0001000E0041000E02A
:1030F000C0F00F402DE9F04F8BB0044609900891C5
:1031000005F0D8FA238CC01A83B2312BF8D9089C69
:103110009E4AE07B13680290207C657C01902046EB
:10312000667BD4F8008094F80C9094F80EA0039578
:10313000A77CE57C94F814E0954994F91540049433
:1031400043F08073D0F804B013600A689148924B42
:1031500042F001020A60002202601A681A680198AF
:1031600022F020021A6098F80140861B5FFA86FC64
:10317000002C40F057826B1C059372B6854B196882
:10318000BBF1000F01F1780140F3BB807A1C06927D
:1031900081480EF1010207921F46029AC9EB02090B
:1031A000019ACCEB020C039ACAEB020A5FFA89F986
:1031B0005FFA8CFC5FFA8AFA72B61A688A4205D9FD
:1031C0001A68521AB2F5935F00F2E8800568066843
:1031D00045F0200526F020064FF0070E1A688A42B7
:1031E000FCD339680560220601F1780100F1958071
:1031F0001A688A1A682AFBD86400BEF1010E0660BC
:10320000E4B2EBD11A689142FCD839680560240613
:1032100001F1780100F18B801A688A1A682AFBD8BC
:10322000066098F800403CB184FA59F4069AE4B27A
:1032300004FB02F4C4F307244FF0070E1A6891420E
:10324000FCD839680560220601F1780179D41A6842
:103250008A1A682AFBD86400BEF1010E0660E4B247
:10326000ECD11A689142FCD839680560240601F156
:1032700078016FD41A688A1A682AFBD8066098F811
:1032800002403CB184FA5AF4079AE4B204FB02F417
:10329000C4F307244FF0070E1A688A42FCD339683A
:1032A0000560220601F178015DD41A688A1A682A3D
:1032B000FBD86400BEF1010E0660E4B2ECD11A68DE
:1032C0009142FCD839680560240601F1780153D495
:1032D0001A688A1A682AFBD8049A066090440BF18F
:1032E000FF3B98F801403CB184FA5CF4059AE4B2E3
:1032F00002FB04F4C4F3072462B6BBF1000F7FF4B1
:103300004CAF62B6234B1B68002B48D005F0D2F9B6
:10331000099B18840BB0BDE8F08F1A688A1A2C2A12
:103320007FF66AAF1A688A1A2C2AF6D864E71A68F8
:103330008A1A2C2A7FF674AF1A688A1A2C2AF6D8B1
:103340006EE71A688A1A2C2A85D91A688A1A2C2AD2
:10335000F7D880E71A688A1A2C2A8FD91A688A1A2D
:103360002C2AF7D88AE71A688A1A2C2AA1D91A684F
:103370008A1A2C2AF7D89CE71A688A1A2C2AABD901
:103380001A688A1A2C2AF7D8A6E700BFFCED00E0DD
:10339000001000E0041000E0C0F00F4062B662B61A
:1033A0004FF4C863013BFDD172B6089FA54AF97B73
:1033B00013687E7C02913C46397C94F915E0089CA8
:1033C000A1487D7B019143F08073D7F8008097F886
:1033D0000CA097F80E900396F97CBE7CCDF810E017
:1033E0003F7DD4F804B013600268984C984B42F0CB
:1033F00001020260002222601A681A6822F020028C
:103400001A60019B98F801405D1B5FFA85FC002C57
:1034100000F0128184FA5CF4E3B24A1C02FB03F36D
:103420000592C3F3072472B6884B1968BBF1000FED
:1034300001F1780140F3BA80721C069284487A1C2C
:1034400007921F46029ACAEB020A019ACCEB020CC1
:10345000039AC9EB02095FFA8AFA5FFA8CFC5FFAF9
:1034600089F972B61A688A4205D91A68521AB2F5F1
:10347000935F00F2E4800668056846F0200625F0B8
:1034800020054FF0070E1A688A42FCD3396806609F
:10349000220601F1780100F18D801A688A1A682AE3
:1034A000FBD86400BEF1010E0560E4B2EBD11A68EE
:1034B0009142FCD839680660240601F1780100F1D8
:1034C00083801A688A1A682AFBD8056098F8004039
:1034D0003CB184FA5AF4069AE4B204FB02F4C4F351
:1034E00007244FF0070E1A688A42FCD33968066039
:1034F000220601F1780171D41A688A1A682AFBD869
:103500006400BEF1010E0560E4B2ECD11A6891428C
:10351000FCD839680660240601F1780167D41A687E
:103520008A1A682AFBD8056098F802403CB184FAF0
:1035300059F4079AE4B204FB02F4C4F307244FF0F1
:10354000070E1A688A42FCD339680660220601F128
:10355000780155D41A688A1A682AFBD86400BEF12B
:10356000010E0560E4B2ECD11A689142FCD83968CA
:103570000660220601F178014BD41A688A1A682A7B
:10358000FBD8049A056090440BF1FF3B98F801408A
:103590003CB184FA5CF4059AE4B202FB04F4C4F38F
:1035A000072462B6BBF1000F7FF44CAF62B6274B25
:1035B0001B68ABE61A688A1A2C2A7FF672AF1A6863
:1035C0008A1A2C2AF6D86CE71A688A1A2C2A7FF6EF
:1035D0007CAF1A688A1A2C2AF6D876E71A688A1AF3
:1035E0002C2A8DD91A688A1A2C2AF7D888E71A68E3
:1035F0008A1A2C2A97D91A688A1A2C2AF7D892E79D
:103600001A688A1A2C2AA9D91A688A1A2C2AF7D871
:10361000A4E71A688A1A2C2AB3D91A688A1A2C2A9B
:10362000F7D8AEE784FA5CF4E3B26A1C02FB03F35A
:103630000592C3F30724A0E54B1C0593F3E662B69D
:1036400064E600BFFCED00E0001000E0041000E0C4
:10365000C0F00F402DE9F04F8BB00446099008915F
:1036600005F028F8238CC01A83B2312BF8D9089CB6
:103670009E4AE07B13680290207C657C0190204686
:10368000667BD4F8008094F80C9094F80EA0039513
:10369000A77CE57C94F814E0954994F915400494CE
:1036A00043F08073D0F804B013600A689148924BDD
:1036B00042F001020A60002202601A681A6801984A
:1036C00022F010021A6098F80140861B5FFA86FC0F
:1036D000002C40F057826B1C059372B6854B19681D
:1036E000BBF1000F01F1780140F3BB807A1C069218
:1036F00081480EF1010207921F46029AC9EB0209A6
:10370000019ACCEB020C039ACAEB020A5FFA89F920
:103710005FFA8CFC5FFA8AFA72B61A688A4205D997
:103720001A68521AB2F5935F00F2E88005680668DD
:1037300045F0100526F010064FF0070E1A688A4271
:10374000FCD339680560220601F1780100F195800B
:103750001A688A1A682AFBD86400BEF1010E066056
:10376000E4B2EBD11A689142FCD8396805602406AE
:1037700001F1780100F18B801A688A1A682AFBD857
:10378000066098F800403CB184FA59F4069AE4B215
:1037900004FB02F4C4F307244FF0070E1A689142A9
:1037A000FCD839680560220601F1780179D41A68DD
:1037B0008A1A682AFBD86400BEF1010E0660E4B2E2
:1037C000ECD11A689142FCD839680560240601F1F1
:1037D00078016FD41A688A1A682AFBD8066098F8AC
:1037E00002403CB184FA5AF4079AE4B204FB02F4B2
:1037F000C4F307244FF0070E1A688A42FCD33968D5
:103800000560220601F178015DD41A688A1A682AD7
:10381000FBD86400BEF1010E0660E4B2ECD11A6878
:103820009142FCD839680560240601F1780153D42F
:103830001A688A1A682AFBD8049A066090440BF129
:10384000FF3B98F801403CB184FA5CF4059AE4B27D
:1038500002FB04F4C4F3072462B6BBF1000F7FF44B
:103860004CAF62B6234B1B68002B48D004F022FFFC
:10387000099B18840BB0BDE8F08F1A688A1A2C2AAD
:103880007FF66AAF1A688A1A2C2AF6D864E71A6893
:103890008A1A2C2A7FF674AF1A688A1A2C2AF6D84C
:1038A0006EE71A688A1A2C2A85D91A688A1A2C2A6D
:1038B000F7D880E71A688A1A2C2A8FD91A688A1AC8
:1038C0002C2AF7D88AE71A688A1A2C2AA1D91A68EA
:1038D0008A1A2C2AF7D89CE71A688A1A2C2AABD99C
:1038E0001A688A1A2C2AF7D8A6E700BFFCED00E078
:1038F000001000E0041000E0C0F00F4062B662B6B5
:103900004FF4C863013BFDD172B6089FA54AF97B0D
:1039100013687E7C02913C46397C94F915E0089C42
:10392000A1487D7B019143F08073D7F8008097F820
:103930000CA097F80E900396F97CBE7CCDF810E0B1
:103940003F7DD4F804B013600268984C984B42F065
:1039500001020260002222601A681A6822F0100236
:103960001A60019B98F801405D1B5FFA85FC002CF2
:1039700000F0128184FA5CF4E3B24A1C02FB03F308
:103980000592C3F3072472B6884B1968BBF1000F88
:1039900001F1780140F3BA80721C069284487A1CC7
:1039A00007921F46029ACAEB020A019ACCEB020C5C
:1039B000039AC9EB02095FFA8AFA5FFA8CFC5FFA94
:1039C00089F972B61A688A4205D91A68521AB2F58C
:1039D000935F00F2E4800668056846F0100625F063
:1039E00010054FF0070E1A688A42FCD3396806604A
:1039F000220601F1780100F18D801A688A1A682A7E
:103A0000FBD86400BEF1010E0560E4B2EBD11A6888
:103A10009142FCD839680660240601F1780100F172
:103A200083801A688A1A682AFBD8056098F80040D3
:103A30003CB184FA5AF4069AE4B204FB02F4C4F3EB
:103A400007244FF0070E1A688A42FCD339680660D3
:103A5000220601F1780171D41A688A1A682AFBD803
:103A60006400BEF1010E0560E4B2ECD11A68914227
:103A7000FCD839680660240601F1780167D41A6819
:103A80008A1A682AFBD8056098F802403CB184FA8B
:103A900059F4079AE4B204FB02F4C4F307244FF08C
:103AA000070E1A688A42FCD339680660220601F1C3
:103AB000780155D41A688A1A682AFBD86400BEF1C6
:103AC000010E0560E4B2ECD11A689142FCD8396865
:103AD0000660220601F178014BD41A688A1A682A16
:103AE000FBD8049A056090440BF1FF3B98F8014025
:103AF0003CB184FA5CF4059AE4B202FB04F4C4F32A
:103B0000072462B6BBF1000F7FF44CAF62B6274BBF
:103B10001B68ABE61A688A1A2C2A7FF672AF1A68FD
:103B20008A1A2C2AF6D86CE71A688A1A2C2A7FF689
:103B30007CAF1A688A1A2C2AF6D876E71A688A1A8D
:103B40002C2A8DD91A688A1A2C2AF7D888E71A687D
:103B50008A1A2C2A97D91A688A1A2C2AF7D892E737
:103B60001A688A1A2C2AA9D91A688A1A2C2AF7D80C
:103B7000A4E71A688A1A2C2AB3D91A688A1A2C2A36
:103B8000F7D8AEE784FA5CF4E3B26A1C02FB03F3F5
:103B90000592C3F30724A0E54B1C0593F3E662B638
:103BA00064E600BFFCED00E0001000E0041000E05F
:103BB000C0F00F402DE9F04F8BB0044609900891FA
:103BC00004F078FD238CC01A83B2312BF8D9089CFD
:103BD0009E4AE07B13680290207C657C0190204621
:103BE000667BD4F8008094F80C9094F80EA00395AE
:103BF000A77CE57C94F814E0954994F91540049469
:103C000043F08073D0F804B013600A689148924B77
:103C100042F001020A60002202601A681A680198E4
:103C200022F008021A6098F80140861B5FFA86FCB1
:103C3000002C40F057826B1C059372B6854B1968B7
:103C4000BBF1000F01F1780140F3BB807A1C0692B2
:103C500081480EF1010207921F46029AC9EB020940
:103C6000019ACCEB020C039ACAEB020A5FFA89F9BB
:103C70005FFA8CFC5FFA8AFA72B61A688A4205D932
:103C80001A68521AB2F5935F00F2E8800568066878
:103C900045F0080526F008064FF0070E1A688A421C
:103CA000FCD339680560220601F1780100F19580A6
:103CB0001A688A1A682AFBD86400BEF1010E0660F1
:103CC000E4B2EBD11A689142FCD839680560240649
:103CD00001F1780100F18B801A688A1A682AFBD8F2
:103CE000066098F800403CB184FA59F4069AE4B2B0
:103CF00004FB02F4C4F307244FF0070E1A68914244
:103D0000FCD839680560220601F1780179D41A6877
:103D10008A1A682AFBD86400BEF1010E0660E4B27C
:103D2000ECD11A689142FCD839680560240601F18B
:103D300078016FD41A688A1A682AFBD8066098F846
:103D400002403CB184FA5AF4079AE4B204FB02F44C
:103D5000C4F307244FF0070E1A688A42FCD339686F
:103D60000560220601F178015DD41A688A1A682A72
:103D7000FBD86400BEF1010E0660E4B2ECD11A6813
:103D80009142FCD839680560240601F1780153D4CA
:103D90001A688A1A682AFBD8049A066090440BF1C4
:103DA000FF3B98F801403CB184FA5CF4059AE4B218
:103DB00002FB04F4C4F3072462B6BBF1000F7FF4E6
:103DC0004CAF62B6234B1B68002B48D004F072FC4A
:103DD000099B18840BB0BDE8F08F1A688A1A2C2A48
:103DE0007FF66AAF1A688A1A2C2AF6D864E71A682E
:103DF0008A1A2C2A7FF674AF1A688A1A2C2AF6D8E7
:103E00006EE71A688A1A2C2A85D91A688A1A2C2A07
:103E1000F7D880E71A688A1A2C2A8FD91A688A1A62
:103E20002C2AF7D88AE71A688A1A2C2AA1D91A6884
:103E30008A1A2C2AF7D89CE71A688A1A2C2AABD936
:103E40001A688A1A2C2AF7D8A6E700BFFCED00E012
:103E5000001000E0041000E0C0F00F4062B662B64F
:103E60004FF4C863013BFDD172B6089FA54AF97BA8
:103E700013687E7C02913C46397C94F915E0089CDD
:103E8000A1487D7B019143F08073D7F8008097F8BB
:103E90000CA097F80E900396F97CBE7CCDF810E04C
:103EA0003F7DD4F804B013600268984C984B42F000
:103EB00001020260002222601A681A6822F00802D9
:103EC0001A60019B98F801405D1B5FFA85FC002C8D
:103ED00000F0128184FA5CF4E3B24A1C02FB03F3A3
:103EE0000592C3F3072472B6884B1968BBF1000F23
:103EF00001F1780140F3BA80721C069284487A1C62
:103F000007921F46029ACAEB020A019ACCEB020CF6
:103F1000039AC9EB02095FFA8AFA5FFA8CFC5FFA2E
:103F200089F972B61A688A4205D91A68521AB2F526
:103F3000935F00F2E4800668056846F0080625F005
:103F400008054FF0070E1A688A42FCD339680660EC
:103F5000220601F1780100F18D801A688A1A682A18
:103F6000FBD86400BEF1010E0560E4B2EBD11A6823
:103F70009142FCD839680660240601F1780100F10D
:103F800083801A688A1A682AFBD8056098F800406E
:103F90003CB184FA5AF4069AE4B204FB02F4C4F386
:103FA00007244FF0070E1A688A42FCD3396806606E
:103FB000220601F1780171D41A688A1A682AFBD89E
:103FC0006400BEF1010E0560E4B2ECD11A689142C2
:103FD000FCD839680660240601F1780167D41A68B4
:103FE0008A1A682AFBD8056098F802403CB184FA26
:103FF00059F4079AE4B204FB02F4C4F307244FF027
:10400000070E1A688A42FCD339680660220601F15D
:10401000780155D41A688A1A682AFBD86400BEF160
:10402000010E0560E4B2ECD11A689142FCD83968FF
:104030000660220601F178014BD41A688A1A682AB0
:10404000FBD8049A056090440BF1FF3B98F80140BF
:104050003CB184FA5CF4059AE4B202FB04F4C4F3C4
:10406000072462B6BBF1000F7FF44CAF62B6274B5A
:104070001B68ABE61A688A1A2C2A7FF672AF1A6898
:104080008A1A2C2AF6D86CE71A688A1A2C2A7FF624
:104090007CAF1A688A1A2C2AF6D876E71A688A1A28
:1040A0002C2A8DD91A688A1A2C2AF7D888E71A6818
:1040B0008A1A2C2A97D91A688A1A2C2AF7D892E7D2
:1040C0001A688A1A2C2AA9D91A688A1A2C2AF7D8A7
:1040D000A4E71A688A1A2C2AB3D91A688A1A2C2AD1
:1040E000F7D8AEE784FA5CF4E3B26A1C02FB03F390
:1040F0000592C3F30724A0E54B1C0593F3E662B6D3
:1041000064E600BFFCED00E0001000E0041000E0F9
:10411000C0F00F402DE9F04F8BB004460990089194
:1041200004F0C8FA238CC01A83B2312BF8D9089C4A
:104130009E4AE07B13680290207C657C01902046BB
:10414000667BD4F8008094F80C9094F80EA0039548
:10415000A77CE57C94F814E0954994F91540049403
:1041600043F08073D0F804B013600A689148924B12
:1041700042F001020A60002202601A681A6801987F
:1041800022F004021A6098F80140861B5FFA86FC50
:10419000002C40F057826B1C059372B6854B196852
:1041A000BBF1000F01F1780140F3BB807A1C06924D
:1041B00081480EF1010207921F46029AC9EB0209DB
:1041C000019ACCEB020C039ACAEB020A5FFA89F956
:1041D0005FFA8CFC5FFA8AFA72B61A688A4205D9CD
:1041E0001A68521AB2F5935F00F2E8800568066813
:1041F00045F0040526F004064FF0070E1A688A42BF
:10420000FCD339680560220601F1780100F1958040
:104210001A688A1A682AFBD86400BEF1010E06608B
:10422000E4B2EBD11A689142FCD8396805602406E3
:1042300001F1780100F18B801A688A1A682AFBD88C
:10424000066098F800403CB184FA59F4069AE4B24A
:1042500004FB02F4C4F307244FF0070E1A689142DE
:10426000FCD839680560220601F1780179D41A6812
:104270008A1A682AFBD86400BEF1010E0660E4B217
:10428000ECD11A689142FCD839680560240601F126
:1042900078016FD41A688A1A682AFBD8066098F8E1
:1042A00002403CB184FA5AF4079AE4B204FB02F4E7
:1042B000C4F307244FF0070E1A688A42FCD339680A
:1042C0000560220601F178015DD41A688A1A682A0D
:1042D000FBD86400BEF1010E0660E4B2ECD11A68AE
:1042E0009142FCD839680560240601F1780153D465
:1042F0001A688A1A682AFBD8049A066090440BF15F
:10430000FF3B98F801403CB184FA5CF4059AE4B2B2
:1043100002FB04F4C4F3072462B6BBF1000F7FF480
:104320004CAF62B6234B1B68002B48D004F0C2F997
:10433000099B18840BB0BDE8F08F1A688A1A2C2AE2
:104340007FF66AAF1A688A1A2C2AF6D864E71A68C8
:104350008A1A2C2A7FF674AF1A688A1A2C2AF6D881
:104360006EE71A688A1A2C2A85D91A688A1A2C2AA2
:10437000F7D880E71A688A1A2C2A8FD91A688A1AFD
:104380002C2AF7D88AE71A688A1A2C2AA1D91A681F
:104390008A1A2C2AF7D89CE71A688A1A2C2AABD9D1
:1043A0001A688A1A2C2AF7D8A6E700BFFCED00E0AD
:1043B000001000E0041000E0C0F00F4062B662B6EA
:1043C0004FF4C863013BFDD172B6089FA54AF97B43
:1043D00013687E7C02913C46397C94F915E0089C78
:1043E000A1487D7B019143F08073D7F8008097F856
:1043F0000CA097F80E900396F97CBE7CCDF810E0E7
:104400003F7DD4F804B013600268984C984B42F09A
:1044100001020260002222601A681A6822F0040277
:104420001A60019B98F801405D1B5FFA85FC002C27
:1044300000F0128184FA5CF4E3B24A1C02FB03F33D
:104440000592C3F3072472B6884B1968BBF1000FBD
:1044500001F1780140F3BA80721C069284487A1CFC
:1044600007921F46029ACAEB020A019ACCEB020C91
:10447000039AC9EB02095FFA8AFA5FFA8CFC5FFAC9
:1044800089F972B61A688A4205D91A68521AB2F5C1
:10449000935F00F2E4800668056846F0040625F0A4
:1044A00004054FF0070E1A688A42FCD3396806608B
:1044B000220601F1780100F18D801A688A1A682AB3
:1044C000FBD86400BEF1010E0560E4B2EBD11A68BE
:1044D0009142FCD839680660240601F1780100F1A8
:1044E00083801A688A1A682AFBD8056098F8004009
:1044F0003CB184FA5AF4069AE4B204FB02F4C4F321
:1045000007244FF0070E1A688A42FCD33968066008
:10451000220601F1780171D41A688A1A682AFBD838
:104520006400BEF1010E0560E4B2ECD11A6891425C
:10453000FCD839680660240601F1780167D41A684E
:104540008A1A682AFBD8056098F802403CB184FAC0
:1045500059F4079AE4B204FB02F4C4F307244FF0C1
:10456000070E1A688A42FCD339680660220601F1F8
:10457000780155D41A688A1A682AFBD86400BEF1FB
:10458000010E0560E4B2ECD11A689142FCD839689A
:104590000660220601F178014BD41A688A1A682A4B
:1045A000FBD8049A056090440BF1FF3B98F801405A
:1045B0003CB184FA5CF4059AE4B202FB04F4C4F35F
:1045C000072462B6BBF1000F7FF44CAF62B6274BF5
:1045D0001B68ABE61A688A1A2C2A7FF672AF1A6833
:1045E0008A1A2C2AF6D86CE71A688A1A2C2A7FF6BF
:1045F0007CAF1A688A1A2C2AF6D876E71A688A1AC3
:104600002C2A8DD91A688A1A2C2AF7D888E71A68B2
:104610008A1A2C2A97D91A688A1A2C2AF7D892E76C
:104620001A688A1A2C2AA9D91A688A1A2C2AF7D841
:10463000A4E71A688A1A2C2AB3D91A688A1A2C2A6B
:10464000F7D8AEE784FA5CF4E3B26A1C02FB03F32A
:104650000592C3F30724A0E54B1C0593F3E662B66D
:1046600064E600BFFCED00E0001000E0041000E094
:10467000C0F00F40F8B5002303800446482003F043
:10468000E5FE0546492003F0E1FE00EB052083B27C
:1046900040F2B572934210D8234A13806BB1234F76
:1046A000013B17FA83F67D1EC7F14B07781903F01B
:1046B000CDFE05F8010FB542F8D140250026284669
:1046C00003F0C4FE0135482D0644F8D11C2E0ED04F
:1046D000174B1849186801F079FD4025A5F14001F4
:1046E0002846C9B2013503F0CBFE482DF6D1124E53
:1046F0004025284603F0AAFE0135482D06F8010F93
:10470000F7D1204604F5C072002303714371837111
:1047100003308242F9D1094C206800F0B7FE2068CE
:10472000BDE8F84000F0CABE28A0FF1F38A0FF1F58
:104730003096FF1FD04001002FA0FF1F2CA0FF1FAD
:10474000AE490A68F8B5002312F001060546038059
:104750004380C0F8843180F8283200F1040400F06E
:104760009A80102300222146A548FBF7D5FFA54AD1
:104770001368B026F021FF27467313F001068173FA
:10478000077300F0B38110231A4621469E48FBF7B9
:10479000C3FF9E4A1368B026F021FF27467313F02B
:1047A00001068173077300F07E81102320222146C9
:1047B0009748FBF7B1FF974A1368B026F021FF270F
:1047C000467313F001068173077300F049811023CB
:1047D000302221469048FBF79FFF904A1368B0268D
:1047E000F021FF27467313F001068173077300F071
:1047F000E1801023402221468948FBF78DFF894A3A
:104800001368B026F021FF27467313F00106817369
:10481000077300F0AB801023502221468248FBF73B
:104820007BFF824A1368B026F021FF27467313F0FE
:1048300001068173077376D01023602221467C48DD
:10484000FBF76AFF7B4A1368B026F021FF27467307
:1048500013F001068173077342D0214610237022A2
:104860007548FBF759FFB022F023FF214273837391
:104870000173B82005F0B0FA2146064600F0AEFEFE
:104880006E4B28461E60FFF7F5FE6D480178FBF77A
:1048900095FF2846F8BD084603F068FE00283FF45F
:1048A00060AF6849564A08685660FF230127566181
:1048B00096609774137353739373D3731374537411
:1048C000002800F03781604B196801B18A6000262A
:1048D0005E494A4816841A60116003F04DFE40E7B5
:1048E000104603F043FE0028B7D0564B524A1968D1
:1048F00056600120177357739773D77317745774E3
:10490000566196609074002900F016814E4B19682C
:1049100001B18A6000264E49464816841A6011602B
:1049200003F02AFE99E7104603F020FE002883D00A
:10493000444B3F4A196856600120177357739773A9
:10494000D77317745774566196609074002900F0FD
:10495000F5803D4B196801B18A6000263D49334816
:1049600016841A60116003F007FE65E7104603F035
:10497000FDFD00283FF44FAF324B2B4A19685660BB
:104980000120177357739773D77317745774566151
:1049900096609074002900F0D3802B4B196801B108
:1049A0008A6000262C491F4816841A60116003F0A3
:1049B000E3FD30E7104603F0D9FD00283FF419AFBE
:1049C000204B174A19685660012017735773977365
:1049D000D77317745774566196609074002900F06D
:1049E000B180194B196801B18A6000261B490B4838
:1049F00016841A60116003F0BFFDFAE600A0FF1FE5
:104A000004A0FF1FD89FFF1FDC9FFF1FB09FFF1F49
:104A1000B49FFF1F889FFF1F8C9FFF1F609FFF1F7A
:104A2000649FFF1F389FFF1F3C9FFF1F109FFF1FAA
:104A3000149FFF1FE89EFF1FEC9EFF1F2CA0FF1F6F
:104A40004096FF1F5096FF1F6096FF1FB83F010062
:104A5000B4400100904001006C400100484001005A
:104A6000104603F083FD00283FF4B1AE384B394ABD
:104A7000196856600120177357739773D7731774AB
:104A8000577456619660907400295DD0324B196856
:104A900001B18A6000263149314816841A601160DC
:104AA00003F06AFD93E6104603F060FD00283FF432
:104AB0007CAE274B2B4A1968566001201773577339
:104AC0009773D77317745774566196609074002962
:104AD0003CD0214B196801B18A6000262249234845
:104AE00016841A60116003F047FD5EE6104603F07D
:104AF0003DFD00283FF447AE154B1D4A196856602E
:104B00000120177357739773D773177457745661CF
:104B10009660907461B1104B196801B18A600026EB
:104B20001449154816841A60116003F025FD2AE621
:104B30001A60F0E70A60C6E61A60E7E61A6008E75E
:104B40001A602AE71A604CE71A609FE71A60C0E70C
:104B50005096FF1F8C9FFF1F6096FF1F244001008F
:104B6000889FFF1FB49FFF1F00400100B09FFF1FE1
:104B7000DC9FFF1FDC3F0100D89FFF1F00B50139FC
:104B800083B0612900F2A280DFE801F09B9691A03A
:104B9000A0A0A0A0A0A0A0A0A0A0A08C87827DA083
:104BA000A0A0A0A0A0A0A0A0A0A0A07873A0A0A05A
:104BB000A0A0A0A0A0A0A0A0A0A0A06C67625D582B
:104BC000A0A0A0A0A0A0A0A0A0A0A0524DA0A0A086
:104BD000A0A0A0A0A0A0A0A0A0A0A046A0A0A0A02F
:104BE000A0A0A0A0A0A0A0A0A0A0A03D3831384BBC
:104BF0001B68B3F97A0303B05DF804FB344B1B6800
:104C0000B3F97803F7E7334B33481B680193019BF3
:104C1000A0FB03308009EEE72D4B1B68B3F9EC02D3
:104C200020EAE070E7E72A4B1B68B3F8AC02E2E742
:104C3000274B1B6893F8AA02C011DCE7244B1B68C2
:104C4000D3F86803D7E7224B1B68D3F8CC02D2E72E
:104C50001F4B1B68D3F8DC02CDE71D4B1B68B3F874
:104C60006E03C8E71A4B1B68D3F8E40209F01AF880
:104C7000C1E7174B1B6893F8BD02BCE7144B1B68D8
:104C8000B3F8D002B7E7124B1B68D3F87403B2E74E
:104C90000F4B1B6893F9B402ADE70D4B1B68B3F8DB
:104CA0005A03A8E70A4B1B68B3F85C03A3E7084B59
:104CB0001B6893F858039EE7054B1B68B3F856032F
:104CC00099E7034B1B68B3F8540394E7002092E77D
:104CD0003C96FF1F68B1FF1FD34D62102DE9F041D4
:104CE0000388354A5C1CA4B29F1C0480BFB2DE1C42
:104CF000D15C0780B6B21D1D145D0680ADB2D75DD4
:104D0000058012F806C003F1050E1FFA8EF6068024
:104D10000633BCF1080F555D038001D8132901D972
:104D2000BDE8F0812548264B12F80680006813F88C
:104D30000C6000F0A5FB23463C1BC5EB0802002CD1
:104D4000B8BF6442002AB8BF524294422946E7D114
:104D500045458CBF4FF0FF320122BB4214D29F4227
:104D600004DADDE701339F42114420DB9F2B00EB87
:104D70000304F7DC667384F8AD10047B9C4203F1F6
:104D80000103D8BF0373EEE79F4212DC9F2B00EBB9
:104D9000030407DC667384F8AD10047B9C42DCBF1F
:104DA0005C1C0473013B9F421144EFDDB8E7BDE892
:104DB000F081BDE8F08100BF38A0FF1F2CA0FF1FCD
:104DC00030A0FF1F10B50388084A094912685C1C0F
:104DD0000480C95C92F8B6308B4200D810BD1046F2
:104DE00000F04EFBBDE8104000F016BC2CA0FF1FE9
:104DF00038A0FF1F0388114AF0B55D1CADB29C1CA2
:104E00000580A4B2D91CD75C048089B21E1D12F89B
:104E100005E00180B5B2145D05800533072F515CB4
:104E2000038009D8535D240444EA0E641C436237AE
:104E300044EA012440F82740F0BD00BF38A0FF1F1E
:104E4000038870B5591C084E89B20180F55C0233A5
:104E5000072D038006D8715C0446FFF78FFE62358C
:104E600044F8250070BD00BF38A0FF1F10B50388AF
:104E70000B4A0C4912685C1C0480C95C92F8B6307D
:104E80008B4200D810BD0446104600F0F9FAD4F861
:104E9000882161888068BDE8104000F047BC00BFF1
:104EA0002CA0FF1F38A0FF1F30B503880F4A104900
:104EB00012685C1C0480C95C92F8B6308B4283B0E7
:104EC00011D90446104600F0DBFAD4F88C31D4F83E
:104ED00088216188D4F89451D4F8904180688DE895
:104EE000300000F075FC03B030BD00BF2CA0FF1FE8
:104EF00038A0FF1F30B503880F4A104912685C1CA8
:104F00000480C95C92F8B6308B4283B011D9044654
:104F1000104600F0B5FAD4F88C31D4F888216188B5
:104F200094F89451D4F8904180688DE8300000F0F6
:104F3000AFFC03B030BD00BF2CA0FF1F38A0FF1F87
:104F400010B503880D4A0E4912685C1C0480C95CC8
:104F500092F8B6308B4282B00ED90446104600F06B
:104F60008FFAD4F88C31D4F888216188D4F8904134
:104F70008068009400F0ECFC02B010BD2CA0FF1F74
:104F800038A0FF1F10B503880C4A0D4912685C1C3D
:104F90000480C95C92F8B6308B4200D810BD04463C
:104FA000104600F06DFA94F88C31D4F888216188AD
:104FB0008068BDE8104000F029BD00BF2CA0FF1F95
:104FC00038A0FF1F70B50388134A144912685C1C8F
:104FD0000480C95C92F8B6308B4282B019D904467D
:104FE000104600F04DFAD4F89031D4F88C61D4F822
:104FF0009451D4F88821618894F89841806800948D
:10500000F61A642404FB06F4EB1AB4FBF3F300F085
:1050100051FD02B070BD00BF2CA0FF1F38A0FF1FC4
:1050200010B503880A4A0B4912685C1C0480C95CED
:1050300092F8B6308B4200D810BD0446104600F0FE
:105040001FFA618880680022BDE8104000F06EBB46
:105050002CA0FF1F38A0FF1F30B503880F4A10494E
:1050600012685C1C0480C95C92F8B6308B4283B035
:1050700011D90446104600F003FAD4F88C31D4F864
:105080008821618894F89451D4F8904180688DE823
:10509000300000F077FD03B030BD00BF2CA0FF1F33
:1050A00038A0FF1F30B50188A04D41804B1C9BB23A
:1050B00003806A5C541E4B2C00F2A781DFE814F0D9
:1050C000A1019D0192018E018301A501A50170013D
:1050D0005D01480143013A01280117010A0103015A
:1050E000FC00F500EE00E400DA00A501A501A50131
:1050F000A501A501A501A501A501A501A501D60050
:10510000D200CC00C600A501A501A501A501A501FD
:10511000A501A501A501A501A501A501A501C20043
:10512000BE00BA00B600B200AE00AA00A600A501FB
:10513000A501A501A501A501A501A501A501A00045
:105140009A0094008E008800A501A501A5017C00AD
:105150007000640058004C008A1C92B20280033137
:10516000EC5C0180AB5C43EA0423C0F8983130BDAD
:105170008A1C92B202800331EC5C0180AB5C43EA92
:105180000423C0F8943130BD8A1C92B202800331EE
:10519000EC5C0180AB5C43EA0423C0F8903130BD85
:1051A0008A1C92B202800331EC5C0180AB5C43EA62
:1051B0000423C0F88C3130BD8A1C92B202800331C6
:1051C000EC5C0180AB5C43EA0423C0F8883130BD5D
:1051D00002310180EB5CC0F8983130BD02310180B2
:1051E000EB5CC0F8943130BD02310180EB5CC0F85B
:1051F000903130BD02310180EB5CC0F88C3130BDA4
:1052000002310180EB5CC0F8883130BDBDE8304030
:10521000FFF722BFBDE83040FFF702BFBDE83040D6
:10522000FFF78EBEBDE83040FFF7CCBEBDE8304092
:10523000FFF7A8BEBDE83040FFF75CBEBDE83040D8
:10524000FFF732BEBDE83040FFF710BE384BBDE877
:105250003040186800F03EB9354BBDE83040186862
:1052600000F014B9BDE83040FFF7ACBDBDE83040F8
:10527000FFF734BDD0F88821D0F88C319A4209D399
:105280000123C0F8883130BDD0F88821D0F88C31A6
:105290009A42F5D80023C0F8883130BDD0F8882173
:1052A000D0F88C319A42EBD9F4E7D0F88821D0F8C5
:1052B0008C319A42E4D3EDE7D0F88821D0F88C31D4
:1052C0009A42DDD1E6E7D0F88821D0F88C319A42B5
:1052D000E0D1D5E78A1C92B20331028089B2EB5C3F
:1052E0000180AA5C42EA03230B44038030BD8A1C80
:1052F00092B20331D0F88841028089B2ED5C0B4B49
:1053000001808CB19B5C43EA05231944018030BDC8
:105310008A1C92B20331D0F88841028089B2ED5CD8
:10532000024B0180002CEDD030BD00BF38A0FF1F24
:105330002CA0FF1FD0F88831002BABD0D0F88C31D7
:10534000002B9DD1A6E7D0F88831002BF6D097E747
:1053500002310180EA5C072AE6D890F82832002B57
:10536000E2D0013BDBB203F16A0180F828326232FD
:1053700050F8213040F8223030BD02310180EB5C22
:10538000072BD1D890F828221F2ACDD8511C623380
:1053900080F828126A3250F8233040F8223030BDAD
:1053A0008A1C92B20280EB5C1C4C0331072B0180FB
:1053B000BAD8A25C072AB7D86233623250F82330D9
:1053C00040F8223030BD8A1C92B202800331EC5C7E
:1053D0000180AB5C43EA0423038030BD0A23C0F89C
:1053E000843130BD02310180EB5C072B9CD86233E5
:1053F00050F82330C0F8843130BDBDE83040FFF7AD
:105400001FBDBDE83040FFF7F5BC0549086800281E
:105410008AD00449BDE8304000F0D8BE38A0FF1F54
:105420003096FF1FEC40010001480178FBF7C6B938
:105430004096FF1F38B5D0F88431052B044610DCA8
:105440000C4D02882B889A4204D30DE022882B88C9
:105450009A4209D22046FFF725FED4F88431052B65
:10546000F4DD0A3BC4F88431034B1868BDE83840CA
:1054700000F03CB828A0FF1F2CA0FF1F02F09EBF29
:10548000132994BF50F8210000207047F0B4FF2189
:10549000051F00F14C06002755F8044F04F1AC003D
:1054A000024604F10C0303F8011F834202F8011FB6
:1054B000F9D1B5422773EFD1F0BC704738B5041F5E
:1054C00000F14C0554F8043F986800F00BF9AC4229
:1054D000F8D138BD38B5041F00F14C0554F8043F2D
:1054E000986800F019F9AC42F8D138BD70B5B0F841
:1054F000B450DDB16C1E00EB45050646503501E0A9
:10550000631C13D035F8023D1A12132A04F1FF343C
:10551000DBB2F5DC132BF3D856F82220926802EBAD
:105520008303586800F08EFB631CEBD170BD00BF95
:1055300070B4B0F8B46042EA012256B3B0F850300B
:1055400093421CD000F15004002303E034F8025FC2
:10555000954218D00133B342F8D1312E19D93223F4
:1055600003F1280400EB4404013B01E0013B023C51
:10557000312BFBD034F8025C2580002BF6D1A0F84B
:10558000502070BC7047DBB2322BE6D0002BE7D145
:10559000F5E70136A0F8B460E1E700BF70B5044656
:1055A000002084E80C00207354200E4604F014FC04
:1055B00022463146054600F069F804F1AC00A560CA
:1055C000014604F10C03FF2203F8012F834201F886
:1055D000012FF9D100232373204670BD2DE9F0413E
:1055E000142300240746884680F8B630A0F8B4405B
:1055F000051F4FF4A87004F0EFFB23463A464146DE
:1056000001340646FFF7CAFF142C45F8046FF0D1A9
:105610003846BDE8F08100BF10B400F1AC0421466B
:1056200000F10C03FF2203F8012FA34201F8012F20
:10563000F9D10023037310BC704700BF03460A462C
:1056400000681979FFF774BF10B50C4C236873B16B
:105650000B4A013382FB0321DA17C2EBA10202EBF2
:105660008202A3EB420323604FF0FF3010BD054BD5
:105670000549186800F0AAFD2368E9E7F0A7FF1FB5
:10568000676666663096FF1F184101002DE9F843F2
:1056900081461646C9F800208846054600F15007A5
:1056A0000024342004F098FB45F8040FBD428481A7
:1056B0008473C4730461047544758461C4610462B5
:1056C000446280F8284080F8294080F82A4080F819
:1056D0002B40C4620463C0F800808660E1D1484674
:1056E000BDE8F88300F15001002250F8043F8842E1
:1056F0005A759A61DA611A62DA625A6283F828206E
:1057000083F82A2083F8292083F82B201A611A7540
:10571000DA739A73E9D1704700F15001002250F812
:10572000043F88429A73FAD1704700BF2DE9F843CD
:10573000964607460546002302E00133142B11D09C
:1057400055F8044FA6898E42F7D1667D012EF4D11B
:10575000A2697245F1D1A673D9B20068BDE8F843D9
:10576000FFF76CBFF0460C468146002357F8041F34
:10577000CD7B45B10133142BF8D1FFF765FF00282D
:1057800004DABDE8F88301221846CA7309EB8001E8
:1057900000264D6801226A75EA73AA7385F82860AD
:1057A00085F82A6085F8296085F82B602E75AC8114
:1057B000C5F81880C1B2D9F80000EE612E62EE6221
:1057C0006E622E632E61BDE8F843FFF737BF00BF5E
:1057D0002DE9F843DDF82080DDF824908646064662
:1057E000002402E00134142C1BD056F8045FAF896A
:1057F0008F42F7D16F7D022FF4D1AF699742F1D17B
:10580000EF699F42EED12F6A4745EBD1EF6A4F45D2
:10581000E8D10123AB73E1B20068BDE8F843FFF7BC
:105820000DBF0E461C461546074600215EF8040FC4
:10583000C37B43B101311429F8D1FFF705FF011EE5
:1058400003DABDE8F8830123C37307EB8103022267
:105850005B6801205A75002283F8282083F82A20EB
:1058600083F8292083F82B201A75D87398739E81AA
:105870009D61DC61C3F82080C3F82C905A621A63E2
:105880001A613868C9B2BDE8F843FFF7D7BE00BF58
:105890002DE9F047DDF820809DF8249086460646E5
:1058A000002402E00134142C1DD056F8045FAF89A7
:1058B0008F42F7D16F7D032FF4D1AF699742F1D1B9
:1058C0006F6A9F42EED195F828704745EAD195F866
:1058D0002B704F45E6D10123AB73E1B20068BDE800
:1058E000F047FFF7ABBE0F461E4615468246002125
:1058F0005EF8044FE37B43B101311429F8D1FFF77F
:10590000A3FE011E03DABDE8F0870123E3730AEB6F
:10591000810300225B680120032483F8288083F838
:105920002B905C7583F82A2083F829201A75D87388
:1059300098739F819D615E62DAF80000DA61C9B2F6
:105940001A62DA621A631A61BDE8F047FFF776BEA1
:105950002DE9F047DDF8208086460646002402E067
:105960000134142C1BD056F8045FAF898F42F7D155
:1059700095F815C0BCF1060FF2D1AF699742EFD18F
:105980006F6A9F42ECD195F828704745E8D1012312
:10599000AB73E1B20068BDE8F047FFF74FBE0C46BD
:1059A00099461746824600215EF8045FEE7B46B1B9
:1059B00001311429F8D1FFF747FE011E03DABDE8D3
:1059C000F0870123EB730AEB810306205B6800225A
:1059D0005875012083F8288083F82A2083F829202D
:1059E00083F82B201A75D87398739C819F61C3F834
:1059F0002490DAF80000DA61C9B21A62DA621A6336
:105A00001A61BDE8F047FFF719BE00BF2DE9F0416C
:105A100086460646002402E00134142C16D056F8BF
:105A2000045FAF898F42F7D16F7D042FF4D16F6A85
:105A30009742F1D195F82A709F42EDD10123AB73C3
:105A4000E1B20068BDE8F041FFF7F8BD06469846B0
:105A500017460C4600205EF8041FCD7B45B101308F
:105A60001428F8D1FFF7F0FD002803DABDE8F08133
:105A70000123CB7306EB800304215D680122002320
:105A8000697585F82A8085F8283085F8293085F8E9
:105A90002B302B75EA73AA73AC816F62C1B2AB6114
:105AA000EB612B62EB622B632B613068BDE8F04148
:105AB000FFF7C4BD2DE9F0410468314D247B9DF80A
:105AC00018704FEA540803FB0483A5FB0338C8F39E
:105AD000471886460546002302E00133142B1AD0EE
