:1000000000800020BD010000258B0000DD8A00007B
:10001000DD8A0000DD8A0000DD8A0000DD8A000044
:10002000DD8A0000DD8A0000DD8A0000258B0000EB
:10003000258B0000DD8A0000258B0000CD8A0000A2
:10004000258B0000258B0000258B0000258B0000F0
:10005000258B0000258B0000258B0000258B0000E0
:10006000258B0000258B0000258B0000258B0000D0
:10007000258B0000258B0000258B0000258B0000C0
:10008000258B0000258B0000258B0000258B0000B0
:10009000258B0000258B0000258B0000258B0000A0
:1000A000258B0000258B0000258B0000258B000090
:1000B000258B0000258B0000258B0000258B000080
:1000C000258B0000258B0000258B0000258B000070
:1000D000258B0000258B0000258B0000258B000060
:1000E000258B0000258B0000258B0000258B000050
:1000F000258B0000A5900000258B0000DD930000FB
:10010000258B0000A9A60000258B0000258B000090
:10011000258B0000258B0000258B0000258B00001F
:10012000258B0000258B0000258B0000258B00000F
:10013000258B0000258B0000258B0000258B0000FF
:10014000258B0000258B0000258B0000258B0000EF
:10015000258B0000258B0000258B0000258B0000DF
:10016000258B000059960000258B0000258B000090
:10017000258B0000258B0000258B0000258B0000BF
:10018000258B0000258B0000258B0000258B0000AF
:10019000258B0000258B0000258B0000258B00009F
:1001A000258B0000258B0000258B0000258B00008F
:1001B000258B0000258B0000258B0000564B4CF250
:1001C000205210B51A804DF628121A8000BF00BFC9
:1001D00008F0ACFC514B4FF010621A60504A9A6024
:1001E000504ADA60504A136813F4807304D14F49BF
:1001F0000B604FF4A85313604D4B1A78110703D5C9
:100200001A7842F008021A704A4B4B492A221A7097
:100210004A4A4B4B8B4204D252F8040F43F8040B6A
:10022000F8E7484B484900228B4202D243F8042B9E
:10023000FAE74649464A002352F8230041F82300D2
:1002400001336F2BF8D1434B434A802103F8011B44
:100250009342FBD1414B3D4A1A60414B8A221A70AE
:10026000A3F5805324225A70A0221A709A7992071B
:10027000FCD59A79D406FCD43A4A937903F00C035E
:10028000082B384BF9D103221A7140225A719A79FE
:100290009006FCD5334A9179324B4906FBD5324A58
:1002A000324911600221516020221A709A7902F0BD
:1002B0000C020C2AFAD12E4B2E4A1A602E4B2F4AD2
:1002C0001A6000225A60072243F8042C2C4AC3F813
:1002D0000C2D62B608F05CFD144B1B68DA0705D5DF
:1002E000284808F0C7FC284B284A1A60284B1B787E
:1002F0005B0609D5244C254B22689A4204D121483B
:1003000008F0B8FC002323600EF002FA08F014FC99
:100310000AF058F8FEE700BF0E2005403080044088
:10032000823F04000100002B10D0034014D0034092
:1003300002D0074000E00740E095FF1F945F0100F6
:100340002087FF1FE095FF1FA4B4FF1F0082FF1F3F
:100350000000000000E400E05FE400E008ED00E0E1
:100360000050064000400640448004400000030165
:1003700004800440C010050014E000E0FF76010096
:10038000000020204A76AB5C1CE00340A5C3945AD1
:1003900000F00740FFFFFFFFFFFFFFFFFFFFFFFF32
:1003A000FFFFFFFFFFFFFFFFFFFFFFFFFFFFFFFF5D
:1003B000FFFFFFFFFFFFFFFFFFFFFFFFFFFFFFFF4D
:1003C000FFFFFFFFFFFFFFFFFFFFFFFFFFFFFFFF3D
:1003D000FFFFFFFFFFFFFFFFFFFFFFFFFFFFFFFF2D
:1003E000FFFFFFFFFFFFFFFFFFFFFFFFFFFFFFFF1D
:1003F000FFFFFFFFFFFFFFFFFFFFFFFFFFFFFFFF0D
:10040000FFFFFFFFFFFFFFFFFFFFFFFFDEF9FFFF23
:1004100010B5054C237833B9044B13B10448AFF33E
:1004200000800123237010BDE095FF1F0000000035
:10043000905F0100084B10B51BB108490848AFF3A5
:1004400000800848036803B910BD074B002BFBD0A0
:10045000BDE81040184700BF00000000E495FF1FF2
:10046000905F0100E095FF1F000000000846114664
:1004700009F026BE09F008BE09F0E0BD09F0BABDDA
:1004800009F0F4BD09F0D0BE09F0AABE084609F093
:100490009BBE00BF70B53B4C84B040F6B8312046DF
:1004A00008F0FAF8204638494FF4E13208F0CEF867
:1004B0002046012108F0A4F860B1606C334903685C
:1004C00011225B68984720460A2108F00BF8204665
:1004D00008F0BAF8012200212A482D4D08F0A4F9AD
:1004E00004AC294B2B489A68197944F8100D1B7BF2
:1004F000029298208DF80C308DF8041009F06AFFF4
:100500002146064605F092FEE0202E6009F062FFCB
:10051000044605F0ABFD204B4FF460701C6009F001
:1005200059FF044606F008FD1C4B74201C6009F0BE
:1005300051FF044600F01AFE194B01201C6009F01F
:1005400049FF044600F0F8F9164B41F288301C6070
:1005500008F0D0FB01210D2008F0A4FB01210C20A4
:1005600008F0A0FB104A1149286805F09BFE4FF4E3
:100570000B7009F02FFF044604F04EF90C4B1C6081
:1005800004B070BD74B1FF1F808BFF1FDC440100FD
:100590003496FF1FBC4401003C96FF1F4496FF1F8A
:1005A0002096FF1F2896FF1FF04401000845010018
:1005B0002496FF1F38B5304C206806F059FDB0FA7C
:1005C00080F20546520901212C4800F07FFB05BB53
:1005D00003212A4800F07EFB0421284800F07AFB22
:1005E0000521264800F076FB0621244800F072FB26
:1005F0000721224800F06EFB214B186800F0E8FD4F
:10060000B0FA80F2520902211C48BDE8384000F0DF
:100610005DBB206806F03CFDB0FA80F25209032170
:10062000164800F053FB206806F042FDB0FA80F255
:1006300052090421114800F049FB206806F048FDEA
:10064000B0FA80F2520905210C4800F03FFB206807
:1006500006F04EFDB0FA80F252090621074800F07C
:1006600035FB206806F054FDB0FA80F252090721EC
:10067000024800F02BFBBFE74496FF1FFC95FF1FCD
:100680002096FF1F70B54A4C84B023680093009BEE
:1006900023B923680193019B012B20D9454D464E78
:1006A000284607F031FF326844499042034608600B
:1006B0005FD39A1AF92A12D94FF4FA712846336097
:1006C00007F02CFF0121284607F09AFF002855D19A
:1006D0003848052107F006FF364807F087FF384DF8
:1006E000236803932868039C07F062F8354B186869
:1006F00001F0B4F8344B186806F0F6FA334B1A6878
:10070000A2422FD9324B1A68A24224D9314B1A681F
:10071000A24209D842F2107204F1640194421960B5
:1007200029D8286806F00EFD2B4B1A68A24210D873
:100730002A4D01210C200A341C6008F0ADFA28680B
:1007400004F0E4FE0C20002108F0A6FA286804F06A
:10075000D7FE04B070BD04F1C80221481A6000F051
:10076000BDFAD3E704F57A7228681A6006F0CEFE67
:10077000C8E73360B3E7FFF71DFFD2E72846012142
:1007800007F0DEFE686C1749036801225B68984732
:10079000236802930299686C00230A2209F02CFE58
:1007A000284607F013FF284607F04EFF90E700BFEA
:1007B000C0B1FF1F74B1FF1F2C96FF1F3096FF1FA3
:1007C0004496FF1F2096FF1F3496FF1F3896FF1F89
:1007D0001896FF1F1C96FF1F4096FF1F2496FF1FB1
:1007E000FC95FF1F1845010008B508F0E5F8024820
:1007F000BDE8084000F062BAFC95FF1F044B1B687F
:10080000B3F85A23B3F85C3302600B60704700BF43
:100810004496FF1FF8B5134C134E2568069CD5F877
:10082000C4720760D5F8C0020860D5F8C81286FB0C
:100830000106C917C1EBA6011160D5F8CC021E460E
:100840000DF04AFB09490DF09BFB09490DF098FB9F
:100850000DF098FD3060D5F8DC22642303FB02F331
:100860002360F8BD4496FF1F67666666C0CFF83FF9
:1008700000002041074B08491B6810B50446D3F817
:10088000D8020DF07DFB05490DF07AFB0DF07AFDE5
:10089000206010BD4496FF1FC0CFF83F00002041EC
:1008A00030B4064B1B68B3F80053B3F80443B3F9F4
:1008B000063305600C60136030BC70474496FF1F20
:1008C000024B1B6893F9B432036070474496FF1FD4
:1008D000064B10B41B68B3F85E43046093F8A8326B
:1008E0000B600023136010BC704700BF4496FF1FCD
:1008F00038B5094B1B6804460D46D3F8E802074992
:100900000DF03EFB0DF018FD054B2860197D1846D3
:1009100000F092F8206038BD4496FF1F0000C842E6
:100920004896FF1F10B50446024800F0A1FB206066
:1009300010BD00BF6096FF1F38B50546012008F0C6
:1009400083F8144C08BB022008F07EF818B1124955
:10095000206800F04BFC2068104900F04BFC206838
:100960000F4900F049FC20680E4900F047FC206860
:100970000D4900F045FC20680C4900F043FC20685C
:100980000B4900F041FC284638BD0A49206800F0B8
:100990002FFCD8E72096FF1FF10800001508000083
:1009A0002509000075080000A1080000C10800002A
:1009B000D1080000FD07000008B5064800F0B0F8B7
:1009C0000121084608F05AF801210220BDE808403C
:1009D00008F054B84896FF1F014800F015B900BF51
:1009E0004896FF1F08B507F0E7FF044800F0DEF95E
:1009F0000348BDE8084000F0D7B800BF6096FF1F6D
:100A00004896FF1F70B50346017B094A006953F8F9
:100A1000216014689D6882B00CF008FE3246CDE972
:100A200000012B462046034905F03CFC02B070BD96
:100A30003496FF1F1C45010038B50D1D00EB450322
:100A400004461B79D3B1012B08D054F8251000209F
:100A50000DF096FABDE8384009F068BF0E4B1B68F0
:100A6000D3F8E4020DF068FC0DF036FA54F82510C6
:100A70000DF086FABDE8384009F058BF064B1B68F8
:100A8000D3F840030DF028FA54F825100DF078FA49
:100A9000BDE8384009F04ABF4496FF1F08B5084634
:100AA0000DF022FE0DF00EF909F0CAFF09F03EFF2D
:100AB00040B208BDF8B50446006817461E460D460C
:100AC0000EF022FC58B1294660680EF01DFC01258D
:100AD00030B131462046FFF7E1FF0020F8BD054662
:100AE0003946A0680EF010FC0028F2D131462046AD
:100AF000FFF7D4FFE9B20646A581202007F0BEFF2C
:100B000030460DF0E9F9014604480AF00DF8F1B25B
:100B10002061212007F0B2FF0120F8BD0000204134
:100B2000012170B50446084607F0A8FF0121022004
:100B300007F0A4FF2046164B164A1749FFF7BAFFE5
:100B40002046134B154A1649FFF7B4FF4024A4F181
:100B500040012046C9B2013407F090FF482CF6D17D
:100B60002046042107F08AFF4C21492007F086FF28
:100B70000C4B03F24C465D1C03F14B005C1C597896
:100B8000401B07F07BFFB4422346F5D170BD00BF88
:100B9000344501003C4501004C4501005C45010025
:100BA000744501002387FF1F38B5134A134B1449BE
:100BB000426000258360016004468582202007F0A2
:100BC00043FFA081212007F03FFF40B20DF084F9E0
:100BD00001460C4809F0A8FF2061284607F034FFC1
:100BE0006A2806D02046FFF79BFF28466A2107F0B7
:100BF00045FF204638BD00BF4C4501003C45010083
:100C00008045010000002041F0B5244983B007462B
:100C100000200FF02DFD002836D004461F4900208B
:100C20000FF026FD0546002834D01C4900200FF0A7
:100C30001FFD06463846B6B133462A462146FFF721
:100C400039FF174B40B10096186816492B462246CB
:100C500005F028FB03B0F0BD1349186803B0BDE8E8
:100C6000F04005F01FBB114B2A462146FFF722FF3B
:100C70000B4B0028F0D018680D492B46224603B0D4
:100C8000BDE8F04005F00EBB384603B0BDE8F040CB
:100C9000FFF7B8BE024B0749DFE700BF084F01006E
:100CA0003496FF1F48460100D8450100D445010095
:100CB000184601009845010007F07EBE00220D2174
:100CC000017042758275C2750276704701444A70A0
:100CD000704700BF014400234B70704710B5037E7E
:100CE0000446052B0DD8DFE803F00D2F38424903E9
:100CF0000021007807F0D0FFA37D00220133A37507
:100D0000227610BD437D002B42D0827D93420FD8C6
:100D1000002383754375014611F8012F22B1627DCE
:100D2000A01801326275C37201330A2BF4D100227C
:100D300022440121D37A2176013BE37520780121F9
:100D4000BDE8104007F0A8BF0021007807F0A4FF1D
:100D5000E37DD3B10223237610BD0121007807F093
:100D60009BFFE37D0122013BE375227610BD00214C
:100D7000007807F091FF0423237610BD002100784E
:100D800007F08AFF0523237610BD0323237610BDC9
:100D90004375014611F8012F22B1627DA01801327E
:100DA0006275C37201330A2BF4D1C7E7002280F8C1
:100DB0000028A0F80228A0F80428A0F80628704708
:100DC0002DE9F047804608468A460EF019FCB8F82F
:100DD000069809F00F06F601002408EB06072546E1
:100DE0000CE01AF80330A3F120025E2A05D86A1C31
:100DF0007B55504695B20EF003FC0134A3B28342FA
:100E0000EFD346440023735509F10109A8F8069869
:100E1000BDE8F08708B5084611F07CF8C0B2A0F133
:100E20004103192B0BD9A0F13003092B04D91F283A
:100E30008CBF25203F2008BD1538C0B208BD403802
:100E4000C0B208BDF8B5B0F80458B0F80638AB42E7
:100E50001CD005F00F0600EBC616044630460EF017
:100E6000CFFB94F8007887420AD27B1C84F80038C4
:100E7000F15D204601F07F01BDE8F840FFF7CABFF1
:100E800001350023A4F8045884F800380020F8BD88
:100E900038B508460C4627490DF024FAA0B126497A
:100EA00020460DF029FA00283BD0244C4FF4006571
:100EB0004FF07C5120460CF05BFF0DF03DFAC0F383
:100EC0000900284480B238BD1D4920460DF00AFAB9
:100ED0000546C0B120461B490DF006F94FF4806568
:100EE0000446002120460DF0FDF90028E0D14FF026
:100EF0007C5120460CF03AFF0DF01EFAC0F30900B9
:100F0000284480B238BD104920460DF0EBF9002886
:100F1000E7D120460B490DF033F84FF44065044605
:100F2000DFE7204608490DF0DFF84FF4006504467E
:100F3000D7E700BF00401C4600CEC74700C07F4433
:100F400000007A44000020410000C84270B50D4600
:100F500006460F2900F28480DFE801F0161C2126E6
:100F600030393E43484D555A606B70083D4B1B6805
:100F7000B3F86C03B0F5805F34BF00B240F6FF7089
:100F800040EA053080B270BDFFF75CFF04460028E0
:100F90005FD1F5E7B0F80208C0F30B00F0E7314B82
:100FA0001B68B3F86E03E5E72E4B2F481B68D3F898
:100FB0007033A0FB0330C0F34F10DBE7294B2B4805
:100FC0001B68B3F8D032A0FB0330C008D2E7254B32
:100FD0001B6893F8BC02D3E7224B1B6893F8BD0251
:100FE000CEE7204B1B6893F8AA02C9E71D4B1B688C
:100FF000B3F8AC02BEE71B4B1B68D3F8E4020DF05C
:101000009BF980B2B6E7174B1B68B3F84003B1E712
:10101000144B1B6893F9B40280B2ABE7114B1B6809
:10102000B3F844030CF054FF01463046FFF730FF9D
:10103000A0E70C4B1B68B3F868039BE7094B1868E3
:1010400006F076F80CF044FF01463046FFF720FF2B
:1010500090E73046FFF7F6FE40EA841080B289E759
:1010600000208DE74496FF1F1F85EB51CDCCCCCCE3
:101070002DE9F04FDFF8F09099F8001083B0834627
:1010800079B9B0F80448B0F80628944209D0FFF7BF
:101090005DFF0123044689F80030204603B0BDE817
:1010A000F08FDFF8C080DFF8B8A02B4F0F25464641
:1010B00098F800105846FFF749FF9AF800300446A8
:1010C000002B43D0327837F8123083421FD0BBF860
:1010D0000218224B27F81240501CC0B200250F28DE
:1010E00023F8121089F800500BD901220131204653
:1010F000ABF8021888F800208AF8002003B0BDE899
:10110000F08F88F80000204603B0BDE8F08F134B45
:10111000282133F812300193142009F0E7F9019BDC
:10112000BBF802181844884213DB33780133DBB272
:101130000F2B03D83370013DBAD1AEE7084A012323
:101140000131ABF8021833701370F4E7054B1A78CD
:10115000BDE7044B1A78BCE7889EFF1F689EFF1FFF
:10116000A99EFF1F708BFF1FA89EFF1F10B504468E
:101170000023A370E37023716371A371E371A36013
:10118000E36023616361A361E36123626362A3623D
:10119000E36223636363A363E36323646364A3641D
:1011A000E36423656365A365E36523666366A366FD
:1011B00040F60550E366236707F0ACFE034B1022B0
:1011C000A0219A7199705A71204610BD00A0064066
:1011D00008B5054B0C21186805F01AF8B0F5966FA4
:1011E000ACBF0020012008BD3C96FF1F4165704741
:1011F00081657047C16570470166704741667047F9
:1012000081667047C1667047016770477E2938B5AF
:101210000C46054612D07D29084609D007F0E8FEA5
:101220002B88E11801EB112101F0FF01298038BD65
:1012300007F0DEFE5D2007F0DBFEF1E77D2007F022
:10124000D7FE5E2007F0D4FEEAE700BF30B583B0DA
:101250001D4D0092ADF80610AB7943F02003AB7141
:1012600004461021FFF7D2FF20469DF80610FFF735
:10127000CDFF20469DF80710FFF7C8FF20469DF8D8
:101280000010FFF7C3FF20469DF80110FFF7BEFFD7
:1012900020469DF80210FFF7B9FF9DF80310204685
:1012A000FFF7B4FFB4F90000C0F1FF00C0B207F0CF
:1012B0009FFE0023238007F0A5FEAB7983F0200377
:1012C000AB7103B030BD00BF00A0064030B583B0A5
:1012D0001A4DADF80610AB7943F02003AB7104460C
:1012E0000021FFF793FF20469DF80610FFF78EFFC1
:1012F00020469DF80710FFF789FF20460021FFF7E1
:1013000085FF20460021FFF781FF20460021FFF7DF
:101310007DFF00212046FFF779FFB4F90000C0F1FE
:10132000FF00C0B207F064FE0023238007F06AFECE
:10133000AB7983F02003AB7103B030BD00A0064051
:10134000F0B5AB4B85B01B68039353290446039E4D
:1013500000F0CF800D461FD9832900F0B8805CD9FA
:10136000C6293BD0E4291DD1A24B1021186804F0F6
:1013700035FF236EB3B1A04D2A68B24280F0F680EB
:1013800004F12C0098476436E26A20464FF4A061CD
:10139000FFF75CFF2E6005E022295AD0452903D0D3
:1013A000002975D005B0F0BD924B1121186804F0EA
:1013B00015FFE36E002BF5D0904D2A68B24280F005
:1013C000CF8004F14400984706F5FA76626C204617
:1013D0004FF4C061FFF73AFF2E60E3E7854B112120
:1013E000186804F0FBFE256F002DDBD0A379002BDD
:1013F00000F06F81012BD5D1814D2B68B34280F075
:10140000C881E26C4FF4E2612046FFF71FFF06F54A
:10141000FA7600232E60A371C4E76A29C2D1754B06
:101420001221186804F0DAFE636E002BBAD0754DF5
:101430002A68B24280F08E8004F13000984706F5A9
:10144000FA76226B20464FF42061FFF7FFFE2E60F4
:10145000A8E7684B0E21186804F0C0FEA26D002AB0
:10146000A0D0E378002B00F06081012B9AD1664D6B
:101470002B68B34280F0818162694FF4007120468D
:10148000FFF7E4FE06F5FA7600232E60E37089E7A5
:10149000584B0D21186804F0A1FE626D002A81D01E
:1014A0002379002B00F02C81012B7FF47BAF574F69
:1014B0003B68B34280F07981A2684FF4887120467E
:1014C00006F5FA76FFF7C2FE3E6025716AE7494BE2
:1014D0000F21186804F082FEE56D002D3FF462AF25
:1014E0006379042B3FF65EAFDFE803F0C798B66F71
:1014F0005E00404B1221186804F070FEA56E002DAE
:101500003FF450AFE379012B00F0278134D3022B55
:1015100040F020813E4D2B68B34280F07C81236CEB
:10152000A26A3C49002BB8BF03F5B473A1FB0212B9
:10153000A3EB5212B42A40F35081A2F5B4724FF4D7
:1015400042612046FFF782FE06F5FA7600232E6000
:10155000E37127E720464FF42061FFF7B7FE21E74C
:1015600020464FF4C061FFF7B1FE1BE720464FF461
:10157000A061FFF7ABFE15E7254F3B68B34280F053
:10158000208104F1400204F13C0104F13800A84735
:10159000A26B4FF440612046FFF758FE06F5FA763D
:1015A00001233E60E371FDE61B4D2B68B34280F0E2
:1015B0002081A26A4FF404612046FFF747FE06F53A
:1015C000FA7600232E606371ECE6134D2B68B3426C
:1015D00080F01581626A4FF403612046FFF736FE02
:1015E0002B68042203F5FA732B606271DAE600BF00
:1015F000C0B1FF1F3C96FF1FB89EFF1FBC9EFF1F80
:10160000B09EFF1FC09EFF1FAC9EFF1FB49EFF1F1A
:10161000C89EFF1F1F85EB51C49EFF1F894F3B686B
:10162000B34280F0E080E2698749002A4FEAE27322
:1016300081FB0212C0F2F580C3EB621303EB43039C
:101640005A004FF400612046FFF700FE06F5FA76D7
:1016500002233E606371A5E67A4D2B68B34280F0A9
:10166000D480226A4FF402612046FFF7EFFD06F5B1
:10167000FA7603232E60637194E6724F3B68B3429F
:1016800080F0B18004F12803009304F1200204F1FA
:10169000240304F11C0104F11800A847A2696A4957
:1016A000002A4FEAE27381FB0212C0F2C280C3EB50
:1016B000621303EB43035A0042F000424FF400610F
:1016C0002046FFF7C3FD06F5FA7601233E606371FD
:1016D00068E65E4F3B68B34261D204F1500204F108
:1016E0004C0104F14800A847A26C4FF4E061204689
:1016F000FFF7ACFD06F5FA7601233E60A37151E6D3
:10170000534D2B68B34256D204F1080104F10C008A
:101710009047E2684FF480712046FFF797FD06F589
:10172000FA7601232E6023713CE64A4D2B68B342C2
:1017300029D204F1140104F11000904722694FF4FA
:1017400004712046FFF782FD06F5FA7601232E602C
:10175000E37027E60023E37124E63F4D2B68B34294
:1017600035D2E26B4FF441612046FFF76FFD06F57D
:10177000FA7602232E60E37114E620464FF40071DE
:10178000FFF7A4FD0EE620464FF40471FFF79EFD1F
:1017900008E620464FF4E261FFF798FD02E6204696
:1017A0004FF4E061FFF792FDFCE520464FF48871AD
:1017B000FFF78CFDF6E520464FF48071FFF786FDBC
:1017C000F0E520464FF44061FFF780FDEAE5204652
:1017D0004FF44161FFF77AFDE4E512F1B40FB8BFB1
:1017E00002F5B472ABE620464FF40061FFF76EFDE0
:1017F000D8E520464FF40461FFF768FDD2E52046A6
:101800004FF40361FFF762FDCCE520464FF402611F
:10181000FFF75CFDC6E520464FF44261FFF756FD39
:10182000C0E5A3EB621303EB43035A0042F080428E
:1018300007E7A3EB621303EB43035A0042F0404275
:101840003CE700BFC49EFF1F1F85EB51B09EFF1FEA
:10185000B49EFF1FAC9EFF1FC89EFF1FF8B50F4E22
:101860000546002707F0DAFBA0B107F0E7FB0C21E3
:10187000C4B2306804F0B2FC7E2C0CD0AB78002BE4
:10188000F0D021462846FFF75BFDAF7007F0C6FB9E
:101890000028EAD1F8BD0123AB70E3E73C96FF1FB7
:1018A00040697047002070474FF4C870704700BF10
:1018B0004FF4C870704700BF4FF4C870704700BF46
:1018C0004FF4C870704700BF4FF4C870704700BF36
:1018D0004FF4C870704700BF4FF4C870704700BF26
:1018E0004FF4C870704700BF10B5012104460520B1
:1018F00007F0D8F98022024BA261E36110BD00BF5E
:10190000C0F00F4010B501210446152007F0CAF9B8
:101910004022024BA261E36110BD00BFC0F00F4046
:1019200010B501210446142007F0BCF92022024B17
:10193000A261E36110BD00BFC0F00F4010B50121EE
:101940000446062007F0AEF91022024BA261E361C3
:1019500010BD00BFC0F00F4010B5012104460820A3
:1019600007F0A0F90822024BA261E36110BD00BF9D
:10197000C0F00F4010B501210446072007F092F98E
:101980000422024BA261E36110BD00BFC0F00F4012
:1019900010B5012104460E2007F084F90222024B03
:1019A000A261E36110BD00BFC0F00F4010B501217E
:1019B0000446022007F076F90122024BA261E3619E
:1019C00010BD00BFC0F00F40F0B58BB0002305681C
:1019D0008DF804308DF805308DF806302E68374AC2
:1019E0008DF8083096428DF809308DF80A305FD1B5
:1019F000827C04910446012A01A805918DF81E30CD
:101A00008DF81F308DF82030039015D08DF81D30E3
:101A10008DF81C308DF81B308DF81A308DF8193088
:101A20008DF818300023AA698DF8213020460993DB
:101A300003A990470BB0F0BD214A1378013303F09E
:101A4000070313F0010F14BF8021002113709A07C0
:101A500044BF41F04001C9B25B0748BF41F02001DB
:101A600010310022C9B20DF11B030DF11E074FF416
:101A7000807EAAB19EFBF2F2D2B2501CC0B200FB33
:101A800001152D121870EEB205B1013E03F8036C7A
:101A900000B11A7001339F4208D0DA78002AE9D1E8
:101AA0001A7003F8032C01339F42F6D12568B9E779
:101AB0000A4602AB01A9B0470BB0F0BD891B00007C
:101AC000CC9EFF1FF0B5857C1C785E789B7889B032
:101AD000012D0191029203928DF816408DF8176046
:101AE0008DF8183017D000238DF815308DF814308C
:101AF0008DF813308DF812308DF811308DF81030CC
:101B00000368002203219B698DF81910079201A92F
:101B1000984709B0F0BD1B4A1378013303F007035F
:101B200013F0010F137014BF80220022990744BFE5
:101B300042F04002D2B25B0748BF42F020021032AE
:101B4000D2B20DF113030DF116074FF4807EACB144
:101B50009EFBF4F4E4B2611CC9B201FB02252D1214
:101B60001970EEB205B1013E03F8036C01B11C70AF
:101B70000133BB42C4D0DC78002CE9D11C7003F8DF
:101B8000034CF5E7CC9EFF1FF0B5857C1C785E7892
:101B90009B7889B0012D0191029203928DF8164035
:101BA0008DF817608DF8183016D000238DF8153099
:101BB0008DF814308DF813308DF812308DF8113007
:101BC0008DF810300268002392698DF81930079360
:101BD00001A9904709B0F0BD1B4A1378013303F007
:101BE000070313F0010F137014BF8022002299071E
:101BF00044BF42F04002D2B25B0748BF42F020022D
:101C00001032D2B20DF113030DF116074FF4807E9E
:101C1000ACB19EFBF4F4E4B2611CC9B201FB022535
:101C20002D121970EEB205B1013E03F8036C01B13B
:101C30001C700133BB42C5D0DC78002CE9D11C708C
:101C400003F8034CF5E700BFCC9EFF1F2DE9F04FD2
:101C50008BB004460990089107F02AF8238CC01A2B
:101C600083B2312BF8D9089C9E4AE07B136802901E
:101C7000207C657C01902046667BD4F8008094F837
:101C80000C9094F80EA00395A77CE57C94F814E0E2
:101C9000954994F91540049443F08073D0F804B04A
:101CA00013600A689148924B42F001020A600022D8
:101CB00002601A681A68019822F080021A6098F887
:101CC0000140861B5FFA86FC002C40F057826B1C9B
:101CD000059372B6854B1968BBF1000F01F17801CD
:101CE00040F3BB807A1C069281480EF101020792F4
:101CF0001F46029AC9EB0209019ACCEB020C039A27
:101D0000CAEB020A5FFA89F95FFA8CFC5FFA8AFA79
:101D100072B61A688A4205D91A68521AB2F5935FE8
:101D200000F2E8800568066845F0800526F0800628
:101D30004FF0070E1A688A42FCD339680560220604
:101D400001F1780100F195801A688A1A682AFBD897
:101D50006400BEF1010E0660E4B2EBD11A68914254
:101D6000FCD839680560240601F1780100F18B8008
:101D70001A688A1A682AFBD8066098F800403CB1B5
:101D800084FA59F4069AE4B204FB02F4C4F307247B
:101D90004FF0070E1A689142FCD839680560220698
:101DA00001F1780179D41A688A1A682AFBD864008C
:101DB000BEF1010E0660E4B2ECD11A689142FCD883
:101DC00039680560240601F178016FD41A688A1A0F
:101DD000682AFBD8066098F802403CB184FA5AF4AD
:101DE000079AE4B204FB02F4C4F307244FF0070E91
:101DF0001A688A42FCD339680560220601F178012D
:101E00005DD41A688A1A682AFBD86400BEF1010EF4
:101E10000660E4B2ECD11A689142FCD839680560DA
:101E2000240601F1780153D41A688A1A682AFBD86B
:101E3000049A066090440BF1FF3B98F801403CB1D6
:101E400084FA5CF4059AE4B202FB04F4C4F30724B8
:101E500062B6BBF1000F7FF44CAF62B6234B1B6838
:101E6000002B48D006F024FF099B18840BB0BDE876
:101E7000F08F1A688A1A2C2A7FF66AAF1A688A1AB3
:101E80002C2AF6D864E71A688A1A2C2A7FF674AFCF
:101E90001A688A1A2C2AF6D86EE71A688A1A2C2A27
:101EA00085D91A688A1A2C2AF7D880E71A688A1AFC
:101EB0002C2A8FD91A688A1A2C2AF7D88AE71A6826
:101EC0008A1A2C2AA1D91A688A1A2C2AF7D89CE7D0
:101ED0001A688A1A2C2AABD91A688A1A2C2AF7D8B7
:101EE000A6E700BFFCED00E0001000E0041000E0F9
:101EF000C0F00F4062B662B64FF4C863013BFDD13B
:101F000072B6089FA54AF97B13687E7C02913C4615
:101F1000397C94F915E0089CA1487D7B019143F040
:101F20008073D7F8008097F80CA097F80E9003966E
:101F3000F97CBE7CCDF810E03F7DD4F804B013608E
:101F40000268984C984B42F0010202600022226025
:101F50001A681A6822F080021A60019B98F8014002
:101F60005D1B5FFA85FC002C00F0128184FA5CF4A2
:101F7000E3B24A1C02FB03F30592C3F3072472B6D3
:101F8000884B1968BBF1000F01F1780140F3BA806A
:101F9000721C069284487A1C07921F46029ACAEB6A
:101FA000020A019ACCEB020C039AC9EB02095FFA10
:101FB0008AFA5FFA8CFC5FFA89F972B61A688A426B
:101FC00005D91A68521AB2F5935F00F2E4800668E8
:101FD000056846F0800625F080054FF0070E1A6868
:101FE0008A42FCD339680660220601F1780100F1CB
:101FF0008D801A688A1A682AFBD86400BEF1010E27
:102000000560E4B2EBD11A689142FCD839680660E9
:10201000240601F1780100F183801A688A1A682A7F
:10202000FBD8056098F800403CB184FA5AF4069A4F
:10203000E4B204FB02F4C4F307244FF0070E1A685D
:102040008A42FCD339680660220601F1780171D416
:102050001A688A1A682AFBD86400BEF1010E05606E
:10206000E4B2ECD11A689142FCD8396806602406C3
:1020700001F1780167D41A688A1A682AFBD80560CA
:1020800098F802403CB184FA59F4079AE4B204FB90
:1020900002F4C4F307244FF0070E1A688A42FCD3F7
:1020A00039680660220601F1780155D41A688A1A47
:1020B000682AFBD86400BEF1010E0560E4B2ECD1E1
:1020C0001A689142FCD839680660220601F178014D
:1020D0004BD41A688A1A682AFBD8049A056090447F
:1020E0000BF1FF3B98F801403CB184FA5CF4059A8F
:1020F000E4B202FB04F4C4F3072462B6BBF1000FA0
:102100007FF44CAF62B6274B1B68ABE61A688A1A9D
:102110002C2A7FF672AF1A688A1A2C2AF6D86CE736
:102120001A688A1A2C2A7FF67CAF1A688A1A2C2A17
:10213000F6D876E71A688A1A2C2A8DD91A688A1A6C
:102140002C2AF7D888E71A688A1A2C2A97D91A688D
:102150008A1A2C2AF7D892E71A688A1A2C2AA9D93F
:102160001A688A1A2C2AF7D8A4E71A688A1A2C2A1D
:10217000B3D91A688A1A2C2AF7D8AEE784FA5CF425
:10218000E3B26A1C02FB03F30592C3F30724A0E544
:102190004B1C0593F3E662B664E600BFFCED00E07D
:1021A000001000E0041000E0C0F00F402DE9F04FF7
:1021B0008BB004460990089106F07AFD238CC01A72
:1021C00083B2312BF8D9089C9E4AE07B13680290B9
:1021D000207C657C01902046667BD4F8008094F8D2
:1021E0000C9094F80EA00395A77CE57C94F814E07D
:1021F000954994F91540049443F08073D0F804B0E5
:1022000013600A689148924B42F001020A60002272
:1022100002601A681A68019822F040021A6098F861
:102220000140861B5FFA86FC002C40F057826B1C35
:10223000059372B6854B1968BBF1000F01F1780167
:1022400040F3BB807A1C069281480EF1010207928E
:102250001F46029AC9EB0209019ACCEB020C039AC1
:10226000CAEB020A5FFA89F95FFA8CFC5FFA8AFA14
:1022700072B61A688A4205D91A68521AB2F5935F83
:1022800000F2E8800568066845F0400526F0400643
:102290004FF0070E1A688A42FCD33968056022069F
:1022A00001F1780100F195801A688A1A682AFBD832
:1022B0006400BEF1010E0660E4B2EBD11A689142EF
:1022C000FCD839680560240601F1780100F18B80A3
:1022D0001A688A1A682AFBD8066098F800403CB150
:1022E00084FA59F4069AE4B204FB02F4C4F3072416
:1022F0004FF0070E1A689142FCD839680560220633
:1023000001F1780179D41A688A1A682AFBD8640026
:10231000BEF1010E0660E4B2ECD11A689142FCD81D
:1023200039680560240601F178016FD41A688A1AA9
:10233000682AFBD8066098F802403CB184FA5AF447
:10234000079AE4B204FB02F4C4F307244FF0070E2B
:102350001A688A42FCD339680560220601F17801C7
:102360005DD41A688A1A682AFBD86400BEF1010E8F
:102370000660E4B2ECD11A689142FCD83968056075
:10238000240601F1780153D41A688A1A682AFBD806
:10239000049A066090440BF1FF3B98F801403CB171
:1023A00084FA5CF4059AE4B202FB04F4C4F3072453
:1023B00062B6BBF1000F7FF44CAF62B6234B1B68D3
:1023C000002B48D006F074FC099B18840BB0BDE8C4
:1023D000F08F1A688A1A2C2A7FF66AAF1A688A1A4E
:1023E0002C2AF6D864E71A688A1A2C2A7FF674AF6A
:1023F0001A688A1A2C2AF6D86EE71A688A1A2C2AC2
:1024000085D91A688A1A2C2AF7D880E71A688A1A96
:102410002C2A8FD91A688A1A2C2AF7D88AE71A68C0
:102420008A1A2C2AA1D91A688A1A2C2AF7D89CE76A
:102430001A688A1A2C2AABD91A688A1A2C2AF7D851
:10244000A6E700BFFCED00E0001000E0041000E093
:10245000C0F00F4062B662B64FF4C863013BFDD1D5
:1024600072B6089FA54AF97B13687E7C02913C46B0
:10247000397C94F915E0089CA1487D7B019143F0DB
:102480008073D7F8008097F80CA097F80E90039609
:10249000F97CBE7CCDF810E03F7DD4F804B0136029
:1024A0000268984C984B42F00102026000222260C0
:1024B0001A681A6822F040021A60019B98F80140DD
:1024C0005D1B5FFA85FC002C00F0128184FA5CF43D
:1024D000E3B24A1C02FB03F30592C3F3072472B66E
:1024E000884B1968BBF1000F01F1780140F3BA8005
:1024F000721C069284487A1C07921F46029ACAEB05
:10250000020A019ACCEB020C039AC9EB02095FFAAA
:102510008AFA5FFA8CFC5FFA89F972B61A688A4205
:1025200005D91A68521AB2F5935F00F2E480066882
:10253000056846F0400625F040054FF0070E1A6882
:102540008A42FCD339680660220601F1780100F165
:102550008D801A688A1A682AFBD86400BEF1010EC1
:102560000560E4B2EBD11A689142FCD83968066084
:10257000240601F1780100F183801A688A1A682A1A
:10258000FBD8056098F800403CB184FA5AF4069AEA
:10259000E4B204FB02F4C4F307244FF0070E1A68F8
:1025A0008A42FCD339680660220601F1780171D4B1
:1025B0001A688A1A682AFBD86400BEF1010E056009
:1025C000E4B2ECD11A689142FCD83968066024065E
:1025D00001F1780167D41A688A1A682AFBD8056065
:1025E00098F802403CB184FA59F4079AE4B204FB2B
:1025F00002F4C4F307244FF0070E1A688A42FCD392
:1026000039680660220601F1780155D41A688A1AE1
:10261000682AFBD86400BEF1010E0560E4B2ECD17B
:102620001A689142FCD839680660220601F17801E7
:102630004BD41A688A1A682AFBD8049A0560904419
:102640000BF1FF3B98F801403CB184FA5CF4059A29
:10265000E4B202FB04F4C4F3072462B6BBF1000F3A
:102660007FF44CAF62B6274B1B68ABE61A688A1A38
:102670002C2A7FF672AF1A688A1A2C2AF6D86CE7D1
:102680001A688A1A2C2A7FF67CAF1A688A1A2C2AB2
:10269000F6D876E71A688A1A2C2A8DD91A688A1A07
:1026A0002C2AF7D888E71A688A1A2C2A97D91A6828
:1026B0008A1A2C2AF7D892E71A688A1A2C2AA9D9DA
:1026C0001A688A1A2C2AF7D8A4E71A688A1A2C2AB8
:1026D000B3D91A688A1A2C2AF7D8AEE784FA5CF4C0
:1026E000E3B26A1C02FB03F30592C3F30724A0E5DF
:1026F0004B1C0593F3E662B664E600BFFCED00E018
:10270000001000E0041000E0C0F00F402DE9F04F91
:102710008BB004460990089106F0CAFA238CC01ABF
:1027200083B2312BF8D9089C9E4AE07B1368029053
:10273000207C657C01902046667BD4F8008094F86C
:102740000C9094F80EA00395A77CE57C94F814E017
:10275000954994F91540049443F08073D0F804B07F
:1027600013600A689148924B42F001020A6000220D
:1027700002601A681A68019822F002021A6098F83A
:102780000140861B5FFA86FC002C40F057826B1CD0
:10279000059372B6854B1968BBF1000F01F1780102
:1027A00040F3BB807A1C069281480EF10102079229
:1027B0001F46029AC9EB0209019ACCEB020C039A5C
:1027C000CAEB020A5FFA89F95FFA8CFC5FFA8AFAAF
:1027D00072B61A688A4205D91A68521AB2F5935F1E
:1027E00000F2E8800568066845F0020526F002065A
:1027F0004FF0070E1A688A42FCD33968056022063A
:1028000001F1780100F195801A688A1A682AFBD8CC
:102810006400BEF1010E0660E4B2EBD11A68914289
:10282000FCD839680560240601F1780100F18B803D
:102830001A688A1A682AFBD8066098F800403CB1EA
:1028400084FA59F4069AE4B204FB02F4C4F30724B0
:102850004FF0070E1A689142FCD8396805602206CD
:1028600001F1780179D41A688A1A682AFBD86400C1
:10287000BEF1010E0660E4B2ECD11A689142FCD8B8
:1028800039680560240601F178016FD41A688A1A44
:10289000682AFBD8066098F802403CB184FA5AF4E2
:1028A000079AE4B204FB02F4C4F307244FF0070EC6
:1028B0001A688A42FCD339680560220601F1780162
:1028C0005DD41A688A1A682AFBD86400BEF1010E2A
:1028D0000660E4B2ECD11A689142FCD83968056010
:1028E000240601F1780153D41A688A1A682AFBD8A1
:1028F000049A066090440BF1FF3B98F801403CB10C
:1029000084FA5CF4059AE4B202FB04F4C4F30724ED
:1029100062B6BBF1000F7FF44CAF62B6234B1B686D
:10292000002B48D006F0C4F9099B18840BB0BDE811
:10293000F08F1A688A1A2C2A7FF66AAF1A688A1AE8
:102940002C2AF6D864E71A688A1A2C2A7FF674AF04
:102950001A688A1A2C2AF6D86EE71A688A1A2C2A5C
:1029600085D91A688A1A2C2AF7D880E71A688A1A31
:102970002C2A8FD91A688A1A2C2AF7D88AE71A685B
:102980008A1A2C2AA1D91A688A1A2C2AF7D89CE705
:102990001A688A1A2C2AABD91A688A1A2C2AF7D8EC
:1029A000A6E700BFFCED00E0001000E0041000E02E
:1029B000C0F00F4062B662B64FF4C863013BFDD170
:1029C00072B6089FA54AF97B13687E7C02913C464B
:1029D000397C94F915E0089CA1487D7B019143F076
:1029E0008073D7F8008097F80CA097F80E900396A4
:1029F000F97CBE7CCDF810E03F7DD4F804B01360C4
:102A00000268984C984B42F001020260002222605A
:102A10001A681A6822F002021A60019B98F80140B5
:102A20005D1B5FFA85FC002C00F0128184FA5CF4D7
:102A3000E3B24A1C02FB03F30592C3F3072472B608
:102A4000884B1968BBF1000F01F1780140F3BA809F
:102A5000721C069284487A1C07921F46029ACAEB9F
:102A6000020A019ACCEB020C039AC9EB02095FFA45
:102A70008AFA5FFA8CFC5FFA89F972B61A688A42A0
:102A800005D91A68521AB2F5935F00F2E48006681D
:102A9000056846F0020625F002054FF0070E1A6899
:102AA0008A42FCD339680660220601F1780100F100
:102AB0008D801A688A1A682AFBD86400BEF1010E5C
:102AC0000560E4B2EBD11A689142FCD8396806601F
:102AD000240601F1780100F183801A688A1A682AB5
:102AE000FBD8056098F800403CB184FA5AF4069A85
:102AF000E4B204FB02F4C4F307244FF0070E1A6893
:102B00008A42FCD339680660220601F1780171D44B
:102B10001A688A1A682AFBD86400BEF1010E0560A3
:102B2000E4B2ECD11A689142FCD8396806602406F8
:102B300001F1780167D41A688A1A682AFBD80560FF
:102B400098F802403CB184FA59F4079AE4B204FBC5
:102B500002F4C4F307244FF0070E1A688A42FCD32C
:102B600039680660220601F1780155D41A688A1A7C
:102B7000682AFBD86400BEF1010E0560E4B2ECD116
:102B80001A689142FCD839680660220601F1780182
:102B90004BD41A688A1A682AFBD8049A05609044B4
:102BA0000BF1FF3B98F801403CB184FA5CF4059AC4
:102BB000E4B202FB04F4C4F3072462B6BBF1000FD5
:102BC0007FF44CAF62B6274B1B68ABE61A688A1AD3
:102BD0002C2A7FF672AF1A688A1A2C2AF6D86CE76C
:102BE0001A688A1A2C2A7FF67CAF1A688A1A2C2A4D
:102BF000F6D876E71A688A1A2C2A8DD91A688A1AA2
:102C00002C2AF7D888E71A688A1A2C2A97D91A68C2
:102C10008A1A2C2AF7D892E71A688A1A2C2AA9D974
:102C20001A688A1A2C2AF7D8A4E71A688A1A2C2A52
:102C3000B3D91A688A1A2C2AF7D8AEE784FA5CF45A
:102C4000E3B26A1C02FB03F30592C3F30724A0E579
:102C50004B1C0593F3E662B664E600BFFCED00E0B2
:102C6000001000E0041000E0C0F00F402DE9F04F2C
:102C70008BB004460990089106F01AF8238CC01A0C
:102C800083B2312BF8D9089C9E4AE07B13680290EE
:102C9000207C657C01902046667BD4F8008094F807
:102CA0000C9094F80EA00395A77CE57C94F814E0B2
:102CB000954994F91540049443F08073D0F804B01A
:102CC00013600A689148924B42F001020A600022A8
:102CD00002601A681A68019822F001021A6098F8D6
:102CE0000140861B5FFA86FC002C40F057826B1C6B
:102CF000059372B6854B1968BBF1000F01F178019D
:102D000040F3BB807A1C069281480EF101020792C3
:102D10001F46029AC9EB0209019ACCEB020C039AF6
:102D2000CAEB020A5FFA89F95FFA8CFC5FFA8AFA49
:102D300072B61A688A4205D91A68521AB2F5935FB8
:102D400000F2E8800568066845F0010526F00106F6
:102D50004FF0070E1A688A42FCD3396805602206D4
:102D600001F1780100F195801A688A1A682AFBD867
:102D70006400BEF1010E0660E4B2EBD11A68914224
:102D8000FCD839680560240601F1780100F18B80D8
:102D90001A688A1A682AFBD8066098F800403CB185
:102DA00084FA59F4069AE4B204FB02F4C4F307244B
:102DB0004FF0070E1A689142FCD839680560220668
:102DC00001F1780179D41A688A1A682AFBD864005C
:102DD000BEF1010E0660E4B2ECD11A689142FCD853
:102DE00039680560240601F178016FD41A688A1ADF
:102DF000682AFBD8066098F802403CB184FA5AF47D
:102E0000079AE4B204FB02F4C4F307244FF0070E60
:102E10001A688A42FCD339680560220601F17801FC
:102E20005DD41A688A1A682AFBD86400BEF1010EC4
:102E30000660E4B2ECD11A689142FCD839680560AA
:102E4000240601F1780153D41A688A1A682AFBD83B
:102E5000049A066090440BF1FF3B98F801403CB1A6
:102E600084FA5CF4059AE4B202FB04F4C4F3072488
:102E700062B6BBF1000F7FF44CAF62B6234B1B6808
:102E8000002B48D005F014FF099B18840BB0BDE857
:102E9000F08F1A688A1A2C2A7FF66AAF1A688A1A83
:102EA0002C2AF6D864E71A688A1A2C2A7FF674AF9F
:102EB0001A688A1A2C2AF6D86EE71A688A1A2C2AF7
:102EC00085D91A688A1A2C2AF7D880E71A688A1ACC
:102ED0002C2A8FD91A688A1A2C2AF7D88AE71A68F6
:102EE0008A1A2C2AA1D91A688A1A2C2AF7D89CE7A0
:102EF0001A688A1A2C2AABD91A688A1A2C2AF7D887
:102F0000A6E700BFFCED00E0001000E0041000E0C8
:102F1000C0F00F4062B662B64FF4C863013BFDD10A
:102F200072B6089FA54AF97B13687E7C02913C46E5
:102F3000397C94F915E0089CA1487D7B019143F010
:102F40008073D7F8008097F80CA097F80E9003963E
:102F5000F97CBE7CCDF810E03F7DD4F804B013605E
:102F60000268984C984B42F00102026000222260F5
:102F70001A681A6822F001021A60019B98F8014051
:102F80005D1B5FFA85FC002C00F0128184FA5CF472
:102F9000E3B24A1C02FB03F30592C3F3072472B6A3
:102FA000884B1968BBF1000F01F1780140F3BA803A
:102FB000721C069284487A1C07921F46029ACAEB3A
:102FC000020A019ACCEB020C039AC9EB02095FFAE0
:102FD0008AFA5FFA8CFC5FFA89F972B61A688A423B
:102FE00005D91A68521AB2F5935F00F2E4800668B8
:102FF000056846F0010625F001054FF0070E1A6836
:103000008A42FCD339680660220601F1780100F19A
:103010008D801A688A1A682AFBD86400BEF1010EF6
:103020000560E4B2EBD11A689142FCD839680660B9
:10303000240601F1780100F183801A688A1A682A4F
:10304000FBD8056098F800403CB184FA5AF4069A1F
:10305000E4B204FB02F4C4F307244FF0070E1A682D
:103060008A42FCD339680660220601F1780171D4E6
:103070001A688A1A682AFBD86400BEF1010E05603E
:10308000E4B2ECD11A689142FCD839680660240693
:1030900001F1780167D41A688A1A682AFBD805609A
:1030A00098F802403CB184FA59F4079AE4B204FB60
:1030B00002F4C4F307244FF0070E1A688A42FCD3C7
:1030C00039680660220601F1780155D41A688A1A17
:1030D000682AFBD86400BEF1010E0560E4B2ECD1B1
:1030E0001A689142FCD839680660220601F178011D
:1030F0004BD41A688A1A682AFBD8049A056090444F
:103100000BF1FF3B98F801403CB184FA5CF4059A5E
:10311000E4B202FB04F4C4F3072462B6BBF1000F6F
:103120007FF44CAF62B6274B1B68ABE61A688A1A6D
:103130002C2A7FF672AF1A688A1A2C2AF6D86CE706
:103140001A688A1A2C2A7FF67CAF1A688A1A2C2AE7
:10315000F6D876E71A688A1A2C2A8DD91A688A1A3C
:103160002C2AF7D888E71A688A1A2C2A97D91A685D
:103170008A1A2C2AF7D892E71A688A1A2C2AA9D90F
:103180001A688A1A2C2AF7D8A4E71A688A1A2C2AED
:10319000B3D91A688A1A2C2AF7D8AEE784FA5CF4F5
:1031A000E3B26A1C02FB03F30592C3F30724A0E514
:1031B0004B1C0593F3E662B664E600BFFCED00E04D
:1031C000001000E0041000E0C0F00F402DE9F04FC7
:1031D0008BB004460990089105F06AFD238CC01A53
:1031E00083B2312BF8D9089C9E4AE07B1368029089
:1031F000207C657C01902046667BD4F8008094F8A2
:103200000C9094F80EA00395A77CE57C94F814E04C
:10321000954994F91540049443F08073D0F804B0B4
:1032200013600A689148924B42F001020A60002242
:1032300002601A681A68019822F020021A6098F851
:103240000140861B5FFA86FC002C40F057826B1C05
:10325000059372B6854B1968BBF1000F01F1780137
:1032600040F3BB807A1C069281480EF1010207925E
:103270001F46029AC9EB0209019ACCEB020C039A91
:10328000CAEB020A5FFA89F95FFA8CFC5FFA8AFAE4
:1032900072B61A688A4205D91A68521AB2F5935F53
:1032A00000F2E8800568066845F0200526F0200653
:1032B0004FF0070E1A688A42FCD33968056022066F
:1032C00001F1780100F195801A688A1A682AFBD802
:1032D0006400BEF1010E0660E4B2EBD11A689142BF
:1032E000FCD839680560240601F1780100F18B8073
:1032F0001A688A1A682AFBD8066098F800403CB120
:1033000084FA59F4069AE4B204FB02F4C4F30724E5
:103310004FF0070E1A689142FCD839680560220602
:1033200001F1780179D41A688A1A682AFBD86400F6
:10333000BEF1010E0660E4B2ECD11A689142FCD8ED
:1033400039680560240601F178016FD41A688A1A79
:10335000682AFBD8066098F802403CB184FA5AF417
:10336000079AE4B204FB02F4C4F307244FF0070EFB
:103370001A688A42FCD339680560220601F1780197
:103380005DD41A688A1A682AFBD86400BEF1010E5F
:103390000660E4B2ECD11A689142FCD83968056045
:1033A000240601F1780153D41A688A1A682AFBD8D6
:1033B000049A066090440BF1FF3B98F801403CB141
:1033C00084FA5CF4059AE4B202FB04F4C4F3072423
:1033D00062B6BBF1000F7FF44CAF62B6234B1B68A3
:1033E000002B48D005F064FC099B18840BB0BDE8A5
:1033F000F08F1A688A1A2C2A7FF66AAF1A688A1A1E
:103400002C2AF6D864E71A688A1A2C2A7FF674AF39
:103410001A688A1A2C2AF6D86EE71A688A1A2C2A91
:1034200085D91A688A1A2C2AF7D880E71A688A1A66
:103430002C2A8FD91A688A1A2C2AF7D88AE71A6890
:103440008A1A2C2AA1D91A688A1A2C2AF7D89CE73A
:103450001A688A1A2C2AABD91A688A1A2C2AF7D821
:10346000A6E700BFFCED00E0001000E0041000E063
:10347000C0F00F4062B662B64FF4C863013BFDD1A5
:1034800072B6089FA54AF97B13687E7C02913C4680
:10349000397C94F915E0089CA1487D7B019143F0AB
:1034A0008073D7F8008097F80CA097F80E900396D9
:1034B000F97CBE7CCDF810E03F7DD4F804B01360F9
:1034C0000268984C984B42F0010202600022226090
:1034D0001A681A6822F020021A60019B98F80140CD
:1034E0005D1B5FFA85FC002C00F0128184FA5CF40D
:1034F000E3B24A1C02FB03F30592C3F3072472B63E
:10350000884B1968BBF1000F01F1780140F3BA80D4
:10351000721C069284487A1C07921F46029ACAEBD4
:10352000020A019ACCEB020C039AC9EB02095FFA7A
:103530008AFA5FFA8CFC5FFA89F972B61A688A42D5
:1035400005D91A68521AB2F5935F00F2E480066852
:10355000056846F0200625F020054FF0070E1A6892
:103560008A42FCD339680660220601F1780100F135
:103570008D801A688A1A682AFBD86400BEF1010E91
:103580000560E4B2EBD11A689142FCD83968066054
:10359000240601F1780100F183801A688A1A682AEA
:1035A000FBD8056098F800403CB184FA5AF4069ABA
:1035B000E4B204FB02F4C4F307244FF0070E1A68C8
:1035C0008A42FCD339680660220601F1780171D481
:1035D0001A688A1A682AFBD86400BEF1010E0560D9
:1035E000E4B2ECD11A689142FCD83968066024062E
:1035F00001F1780167D41A688A1A682AFBD8056035
:1036000098F802403CB184FA59F4079AE4B204FBFA
:1036100002F4C4F307244FF0070E1A688A42FCD361
:1036200039680660220601F1780155D41A688A1AB1
:10363000682AFBD86400BEF1010E0560E4B2ECD14B
:103640001A689142FCD839680660220601F17801B7
:103650004BD41A688A1A682AFBD8049A05609044E9
:103660000BF1FF3B98F801403CB184FA5CF4059AF9
:10367000E4B202FB04F4C4F3072462B6BBF1000F0A
:103680007FF44CAF62B6274B1B68ABE61A688A1A08
:103690002C2A7FF672AF1A688A1A2C2AF6D86CE7A1
:1036A0001A688A1A2C2A7FF67CAF1A688A1A2C2A82
:1036B000F6D876E71A688A1A2C2A8DD91A688A1AD7
:1036C0002C2AF7D888E71A688A1A2C2A97D91A68F8
:1036D0008A1A2C2AF7D892E71A688A1A2C2AA9D9AA
:1036E0001A688A1A2C2AF7D8A4E71A688A1A2C2A88
:1036F000B3D91A688A1A2C2AF7D8AEE784FA5CF490
:10370000E3B26A1C02FB03F30592C3F30724A0E5AE
:103710004B1C0593F3E662B664E600BFFCED00E0E7
:10372000001000E0041000E0C0F00F402DE9F04F61
:103730008BB004460990089105F0BAFA238CC01AA0
:1037400083B2312BF8D9089C9E4AE07B1368029023
:10375000207C657C01902046667BD4F8008094F83C
:103760000C9094F80EA00395A77CE57C94F814E0E7
:10377000954994F91540049443F08073D0F804B04F
:1037800013600A689148924B42F001020A600022DD
:1037900002601A681A68019822F010021A6098F8FC
:1037A0000140861B5FFA86FC002C40F057826B1CA0
:1037B000059372B6854B1968BBF1000F01F17801D2
:1037C00040F3BB807A1C069281480EF101020792F9
:1037D0001F46029AC9EB0209019ACCEB020C039A2C
:1037E000CAEB020A5FFA89F95FFA8CFC5FFA8AFA7F
:1037F00072B61A688A4205D91A68521AB2F5935FEE
:1038000000F2E8800568066845F0100526F010060D
:103810004FF0070E1A688A42FCD339680560220609
:1038200001F1780100F195801A688A1A682AFBD89C
:103830006400BEF1010E0660E4B2EBD11A68914259
:10384000FCD839680560240601F1780100F18B800D
:103850001A688A1A682AFBD8066098F800403CB1BA
:1038600084FA59F4069AE4B204FB02F4C4F3072480
:103870004FF0070E1A689142FCD83968056022069D
:1038800001F1780179D41A688A1A682AFBD8640091
:10389000BEF1010E0660E4B2ECD11A689142FCD888
:1038A00039680560240601F178016FD41A688A1A14
:1038B000682AFBD8066098F802403CB184FA5AF4B2
:1038C000079AE4B204FB02F4C4F307244FF0070E96
:1038D0001A688A42FCD339680560220601F1780132
:1038E0005DD41A688A1A682AFBD86400BEF1010EFA
:1038F0000660E4B2ECD11A689142FCD839680560E0
:10390000240601F1780153D41A688A1A682AFBD870
:10391000049A066090440BF1FF3B98F801403CB1DB
:1039200084FA5CF4059AE4B202FB04F4C4F30724BD
:1039300062B6BBF1000F7FF44CAF62B6234B1B683D
:10394000002B48D005F0B4F9099B18840BB0BDE8F2
:10395000F08F1A688A1A2C2A7FF66AAF1A688A1AB8
:103960002C2AF6D864E71A688A1A2C2A7FF674AFD4
:103970001A688A1A2C2AF6D86EE71A688A1A2C2A2C
:1039800085D91A688A1A2C2AF7D880E71A688A1A01
:103990002C2A8FD91A688A1A2C2AF7D88AE71A682B
:1039A0008A1A2C2AA1D91A688A1A2C2AF7D89CE7D5
:1039B0001A688A1A2C2AABD91A688A1A2C2AF7D8BC
:1039C000A6E700BFFCED00E0001000E0041000E0FE
:1039D000C0F00F4062B662B64FF4C863013BFDD140
:1039E00072B6089FA54AF97B13687E7C02913C461B
:1039F000397C94F915E0089CA1487D7B019143F046
:103A00008073D7F8008097F80CA097F80E90039673
:103A1000F97CBE7CCDF810E03F7DD4F804B0136093
:103A20000268984C984B42F001020260002222602A
:103A30001A681A6822F010021A60019B98F8014077
:103A40005D1B5FFA85FC002C00F0128184FA5CF4A7
:103A5000E3B24A1C02FB03F30592C3F3072472B6D8
:103A6000884B1968BBF1000F01F1780140F3BA806F
:103A7000721C069284487A1C07921F46029ACAEB6F
:103A8000020A019ACCEB020C039AC9EB02095FFA15
:103A90008AFA5FFA8CFC5FFA89F972B61A688A4270
:103AA00005D91A68521AB2F5935F00F2E4800668ED
:103AB000056846F0100625F010054FF0070E1A684D
:103AC0008A42FCD339680660220601F1780100F1D0
:103AD0008D801A688A1A682AFBD86400BEF1010E2C
:103AE0000560E4B2EBD11A689142FCD839680660EF
:103AF000240601F1780100F183801A688A1A682A85
:103B0000FBD8056098F800403CB184FA5AF4069A54
:103B1000E4B204FB02F4C4F307244FF0070E1A6862
:103B20008A42FCD339680660220601F1780171D41B
:103B30001A688A1A682AFBD86400BEF1010E056073
:103B4000E4B2ECD11A689142FCD8396806602406C8
:103B500001F1780167D41A688A1A682AFBD80560CF
:103B600098F802403CB184FA59F4079AE4B204FB95
:103B700002F4C4F307244FF0070E1A688A42FCD3FC
:103B800039680660220601F1780155D41A688A1A4C
:103B9000682AFBD86400BEF1010E0560E4B2ECD1E6
:103BA0001A689142FCD839680660220601F1780152
:103BB0004BD41A688A1A682AFBD8049A0560904484
:103BC0000BF1FF3B98F801403CB184FA5CF4059A94
:103BD000E4B202FB04F4C4F3072462B6BBF1000FA5
:103BE0007FF44CAF62B6274B1B68ABE61A688A1AA3
:103BF0002C2A7FF672AF1A688A1A2C2AF6D86CE73C
:103C00001A688A1A2C2A7FF67CAF1A688A1A2C2A1C
:103C1000F6D876E71A688A1A2C2A8DD91A688A1A71
:103C20002C2AF7D888E71A688A1A2C2A97D91A6892
:103C30008A1A2C2AF7D892E71A688A1A2C2AA9D944
:103C40001A688A1A2C2AF7D8A4E71A688A1A2C2A22
:103C5000B3D91A688A1A2C2AF7D8AEE784FA5CF42A
:103C6000E3B26A1C02FB03F30592C3F30724A0E549
:103C70004B1C0593F3E662B664E600BFFCED00E082
:103C8000001000E0041000E0C0F00F402DE9F04FFC
:103C90008BB004460990089105F00AF8238CC01AED
:103CA00083B2312BF8D9089C9E4AE07B13680290BE
:103CB000207C657C01902046667BD4F8008094F8D7
:103CC0000C9094F80EA00395A77CE57C94F814E082
:103CD000954994F91540049443F08073D0F804B0EA
:103CE00013600A689148924B42F001020A60002278
:103CF00002601A681A68019822F008021A6098F89F
:103D00000140861B5FFA86FC002C40F057826B1C3A
:103D1000059372B6854B1968BBF1000F01F178016C
:103D200040F3BB807A1C069281480EF10102079293
:103D30001F46029AC9EB0209019ACCEB020C039AC6
:103D4000CAEB020A5FFA89F95FFA8CFC5FFA8AFA19
:103D500072B61A688A4205D91A68521AB2F5935F88
:103D600000F2E8800568066845F0080526F00806B8
:103D70004FF0070E1A688A42FCD3396805602206A4
:103D800001F1780100F195801A688A1A682AFBD837
:103D90006400BEF1010E0660E4B2EBD11A689142F4
:103DA000FCD839680560240601F1780100F18B80A8
:103DB0001A688A1A682AFBD8066098F800403CB155
:103DC00084FA59F4069AE4B204FB02F4C4F307241B
:103DD0004FF0070E1A689142FCD839680560220638
:103DE00001F1780179D41A688A1A682AFBD864002C
:103DF000BEF1010E0660E4B2ECD11A689142FCD823
:103E000039680560240601F178016FD41A688A1AAE
:103E1000682AFBD8066098F802403CB184FA5AF44C
:103E2000079AE4B204FB02F4C4F307244FF0070E30
:103E30001A688A42FCD339680560220601F17801CC
:103E40005DD41A688A1A682AFBD86400BEF1010E94
:103E50000660E4B2ECD11A689142FCD8396805607A
:103E6000240601F1780153D41A688A1A682AFBD80B
:103E7000049A066090440BF1FF3B98F801403CB176
:103E800084FA5CF4059AE4B202FB04F4C4F3072458
:103E900062B6BBF1000F7FF44CAF62B6234B1B68D8
:103EA000002B48D004F004FF099B18840BB0BDE838
:103EB000F08F1A688A1A2C2A7FF66AAF1A688A1A53
:103EC0002C2AF6D864E71A688A1A2C2A7FF674AF6F
:103ED0001A688A1A2C2AF6D86EE71A688A1A2C2AC7
:103EE00085D91A688A1A2C2AF7D880E71A688A1A9C
:103EF0002C2A8FD91A688A1A2C2AF7D88AE71A68C6
:103F00008A1A2C2AA1D91A688A1A2C2AF7D89CE76F
:103F10001A688A1A2C2AABD91A688A1A2C2AF7D856
:103F2000A6E700BFFCED00E0001000E0041000E098
:103F3000C0F00F4062B662B64FF4C863013BFDD1DA
:103F400072B6089FA54AF97B13687E7C02913C46B5
:103F5000397C94F915E0089CA1487D7B019143F0E0
:103F60008073D7F8008097F80CA097F80E9003960E
:103F7000F97CBE7CCDF810E03F7DD4F804B013602E
:103F80000268984C984B42F00102026000222260C5
:103F90001A681A6822F008021A60019B98F801401A
:103FA0005D1B5FFA85FC002C00F0128184FA5CF442
:103FB000E3B24A1C02FB03F30592C3F3072472B673
:103FC000884B1968BBF1000F01F1780140F3BA800A
:103FD000721C069284487A1C07921F46029ACAEB0A
:103FE000020A019ACCEB020C039AC9EB02095FFAB0
:103FF0008AFA5FFA8CFC5FFA89F972B61A688A420B
:1040000005D91A68521AB2F5935F00F2E480066887
:10401000056846F0080625F008054FF0070E1A68F7
:104020008A42FCD339680660220601F1780100F16A
:104030008D801A688A1A682AFBD86400BEF1010EC6
:104040000560E4B2EBD11A689142FCD83968066089
:10405000240601F1780100F183801A688A1A682A1F
:10406000FBD8056098F800403CB184FA5AF4069AEF
:10407000E4B204FB02F4C4F307244FF0070E1A68FD
:104080008A42FCD339680660220601F1780171D4B6
:104090001A688A1A682AFBD86400BEF1010E05600E
:1040A000E4B2ECD11A689142FCD839680660240663
:1040B00001F1780167D41A688A1A682AFBD805606A
:1040C00098F802403CB184FA59F4079AE4B204FB30
:1040D00002F4C4F307244FF0070E1A688A42FCD397
:1040E00039680660220601F1780155D41A688A1AE7
:1040F000682AFBD86400BEF1010E0560E4B2ECD181
:104100001A689142FCD839680660220601F17801EC
:104110004BD41A688A1A682AFBD8049A056090441E
:104120000BF1FF3B98F801403CB184FA5CF4059A2E
:10413000E4B202FB04F4C4F3072462B6BBF1000F3F
:104140007FF44CAF62B6274B1B68ABE61A688A1A3D
:104150002C2A7FF672AF1A688A1A2C2AF6D86CE7D6
:104160001A688A1A2C2A7FF67CAF1A688A1A2C2AB7
:10417000F6D876E71A688A1A2C2A8DD91A688A1A0C
:104180002C2AF7D888E71A688A1A2C2A97D91A682D
:104190008A1A2C2AF7D892E71A688A1A2C2AA9D9DF
:1041A0001A688A1A2C2AF7D8A4E71A688A1A2C2ABD
:1041B000B3D91A688A1A2C2AF7D8AEE784FA5CF4C5
:1041C000E3B26A1C02FB03F30592C3F30724A0E5E4
:1041D0004B1C0593F3E662B664E600BFFCED00E01D
:1041E000001000E0041000E0C0F00F402DE9F04F97
:1041F0008BB004460990089104F05AFD238CC01A34
:1042000083B2312BF8D9089C9E4AE07B1368029058
:10421000207C657C01902046667BD4F8008094F871
:104220000C9094F80EA00395A77CE57C94F814E01C
:10423000954994F91540049443F08073D0F804B084
:1042400013600A689148924B42F001020A60002212
:1042500002601A681A68019822F004021A6098F83D
:104260000140861B5FFA86FC002C40F057826B1CD5
:10427000059372B6854B1968BBF1000F01F1780107
:1042800040F3BB807A1C069281480EF1010207922E
:104290001F46029AC9EB0209019ACCEB020C039A61
:1042A000CAEB020A5FFA89F95FFA8CFC5FFA8AFAB4
:1042B00072B61A688A4205D91A68521AB2F5935F23
:1042C00000F2E8800568066845F0040526F004065B
:1042D0004FF0070E1A688A42FCD33968056022063F
:1042E00001F1780100F195801A688A1A682AFBD8D2
:1042F0006400BEF1010E0660E4B2EBD11A6891428F
:10430000FCD839680560240601F1780100F18B8042
:104310001A688A1A682AFBD8066098F800403CB1EF
:1043200084FA59F4069AE4B204FB02F4C4F30724B5
:104330004FF0070E1A689142FCD8396805602206D2
:1043400001F1780179D41A688A1A682AFBD86400C6
:10435000BEF1010E0660E4B2ECD11A689142FCD8BD
:1043600039680560240601F178016FD41A688A1A49
:10437000682AFBD8066098F802403CB184FA5AF4E7
:10438000079AE4B204FB02F4C4F307244FF0070ECB
:104390001A688A42FCD339680560220601F1780167
:1043A0005DD41A688A1A682AFBD86400BEF1010E2F
:1043B0000660E4B2ECD11A689142FCD83968056015
:1043C000240601F1780153D41A688A1A682AFBD8A6
:1043D000049A066090440BF1FF3B98F801403CB111
:1043E00084FA5CF4059AE4B202FB04F4C4F30724F3
:1043F00062B6BBF1000F7FF44CAF62B6234B1B6873
:10440000002B48D004F054FC099B18840BB0BDE885
:10441000F08F1A688A1A2C2A7FF66AAF1A688A1AED
:104420002C2AF6D864E71A688A1A2C2A7FF674AF09
:104430001A688A1A2C2AF6D86EE71A688A1A2C2A61
:1044400085D91A688A1A2C2AF7D880E71A688A1A36
:104450002C2A8FD91A688A1A2C2AF7D88AE71A6860
:104460008A1A2C2AA1D91A688A1A2C2AF7D89CE70A
:104470001A688A1A2C2AABD91A688A1A2C2AF7D8F1
:10448000A6E700BFFCED00E0001000E0041000E033
:10449000C0F00F4062B662B64FF4C863013BFDD175
:1044A00072B6089FA54AF97B13687E7C02913C4650
:1044B000397C94F915E0089CA1487D7B019143F07B
:1044C0008073D7F8008097F80CA097F80E900396A9
:1044D000F97CBE7CCDF810E03F7DD4F804B01360C9
:1044E0000268984C984B42F0010202600022226060
:1044F0001A681A6822F004021A60019B98F80140B9
:104500005D1B5FFA85FC002C00F0128184FA5CF4DC
:10451000E3B24A1C02FB03F30592C3F3072472B60D
:10452000884B1968BBF1000F01F1780140F3BA80A4
:10453000721C069284487A1C07921F46029ACAEBA4
:10454000020A019ACCEB020C039AC9EB02095FFA4A
:104550008AFA5FFA8CFC5FFA89F972B61A688A42A5
:1045600005D91A68521AB2F5935F00F2E480066822
:10457000056846F0040625F004054FF0070E1A689A
:104580008A42FCD339680660220601F1780100F105
:104590008D801A688A1A682AFBD86400BEF1010E61
:1045A0000560E4B2EBD11A689142FCD83968066024
:1045B000240601F1780100F183801A688A1A682ABA
:1045C000FBD8056098F800403CB184FA5AF4069A8A
:1045D000E4B204FB02F4C4F307244FF0070E1A6898
:1045E0008A42FCD339680660220601F1780171D451
:1045F0001A688A1A682AFBD86400BEF1010E0560A9
:10460000E4B2ECD11A689142FCD8396806602406FD
:1046100001F1780167D41A688A1A682AFBD8056004
:1046200098F802403CB184FA59F4079AE4B204FBCA
:1046300002F4C4F307244FF0070E1A688A42FCD331
:1046400039680660220601F1780155D41A688A1A81
:10465000682AFBD86400BEF1010E0560E4B2ECD11B
:104660001A689142FCD839680660220601F1780187
:104670004BD41A688A1A682AFBD8049A05609044B9
:104680000BF1FF3B98F801403CB184FA5CF4059AC9
:10469000E4B202FB04F4C4F3072462B6BBF1000FDA
:1046A0007FF44CAF62B6274B1B68ABE61A688A1AD8
:1046B0002C2A7FF672AF1A688A1A2C2AF6D86CE771
:1046C0001A688A1A2C2A7FF67CAF1A688A1A2C2A52
:1046D000F6D876E71A688A1A2C2A8DD91A688A1AA7
:1046E0002C2AF7D888E71A688A1A2C2A97D91A68C8
:1046F0008A1A2C2AF7D892E71A688A1A2C2AA9D97A
:104700001A688A1A2C2AF7D8A4E71A688A1A2C2A57
:10471000B3D91A688A1A2C2AF7D8AEE784FA5CF45F
:10472000E3B26A1C02FB03F30592C3F30724A0E57E
:104730004B1C0593F3E662B664E600BFFCED00E0B7
:10474000001000E0041000E0C0F00F40F8B50023B6
:1047500003800446482004F077F90546492004F018
:1047600073F900EB052083B240F2B572934210D882
:10477000234A13806BB1234F013B17FA83F67D1E4A
:10478000C7F14B07781904F05FF905F8010FB5423E
:10479000F8D140250026284604F056F90135482D69
:1047A0000644F8D11C2E0ED0174B1849186801F09A
:1047B00079FD4025A5F140012846C9B2013504F034
:1047C0005DF9482DF6D1124E4025284604F03CF9FB
:1047D0000135482D06F8010FF7D1204604F5C072C7
:1047E000002303714371837103308242F9D1094C74
:1047F000206800F0B7FE2068BDE8F84000F0CABEAF
:1048000010A0FF1F20A0FF1F3496FF1F9447010038
:1048100017A0FF1F14A0FF1FAE490A68F8B50023B8
:1048200012F00106054603804380C0F8843180F809
:10483000283200F1040400F09A801023002221465F
:10484000A54803F08DFDA54A1368B026F021FF2787
:10485000467313F001068173077300F0B3811023D0
:104860001A4621469E4803F07BFD9E4A1368B026F7
:10487000F021FF27467313F001068173077300F0E0
:104880007E81102320222146974803F069FD974A34
:104890001368B026F021FF27467313F001068173D9
:1048A000077300F04981102330222146904803F01D
:1048B00057FD904A1368B026F021FF27467313F086
:1048C00001068173077300F0E18010234022214626
:1048D000894803F045FD894A1368B026F021FF2777
:1048E000467313F001068173077300F0AB80102349
:1048F00050222146824803F033FD824A1368B026D5
:10490000F021FF27467313F001068173077376D0F9
:104910001023602221467C4803F022FD7B4A136865
:10492000B026F021FF27467313F001068173077349
:1049300042D0214610237022754803F011FDB022A9
:10494000F023FF21427383730173B82005F042FD09
:104950002146064600F0AEFE6E4B28461E60FFF76D
:10496000F5FE6D48017803F04DFD2846F8BD084678
:1049700004F0FAF800283FF460AF6849564A086826
:104980005660FF2301275661966097741373537323
:104990009373D37313745374002800F03781604B02
:1049A000196801B18A6000265E494A4816841A6077
:1049B000116004F0DFF840E7104604F0D5F8002855
:1049C000B7D0564B524A1968566001201773577377
:1049D0009773D77317745774566196609074002953
:1049E00000F016814E4B196801B18A6000264E49CD
:1049F000464816841A60116004F0BCF899E7104626
:104A000004F0B2F8002883D0444B3F4A196856603E
:104A10000120177357739773D773177457745661C0
:104A200096609074002900F0F5803D4B196801B143
:104A30008A6000263D49334816841A60116004F0EC
:104A400099F865E7104604F08FF800283FF44FAF5F
:104A5000324B2B4A196856600120177357739773AE
:104A6000D77317745774566196609074002900F0DC
:104A7000D3802B4B196801B18A6000262C491F484E
:104A800016841A60116004F075F830E7104604F0DF
:104A90006BF800283FF419AF204B174A196856608D
:104AA0000120177357739773D77317745774566130
:104AB00096609074002900F0B180194B196801B11B
:104AC0008A6000261B490B4816841A60116004F0A6
:104AD00051F8FAE6E89FFF1FEC9FFF1FC09FFF1FE2
:104AE000C49FFF1F989FFF1F9C9FFF1F709FFF1F6A
:104AF000749FFF1F489FFF1F4C9FFF1F209FFF1F9A
:104B0000249FFF1FF89EFF1FFC9EFF1FD09EFF1FCC
:104B1000D49EFF1F14A0FF1F50B1FF1F60B1FF1FE5
:104B200070B1FF1F7C460100784701005447010027
:104B3000304701000C470100104604F015F800282A
:104B40003FF4B1AE384B394A1968566001201773EB
:104B500057739773D7731774577456619660907430
:104B600000295DD0324B196801B18A6000263149B5
:104B7000314816841A60116003F0FCFF93E610467A
:104B800003F0F2FF00283FF47CAE274B2B4A196854
:104B900056600120177357739773D7731774577440
:104BA00056619660907400293CD0214B196801B180
:104BB0008A6000262249234816841A60116003F097
:104BC000D9FF5EE6104603F0CFFF00283FF447AE62
:104BD000154B1D4A19685660012017735773977358
:104BE000D7731774577456619660907461B1104B07
:104BF000196801B18A6000261449154816841A60A4
:104C0000116003F0B7FF2AE61A60F0E70A60C6E613
:104C10001A60E7E61A6008E71A602AE71A604CE7AC
:104C20001A609FE71A60C0E760B1FF1F749FFF1F03
:104C300070B1FF1FE8460100709FFF1F9C9FFF1F80
:104C4000C4460100989FFF1FC49FFF1FA04601009C
:104C5000C09FFF1F00B5013983B0612900F2A28017
:104C6000DFE801F09B9691A0A0A0A0A0A0A0A0A02A
:104C7000A0A0A08C87827DA0A0A0A0A0A0A0A0A0A2
:104C8000A0A0A07873A0A0A0A0A0A0A0A0A0A0A079
:104C9000A0A0A06C67625D58A0A0A0A0A0A0A0A04A
:104CA000A0A0A0524DA0A0A0A0A0A0A0A0A0A0A0A5
:104CB000A0A0A046A0A0A0A0A0A0A0A0A0A0A0A04E
:104CC000A0A0A03D3831384B1B68B3F97A0303B07C
:104CD0005DF804FB344B1B68B3F97803F7E7334BFB
:104CE00033481B680193019BA0FB03308009EEE76A
:104CF0002D4B1B68B3F9EC0220EAE070E7E72A4B82
:104D00001B68B3F8AC02E2E7274B1B6893F8AA02D2
:104D1000C011DCE7244B1B68D3F86803D7E7224BAC
:104D20001B68D3F8CC02D2E71F4B1B68D3F8DC0218
:104D3000CDE71D4B1B68B3F86E03C8E71A4B1B6821
:104D4000D3F8E40209F01EFBC1E7174B1B6893F888
:104D5000BD02BCE7144B1B68B3F8D002B7E7124B97
:104D60001B68D3F87403B2E70F4B1B6893F9B402C6
:104D7000ADE70D4B1B68B3F85A03A8E70A4B1B6855
:104D8000B3F85C03A3E7084B1B6893F858039EE74E
:104D9000054B1B68B3F8560399E7034B1B68B3F840
:104DA000540394E7002092E74496FF1FC0B1FF1F11
:104DB000D34D62102DE9F0410388354A5C1CA4B242
:104DC0009F1C0480BFB2DE1CD15C0780B6B21D1DE3
:104DD000145D0680ADB2D75D058012F806C003F100
:104DE000050E1FFA8EF606800633BCF1080F555DDE
:104DF000038001D8132901D9BDE8F0812548264B4D
:104E000012F80680006813F80C6000F0A5FB23463A
:104E10003C1BC5EB0802002CB8BF6442002AB8BF97
:104E2000524294422946E7D145458CBF4FF0FF32AC
:104E30000122BB4214D29F4204DADDE701339F42D4
:104E4000114420DB9F2B00EB0304F7DC667384F82E
:104E5000AD10047B9C4203F10103D8BF0373EEE75E
:104E60009F4212DC9F2B00EB030407DC667384F87F
:104E7000AD10047B9C42DCBF5C1C0473013B9F4271
:104E80001144EFDDB8E7BDE8F081BDE8F08100BF77
:104E900020A0FF1F14A0FF1F18A0FF1F10B503883C
:104EA000084A094912685C1C0480C95C92F8B63053
:104EB0008B4200D810BD104600F04EFBBDE81040FC
:104EC00000F016BC14A0FF1F20A0FF1F0388114A8A
:104ED000F0B55D1CADB29C1C0580A4B2D91CD75C9A
:104EE000048089B21E1D12F805E00180B5B2145D80
:104EF00005800533072F515C038009D8535D2404D6
:104F000044EA0E641C43623744EA012440F8274017
:104F1000F0BD00BF20A0FF1F038870B5591C084ECC
:104F200089B20180F55C0233072D038006D8715CDD
:104F30000446FFF78FFE623544F8250070BD00BFC0
:104F400020A0FF1F10B503880B4A0C4912685C1C97
:104F50000480C95C92F8B6308B4200D810BD04467C
:104F6000104600F0F9FAD4F8882161888068BDE81D
:104F7000104000F047BC00BF14A0FF1F20A0FF1F7F
:104F800030B503880F4A104912685C1C0480C95C64
:104F900092F8B6308B4283B011D90446104600F027
:104FA000DBFAD4F88C31D4F888216188D4F8945194
:104FB000D4F8904180688DE8300000F075FC03B0B3
:104FC00030BD00BF14A0FF1F20A0FF1F30B5038815
:104FD0000F4A104912685C1C0480C95C92F8B63014
:104FE0008B4283B011D90446104600F0B5FAD4F8CC
:104FF0008C31D4F88821618894F89451D4F8904188
:1050000080688DE8300000F0AFFC03B030BD00BF19
:1050100014A0FF1F20A0FF1F10B503880D4A0E49E2
:1050200012685C1C0480C95C92F8B6308B4282B076
:105030000ED90446104600F08FFAD4F88C31D4F81B
:1050400088216188D4F890418068009400F0ECFCDD
:1050500002B010BD14A0FF1F20A0FF1F10B50388D1
:105060000C4A0D4912685C1C0480C95C92F8B63089
:105070008B4200D810BD0446104600F06DFA94F83B
:105080008C31D4F8882161888068BDE8104000F038
:1050900029BD00BF14A0FF1F20A0FF1F70B503880B
:1050A000134A144912685C1C0480C95C92F8B6303B
:1050B0008B4282B019D90446104600F04DFAD4F85C
:1050C0009031D4F88C61D4F89451D4F88821618857
:1050D00094F8984180680094F61A642404FB06F45E
:1050E000EB1AB4FBF3F300F051FD02B070BD00BF4A
:1050F00014A0FF1F20A0FF1F10B503880A4A0B4908
:1051000012685C1C0480C95C92F8B6308B4200D8EF
:1051100010BD0446104600F01FFA61888068002226
:10512000BDE8104000F06EBB14A0FF1F20A0FF1FC1
:1051300030B503880F4A104912685C1C0480C95CB2
:1051400092F8B6308B4283B011D90446104600F075
:1051500003FAD4F88C31D4F88821618894F89451FA
:10516000D4F8904180688DE8300000F077FD03B0FE
:1051700030BD00BF14A0FF1F20A0FF1F30B5018865
:10518000A04D41804B1C9BB203806A5C541E4B2C8B
:1051900000F2A781DFE814F0A1019D0192018E01C8
:1051A0008301A501A50170015D01480143013A0198
:1051B000280117010A010301FC00F500EE00E400DC
:1051C000DA00A501A501A501A501A501A501A5017B
:1051D000A501A501A501D600D200CC00C600A501FD
:1051E000A501A501A501A501A501A501A501A5018F
:1051F000A501A501A501C200BE00BA00B600B2001B
:10520000AE00AA00A600A501A501A501A501A50162
:10521000A501A501A501A0009A0094008E008800B8
:10522000A501A501A5017C007000640058004C0098
:105230008A1C92B202800331EC5C0180AB5C43EAD1
:105240000423C0F8983130BD8A1C92B20280033129
:10525000EC5C0180AB5C43EA0423C0F8943130BDC0
:105260008A1C92B202800331EC5C0180AB5C43EAA1
:105270000423C0F8903130BD8A1C92B20280033101
:10528000EC5C0180AB5C43EA0423C0F88C3130BD98
:105290008A1C92B202800331EC5C0180AB5C43EA71
:1052A0000423C0F8883130BD02310180EB5CC0F8C6
:1052B000983130BD02310180EB5CC0F8943130BDD3
:1052C00002310180EB5CC0F8903130BD02310180C9
:1052D000EB5CC0F88C3130BD02310180EB5CC0F872
:1052E000883130BDBDE83040FFF722BFBDE8304017
:1052F000FFF702BFBDE83040FFF78EBEBDE830408B
:10530000FFF7CCBEBDE83040FFF7A8BEBDE8304097
:10531000FFF75CBEBDE83040FFF732BEBDE830406D
:10532000FFF710BE384BBDE83040186800F03EB9BA
:10533000354BBDE83040186800F014B9BDE8304086
:10534000FFF7ACBDBDE83040FFF734BDD0F8882191
:10535000D0F88C319A4209D30123C0F8883130BD8E
:10536000D0F88821D0F88C319A42F5D80023C0F8C3
:10537000883130BDD0F88821D0F88C319A42EBD9F1
:10538000F4E7D0F88821D0F88C319A42E4D3EDE7E5
:10539000D0F88821D0F88C319A42DDD1E6E7D0F8F8
:1053A0008821D0F88C319A42E0D1D5E78A1C92B29C
:1053B0000331028089B2EB5C0180AA5C42EA0323DC
:1053C0000B44038030BD8A1C92B20331D0F888416F
:1053D000028089B2ED5C0B4B01808CB19B5C43EA8F
:1053E00005231944018030BD8A1C92B20331D0F8E4
:1053F0008841028089B2ED5C024B0180002CEDD027
:1054000030BD00BF20A0FF1F14A0FF1FD0F88831BF
:10541000002BABD0D0F88C31002B9DD1A6E7D0F873
:105420008831002BF6D097E702310180EA5C072A29
:10543000E6D890F82832002BE2D0013BDBB203F132
:105440006A0180F82832623250F8213040F8223068
:1054500030BD02310180EB5C072BD1D890F82822B7
:105460001F2ACDD8511C623380F828126A3250F8B6
:10547000233040F8223030BD8A1C92B20280EB5CAF
:105480001C4C0331072B0180BAD8A25C072AB7D87D
:105490006233623250F8233040F8223030BD8A1C2B
:1054A00092B202800331EC5C0180AB5C43EA0423DE
:1054B000038030BD0A23C0F8843130BD0231018041
:1054C000EB5C072B9CD8623350F82330C0F8843152
:1054D00030BDBDE83040FFF71FBDBDE83040FFF7ED
:1054E000F5BC0549086800288AD00449BDE8304069
:1054F00000F0D8BE20A0FF1F3496FF1FB047010068
:105500000148017802F07EBF50B1FF1F38B5D0F8D6
:105510008431052B044610DC0C4D02882B889A42FE
:1055200004D30DE022882B889A4209D22046FFF747
:1055300025FED4F88431052BF4DD0A3BC4F8843110
:10554000034B1868BDE8384000F03CB810A0FF1FBE
:1055500014A0FF1F03F030BA132994BF50F82100A4
:1055600000207047F0B4FF21051F00F14C06002712
:1055700055F8044F04F1AC00024604F10C0303F8A3
:10558000011F834202F8011FF9D1B5422773EFD101
:10559000F0BC704738B5041F00F14C0554F8043FC7
:1055A000986800F00BF9AC42F8D138BD38B5041F4B
:1055B00000F14C0554F8043F986800F019F9AC422A
:1055C000F8D138BD70B5B0F8B450DDB16C1E00EB49
:1055D00045050646503501E0631C13D035F8023D01
:1055E0001A12132A04F1FF34DBB2F5DC132BF3D8C3
:1055F00056F82220926802EB8303586800F08EFB75
:10560000631CEBD170BD00BF70B4B0F8B46042EA67
:10561000012256B3B0F8503093421CD000F1500430
:10562000002303E034F8025F954218D00133B342FF
:10563000F8D1312E19D9322303F1280400EB4404A8
:10564000013B01E0013B023C312BFBD034F8025C12
:105650002580002BF6D1A0F8502070BC7047DBB23B
:10566000322BE6D0002BE7D1F5E70136A0F8B46085
:10567000E1E700BF70B50446002084E80C00207309
:1056800054200E4604F0A6FE22463146054600F0A0
:1056900069F804F1AC00A560014604F10C03FF2297
:1056A00003F8012F834201F8012FF9D1002323735E
:1056B000204670BD2DE9F04114230024074688469A
:1056C00080F8B630A0F8B440051F4FF4A87004F07D
:1056D00081FE23463A46414601340646FFF7CAFF9B
:1056E000142C45F8046FF0D13846BDE8F08100BFB6
:1056F00010B400F1AC04214600F10C03FF2203F8C2
:10570000012FA34201F8012FF9D10023037310BC2C
:10571000704700BF03460A4600681979FFF774BF57
:1057200010B50C4C236873B10B4A013382FB032183
:10573000DA17C2EBA10202EB8202A3EB4203236061
:105740004FF0FF3010BD054B0549186800F0AAFD69
:105750002368E9E7D8A7FF1F676666663496FF1FD0
:10576000DC4701002DE9F84381461646C9F80020C0
:105770008846054600F150070024342004F02AFE34
:1057800045F8040FBD4284818473C47304610475B9
:1057900044758461C4610462446280F8284080F8E2
:1057A000294080F82A4080F82B40C4620463C0F886
:1057B00000808660E1D14846BDE8F88300F15001E1
:1057C000002250F8043F88425A759A61DA611A62E1
:1057D000DA625A6283F8282083F82A2083F8292085
:1057E00083F82B201A611A75DA739A73E9D170471E
:1057F00000F15001002250F8043F88429A73FAD118
:10580000704700BF2DE9F84396460746054600233A
:1058100002E00133142B11D055F8044FA6898E42B3
:10582000F7D1667D012EF4D1A2697245F1D1A6733C
:10583000D9B20068BDE8F843FFF76CBFF0460C46EC
:105840008146002357F8041FCD7B45B10133142B4B
:10585000F8D1FFF765FF002804DABDE8F8830122DC
:105860001846CA7309EB800100264D6801226A754B
:10587000EA73AA7385F8286085F82A6085F829609C
:1058800085F82B602E75AC81C5F81880C1B2D9F8A7
:105890000000EE612E62EE626E622E632E61BDE844
:1058A000F843FFF737BF00BF2DE9F843DDF820804C
:1058B000DDF8249086460646002402E00134142CCC
:1058C0001BD056F8045FAF898F42F7D16F7D022F4E
:1058D000F4D1AF699742F1D1EF699F42EED12F6ABF
:1058E0004745EBD1EF6A4F45E8D10123AB73E1B2F5
:1058F0000068BDE8F843FFF70DBF0E461C4615468D
:10590000074600215EF8040FC37B43B1013114291F
:10591000F8D1FFF705FF011E03DABDE8F883012384
:10592000C37307EB810302225B6801205A750022D2
:1059300083F8282083F82A2083F8292083F82B2055
:105940001A75D87398739E819D61DC61C3F82080BD
:10595000C3F82C905A621A631A613868C9B2BDE85C
:10596000F843FFF7D7BE00BF2DE9F047DDF82080F0
:105970009DF8249086460646002402E00134142C4B
:105980001DD056F8045FAF898F42F7D16F7D032F8A
:10599000F4D1AF699742F1D16F6A9F42EED195F889
:1059A00028704745EAD195F82B704F45E6D1012381
:1059B000AB73E1B20068BDE8F047FFF7ABBE0F463E
:1059C0001E461546824600215EF8044FE37B43B134
:1059D00001311429F8D1FFF7A3FE011E03DABDE857
:1059E000F0870123E3730AEB810300225B68012047
:1059F000032483F8288083F82B905C7583F82A2091
:105A000083F829201A75D87398739F819D615E620F
:105A1000DAF80000DA61C9B21A62DA621A631A614E
:105A2000BDE8F047FFF776BE2DE9F047DDF82080AE
:105A300086460646002402E00134142C1BD056F89A
:105A4000045FAF898F42F7D195F815C0BCF1060FFE
:105A5000F2D1AF699742EFD16F6A9F42ECD195F8CE
:105A600028704745E8D10123AB73E1B20068BDE877
:105A7000F047FFF74FBE0C46994617468246002175
:105A80005EF8045FEE7B46B101311429F8D1FFF7CF
:105A900047FE011E03DABDE8F0870123EB730AEB32
:105AA000810306205B6800225875012083F8288056
:105AB00083F82A2083F8292083F82B201A75D873BD
:105AC00098739C819F61C3F82490DAF80000DA6132
:105AD000C9B21A62DA621A631A61BDE8F047FFF7C9
