:1000000000800020BD010000114B0000D54A000017
:10001000D54A0000D54A0000D54A0000D54A000064
:10002000D54A0000D54A0000D54A0000114B000017
:10003000114B0000D54A0000114B0000C54A0000DA
:10004000114B0000114B0000114B0000114B000040
:10005000114B0000114B0000114B0000114B000030
:10006000114B0000114B0000114B0000114B000020
:10007000114B0000114B0000114B0000114B000010
:10008000114B0000114B0000114B0000114B000000
:10009000114B0000114B0000114B0000114B0000F0
:1000A000114B0000114B0000114B0000114B0000E0
:1000B000114B0000114B0000114B0000114B0000D0
:1000C000114B0000114B0000114B0000114B0000C0
:1000D000114B0000114B0000114B0000114B0000B0
:1000E000114B0000114B0000114B0000114B0000A0
:1000F000114B000059540000114B000051590000F1
:10010000114B0000496E0000114B0000114B000024
:10011000114B0000114B0000114B0000114B00006F
:10012000114B0000114B0000114B0000114B00005F
:10013000114B0000114B0000114B0000114B00004F
:10014000114B0000114B0000114B0000114B00003F
:10015000114B0000114B0000114B0000114B00002F
:10016000114B0000195C0000114B0000114B000006
:10017000114B0000114B0000114B0000114B00000F
:10018000114B0000114B0000114B0000114B0000FF
:10019000114B0000114B0000114B0000114B0000EF
:1001A000114B0000114B0000114B0000114B0000DF
:1001B000114B0000114B0000114B000010B56B4BB0
:1001C0004CF220521A804DF628121A8000BF00BF50
:1001D00004F0A2FC4FF01062654B1A60654A0833C8
:1001E0001A60654A04331A60A3F530432C3B1B6840
:1001F00013F4807F06D10022604B1A604FF4A8529E
:10020000043B1A605E4B1B7813F0080F04D05C4B64
:100210001A7842F008021A702A225A4B1A705A4B66
:100220005A4A9A420DD2131D594CE41A24F0030481
:1002300004340023104657495A581A500433A34235
:10024000FAD1554B554A9A4280F08B80131F54497E
:10025000C91A21F003011A1D1144002243F8042F8A
:100260008B42FBD17DE05A581A500433B3F5DE7F40
:10027000F9D14C4B80214C4A03F8011B9342FBD12E
:100280004A4B4B4A1A600A224A4B1A702422A3F6A0
:10029000FF731A70A022013B1A7006331A7812F00D
:1002A000020FFBD0444B1A7812F0100FFBD1424BD7
:1002B0001A7802F00C02082AFAD103223F4B1A7076
:1002C000402201331A7001331A7812F0200FFBD04C
:1002D000394B1A7812F0400FFBD0394A394B1A606B
:1002E000022204331A602022374B1A7006331A7820
:1002F00002F00C020C2AFAD1344A354B1A60354A06
:10030000354B1A60002204331A600722083B1A603A
:10031000324A03F551631A6062B604F047FE174B88
:100320001B6813F0010F05D02D4804F025FC2D4A61
:100330002D4B1A602D4B1B7813F0400F0AD02A4B1F
:100340001A68284B9A4205D1254804F015FC002272
:10035000254B1A600AF06EFD04F0E4FB06F09AFAF1
:10036000FEE70023124822497DE700BF0E2005402A
:1003700030800440823F04000100002B14D0034071
:1003800002D0074000E007402096FF1F6089FF1F52
:100390002396FF1FE42501003CB4FF1F2096FF1F9A
:1003A00037B4FF1F00E400E05FE400E008ED00E088
:1003B0000084FF1F005006400640064004400640EF
:1003C000000003014480044000400640C0100500C6
:1003D00004800440FF76010014E000E000002020CB
:1003E0002D4B9503A5C3945A1CE0034000F0074031
:1003F00000000000FFFFFFFFFFFFFFFFFFFFFFFF09
:10040000FFFFFFFFFFFFFFFFFFFFFFFFFEFFFFFFFD
:1004100010B5054C237833B9044B13B10448AFF33E
:1004200000800123237010BD2096FF1F00000000F4
:10043000DC25010008B5064B1BB106480649AFF3A1
:1004400000800648036813B1054B03B1984708BD07
:1004500000000000DC2501002496FF1F2096FF1FEE
:100460000000000008B506F029F808BD08B505F041
:10047000D9FF08BD08B506F001F808BD08B506F0BB
:10048000B5F808BD08B5084606F0A4F808BD00BFD9
:1004900008B50846114606F01FF808BD30B585B00E
:1004A000264B1A798DF804209A6802921B7B8DF8EE
:1004B0000C3004AC224B44F8103D982006F0F2F9C1
:1004C0000546694602F0DEF81E4C2560E02006F085
:1004D000E9F9054601F0D8FF1B4B1D604FF43A7057
:1004E00006F0E0F9054602F09BFE184B1D6048201F
:1004F00006F0D8F9054600F089FD154B1D60012076
:1005000006F0D0F9054600F063F9124B1D6041F288
:10051000883004F037FD0D20012104F0F7FB20683E
:100520000D490E4A02F0CEF8B02006F0BBF90446A1
:1005300001F07CF80A4B1C6005B030BD44B3FF1FCE
:10054000800D01006097FF1F6897FF1F6C97FF1FCA
:100550005097FF1F5897FF1F980D0100A80D01002D
:100560005497FF1F38B5354B186802F039FF044621
:10057000D0F1010238BF00223148012100F0F2FA27
:10058000002C39D02D4D286802F03AFF2C4CD0F1C8
:10059000010238BF00222046032100F0E3FA286858
:1005A00002F03EFFD0F1010238BF002220460421B4
:1005B00000F0D8FA286802F043FFD0F1010238BFFA
:1005C00000222046052100F0CDFA286802F048FFFD
:1005D000D0F1010238BF00222046062100F0C2FA05
:1005E000286802F04DFFD0F1010238BF00222046FA
:1005F000072100F0B7FA14E0114C2046032100F067
:10060000B5FA2046042100F0B1FA2046052100F099
:10061000ADFA2046062100F0A9FA2046072100F095
:10062000A5FA084B186800F011FDD0F1010238BF9F
:1006300000220348022100F095FA38BD6C97FF1F95
:100640003C96FF1F5097FF1F10B5214B186803F011
:100650005BFA204B186800F065FF1F4B186802F02A
:10066000FFFC1E4B1C681E4B1B68A34207D804F5F9
:100670007A721B4B1A60164B186803F025F9194B58
:100680001B68A34206D804F1C802164B1A6016482C
:1006900000F07EFA154B1B68A3420DD804F16402EA
:1006A000124B1A6042F210739C4201D9FFF75AFFB5
:1006B000074B186802F00EFF0D4B1B68A34206D8CB
:1006C0000A340B4B1C600B4B186801F0B7FB10BDD4
:1006D0006C97FF1F5097FF1F6097FF1F38B1FF1FD8
:1006E0006497FF1F5896FF1F3C96FF1F4C97FF1FF4
:1006F0005C97FF1F5497FF1F08B504F07DF902486F
:1007000000F028FA08BD00BF3C96FF1F044B1A6892
:10071000B2F8C82202601B68B3F9CA320B60704796
:100720006C97FF1F30B4124C2568D5F83C52056019
:100730002068D0F8380208602168D1F840120D48CE
:1007400080FB0150C917C1EBA00111602268D2F8EB
:10075000442202EB820252001A602368D3F850321E
:10076000642202FB03F2029B1A6030BC704700BF98
:100770006C97FF1F67666666024B1B6893F93432FD
:10078000036070476C97FF1F38B504460D46084B51
:100790001B68D3F85C0207490AF022F90AF0E6FA6E
:1007A0002860054B1846197D00F0BEF9206038BD61
:1007B0006C97FF1F0000C8427097FF1F10B50446DA
:1007C000024800F0B1FB206010BD00BF8897FF1FFA
:1007D00038B50546012004F049F920B10B4B1868E3
:1007E0000B4900F041FC094C20680A4900F03EFC2E
:1007F0002068094900F03CFC2068084900F03AFCF8
:100800002068074900F038FC284638BD5097FF1F84
:10081000890700000D07000025070000BD07000044
:100820007907000008B5044800F09CF80120014653
:1008300004F030F908BD00BF7097FF1F08B50248EB
:1008400000F002F908BD00BF7097FF1F08B504F063
:10085000D3F8034800F0ECF9024800F0C5F808BDF1
:100860008897FF1F7097FF1F70B582B0094B1E68F5
:10087000037B50F823508468006909F01DFCCDE922
:100880000001304604492A46234601F01BFF02B00E
:1008900070BD00BF6097FF1FC00D010038B5044652
:1008A0000D4600680BF05EF830B1606829460BF029
:1008B00059F820B9012000E00020C0B200E0FF207C
:1008C00040B238BD08B580680BF04CF8003018BF56
:1008D0000120404208BD00BF08B508460AF092FA60
:1008E00009F020FF06F06AFD06F0E2FC40B208BD08
:1008F0002DE9F041044616461F46FFF7CFFF054697
:1009000020463146FFF7DEFF064620463946FFF710
:10091000E3FF0746002D1CDB002E1DDB06F104085B
:1009200004EB48039D80103676003046E9B204F0AF
:10093000B1F838460AF000F80146094806F0A8FD6B
:1009400044F82800701CF9B204F0A4F80120BDE8B6
:10095000F0810020BDE8F0810020BDE8F08100BFFB
:100960000000204170B505460120014604F092F8D0
:10097000174C28461749184A2346FFF7B9FF28465F
:100980001649174A2346FFF7B3FF4024A4F140015C
:100990002046C9B204F07EF80134482CF6D1482034
:1009A000032104F077F84920832104F073F80D4DFA
:1009B0006B1E2E4605F282355C1C03F14B00801B3A
:1009C000597804F067F8AC4201D02346F4E770BDD3
:1009D000F80D0100D80D0100E80D0100000E010026
:1009E0000C0E01006489FF1F38B50446002585827E
:1009F000114B0360114B4360114B8360202004F0C6
:100A000035F8A081212004F031F840B209F094FFBC
:100A100001460C4806F03CFD2061284604F026F80B
:100A2000662806D02046FFF79DFF2846662104F081
:100A300031F8204638BD00BF240E0100D80D01005A
:100A4000E80D010000002041F0B583B0074600200A
:100A500023490CF0E9F8044618B93846FFF704FFBB
:100A60003BE000201E490CF0DFF8054628B91D4B7D
:100A700018681D4901F026FE2FE0002018490CF0EF
:100A8000D3F80646A0B9384621462A46174BFFF749
:100A90002FFF28B9134B1868154901F013FE1CE00D
:100AA000104B1868134922462B4601F00BFE14E048
:100AB000384621462A463346FFF71AFF28B9094B24
:100AC00018680B4901F0FEFD07E0064B1868009618
:100AD000094922462B4601F0F5FD03B0F0BD00BFE9
:100AE000FC1401006097FF1F3C0E0100780E01000E
:100AF0007C0E0100BC0E0100EC0E010008B511B126
:100B0000012905D00BE0074B1B68D3F8B00208BDE4
:100B1000044B1B68D3F858020AF028F908BD0020DE
:100B200008BD00BF6C97FF1F38B504460D1D00EBD4
:100B300045031979FFF7E2FF09F0FEFE54F825108E
:100B400009F04EFF06F0B4FB38BD00BF08B503F056
:100B500053FF08BD0D220270002242758275C275D6
:100B60000276704701444A70704700BF0144002379
:100B70004B70704700234375C218527822B1427DF2
:100B8000511C41750244D37201330A2BF4D17047D2
:100B900010B50446037E052B49D8DFE803F0031B9C
:100BA0002731383F437D73B1827D9A4203D30023BE
:100BB0008375FFF7DFFFA37D2344DB7A013BE375F9
:100BC0000123237601E0FFF7D5FF2078012104F00F
:100BD00079F810BD0078002104F074F8E37D13B1BA
:100BE0000223237610BD0323237610BD0078012154
:100BF00004F068F8E37D013BE3750123237610BD23
:100C00000078002104F05EF80423237610BD0078FC
:100C1000002104F057F80523237610BD0078002149
:100C200004F050F800232376A37D0133A37510BD93
:100C3000002280F80028A0F80228A0F80428A0F8D4
:100C4000062870472DE9F04180460E4600242746CD
:100C500010E0735DA3F12002D2B25E2A09D87A1C9B
:100C6000B8F8061801F00F0107EBC11708F80730B4
:100C700097B20134A5B230460AF082FF8542E8D32C
:100C8000B8F8063803F00F0207EBC217002208F885
:100C900007200133A8F80638BDE8F08108B50846FA
:100CA0000DF01AFBC0B2A0F14103DBB2192B02D840
:100CB0004038C0B208BDA0F13003DBB2092B02D826
:100CC0001538C0B208BD1F2810D82D2810D82B28E1
:100CD00010D83C2810D8392810D8202810D82C2813
:100CE00010D82B2834BF3F202C2008BD252008BD5C
:100CF000262008BD272008BD282008BD292008BDC2
:100D00002A2008BD2B2008BDF8B50446B0F80458C9
:100D1000B0F80638AB421CD090F8006805F00F0719
:100D200000EBC7100AF02CFF864206D30135A4F869
:100D30000458002084F80008F8BD731C84F80038BB
:100D400006EBC716A15D204601F07F01FFF7A6FF65
:100D5000F8BD0020F8BD00BF38B50C460846234951
:100D600009F0F0FF60B12046214909F0F5FF00B11C
:100D70001F4C20461F4909F0E7FE0446022518E0F3
:100D800020461D4909F0DEFF30B120461B4909F01D
:100D9000DBFE044601250CE02046164909F0D2FF8F
:100DA00030B92046154909F01BFE0446032500E032
:100DB00000252046002109F0C5FF48B1204609F072
:100DC0007BF900220E4B09F019F809F063FC08E0EA
:100DD000204609F071F90022094B09F00DF809F0DD
:100DE00059FCC0F3090000EB852038BD00401C46CB
:100DF00000CEC7470000C84200007A4400002041EE
:100E00000000E03F70B505460C460F2979D8DFE8B1
:100E100001F00814191E2831363B40454D525863E5
:100E20006873FFF771FF064600286CD02846FFF76D
:100E30006BFF40EA861080B266E0B0F80208C0F3AB
:100E40000B0061E0354B1B68B3F8DA025CE0334B12
:100E50001B68D3F8DC02324BA3FB0020C0F34F1019
:100E600052E02E4B1B68B3F848022E4BA3FB002028
:100E7000C00849E0294B1B6893F8350244E0274B32
:100E80001B6893F836023FE0244B1B6893F82A0254
:100E90003AE0224B1B68B3F82C0235E01F4B1B686D
:100EA000D3F8580209F062FF80B22DE01B4B1B689B
:100EB000B3F8B00228E0194B1B6893F9340280B2F2
:100EC00022E0164B1B68B3F8B40209F031FD01466D
:100ED0002846FFF741FF17E0104B1B68B3F8D40218
:100EE00012E00E4B186802F0EBFA09F021FD014602
:100EF0002846FFF731FF07E0084B1B68B3F8D8021C
:100F000002E0002000E00020240340F6FF73984236
:100F100094BF204344EA030080B270BD6C97FF1F6A
:100F20001F85EB51CDCCCCCC2DE9F0470646324B9A
:100F30001B782BB9B0F80428B0F806389A4250D183
:100F40000F252E4CDFF8C080DFF8B89030462178AE
:100F5000FFF758FF98F800308BB1237839F81370F9
:100F600087420CD1264A32F813A01420282105F01C
:100F7000E9FC5044B6F8023898421FDA38461F4B55
:100F80001B78204A22F81300B6F802281C4921F8E1
:100F90001320002418490C700133DBB20F2B03D847
:100FA000164A1370074623E0012314490B701A44B4
:100FB000A6F80228144A1370074619E02378013373
:100FC000DBB20F2B01D8237008E001232370B6F8A1
:100FD00002281A44A6F8022888F80030013DB5D14D
:100FE00006E00021FFF70EFF07460122024B1A70B0
:100FF0003846BDE8F08700BFD09FFF1FE88CFF1F79
:10100000909FFF1FB09FFF1FD19FFF1F10B5044689
:1010100000238370C370037143718360C3600361F5
:1010200043618361C361036243628362C36203639A
:1010300040F6055004F014F8034B10229A71A021D9
:1010400099705A71204610BD00A0064008B5054BA6
:1010500018680C2101F0F0FAB0F5966FACBF0020D3
:10106000012008BD6897FF1F416370478163704787
:10107000C163704701647047416470470388194435
:1010800001EB112101F0FF010180704770B50546A9
:101090000C467E290BD1114E33681B6830467D21EA
:1010A000984733681B6830465E21984710E07D29D9
:1010B0000BD10A4E33681B6830467D219847336850
:1010C0001B6830465D21984702E0084604F08CF822
:1010D00028462146FFF7D2FF70BD00BF34B3FF1F83
:1010E00010B5044605480368B4F90010C1F1FF01CA
:1010F0001B68C9B298470023238010BD34B3FF1F7B
:1011000030B583B004460092ADF80610184DAB79A7
:1011100043F02003AB711021FFF7B8FF20469DF884
:101120000610FFF7B3FF20469DF80710FFF7AEFF4C
:1011300020469DF80010FFF7A9FF20469DF80110FA
:10114000FFF7A4FF20469DF80210FFF79FFF2046FF
:101150009DF80310FFF79AFF2046FFF7C1FF04F048
:10116000F5F8AB7983F02003AB7103B030BD00BF5D
:1011700000A0064030B583B00446ADF80610164D09
:10118000AB7943F02003AB710021FFF77FFF2046CE
:101190009DF80610FFF77AFF20469DF80710FFF72D
:1011A00075FF20460021FFF771FF20460021FFF761
:1011B0006DFF20460021FFF769FF20460021FFF761
:1011C00065FF2046FFF78CFF04F0C0F8AB7983F091
:1011D0002003AB7103B030BD00A0064070B582B0F3
:1011E0000446A84B1D68452900F0768103D849B113
:1011F000222946D08EE1832900F08280E42900F084
:101200004D8187E1A04B18680D2101F001FA237987
:1012100013B1012B1ED07DE19C4B1B68AB4213D256
:10122000636B23B104F10C0004F1080198472046D8
:101230004FF48071E268FFF763FF05F5FA75934B91
:101240001D600123237165E120464FF48071FFF793
:1012500091FF5FE18D4B1B68AB420CD220464FF4EF
:101260008871A268FFF74CFF05F5FA75874B1D6082
:10127000002323714EE120464FF48871FFF77AFF77
:1012800048E1814B18680E2101F0C2F9E37813B1EF
:10129000012B1ED03EE17E4B1B68AB4213D2A36BE9
:1012A00023B104F1100004F11401984720464FF4D3
:1012B00004712269FFF724FF05F5FA75744B1D6070
:1012C0000123E37026E120464FF40471FFF752FF3B
:1012D00020E16F4B1B68AB420CD220464FF40071EB
:1012E0006269FFF70DFF05F5FA75694B1D60002374
:1012F000E3700FE120464FF40071FFF73BFF09E177
:10130000614B18680F2101F083F96379042B00F217
:101310000181DFE803F003427188A0005D4B1B6888
:10132000AB4234D2E66B5EB104F12803009304F1C2
:10133000180004F11C0104F1200204F12403B04759
:10134000A369002B0CDA5B42534A82FB0312DB17C2
:10135000C3EB621303EB43035A0042F040420AE03E
:101360004D4A82FB0312DB17C3EB621303EB43030B
:101370005A0042F0004220464FF40061FFF7C0FEE1
:1013800005F5FA75434B1D6001236371C2E02046E9
:101390004FF40061FFF7EEFEBCE03E4B1B68AB4232
:1013A00024D2E369002B0CDA5B423B4A82FB031236
:1013B000DB17C3EB621303EB43035A0042F0804296
:1013C00008E0354A82FB0312DB17C3EB621303EB21
:1013D00043035A0020464FF40061FFF791FE05F5E4
:1013E000FA752C4B1D600223637193E020464FF485
:1013F0000061FFF7BFFE8DE0264B1B68AB420CD2AD
:1014000020464FF40261226AFFF77AFE05F5FA756D
:10141000204B1D60032363717CE020464FF4026182
:10142000FFF7A8FE76E01B4B1B68AB420DD22046AF
:101430004FF40361626AFFF763FE164B1A6802F508
:10144000FA721A600423637164E020464FF403616A
:10145000FFF790FE5EE00F4B1B68AB420CD22046BC
:101460004FF40461A26AFFF74BFE05F5FA75094BCC
:101470001D60002363714DE020464FF40461FFF7C7
:1014800079FE47E038B1FF1F6897FF1FD89FFF1F05
:10149000D49FFF1FE49FFF1F1F85EB511E4B186851
:1014A000102101F0B5F81D4B1B68AB420ED2236C26
:1014B00013B104F12C00984720464FF4A061E26A72
:1014C000FFF71EFE6435154B1D6023E020464FF4E8
:1014D000A061FFF74FFE1DE00F4B1868112101F0CE
:1014E00097F80F4B1B68AB420FD2636C13B104F13A
:1014F0003000984720464FF4C061226BFFF700FE92
:1015000005F5FA75064B1D6004E020464FF4C061F6
:10151000FFF730FE02B070BD6897FF1FDC9FFF1F12
:10152000E09FFF1F2DE9F04105460F4F0C264FF0BD
:10153000000813E003F03CFFC4B23868314601F004
:1015400067F87E2C02D10123AB7007E0AB782BB19A
:1015500028462146FFF742FE85F8028003F018FF77
:101560000028E7D1BDE8F0816897FF1FF8B5054670
:1015700000230380482003F079FA0446492003F051
:1015800075FA00EB042083B240F2B572934210D892
:10159000214A13806BB1214E741E013B16FA83F76A
:1015A000C6F14B06301903F061FA04F8010FBC4292
:1015B000F8D140240026204603F058FA06440134AE
:1015C000482CF8D11C2E23D0154B1868154901F072
:1015D00079F84024A4F140012046C9B203F05AFA38
:1015E0000134482CF6D113E0204603F03FFA3319BA
:1015F00003F8400C0134482CF6D1002426466868D4
:101600002146324603F0DCF80134502CF7D1F8BD06
:101610004024054EE8E700BFE89FFF1FF89FFF1F2B
:101620006097FF1F180F0100F09FFF1F30B583B0B8
:10163000044600230380836080F8AC30012005F06D
:1016400031F90546022300930A210D4A0D4B02F0A1
:10165000FFFE6560284602F011FF2046FFF786FF77
:10166000606803F049F8682005F01CF905466168D8
:1016700000F068FC044B1D60204603B030BD00BF85
:101680000082FF1F5C96FF1FEC9FFF1F08B501390A
:1016900040296BD8DFE801F021266A6A6A6A6A6A23
:1016A0006A6A6A6A6A6A6A2B30353A6A6A6A6A6A78
:1016B0006A6A6A6A6A6A6A3F446A6A6A6A6A6A6ADB
:1016C0006A6A6A6A6A6A6A4950555A6A6A6A6A6ADA
:1016D0006A6A6A6A6A6A6A5F6500254B1B68B3F8C2
:1016E000C40208BD224B1B68B3F8C60208BD204BDC
:1016F0001B68B3F9CA0208BD1D4B1B68B3F8C802CA
:1017000008BD1B4B1B6893F9340208BD184B1B68BE
:10171000D3F8E00208BD164B1B68B3F8480208BDB9
:10172000134B1B6893F8360208BD114B1B68D3F8A6
:10173000580209F041FB08BD0D4B1B68B3F8DA02F3
:1017400008BD0B4B1B68D3F8500208BD084B1B6843
:10175000D3F8440208BD064B1B6893F82A02C01157
:1017600008BD034B1B68B3F82C0208BD002008BD60
:101770006C97FF1F2DE9F84303885C1CA4B204801A
:10178000374AD15C9D1CADB20580165DDC1CA4B24D
:101790000480575D1D1DADB2058012F804C05C1DAC
:1017A000A4B20480555D06330380145DBCF1080FBC
:1017B00053D82C4B13F80C8013294ED82A4B186899
:1017C00000F066FB394633462A46C6EB0709B9F1F5
:1017D000000FB8BFC9F10009C5EB040CBCF1000F44
:1017E000B8BFCCF1000CE14537D1A5428CBFFF2436
:1017F0000124BE4203D3B7421ADDBDE8F883B742E5
:101800002BDB06442D3664B23F2B0ADC86F80080C1
:1018100086F8402090F82C509D42DCBF5D1C80F87B
:101820002C502244013301369942EDDABDE8F883A9
:1018300006442D3664B23F2B0ADC86F8008086F819
:10184000402090F82C509D42DCBF5D1C80F82C504D
:101850002244013B013E9942EDDDBDE8F88300BF23
:10186000F89FFF1FF09FFF1FEC9FFF1F08B5038825
:101870005A1C0280054AD15C132905D8044B18680C
:1018800000F006FB00F07AFC08BD00BFF89FFF1FC8
:10189000EC9FFF1F08B5024B186800F021FB08BD44
:1018A000EC9FFF1F08B5024B186800F08BFC08BDC9
:1018B000EC9FFF1FF0B403885C1CA4B204800F4AA5
:1018C000D55C991C89B20180165DDC1CA4B2048031
:1018D000575C191D89B20180145D05330380535C88
:1018E000072D08D83F0447EA0666334300EB85001E
:1018F00043EA0424C460F0BC704700BFF89FFF1F98
:1019000038B5044603885A1C92B202800649CD5C61
:1019100002330380895C072D04D8FFF7B7FE04EB80
:101920008504E06038BD00BFF89FFF1F03885A1C84
:101930000280044AD35C072B03D800EB8303DB68E7
:1019400083607047F89FFF1F03885A1C0280024A79
:10195000D35C1B0203807047F89FFF1F10B40388FD
:101960005A1C92B202800749CC5C02339BB20380BE
:10197000895CC2681AB941EA04210B4403805DF80E
:10198000044B7047F89FFF1F10B403885A1C92B293
:1019900002800749CC5C02339BB20380895CC26839
:1019A0001AB141EA04210B4403805DF8044B7047EF
:1019B000F89FFF1F10B403885A1C92B20280094995
:1019C000CC5C023303808B5C072C07D8072B05D82F
:1019D00000EB8404E26800EB8300C2605DF8044B16
:1019E000704700BFF89FFF1F10B5044603885A1CBC
:1019F0000280074AD15C074B186890F864308B422C
:101A000004D900F045FAE16800F0C2FA10BD00BF49
:101A1000F89FFF1FEC9FFF1F10B582B0044603889C
:101A20005A1C0280094AD15C094B186890F864304E
:101A30008B4208D900F02CFAE16822696369A46935
:101A4000009400F0C7FA02B010BD00BFF89FFF1F5E
:101A5000EC9FFF1F10B582B0044603885A1C028019
:101A6000094AD15C094B186890F864308B4208D958
:101A700000F00EFAE16822696369247E009400F0A8
:101A8000CDFA02B010BD00BFF89FFF1FEC9FFF1FF3
:101A900010B5044603885A1C0280084AD15C084BE2
:101AA000186890F864308B4206D900F0F1F9E168CB
:101AB0002269636900F0DCFA10BD00BFF89FFF1FC8
:101AC000EC9FFF1F10B5044603885A1C0280074A8A
:101AD000D15C074B186890F864308B4205D900F050
:101AE000D7F9E168227C00F0E5FA10BDF89FFF1FEE
:101AF000EC9FFF1F10B5044603885A1C02800C4A55
:101B0000D15C0C4B186890F864308B420FD900F010
:101B1000BFF963692269D21A642101FB02F2A1694B
:101B2000CB1AE168B2FBF3F2237F00F0DFFA10BDBD
:101B3000F89FFF1FEC9FFF1F08B503885A1C028007
:101B4000064AD15C064B186890F864308B4204D981
:101B500000F09EF9002100F01BFA08BDF89FFF1F5E
:101B6000EC9FFF1F08B503885A1C0280064AD15C0F
:101B7000064B186890F864308B4203D900F088F95E
:101B800000F01CFA08BD00BFF89FFF1FEC9FFF1F6D
:101B9000C26803699A420CBF01230023C3607047E7
:101BA000C26803699A4214BF01230023C3607047CF
:101BB000C26803699A4234BF01230023C36070479F
:101BC000C26803699A4294BF01230023C36070472F
:101BD000C26803699A428CBF01230023C360704727
:101BE000C26803699A422CBF01230023C360704777
:101BF000C3680BB9036913B10123C36070470023A5
:101C0000C3607047C36823B1036913B10123C36084
:101C100070470023C360704703885A1C0280094A3A
:101C2000D35C072B0CD890F8AC201F2A08D8511C85
:101C300080F8AC1000EB820200EB8300C368D36233
:101C4000704700BFF89FFF1F03885A1C0280094A93
:101C5000D35C072B0CD890F8AC204AB1013AD2B231
:101C600080F8AC2000EB830300EB8202D26ADA60DA
:101C7000704700BFF89FFF1F03885A1C028000EBCB
:101C80008101024AD35CCB60704700BFF89FFF1F01
:101C900030B403885A1C92B20280064CE55C0233D1
:101CA000038000EB8101A35C43EA0525CD6030BCD5
:101CB000704700BFF89FFF1F08B503885A1C0280B9
:101CC0005B4AD25C531E4B2B00F2AA80DFE803F084
:101CD000325D606366A8A86F9C9FA5A2696CA88A04
:101CE0008D90939699A8A8A8A8A8A8A8A8A8A8265F
:101CF000292C2FA8A8A8A8A8A8A8A8A8A8A8A8720E
:101D000075787E817B8487A8A8A8A8A8A8A8A835EC
:101D1000393D4145A8A8A8494D515559FFF72AFD1D
:101D200008BDFFF7A3FD08BDFFF7BCFD08BDFFF729
:101D3000B1FD08BDFFF7BEFD08BD0021FFF79CFF08
:101D400008BD0121FFF798FF08BD0221FFF794FFAE
:101D500008BD0321FFF790FF08BD0421FFF78CFFAA
:101D600008BD0021FFF794FF08BD0121FFF790FF98
:101D700008BD0221FFF78CFF08BD0321FFF788FF94
:101D800008BD0421FFF784FF08BDFFF7B9FD08BDBA
:101D9000FFF7CCFD08BD0A23836008BDFFF7D4FD23
:101DA00008BDFFF7DBFD08BDFFF7EEFD08BDFFF73F
:101DB00001FE08BDFFF718FE08BDFFF72DFE08BDA8
:101DC000FFF748FE08BDFFF763FE08BDFFF77AFE88
:101DD00008BDFFF78FFE08BDFFF7AEFE08BDFFF799
:101DE000C1FE08BDFFF7D4FE08BDFFF7D9FE08BD50
:101DF000FFF7DEFE08BDFFF7E3FE08BDFFF7E8FED4
:101E000008BDFFF7EDFE08BDFFF706FF08BDFFF7B1
:101E10001BFF08BDFFF7F6FE08BDFFF7E9FE08BD92
:101E2000044B186810B1044900F04CFC08BD00BF19
:101E3000F89FFF1F6097FF1F340F010038B504465D
:101E40008368052B06DC02880D4B1B889A420FD253
:101E50000B4D06E00A3BA3600AE022882B889A42D9
:101E600006D22046FFF728FFA368052BF5DDF1E732
:101E7000044B186800F0F0FA606802F03DFC38BDD1
:101E8000E89FFF1FEC9FFF1F08B502F0B5FD08BDDE
:101E900013299ABF00EB810148690020704700BFF9
:101EA00030B40D4690F900308B4215D00246012324
:101EB00012F9014FAC4205D113F0FF0318BFC2184D
:101EC00004D109E00133142BF2D105E012F8014CE2
:101ED00002F80149013BF9D1017030BC704700BFE5
:101EE00000231946C218526951720433502BF9D19C
:101EF000704700BF10B400244472C460047444747A
:101F000044618461C461046280F8244080F8254003
:101F100080F8264080F827408462016042600372A6
:101F200000F12C022346FF2102F8011F82F8401025
:101F30000133402BF8D1002380F82C305DF8044B9E
:101F4000704700BF2DE9F84306468946142380F800
:101F50006430054600244FF0B008404604F0A2FC6F
:101F6000074649463246E3B2FFF7C4FF6F61345576
:101F700001340435142CF0D13046BDE8F88300BF9D
:101F800008B503464068197AFFF78AFF08BD00BF0D
:101F900038B504460D46FFF7F3FF01236372637CF7
:101FA000012B02D16369AB4207D00023E3602374A5
:101FB000012262746561A361E36138BD437C072B34
:101FC00007D00023C3600374072242744361836116
:101FD000C3617047F8B504460D4617461E46FFF725
:101FE000CFFF01236372637C022B0CD16369AB4288
:101FF00009D1A369BB4206D1E369B34203D1A36A05
:10200000069A934209D00020E06020740223637492
:102010006561A761E661069BA362F8BD2DE9F04109
:1020200004460E46174698469DF81850FFF7A8FF3D
:1020300001236372637C032B0DD194F82730AB42EC
:1020400009D16369B34206D1236ABB4203D194F834
:10205000243043450AD00020E060207403236374D9
:102060006661276284F8248084F82750BDE8F081F7
:10207000F8B504460D4616461F46FFF781FF0123BB
:102080006372637C062B09D16369AB4206D1236A74
:10209000B34203D194F82430BB420AD00020E06060
:1020A0002074062363746561266284F8247084F8C2
:1020B0002700F8BD70B504460E461546FFF760FFD1
:1020C000012363722662637C042B03D194F82630CB
:1020D000AB4209D00023E36023740422627463617D
:1020E00084F8243084F8265070BD00BFF8B504464B
:1020F0000E4617461D46FFF743FF01236372637CBC
:10210000052B06D194F82730AB4202D16369B34264
:1021100014D00020E0602074052363746661A06120
:10212000E0611F4494F82C3003FB07F7044BA3FB3A
:1021300007277F0984F8257084F82750F8BD00BF71
:102140001F85EB51F8B5064690F82C30A3B100F18D
:102150002C0400252F46013494F84010237803EB1B
:102160008303306801EB43013A4602F029FB013555
:1021700096F82C30AB42EEDCF8BD00BF10B504463B
:10218000FFF7E0FF04F12C020023FF2102F8011FFA
:1021900082F840100133402BF8D10023E360237410
:1021A00063746361A361E361236284F8243084F87B
:1021B000253084F8263084F82730A36284F82C3048
:1021C00010BD00BF38B5054600242B195869FFF72C
:1021D000D5FF0434502CF8D138BD00BF2DE9F041B3
:1021E0000446437A002B00F03581437C013B052BEC
:1021F00000F23081DFE813F00D0028005400DA000F
:102200000600910090F82530002B40F00781BDE8D2
:10221000F08190F82C30002B00F01C8100F12C058F
:102220000026013595F840102B7803EB83032068D6
:1022300001EB4301626902F0C3FA013694F82C30D5
:10224000B342EEDCBDE8F081C368826A93421AD3E0
:1022500081690A44934216D290F82C309BB100F168
:102260002C050026013595F840102B7803EB8303ED
:10227000206801EB4301626902F0A2FA013694F88A
:102280002C30B342EEDCE3680A33E360E169A26913
:102290000A44934240F2DE800023E360BDE8F0810F
:1022A000057C90F824302B449D4221DA94F82C30A0
:1022B00095FBF3F103FB115154FA81F191F82D20B4
:1022C00091F86D1094F8270010B1013B591AC9B26A
:1022D00002EB8202206801EB4201626902F070FAAF
:1022E0000135237C94F824201A44AA42DEDC00E065
:1022F0002B46E268216A8A420BD3013394F82C20E2
:1023000093FBF2F102FB113323740023E360BDE879
:10231000F0810A32E260BDE8F08190F82C8090F8FC
:102320002470037C1E46DA19934217DA034403F142
:102330002C05013595F840102B7803EB83032068BA
:1023400001EB4301626902F03BFA0136237C194636
:1023500094F824201A44B242EBDC00E01946E2680B
:10236000206A82421ED394F8272072B9013108F105
:102370000102D21BD2B29142A3BF012284F82720CE
:1023800003F1FF330133237408E02BB901232374D5
:10239000002384F8273001E0013B23740023E3602D
:1023A000BDE8F0810A32E260BDE8F081C368026AEC
:1023B00093422FD390F82C3043B300F12C05002723
:1023C0003E46304694F8261004F0BCFA804630466B
:1023D00094F8261004F0B6FA000200EB08483046E4
:1023E00094F8261004F0AEFA013595F840102B78D9
:1023F00003EB830308EB0002206801EB430102F0CA
:10240000DFF9013794F82C30BB42DADC0023E360BB
:10241000BDE8F0810A33C360BDE8F08100F12C060D
:10242000002516F8011F96F8403094F8272022B1B5
:1024300094F82C20013AD31ADBB201EB8101206819
:1024400003EB4101626902F0BBF9013594F82530D4
:10245000AB42E6DCBDE8F081F8B5054690F8644093
:10246000012C10D404440646002714F8013C013C1A
:10247000DBB2132B9ABF05EB830358693846FFF78D
:10248000ADFEB442F1D1F8BD0023C0F8A030C0F8D1
:10249000A430C0F8A830C0F8AC30C0F8B030C0F8F4
:1024A000B430C0F8B830C0F8BC30C0F8C030C0F8A4
:1024B000C430C0F8C830C0F8CC30C0F8D030C0F854
:1024C000D430C0F8D830C0F8DC30021F034942F8DD
:1024D000041F11650133142BF9D17047816967FF1F
:1024E0000CB400B5C3B0012908D1D0F8A430002B3A
:1024F00074D1D0F8A030002B70D17EE0022908D131
:10250000D0F8A830002B69D1D0F8A030002B65D1CD
:1025100073E0042908D1D0F8AC30002B5ED1D0F89C
:10252000A030002B5AD168E0032908D1D0F8B4308C
:10253000002B53D1D0F8A030002B4FD15DE00629FD
:1025400008D1D0F8B830002B48D1D0F8A030002BFB
:1025500044D152E0072906D1D0F8BC30F3BBD0F803
:10256000A030DBBB49E0082906D1D0F8C030ABBBB6
:10257000D0F8A03093BB40E00A2906D1D0F8C4308F
:1025800063BBD0F8A0304BBB37E00B2906D1D0F8A5
:10259000C8301BBBD0F8A03003BB2EE0222906D1E7
:1025A000D0F8D030D3B9D0F8CC30BBB925E01E2953
:1025B00006D1D0F8D4308BB9D0F8CC3073B91CE048
:1025C000202906D1D0F8D83043B9D0F8CC302BB977
:1025D00013E0282911D1D0F8DC3073B145AA01925B
:1025E00002A844990BF09EFE064B186828B1064BD2
:1025F0001A68064902AB00F065F843B05DF804EBD9
:1026000002B070476097FF1F38B1FF1F580F0100DD
:1026100000EB81031A6D40F82120024A12681A6506
:10262000704700BF38B1FF1F00EB81031A6D50F8EF
:102630002100101A704700BF034B1B68143150F87B
:102640002100181A704700BF38B1FF1F4B1E9BB204
:1026500099B10133C1184FF6FF7210F8013B83EABC
:10266000222383EA131343EA022282EA033282EA34
:1026700043139AB28842F0D101E04FF6FF72104640
:10268000704700BF10B40022C0F8802080F8882076
:102690004FF47A74C0F88C4080F89020084CC0F851
:1026A000844080F894200A7980F888208A68C0F8ED
:1026B0008C200A7B80F890205DF8044B704700BFA7
:1026C000800D01000EB430B5C2B0044645AA52F8E0
:1026D000041B019202A80BF025FE04F1840502A858
:1026E00009F04EFA0246D4F884305B68284602A905
:1026F000984742B0BDE8304003B0704710B504467B
:102700001849194AFFF7DEFF20461849FFF7DAFF9C
:1027100020461749FFF7D6FF20461649FFF7D2FF9C
:1027200020461549FFF7CEFF20461449FFF7CAFFA0
:1027300020461349FFF7C6FF20461249FFF7C2FFA4
:1027400020461149FFF7BEFF20461049FFF7BAFFA8
:1027500020460F49FFF7B6FF20460E49FFF7B2FFAC
:1027600010BD00BF5C0F0100A80D0100640F010047
:10277000C00F0100EC0F0100041001000C1001005B
:1027800018100100201001006410010094100100D5
:10279000B4100100D810010070B505460C4616466D
:1027A0000846144909F0DEF830B9012333602846A1
:1027B0001149FFF787FF70BD2046104909F0D2F894
:1027C00030B90023336028460D49FFF77BFF70BD09
:1027D00054B9346828460B49064B084A002C18BFE8
:1027E0001A46FFF76FFF70BD28460749FFF76AFFDB
:1027F00070BD00BFE4100100EC100100E810010002
:10280000F41001005C0F0100FC10010070B582B0F3
:1028100004463D4D2B68B3F8300207F03BFC002224
:102820003A4B07F0C7FD02460B4620463849FFF7F2
:1028300049FF2B68B3F9320207F02CFC0022354B1C
:1028400007F0B8FD02460B4620463349FFF73AFF32
:102850002B682046314993F93422FFF733FF2B6868
:10286000B3F8480207F016FC00222A4B07F0A2FD3D
:1028700002460B4620462A49FFF724FF2B682046D4
:10288000284993F83622FFF71DFF274E2B68204674
:102890003146B3F87622FFF715FF2B68D3F85802BC
:1028A00007F00AFC02460B4620462049FFF70AFFC4
:1028B0002B6820461E49D3F8B022FFF703FF2B6890
:1028C00020463146B3F87622FFF7FCFE2968B1F9BD
:1028D0006022B1F96232B1F96412009120461549C3
:1028E000FFF7F0FE286800F0EBFD02462046124993
:1028F000FFF7E8FE2B6820461049B3F8C622FFF721
:10290000E1FE02B070BD00BF6C97FF1F00408F401A
:10291000101101000000594034110100581101004C
:10292000781101009C110100BC110100DC110100B3
:10293000FC1101001C120100501201007012010074
:1029400038B504464D4D28680021FFF76DFE02465C
:1029500020464B49FFF7B6FE28680121FFF764FEC9
:10296000024620464749FFF7ADFE28680221FFF7DF
:102970005BFE024620464449FFF7A4FE2868032177
:10298000FFF752FE024620464049FFF79BFE2868AB
:102990000421FFF749FE024620463D49FFF792FE1B
:1029A00028680621FFF740FE024620463949FFF716
:1029B00089FE28680521FFF737FE02462046364982
:1029C000FFF780FE28680721FFF72EFE024620460B
:1029D0003249FFF777FE28680821FFF725FE0246F7
:1029E00020462F49FFF76EFE28680921FFF71CFEDD
:1029F000024620462B49FFF765FE28680A21FFF7AB
:102A000013FE024620462849FFF75CFE28680B218A
:102A1000FFF70AFE024620462449FFF753FE2868C6
:102A20000D21FFF701FE024620462149FFF74AFE2D
:102A300028680E21FFF7F8FD024620461D49FFF7E2
:102A400041FE28680F21FFF7EFFD024620461A4994
:102A5000FFF738FE28681021FFF7E6FD0246204602
:102A60001649FFF72FFE28681121FFF7DDFD02460A
:102A700020461349FFF726FE38BD00BF6897FF1FA9
:102A800090120100B0120100D0120100F0120100FA
:102A900010130100301301005013010070130100E6
:102AA00090130100B0130100D0130100F0130100D6
:102AB00010140100301401005014010070140100C2
:102AC0009014010038B50446002016490AF0ACF80D
:102AD000154908F047FF18BB12490AF0A5F805464A
:102AE00088B1124908F03EFF20B90120014601F0EB
:102AF000D1FF08E028460E4908F034FF18B901203C
:102B0000002101F0C7FF012001F0B0FF20B12046F5
:102B10000849FFF7D7FD38BD20460749FFF7D2FD2A
:102B200038BD00BFFC140100B0140100B81401004E
:102B3000C0140100C8140100E014010070B505467E
:102B40004A24084E204601F091FF024628463146AD
:102B5000FFF7B8FD01345A2CF4D128460249FFF79B
:102B6000B1FD70BDF8140100E80F010010B5044676
:102B70000348FDF757FE20460249FFF7A3FD10BDAD
:102B80005897FF1F001501002DE9F04782B08146DC
:102B90000DF107050DF1FF33092203F8012FAB42B8
:102BA000FBD10DF1FF36DFF8A0800027EA4638465A
:102BB00041460AF039F8037823B948461D49FFF722
:102BC00081FD34E008F022F90246411EC9B207290E
:102BD00004D89DF800308B4205D109E048461649DB
:102BE000FFF770FD23E0534613F8014FA14205D1D2
:102BF00048461249D2B2FFF765FD18E09D42F3D175
:102C000006F8011FAE42D2D1402400AB2344204637
:102C100013F8401C01F03EFF0134482CF5D1084B5D
:102C20001868FEF7A3FC48460649FFF74BFD02B0C3
:102C3000BDE8F087381501006C15010094150100FE
:102C40005497FF1FD8150100FC14010038B5054644
:102C50000846954909F0E8FF0446002800F0C981BC
:102C6000924908F07FFE002840F076818E4909F0F5
:102C7000DBFF04468E4908F075FE002840F0C48052
:102C8000894909F0D1FF04468A4908F06BFE58B91A
:102C9000854909F0C9FF0146874B1A682846A032CA
:102CA000864BFFF779FD38BD2046854908F05AFE6E
:102CB00058B97D4909F0B8FF01467F4B1A6828468C
:102CC000A432804BFFF768FD38BD20467E4908F0EE
:102CD00049FE58B9744909F0A7FF0146764B1A68B6
:102CE0002846A832794BFFF757FD38BD2046784972
:102CF00008F038FE58B96C4909F096FF01466E4B52
:102D00001A682846B432734BFFF746FD38BD20469B
:102D1000714908F027FE58B9634909F085FF01465B
:102D2000654B1A682846AC326C4BFFF735FD38BD51
:102D300020466B4908F016FE58B95B4909F074FF4C
:102D400001465D4B1A682846B032664BFFF724FDFA
:102D500038BD2046644908F005FE58B9524909F0CB
:102D600063FF0146544B1A682846B8325F4BFFF7A1
:102D700013FD38BD20465E4908F0F4FD58B94A49B4
:102D800009F052FF01464C4B1A682846BC32594B99
:102D9000FFF702FD38BD2046574908F0E3FD58B95A
:102DA000414909F041FF0146434B1A682846C032A9
:102DB000524BFFF7F1FC38BD2046514908F0D2FDD7
:102DC00058B9394909F030FF01463B4B1A6828468B
:102DD000C4324C4BFFF7E0FC38BD20464A4908F0AE
:102DE000C1FD58B9304909F01FFF0146324B1A683E
:102DF0002846C832454BFFF7CFFC38BD284644492A
:102E00002246FFF75FFC38BD2046424908F0AAFD84
:102E1000002840F08F80244909F006FF0446254928
:102E200008F0A0FD58B9204909F0FEFE0146224BEA
:102E30001A682846CC32384BFFF7AEFC38BD204626
:102E4000364908F08FFD58B9174909F0EDFE0146E3
:102E5000194B1A682846D032314BFFF79DFC38BD1C
:102E60002046304908F07EFD58B90F4909F0DCFED4
:102E70000146114B1A682846D4322B4BFFF78CFCC5
:102E800038BD2046294908F06DFD002840F0B1808A
:102E9000054909F0C9FE0146074B1A682846D83291
:102EA000234BFFF779FC38BDFC1401001C16010010
:102EB00024160100281601006897FF1F2C16010038
:102EC000341601004016010050160100541601008E
:102ED0005C16010068160100781601007C160100DE
:102EE0008416010088160100901601009816010052
:102EF000A4160100AC160100B8160100C0160100AE
:102F0000CC160100D8160100E8160100EC160100ED
:102F1000F41601000C17010014170100201701001E
:102F20002417010030170100381701004417010071
:102F30004817010020462F4908F014FD002858D1F9
:102F40002D4909F071FE01462C4B1A682846DC32E7
:102F50002B4BFFF721FC38BD20462A4908F002FD23
:102F600018B92846FFF752FC38BD2046264908F01C
:102F7000F9FC18B92846FFF7E3FC38BD2046234981
:102F800008F0F0FC20B922482146FDF757FC38BD77
:102F90002046204908F0E6FC18B92846FFF792FDC4
:102FA00038BD20461C4908F0DDFC18B92846FFF75B
:102FB000C5FD38BD2046194908F0D4FC18B928468B
:102FC000FFF7E2FD38BD2046154908F0CBFC18B9E3
:102FD0002846FFF7CBFD38BD2046124908F0C2FC59
:102FE00018B92846FFF78AFB38BD28460E49FFF777
:102FF00069FB38BD54170100FC1401006897FF1FDE
:103000005C170100641701006C17010074170100C0
:103010005897FF1F0C170100781701008017010057
:10302000881701009017010098170100A1F13000E6
:10303000C0B2092812D9A1F16103DBB2052B03D874
:10304000A1F15700C0B27047A1F14103DBB2052BDB
:1030500003D8A1F13700C0B270470020704700BF0D
:103060002DE9F84F0446DFF8ACA1B8E003F0DAF937
:103070000546C0B20D2840F0A480D4F8802000237B
:10308000A354C4F8803094F89430002B76D02746AF
:103090002046564908F066FC20B140F2B578DFF8CA
:1030A00054B15DE020465249FFF70CFBBAF80050DE
:1030B000022D2DD94F48431913F8026C13F8013C27
:1030C00003EB0626B6B2A91E89B2FFF7BFFA024685
:1030D000864201D135B912E0204647493346FFF711
:1030E000F1FA19E00025434E05F14A00715D01F047
:1030F000D1FC0135ADB2BAF80030AB42F4D83F4B49
:103100001868FEF733FA20463D49FFF7DBFA03E083
:1031100020463C49FFF7D6FA002384F89430C4F8DF
:103120008030D4F884305B6804F184003649012291
:10313000984754E02046615DFFF778FF8146AB1C5D
:10314000C4F88030254420466978FFF76FFF464574
:1031500008D8731CAAF8003000EB09100BF8060021
:10316000BAF80060D4F88050384608F009FDABB2D8
:103170008342DFD30023C4F8803030E004F18405BB
:10318000D4F884305B6828462049022298472046BC
:103190001F4908F0E7FB40B9012384F8943000236D
:1031A000AAF80030C4F8803019E020462146FFF725
:1031B0004DFDD4F884305B682846134901229847B6
:1031C0000DE094F894300BB903F004FAD4F8806061
:1031D000731CC4F88030E8B20BF072F8A05503F00D
:1031E0006DF900287FF442AFBDE8F88FAC170100FD
:1031F000B8170100B4A7FF1FC41701005497FF1FA1
:10320000041801004C1801006C180100E80F0100BF
:1032100070180100B0A7FF1F08B501F0EDFB08BD55
:1032200010B504460021A0F88811A0F88A11A0F872
:103230000C12A0F80E12C0F81012C0F81412C0F848
:10324000181200F508703AA3D3E90023C0E900235F
:1032500084F8281284F8291284F82A12A4F82C126F
:1032600084F82E1284F82F12A4F83012A4F8321227
:1032700084F8341284F8351284F83612C4F83812FF
:10328000C4F83C12C4F84012C4F84412A4F848121E
:10329000A4F84A120023C4F84C32C4F85012A4F81F
:1032A0005412C4F85832C4F85C32A4F86012A4F87E
:1032B0006212A4F86412C4F86812C4F86C12C4F85C
:1032C0007012A4F87412A4F87612A4F87812C4F854
:1032D000B012A4F8B412A4F8B612A4F8B812A4F864
:1032E000BA12A4F8BC12A4F8BE12A4F8C012A4F832
:1032F000C212A4F8C412A4F8C612A4F8C812A4F802
:10330000CA12C4F8CC12C4F8D012C4F8D412A4F86B
:10331000D812A4F8DA12C4F8DC12C4F8E01240F6AD
:10332000055002F019F9204610BD00BFAFF3008030
:1033300000000000D012634170B4039CBDF910007E
:10334000B3F90060B4F90050354495FBF0F600FB8A
:10335000165522F81510228811B2884208DCB3F9FC
:103360000020013292FBF0F100FB1120188001E0F7
:103370000132228070BC7047F0B4BDF91460BDF911
:1033800010C06345B8BF9C46CCEB030080B204B2CA
:10339000A34211DD002502FA80F494FBF6F706FB48
:1033A000174431F914402544013080B204B29C42E4
:1033B000F1D1002D01DA05E000250CEBDC73C3F33D
:1033C0004F0305E0CCF1000303EBD373C3F34F03CA
:1033D00005FA83F595FBFCF000B2F0BC704700BF26
:1033E00008B5064B18680021FFF726F940F6B733F9
:1033F0009842CCBF0020012008BD00BF6897FF1F86
:1034000008B5064B18680221FFF716F940F6B733E6
:103410009842CCBF0020012008BD00BF6897FF1F65
:1034200008B5064B18680321FFF706F940F6B733D5
:103430009842CCBF0020012008BD00BF6897FF1F45
:1034400008B5064B18680621FFF7F6F840F6B733C3
:103450009842CCBF0020012008BD00BF6897FF1F25
:1034600008B5064B18680421FFF7E6F840F6B733B5
:103470009842CCBF0020012008BD00BF6897FF1F05
:1034800008B5064B18680521FFF7D6F840F6B733A4
:103490009842CCBF0020012008BD00BF6897FF1FE5
:1034A00008B5064B18680B21FFF7C6F840F6B7338E
:1034B0009842CCBF0020012008BD00BF6897FF1FC5
:1034C000D0F8E002024BA3FB0020C0F3CF307047DE
:1034D000D55204E910B4094B1B68D0F8102242B150
:1034E0009A1AB0F9CA42D0F8E01204FB0211C0F8EF
:1034F000E012C0F810325DF8044B704738B1FF1F7E
:103500002DE9F84F14461D46DDE90CAB50465946EF
:1035100006F072FC42A3D3E9002306F021FE00224C
:10352000434B06F047FF0022424B06F019FE03F022
:1035300075FE804689462046294639A3D3E90023F3
:1035400006F00EFE00223A4B06F034FF03F02CFE8C
:1035500006460F465046594631A3D3E9002306F0EC
:10356000FFFD0022324B06F025FF03F01DFE8246D0
:103570008B46DDE90E01DDE90A2306F03DFC28A3B8
:10358000D3E9002306F0ECFD0022294B06F012FFE0
:103590000022284B06F0E4FD03F040FE04460D46F1
:1035A0004046494642464B4606F0DAFD804689468B
:1035B0003046394652465B4606F0D2FD22462B463F
:1035C00006F0CEFD02460B462046294606F0C8FD11
:1035D00002460B464046494606F010FC04460D469E
:1035E00003F096FE06460F460020134922462B465E
:1035F00006F002FC03F08CFE02460B4630463946CC
:1036000003F084FE02460B4606F0F8FB06A3D3E95E
:10361000002306F0A5FDBDE8F88F00BFAFF30080E2
:10362000182D4454FB21094000000000AE4D5841C4
:10363000008066400000E03F0000F03FAFF30080F4
:103640002DE9F04786B08246904699460846002903
:1036500033D0002A34D0002B35D00E9B002B35D030
:103660000AF50873D3E9004506F014FD22462B46FF
:1036700006F0A0FE06460F46404606F00BFD224629
:103680002B4606F097FECDE90001484606F002FD04
:1036900022462B4606F08EFECDE902010E9806F07A
:1036A000F9FC22462B4606F085FECDE90401504682
:1036B00032463B46FFF724FF0AE00020002107E0E6
:1036C0000020002104E00020002101E00020002172
:1036D00006B0BDE8F08700BF2DE9F04F87B0104677
:1036E00019464FA3D3E9002306F03AFD00224E4BC2
:1036F00006F060FE04460D46DDE9120148A3D3E959
:10370000002306F02DFD0022474B06F053FE06462F
:103710000F46DDE9140142A3D3E9002306F020FDA2
:103720000022414B06F046FE80468946DDE9100145
:103730003BA3D3E9002306F013FD00223A4B06F029
:1037400039FE02460B464046494606F055FB824686
:103750008B4603F063FDCDE900013046394603F0A6
:1037600023FD804689462046294603F01DFDCDE90C
:1037700002013046394603F051FD06460F46204609
:10378000294603F04BFDCDE904015046594603F0AC
:103790000BFD82468B46DDE9000142464B4606F0B2
:1037A000DFFC04460D46DDE9020132463B4606F0E9
:1037B000D7FC06460F4640464946DDE9042306F09D
:1037C000CFFC52465B4606F0CBFC02460B46304629
:1037D000394606F011FB02460B462046294603F007
:1037E00095FD0022104B06F0BBFC0DA3D3E900238E
:1037F00006F0E0FD04460D460022002306F022FFFD
:1038000038B1204629460022084B06F0F7FA044654
:103810000D462046294607B0BDE8F08FAFF3008083
:10382000182D4454FB2109400080664000807640FA
:103830002DE9F04786B08246904699460846002911
:1038400033D0002A34D0002B35D00E9B002B35D03E
:103850000AF50873D3E9004506F01CFC22462B4606
:1038600006F0A8FD06460F46404606F013FC224629
:103870002B4606F09FFDCDE90001484606F00AFC04
:1038800022462B4606F096FDCDE902010E9806F081
:1038900001FC22462B4606F08DFDCDE90401504681
:1038A00032463B46FFF718FF0AE00020002107E000
:1038B0000020002104E00020002101E00020002180
:1038C00006B0BDE8F08700BF70B582B0064690F83C
:1038D0002A32DB0930D0D0F84432322B25DDD0F843
:1038E0001412D0F81822D0F83832D0F83C020090E8
:1038F0003046FFF79DFF04460D460022002306F0E8
:10390000B5FE40B1204629460022104B06F076FA5B
:1039100006F0C0FE07E02046294600220B4B06F0C9
:103920006BFA06F0B7FEA6F8DA02D6F8DC22D6F873
:1039300044321344C6F8DC32D6F83832C6F81432B2
:10394000D6F83C32C6F8183202B070BD0000E03F35
:10395000F0B583B005460C46ADF8003001238DF874
:1039600002308DF803308DF804208DF8053001F118
:10397000080702AB53F8080D88609B88BB80422380
:10398000CB71FE238B700623CB70FF234B71BE23BC
:103990008B71314B9A790A719A7901329A7103319C
:1039A0003E464FF6FF7211F8013B534083EA031382
:1039B000DBB2D80080EA032080EA222282EA2312C6
:1039C000B142F0D1228094F803E00EF1FF36B6B296
:1039D000BEF1000F13D001363E443A46218812F85A
:1039E000013B4B4083EA0313DBB2D80080EA03209B
:1039F00080EA212181EA23132380B242EED122887A
:103A000082F0940383EA0313DBB2D90081EA032135
:103A100081EA222282EA2313238007F80E30E3781A
:103A20001F4423881B127B70E2782846A11C0632B3
:103A300000F040FFE3780633EA182188E954238830
:103A40001B125370E1782846083101F099FE0A20D4
:103A500001F098FA03B0F0BD6CAFFF1F38B5044613
:103A60000D46264B1B68264A12689A4244D2FFF73D
:103A7000B7FC002830D12046294601220223FFF757
:103A800067FF2046294602220323FFF761FF2046F5
:103A9000294604220023FFF75BFF20462946062221
:103AA0000323FFF755FF204629460A220523FFF787
:103AB0004FFF204629460B220223FFF749FF2046ED
:103AC00029460C220323FFF743FF0C4B1A6802F52B
:103AD0007A720B4B1A6038BD2046FFF7E1FC58B9EB
:103AE0002046294603221346FFF732FF034B1A688C
:103AF00002F57A72024B1A6038BD00BF38B1FF1F61
:103B000088B0FF1FFFFFFFFF2DE9F04FCFB0064643
:103B10000AA9FFF7A3FFDFF8D082AF4F0FF2B02B57
:103B2000DBE900AB00F037BC01F0BEFEC4B2AB4B2A
:103B300000221A70DB780A2B00F2DA80DFE803F04B
:103B40000606153F2B5367819EBDBD00FE2C40F03D
:103B500028840222A14BDA70A14B0022DA70FE22E7
:103B60009A704FF6FF721A80C2E09D4BDC709B4941
:103B700000220A71188884EA000282EA0212D2B294
:103B8000D50085EA022585EA202080EA22121A80E3
:103B90000423CB70ACE0924B1C71198884EA0102BB
:103BA00082EA0212D2B2D00080EA022080EA212109
:103BB00081EA22121A800322884BDA7098E0884B3F
:103BC0005C71198884EA010282EA0212D2B2D00042
:103BD00080EA022080EA212181EA22121A8005224D
:103BE0007E4BDA7084E07E4B9C71198884EA010276
:103BF00082EA0212D2B2D00080EA022080EA2121B9
:103C000081EA22121A800622744BDA7070E0744B3B
:103C1000DC71198884EA010282EA0212D2B2D00071
:103C200080EA022080EA212181EA22121A80DB78D0
:103C30001BB90822694BDA705AE00722674BDA7029
:103C400056E0664B1A79511CC9B21971644B1A447B
:103C50001472188884EA000282EA0212D2B2D500F5
:103C600085EA022585EA202080EA22121A80DB7884
:103C70008B423DD10822594BDA7039E0584B1988F4
:103C8000DA79584DAA5C4A4082EA0212D2B2D500D3
:103C900085EA022585EA212181EA22121A80C0B232
:103CA000D2B2904214BF0A2209224C4BDA704B4B1D
:103CB0001B794B4A13441C721AE00A2B05D0C0B280
:103CC000474B1B88B0EB232F03D00222434B1A70C3
:103CD00002E00122414B1A70404B0122DA70404948
:103CE0001B790B445C720AA84FF4887200F0E2FD65
:103CF0003A4B1B78012B11D1384B394A12795A7142
:103D00001A890AB900215981344B01321A81344A87
:103D1000D2788DF82B2000229A7021E0304AD27898
:103D20008DF82B202D4A107900219170022B40F044
:103D30003F832B4B03445A7A1B7A43EA0223ADF8A4
:103D40002830264B01229A701970FE2C40F03483E3
:103D50000222DA70224BD9704FF6FF721A801AE3F2
:103D60009DF82F30242B00F016831ED81B2B00F05B
:103D7000A7810BD8012B00F0A380002B47D0022B8A
:103D800000F08E82182B00F0FC80FEE21E2B00F06B
:103D9000C18103D81D2B00F06582F6E2212B00F0D3
:103DA0008682232B00F0C682EFE2962B00F09382EE
:103DB0001CD83E2B00F0658203D82A2B00F04382EA
:103DC000E3E24A2B00F00D82932B00F07782DCE2D5
:103DD000A7E8482EFF210940000034436CAFFF1FC5
:103DE00078AFFF1FF41B01000000C842A52B00F0B4
:103DF000878206D8982B00F07582A32B00F0798279
:103E0000C3E2AD2B00F08382FD2B26D0BDE2B64C81
:103E100020680021FEF7FCFB20689DF836300C9AE4
:103E200000920121B14AFEF75BFB9DF8343086F821
:103E300028329DF8353086F829329DF8363086F8DC
:103E40002A320C9BA6F82C329DF8373086F82E3299
:103E50009DF8383086F82F329DE2A34C206801216E
:103E6000FEF7D6FB06F27D29206896F87C32CDF865
:103E7000009007219E4AFEF733FB0DF1300E06F548
:103E80001F740DF1600C75460FCD20606160A2605B
:103E9000E360AE4610346545F5D12A88AB782280C0
:103EA000A370944C96F87C222046934902F00702B6
:103EB0004B4607F031FD91482146FCF7C3FE6AE20C
:103EC000894C20680221FEF7A3FB2068BDF83E3034
:103ED000BDF9402000920621894AFEF701FBBDF89A
:103EE0003E1021EAE171A6F83012BDF9402022EA25
:103EF000E272A6F8322206F5C67506F20E2200928C
:103F000040240194304609B22A4606F50373FFF7B0
:103F100013FA06F58479B6F9321206F5C5730093E3
:103F2000019430464A4606F5C473FFF705FAB6F920
:103F30000C22B6F90E320A2100910194304629462E
:103F4000FFF71AFA6F4D85FB0023C017C0EBA300E3
:103F5000A6F8C802B6F98821B6F98A310A2100917B
:103F6000019430464946FFF707FA85FB0025C01744
:103F7000C0EBA500A6F8CA029DF84E3086F8343290
:103F800009E2594C20680321FEF742FB9DF84C30B2
:103F900086F835329DF84DC086F836C2BDF844E04B
:103FA000A6F848E20E99C6F838120F9AC6F83C22D5
:103FB000109DC6F84052BDF84800C6F84402BDF84E
:103FC0004A90A6F84A922468CDF800C0CDF804E0E3
:103FD0000290039504910592204602214A4AFEF779
:103FE0007FFA96F82A32DB090ED0D6F8CC3213B11C
:103FF000D6F8D032BBB9D6F83832C6F8CC32D6F8BB
:104000003C32C6F8D0320EE0D6F8CC3213B9D6F82E
:10401000D03243B10023C6F8CC32C6F8D032C6F84D
:10402000D432A6F8D832D6F8CC12D6F8D022D6F8A8
:104030003832D6F83C0200903046FFF701FB0446C8
:104040000D460022002306F011FB40B12046294610
:1040500000222E4B05F0D2FE06F01CFB07E02046A6
:1040600029460022294B05F0C7FE06F013FBC6F8CF
:10407000D402D6F8CC12D6F8D022D6F83832D6F8F8
:104080003C0200903046FFF7D3FB04460D46002269
:10409000002306F0EBFA40B12046294600221B4BD4
:1040A00005F0ACFE06F0F6FA07E0204629460022AD
:1040B000164B05F0A1FE06F0EDFAA6F8D8026AE16B
:1040C000094C20680421FEF7A3FA2068BDF93830B6
:1040D000BDF93A200092BDF93C20019204210C4A1E
:1040E000FEF7FEF957E100BF6897FF1F7C1801003B
:1040F000B81801008CB0FF1FEC1801008897FF1F53
:10410000F418010067666666381901000000E03F98
:104110009C190100AE4C20680521FEF779FA24684D
:104120000D9805F0C9FFCDE90001D6F86832029379
:104130000E9805F0C1FFCDE90401D6F86C32069364
:104140000F9805F0B9FFCDE9080120460321A14AE7
:10415000FEF7C6F90D98394606F042FC05F0ACFFB3
:1041600052465B4606F026F906F094FAC6F8680255
:104170000028B8BF40425A280EDC0E98394606F097
:104180002FFC05F099FF52465B4606F013F906F046
:1041900081FAC6F86C0213E00E98394606F020FC4E
:1041A00005F08AFF52465B4606F004F902460B46CC
:1041B0000020894905F020FE06F06CFAC6F86C0272
:1041C0000F9805F079FF52465B4605F017FE7EA377
:1041D000D3E9002305F0C4FF06F084FAC6F87002A4
:1041E000D9E07B4C20680621FEF712FA24680D986E
:1041F00005F062FFCDE90001BDF940300293BDF842
:10420000423003930E9805F057FFCDE904010F9853
:1042100005F052FFCDE90601204605216F4AFEF761
:104220005FF90D9BC6F84C32BDF94030C6F85032EC
:10423000BDF84230A6F854320E9BC6F858320F9B98
:10424000C6F85C32A7E0BDF83030A6F87432604C96
:1042500020680821624AFEF743F920680721FEF72B
:10426000D7F998E0BDF83C30A6F87632584C206873
:1042700008215C4AFEF734F920680821FEF7C8F9E6
:1042800089E0BDF84830A6F87832514C2068082102
:10429000554AFEF725F920680921FEF7B9F97AE0B9
:1042A0004B4B18680821514AFEF71AF973E0484B46
:1042B000186808214E4AFEF713F96CE00C9BA6F82B
:1042C000B4320D9BA6F8B632414B18680821494A12
:1042D000FEF706F95FE03E4B18680821464AFEF7F4
:1042E000FFF858E03A4B18680821444AFEF7F8F8FE
:1042F00051E0374B18680821414AFEF7F1F84AE0CF
:10430000334B186808213F4AFEF7EAF843E0304C87
:1043100020680A213C4AFEF7E3F80C98414606F073
:104320005FFB06F023FDC6F8B00220680A21FEF705
:104330006FF930E0264C20680821324AFEF7D0F8A9
:10434000BDF83430A6F8B832BDF83630A6F8BA3227
:10435000BDF83830A6F8BC32BDF83A30A6F8BE3207
:10436000BDF83C30A6F8C032BDF83E30A6F8C232E7
:10437000BDF84030A6F8C432BDF84230A6F8C632C7
:1043800020680B21FEF744F905E0114A1068092165
:104390001E4AFEF7A5F801F077FA00287FF4C4ABB7
:1043A0000EE01B4BDB788DF82B300023194A9370FD
:1043B000002B7FF4D5ACEEE70122164BDA70EAE76A
:1043C0004FB0BDE8F08F00BF29ED0DBE305F6440F7
:1043D0006897FF1FD419010000806640301A010061
:1043E0008C1A0100AC1A0100CC1A0100F41A010069
:1043F000101B0100341B0100541B0100741B010041
:104400008C1B0100A01B0100B81B0100D41B010084
:1044100078AFFF1F6CAFFF1F08B5064B1A79064B2C
:104420001A7000F08DFD054B18600022044B1A70C5
:1044300008BD00BF28B1FF1F1F80004024B1FF1F2F
:1044400020B1FF1F10B5044602F084F9204610BDCC
:1044500010B4064C218006490A60064A1360064BD8
:104460009DF804201A705DF8044B70470EB1FF1FD1
:1044700010B1FF1F1CB1FF1F0CB1FF1F2DE9F84346
:10448000894B1D8805EB4505ED00884B1868002118
:104490002A4606F0FBFF864B186820B100212A4609
:1044A00006F0F4FF03E0814B1A68814B1A60FF228B
:1044B000804B1A600220012100F028FC0E2001210F
:1044C00000F024FC0720012100F020FC082001213D
:1044D00000F01CFC0620012100F018FC1420012132
:1044E00000F014FC1520012100F010FC0520012132
:1044F00000F00CFC704B1C7804F01004E4B26F4B1D
:104500006F4A002C0CBF14461C46082000F044FBE8
:10451000204606F00DFA04460320214600F048FB31
:104520000420214600F044FB03203C2100F010FC55
:104530000420B02100F00CFC624A634B1A60032097
:10454000022100F0E3FB0F20002100F0DFFB5F4AB7
:104550005F4B1A6002F50072A3F5FE530C3B1A6024
:104560005C4F3A68DFF88CC113680023C2F800C0C2
:1045700039680B714B718B71CB7101240C724B72CA
:104580008B72CB720B734B738B73CB730A69524A6A
:104590000A610B754B75A8B2CA8AC8820B764B7636
:1045A0008B76CB768A8B08228A83CE8BC8834B4E40
:1045B0003168DFF8F880D8F80080D1F80090C1F8B1
:1045C000008031680C714B718B71CB710C724B7226
:1045D0008B72CB726D42CD600D69414D0D610B75D3
:1045E0004B75CD8AC8820B764B768B76CB768D8BCE
:1045F0008A83CA8BC8833B490A681568C2F800C021
:104600000A68137153719371D37114725372937258
:10461000D372137353739373D3731469254C14615A
:1046200013755375D48AD082137653769376D376E6
:10463000948B0A249483D48BD0834FF080502A4AE1
:10464000106041F232004FF0402210603A7902F1DE
:10465000804202F504321370B2201070327902F1F8
:10466000804202F504321370B32010700A7902F10F
:10467000804202F504321370B12313700A7902F1FB
:1046800010011A481A4B43F8210053119B0003F103
:10469000604303F5614302F01F02012101FA02F2B7
:1046A0001A60BDE8F88300BF0EB1FF1F10B1FF1FF5
:1046B0001CB1FF1FC8F00F400CB1FF1F801A06008D
:1046C00000350C000003010000A0044000010200BE
:1046D00000B0044014B1FF1FC4F00F4030B1FF1F01
:1046E000C0F00F4028B1FF1F0C0008E01944000083
:1046F0000084FF1FF41C010010B5244A137813F046
:10470000FF0FFBD1224B1968224B1868814206D05B
:10471000214B1B8803EB4302D20000F0CBF81F4C67
:1047200000F00EFC2368C01A3128F9D91C4B186818
:1047300018331B6872B60121144A117019490A68AE
:104740009342FCD217490A689342FCD315490A6880
:104750009342FCD800F0E703114A13600123124989
:104760000B6001F580510B604FF400510F4B196045
:104770000F4B19790F4B19700F49097919700F49AF
:1047800009791970106062B610BD00BF20B1FF1F1B
:104790001CB1FF1F10B1FF1F0EB1FF1F24B1FF1F7F
:1047A0000090034004900340A0A00440A090044067
:1047B00014B1FF1F1B80004030B1FF1F28B1FF1F45
:1047C00070B4234B1B7803F00703022B0CD0032B90
:1047D00014D0012B1AD102F47F03100280B2C2F36D
:1047E000072202431A4311E0100200F47F00131263
:1047F00003F47F430343D2B21A4307E0130223F0CA
:104800007F4323F0FF03C2F307421A43114B18887A
:10481000B1FBF0F301259D40EEB200FB131101EB5B
:1048200041010D4B1B6803EBC103013318204FF40A
:104830000001ED43114213F8014C14BF34432C40E6
:1048400003F8014C490801330138F3D170BC7047BB
:104850000CB1FF1F0EB1FF1F1CB1FF1F70B5104E32
:104860003046002101F018FF0E4D0F4C304629460E
:10487000224606F0C1FA0D4E3046002101F00CFF31
:1048800030462946224606F0B7FA094E3046002146
:1048900001F002FF30462946224606F0ADFA70BD0F
:1048A00014B1FF1F454400006089FF1F30B1FF1F96
:1048B00028B1FF1F844641EA000313F003036DD1C2
:1048C000403A41D351F8043B40F8043B51F8043BD3
:1048D00040F8043B51F8043B40F8043B51F8043BDA
:1048E00040F8043B51F8043B40F8043B51F8043BCA
:1048F00040F8043B51F8043B40F8043B51F8043BBA
:1049000040F8043B51F8043B40F8043B51F8043BA9
:1049100040F8043B51F8043B40F8043B51F8043B99
:1049200040F8043B51F8043B40F8043B51F8043B89
:1049300040F8043B51F8043B40F8043B51F8043B79
:1049400040F8043B403ABDD2303211D351F8043B19
:1049500040F8043B51F8043B40F8043B51F8043B59
:1049600040F8043B51F8043B40F8043B103AEDD2C8
:104970000C3205D351F8043B40F8043B043AF9D219
:10498000043208D0D2071CBF11F8013B00F8013BEC
:1049900001D30B8803806046704700BF082A13D3F9
:1049A0008B078DD010F003038AD0C3F10403D21A11
:1049B000DB071CBF11F8013B00F8013B80D331F845
:1049C000023B20F8023B7BE7043AD9D3013A11F8C5
:1049D000013B00F8013BF9D20B7803704B78437030
:1049E0008B78837060467047024A137813F0010F8A
:1049F000FBD070470100024010B584B0174B6C46E5
:104A0000186859689A68DB680FC4154B1B7813F057
:104A1000020F19D08022134B1A70332204331A70FC
:104A20000322013B1A7072B66B4643F001030E4C31
:104A30002046984762B6237813F0700304D02370A1
:104A400009E0013B03D106E044F6216304490A78FA
:104A500012F0010FF5D004B010BD00BFF81C01002A
:104A600001000240070002400000024010B5044669
:104A7000B0F5006F0AD2064B1B7813F0010F01D17D
:104A8000FFF7BAFF04F1A054207810BD002010BD3C
:104A90000100024038B504460D46B0F5006F0ED255
:104AA000074B1B7813F0010F01D1FFF7A5FF04F1AD
:104AB000A0542378AB4202D02570FFF795FF38BD94
:104AC00001000240024B1A6801321A60704700BFB1
:104AD00038B1FF1F08B50D4C236813F4802F01D0A7
:104AE00001F09AF8236813F4806F01D000F0B4FC51
:104AF000236813F4006F01D000F02AFF236813F439
:104B0000805FE9D002F0A0F9E6E700BF34800440FE
:104B100008B5FFF7DFFF00BF1022014B1A80704776
:104B200000200540704700BF024A13681844106017
:104B300018467047EC8CFF1FEFF31383ABB9EFF30C
:104B40001083ABB9EFF3058323B10F2B05D9094AC5
:104B5000985C03E04FF4807000E00020EFF31183D5
:104B60003BB1834238BF184670474FF0FF30704763
:104B700000207047F0E300E0044B00221A60044973
:104B80000A60044A106010221A60704714D0034073
:104B900004D0034000D0034018B1102828BF1020D3
:104BA00000E00120014B1870704700BFF08CFF1F20
:104BB0002DE9F04180460D460846374906F0C2F817
:104BC00090B90124354F4FF05E5647FA04F005F0D6
:104BD000B3FE314605F004FF294606F0A9F820B9D6
:104BE0000134072CF1D100E000242C48204105F0CD
:104BF000A3FE294605F0A8FF4FF07C5105F0E6FD25
:104C000006F0DAF84FF6FF73984238BF0346A8F172
:104C10000302D2B2012A0DD8214A00211160214895
:104C2000016021490B6004F0070444F0080414609B
:104C3000BDE8F081A8F10902D2B2012A09D9A8F190
:104C40001402D2B2032A04D9A8F10502D2B2012A71
:104C50000DD8164A002111601548016015490B60F6
:104C600004F0070444F008041460BDE8F081B8F1D2
:104C7000200F02D0B8F1190F0BD10F4A002111609B
:104C80000E4801600E490B6004F0070343F008036F
:104C90001360BDE8F08100BF001B3744006CDC02EC
:104CA00000900340049003400890034000800340BC
:104CB000048003400880034000800B4004800B40C8
:104CC00008800B4021281ED80F4B53F8303093F842
:104CD000802212F0FF0F08D019B1012283F8802042
:104CE0007047012283F800217047074B03EBC00097
:104CF000436821B11A6842F003021A6070471A68CB
:104D000022F002021A607047081D010021281CD8F9
:104D10000E4B03EBC0035B68012908D10B4A52F824
:104D2000302082F880124FF4A2721A607047074A4E
:104D300052F83020002082F8800219B94FF48072B6
:104D40001A60704740F203121A607047081D010094
:104D500010B5044628280FD15D4B1B780B2B03D8C8
:104D6000C3F10C03994003E00C2B84BF0C3B1941A9
:104D7000084601F09DFE10BD554B1B78012202FA3A
:104D800003F0002908DC20460021FFF79BFF2046A6
:104D90000121FFF7BBFF10BD0A46884208D8204614
:104DA0000121FFF78FFF20460121FFF7AFFF10BD64
:104DB000E01EC0B2012806D84648006800FB011278
:104DC00022FA03F310E0202C01D0192C06D142481E
:104DD000006800FB022222FA03F305E03F48006866
:104DE00000FB011222FA03F3E01E1D2864D8DFE85D
:104DF00000F0474E402B63631D246363636363636A
:104E000063636332390F16635C6363636363635583
:104E1000334A136040F24442324B1A6010BD324AAA
:104E2000136040F24442314B1A6010BD304A1360A7
:104E300040F244422F4B1A6010BD2F4A136040F2DB
:104E400044422E4B1A6010BD2D4A136040F244427A
:104E50002C4B1A6010BD2C4A136040F244422B4B7D
:104E60001A6010BD2A4A136040F24442294B1A606E
:104E700010BD294A136040F24442284B1A6010BD0D
:104E8000274A13604FF45172264B1A6010BD264A10
:104E900013604FF45172254B1A6010BD244A136001
:104EA0004FF45172234B1A6010BD234A13604FF424
:104EB0005172224B1A6010BD20467F29D4BF0021B9
:104EC0000121FFF7FFFE20460121FFF71FFF10BD64
:104ED000F08CFF1F0890034008800B4008800340BF
:104EE0001080034004B004401880034008B0044020
:104EF000208003400CB004402880034010B00440E0
:104F00003080034010C004403880034014C0044087
:104F10004080034018C00440488003401CC0044047
:104F200010900340309004401890034034900440A7
:104F300010800B4048A0044018800B404CA0044057
:104F400072B60C4B1B680C4A12680C49096862B6B1
:104F500011F0806F02D0322B88BF0132C3F5BB3312
:104F6000FF330749A1FB03039B094FF47A7000FB51
:104F70000230704718E000E038B1FF1F04ED00E098
:104F8000ABAAAAAA38B50546FFF7DAFF044665B111
:104F9000FFF7D6FF001BB0F57A7F03D3013D04D0A5
:104FA00004F57A7401F0D8FCF2E738BD10B5254B52
:104FB0004FF400021A604FF080721A604FF00072D6
:104FC0001A604FF080621A604FF000621A60002091
:104FD0001D4B18604BF6FF710433196028231B4AE0
:104FE000136008321360083213600832136008320D
:104FF000136008321360083213600832136009220C
:10500000134C226004F58054043420600434216081
:105010000434236008342360143C226004F5FE2429
:10502000043420600B4801600B490B6008310B60B1
:105030000A4B1A6001F0B2FC0420FFF7A3FF01F055
:1050400063F910BD08E100E0048003400C800340D8
:105050000080034008800B400C800B4000800B4018
:10506000194B1A6842F480621A600023174A1370C1
:10507000174A1370174A1370174A1370174A1370A0
:1050800040F21332164B1A604FF4517204331A6017
:10509000C0F34432134B1A70C0F347125A7000F039
:1050A0001F00987204229A700221D9745A758822BE
:1050B0001A743C22DA7040220B4B1A704FF40052E3
:1050C000A3F229331A60704734800440C0B1FF1F37
:1050D0003DB1FF1FC8B1FF1FC1B1FF1F3CB1FF1F92
:1050E00040A0044000A006402DE400E0164B9B7851
:1050F00003F0EC0300F00302134310F0040F18BF99
:1051000043F01003104A937000F00F03042B04D1F6
:105110001346927942F040029A710B4B5A7902F091
:10512000EF0210F0100F18BF42F01002064B5A7138
:105130009B7903F0EF0310F0200F18BF43F010032A
:10514000014A9371704700BF00A0064010B5114B93
:105150001B6813F4806F1CD00F4B1B7813F0FF0FEC
:1051600006D00D4C01F0F8FB237813F0FF0FF9D1B6
:105170004FF40052094B1A600023094AD37040F2E1
:10518000031208490A6004310A60074A1370074A8B
:10519000137010BD348004403CB1FF1F84E100E077
:1051A00000A0064040A00440C0B1FF1F3DB1FF1F5A
:1051B00010B50446094A137813F0FF0FFBD12046BF
:1051C0000121FFF7A3FD20460021FFF77BFD044BE3
:1051D00053F83420034B1A6010BD00BF3CB1FF1FD1
:1051E000081D0100C4B1FF1F2DE9F04107461F4B08
:1051F0001B6813F4806F37D01D4B1B680BB1012265
:105200001A701C4B1C780134402C28BF00241A4D06
:105210001A4EDFF86C8017E0FFF78EFC40280FDC99
:10522000337913F0800F0FD02B780133402B28BF38
:10523000002318F80320D2B2F271DBB22B7003E026
:10524000FF2801DD01F088FB2B78DBB29C42E3D024
:10525000FFB20B4B1F5501220A4B1A70E4B2054BEB
:105260001C70BC22054BDA70BDE8F081348004402C
:10527000C4B1FF1FC8B1FF1FC1B1FF1F00A006408E
:1052800040B1FF1F3CB1FF1F2DE9F84F0746284BE7
:105290001B6813F4806F49D0264B1B680BB10122A9
:1052A0001A7007EB010B5F453DD2DFF89890224E54
:1052B000DFF88C80DFF890A099F800400134402C92
:1052C00028BF00243578EDB2A54220D1BC2388F850
:1052D0000330FFF731FC402811DC98F8043013F05C
:1052E000800F10D033780133402B28BF00231AF8E9
:1052F0000320D2B288F80720DBB2337003E0FF2826
:1053000001DD01F029FB3378DBB29D42E1D017F8D3
:10531000013B0AF804300122084B1A70E4B289F804
:1053200000405F45C8D1BC22054BDA70BDE8F88F5C
:1053300034800440C4B1FF1FC1B1FF1F3CB1FF1F47
:1053400000A00640C8B1FF1F40B1FF1F10B5064BBB
:105350001B7813F0FF0F06D0034C01F0FDFA237801
:1053600013F0FF0FF9D110BD3CB1FF1F064B1B78A6
:10537000DBB2064A1278D2B293422CBF3F3202F11E
:10538000FF32D01A704700BFC8B1FF1FC1B1FF1F65
:10539000054B1878C0B2054B1B78DBB2984238BF7A
:1053A0004030C01A704700BFC0B1FF1F3DB1FF1FA2
:1053B0000A4B1A78D2B20A4B1B78DBB29A4209D058
:1053C0000133402B28BF0023064AD05CDBB2044ADD
:1053D000137070474FF0FF30704700BFC0B1FF1F20
:1053E0003DB1FF1F80B1FF1F094B1A78D2B2094BA4
:1053F0001B78DBB29A4207D00133402B28BF002331
:10540000054AD05CC0B270474FF0FF30704700BF14
:10541000C0B1FF1F3DB1FF1F80B1FF1F0A4B1B68CA
:1054200013F4806F0FD0094BDA7802F0CB02DA70F8
:1054300040225A74DA7842F03402DA70044B1A7857
:10544000D2B2044B1A7070473480044000A006406A
:105450003DB1FF1FC0B1FF1F70B4364B1B7913F075
:10546000300F25D072B6334B9B7D03F0FF022BB972
:10547000304BDA7940225A7462B619E062B62E4B8C
:105480001978C9B22D4B1D78EDB22A4C2C4EE37918
:10549000D8B24B1C402B28BF0023AB421CBFF0549A
:1054A0001946531E13F0FF02F1D1C9B2224B1970F5
:1054B000204BDA78D2B212F0800F27D01B7913F08C
:1054C000800F23D01F4B1C78E4B21F4B1B78DBB23C
:1054D0009C4210D017491D4D01E0A3420BD001336F
:1054E000402B28BF00230879E85CC0B2C871087D52
:1054F000C0B20728F1D9DBB213490B700D4B1B79F1
:1055000013F0800F02D07C210A4BD97012F0400FAB
:105510000ED0084B1B7913F0400F09D000220C4B22
:105520001A700C4B1B6803B11A703C22014BDA70E5
:1055300070BC704700A00640C0B1FF1F3DB1FF1F07
:1055400080B1FF1FC8B1FF1FC1B1FF1F40B1FF1FD6
:105550003CB1FF1FC4B1FF1F194B1A6842F400622F
:105560001A600023174A1370174A1370174A1370F2
:10557000174A1370174A137040F21332164B1A6011
:105580004FF4517204331A60C0F34432134B1A7053
:10559000C0F347125A7000F01F00987204229A70EC
:1055A0000221D9745A7588221A743C22DA7040227A
:1055B0000B4B1A704FF40042A3F22B331A60704762
:1055C0003480044034B2FF1FCAB1FF1F3CB2FF1F3A
:1055D00035B2FF1FC9B1FF1F0CB0044000B0064038
:1055E0002FE400E0164B9B7803F0EC0300F003027D
:1055F000134310F0040F18BF43F01003104A9370C8
:1056000000F00F03042B04D11346927942F04002BC
:105610009A710B4B5A7902F0EF0210F0100F18BF7D
:1056200042F01002064B5A719B7903F0EF0310F021
:10563000200F18BF43F01003014A9371704700BF59
:1056400000B0064010B5114B1B6813F4006F1CD05E
:105650000F4B1B7813F0FF0F06D00D4C01F07CF9B7
:10566000237813F0FF0FF9D14FF40042094B1A6071
:105670000023094AD37040F2031208490A6004313A
:105680000A60074A1370074A137010BD3480044043
:10569000C9B1FF1F84E100E000B006400CB0044037
:1056A00034B2FF1FCAB1FF1F10B50446094A137870
:1056B00013F0FF0FFBD120460121FFF727FB204607
:1056C0000021FFF7FFFA044B53F83420034B1A6014
:1056D00010BD00BFC9B1FF1F081D010038B2FF1F78
:1056E0002DE9F04107461F4B1B6813F4006F37D0BC
:1056F0001D4B1B680BB101221A701C4B1C78013426
:10570000282C28BF00241A4D1A4EDFF86C8017E0B1
:10571000FFF712FA40280FDC337913F0800F0FD017
:105720002B780133282B28BF002318F80320D2B28E
:10573000F271DBB22B7003E0FF2801DD01F00CF900
:105740002B78DBB29C42E3D0FFB20B4B1F550122FA
:105750000A4B1A70E4B2054B1C70BC22054BDA7080
:10576000BDE8F0813480044038B2FF1F3CB2FF1F17
:1057700035B2FF1F00B00640CCB1FF1FC9B1FF1FFB
:105780002DE9F84F0746284B1B6813F4006F49D0EA
:10579000264B1B680BB101221A7007EB010B5F450A
:1057A0003DD2DFF89890224EDFF88C80DFF890A091
:1057B00099F800400134282C28BF00243578EDB238
:1057C000A54220D1BC2388F80330FFF7B5F9402863
:1057D00011DC98F8043013F0800F10D033780133C7
:1057E000282B28BF00231AF80320D2B288F80720FC
:1057F000DBB2337003E0FF2801DD01F0ADF8337850
:10580000DBB29D42E1D017F8013B0AF804300122D7
:10581000084B1A70E4B289F800405F45C8D1BC2239
:10582000054BDA70BDE8F88F3480044038B2FF1FB2
:1058300035B2FF1FC9B1FF1F00B006403CB2FF1FC9
:10584000CCB1FF1F10B5064B1B7813F0FF0F06D02D
:10585000034C01F081F8237813F0FF0FF9D110BD4C
:10586000C9B1FF1F064B1B78DBB2064A1278D2B2D1
:1058700093422CBF273202F1FF32D01A704700BF8B
:105880003CB2FF1F35B2FF1F054B1878C0B2054B65
:105890001B78DBB2984238BF4030C01A704700BF57
:1058A00034B2FF1FCAB1FF1F0A4B1A78D2B20A4B9B
:1058B0001B78DBB29A4209D00133402B28BF00236A
:1058C000064AD05CDBB2044A137070474FF0FF30D9
:1058D000704700BF34B2FF1FCAB1FF1FF4B1FF1FF2
:1058E000094B1A78D2B2094B1B78DBB29A4207D027
:1058F0000133402B28BF0023054AD05CC0B270475B
:105900004FF0FF30704700BF34B2FF1FCAB1FF1F16
:10591000F4B1FF1F0A4B1B6813F4006F0FD0094B43
:10592000DA7802F0CB02DA7040225A74DA7842F068
:105930003402DA70044B1A78D2B2044B1A707047F2
:105940003480044000B00640CAB1FF1F34B2FF1FCC
:1059500070B4364B1B7913F0300F25D072B6334B31
:105960009B7D03F0FF022BB9304BDA7940225A7449
:1059700062B619E062B62E4B1978C9B22D4B1D786C
:10598000EDB22A4C2C4EE379D8B24B1C402B28BFE9
:105990000023AB421CBFF0541946531E13F0FF0204
:1059A000F1D1C9B2224B1970204BDA78D2B212F081
:1059B000800F27D01B7913F0800F23D01F4B1C784A
:1059C000E4B21F4B1B78DBB29C4210D017491D4D2F
:1059D00001E0A3420BD00133282B28BF0023087914
:1059E000E85CC0B2C871087DC0B20728F1D9DBB24B
:1059F00013490B700D4B1B7913F0800F02D07C21E3
:105A00000A4BD97012F0400F0ED0084B1B7913F0DF
:105A1000400F09D000220C4B1A700C4B1B6803B1CD
:105A20001A703C22014BDA7070BC704700B006401F
:105A300034B2FF1FCAB1FF1FF4B1FF1F3CB2FF1FFA
:105A400035B2FF1FCCB1FF1FC9B1FF1F38B2FF1F16
:105A500030B40E4B1B7843F002020D4C04EBC20431
:105A600060600C48007800280CBF8824C82444EAF1
:105A70000141074D45F8321080F00100054A1070D1
:105A800083F00103014A137030BC7047A8B2FF1FB6
:105A90000080FF1F21B3FF1F10B4431E032B11D83A
:105AA00072B60A4A52F8230050B14268074941F8D9
:105AB0002320074A32F813400188611A22F8131094
:105AC00062B600E000205DF8044B704798B2FF1FFB
:105AD00028B4FF1F013803280DD872B6074B53F8BE
