:1000000000800020BD0100002D510000E5500000DF
:10001000E5500000E5500000E5500000E55000000C
:10002000E5500000E5500000E55000002D510000B3
:100030002D510000E55000002D510000D55000006A
:100040002D5100002D5100002D5100002D510000B8
:100050002D5100002D5100002D5100002D510000A8
:100060002D5100002D5100002D5100002D51000098
:100070002D5100002D5100002D5100002D51000088
:100080002D5100002D5100002D5100002D51000078
:100090002D5100002D5100002D5100002D51000068
:1000A0002D5100002D5100002D5100002D51000058
:1000B0002D5100002D5100002D5100002D51000048
:1000C0002D5100002D5100002D5100002D51000038
:1000D0002D5100002D5100002D5100002D51000028
:1000E0002D5100002D5100002D5100002D51000018
:1000F0002D510000B95900002D510000F15C0000A5
:100100002D5100000D6F00002D5100002D510000F9
:100110002D5100002D5100002D5100002D510000E7
:100120002D5100002D5100002D5100002D510000D7
:100130002D5100002D5100002D5100002D510000C7
:100140002D5100002D5100002D5100002D510000B7
:100150002D5100002D5100002D5100002D510000A7
:100160002D5100006D5F00002D5100002D51000049
:100170002D5100002D5100002D5100002D51000087
:100180002D5100002D5100002D5100002D51000077
:100190002D5100002D5100002D5100002D51000067
:1001A0002D5100002D5100002D5100002D51000057
:1001B0002D5100002D5100002D510000564B4CF2E6
:1001C000205210B51A804DF628121A8000BF00BFC9
:1001D00004F0B0FF514B4FF010621A60504A9A6021
:1001E000504ADA60504A136813F4807304D14F49BF
:1001F0000B604FF4A85313604D4B1A78110703D5C9
:100200001A7842F008021A704A4B4B492A221A7097
:100210004A4A4B4B8B4204D252F8040F43F8040B6A
:10022000F8E7484B484900228B4202D243F8042B9E
:10023000FAE74649464A002352F8230041F82300D2
:1002400001336F2BF8D1434B434A802103F8011B44
:100250009342FBD1414B3D4A1A60414B8A221A70AE
:10026000A3F5805324225A70A0221A709A7992071B
:10027000FCD59A79D406FCD43A4A937903F00C035E
:10028000082B384BF9D103221A7140225A719A79FE
:100290009006FCD5334A9179324B4906FBD5324A58
:1002A000324911600221516020221A709A7902F0BD
:1002B0000C020C2AFAD12E4B2E4A1A602E4B2F4AD2
:1002C0001A6000225A60072243F8042C2C4AC3F813
:1002D0000C2D62B605F0E6F9144B1B68DA0705D55C
:1002E000284804F0C1FF284B284A1A60284B1B7885
:1002F0005B0609D5244C254B22689A4204D121483B
:1003000004F0B2FF002323600AF0AEFC04F018FFF3
:1003100006F0E2FCFEE700BF0E20054030800440FE
:10032000823F04000100002B10D0034014D0034092
:1003300002D0074000E00740D097FF1F10260100C1
:100340002089FF1FD097FF1F68B6FF1F0084FF1F83
:100350000000000000E400E05FE400E008ED00E0E1
:100360000050064000400640448004400000030165
:1003700004800440C010050014E000E0FF76010096
:1003800000002020D55F71001CE00340A5C3945AF3
:1003900000F00740FFFFFFFFFFFFFFFFFFFFFFFF32
:1003A000FFFFFFFFFFFFFFFFFFFFFFFFFFFFFFFF5D
:1003B000FFFFFFFFFFFFFFFFFFFFFFFFFFFFFFFF4D
:1003C000FFFFFFFFFFFFFFFFFFFFFFFFFFFFFFFF3D
:1003D000FFFFFFFFFFFFFFFFFFFFFFFFFFFFFFFF2D
:1003E000FFFFFFFFFFFFFFFFFFFFFFFFFFFFFFFF1D
:1003F000FFFFFFFFFFFFFFFFFFFFFFFFFFFFFFFF0D
:10040000FFFFFFFFFFFFFFFFFFFFFFFFDEF9FFFF23
:1004100010B5054C237833B9044B13B10448AFF33E
:1004200000800123237010BDD097FF1F0000000043
:100430000C260100084B10B51BB108490848AFF362
:1004400000800848036803B910BD074B002BFBD0A0
:10045000BDE81040184700BF00000000D497FF1F00
:100460000C260100D097FF1F0000000006F096BA8E
:1004700006F06EBA06F048BA06F082BA06F05EBB25
:1004800006F038BB0846114606F0A4BA084606F046
:1004900025BB00BF70B5274B274918799A681B7B8D
:1004A000264D84B004AC8DF80400982002928DF89B
:1004B0000C3044F8101D06F017FC2146064602F0E9
:1004C0003DFBE0202E6006F00FFC044602F056FAD9
:1004D0001B4B4FF43A701C6006F006FC044603F018
:1004E00073F9184B50201C6006F0FEFB044600F028
:1004F00083FD154B01201C6006F0F6FB044600F05E
:1005000079F9124B41F288301C6005F07DF8012129
:100510000D2005F051F80E4A0E49286802F04AFBFA
:10052000B02006F0E1FB044601F086F80A4B1C609F
:1005300004B070BD6C8DFF1F680D0100A099FF1FF6
:10054000A899FF1FAC99FF1F9099FF1F9899FF1F53
:10055000880D0100A00D01009499FF1F38B5304CA3
:10056000206803F0BDF9B0FA80F205465209012176
:100570002C4800F0F1FA05BB03212A4800F0F0FAFC
:100580000421284800F0ECFA0521264800F0E8FA9A
:100590000621244800F0E4FA0721224800F0E0FA9E
:1005A000214B186800F04AFDB0FA80F2520902218E
:1005B0001C48BDE8384000F0CFBA206803F0A0F92D
:1005C000B0FA80F252090321164800F0C5FA2068FB
:1005D00003F0A6F9B0FA80F252090421114800F0A4
:1005E000BBFA206803F0ACF9B0FA80F25209052199
:1005F0000C4800F0B1FA206803F0B2F9B0FA80F2CA
:1006000052090621074800F0A7FA206803F0B8F95C
:10061000B0FA80F252090721024800F09DFABFE7C4
:10062000AC99FF1FEC97FF1F9099FF1F30B5294A27
:10063000294B126883B00192019CA3FB0423DB08C1
:1006400003EB8303B4EB43030FD0042B01D903B0B6
:1006500030BD224B1A68A242F9D8214A0A341068E8
:100660001C6001F0FDFB03B030BD1E4D286803F097
:10067000AFFC1D4B186800F051FF1C4B186802F0CE
:100680007BFF1B4B1A68A2421DD91A4B1A68A24263
:1006900012D9194B1A68A242D9D842F2107204F149
:1006A00064019442196004D8286803F083F903B008
:1006B00030BDFFF753FFF7E704F1C8020F481A6097
:1006C00000F052FAE5E704F57A7228681A6003F040
:1006D00055FBDAE784B3FF1FCDCCCCCC9C99FF1F30
:1006E0009499FF1FAC99FF1F9099FF1FA099FF1FBE
:1006F000A499FF1F0898FF1F8C99FF1FEC97FF1FFD
:1007000008B504F05DFC0248BDE8084000F01CBAE2
:10071000EC97FF1F044B1B68B3F8CC22B3F9CE3221
:1007200002600B60704700BFAC99FF1FF0B4104C23
:10073000104E2568049CD5F83C720760D5F8380245
:100740000860D5F8401286FB0106C917C1EBA60167
:100750001160D5F8442202EB820252001A60D5F8EB
:100760005422642303FB02F32360F0BC704700BFF4
:10077000AC99FF1F67666666064B07491B6810B594
:100780000446D3F850020AF033F80AF033FA206036
:1007900010BD00BFAC99FF1F00007A44024B1B68DC
:1007A00093F9343203607047AC99FF1F38B5094B99
:1007B0001B6804460D46D3F8600207490AF018F892
:1007C0000AF0F2F9054B2860197D184600F07EF812
:1007D000206038BDAC99FF1F0000C842B099FF1FD0
:1007E00010B50446024800F089FB206010BD00BF30
:1007F000C899FF1F38B50546012004F029FC0E4CAE
:1008000018B10E49206800F027FC20680C4900F060
:1008100025FC20680B4900F023FC20680A4900F001
:1008200021FC2068094900F01FFC2068084900F0FD
:100830001DFC284638BD00BF9099FF1FAD07000082
:10084000150700002D070000E107000079070000F0
:100850009D07000008B5044800F0ACF801210846E7
:10086000BDE8084004F00EBCB099FF1F014800F03D
:1008700011B900BFB099FF1F08B504F0A1FB0448EF
:1008800000F0DAF90348BDE8084000F0D3B800BF33
:10089000C899FF1FB099FF1F70B50346017B094A35
:1008A000006953F8216014689D6882B009F016FB56
:1008B0003246CDE900012B462046034902F07AF981
:1008C00002B070BDA099FF1FB00D010038B50D1D1D
:1008D00000EB450304461B79D3B1012B08D054F833
:1008E0002510002009F084FFBDE8384006F076BCF2
:1008F0000E4B1B68D3F85C020AF056F909F024FF8E
:1009000054F8251009F074FFBDE8384006F066BCC5
:10091000064B1B68D3F8B40209F016FF54F82510F3
:1009200009F066FFBDE8384006F058BCAC99FF1FDF
:1009300008B508460AF084F909F0FCFD06F0D8FC79
:1009400006F04CFC40B208BDF8B5044600681746F6
:100950001E460D460AF008FD58B1294660680AF0A7
:1009600003FD012530B131462046FFF7E1FF0020AD
:10097000F8BD05463946A0680AF0F6FC0028F2D119
:1009800031462046FFF7D4FFE9B20646A581202074
:1009900004F078FB304609F0D7FE0146044806F023
:1009A0001BFDF1B22061212004F06CFB0120F8BD99
:1009B00000002041012170B50446084604F062FBA6
:1009C0002046164B164A1749FFF7BEFF2046134B29
:1009D000154A1649FFF7B8FF4024A4F1400120460C
:1009E000C9B2013404F04EFB482CF6D12046042154
:1009F00004F048FB3B21492004F044FB0C4B03F27C
:100A00003B465D1C03F14B005C1C5978401B04F015
:100A100039FBB4422346F5D170BD00BFC80D0100BB
:100A2000D00D0100E00D0100F00D0100080E0100E5
:100A30002389FF1F38B5134A134B14494260002520
:100A40008360016004468582202004F001FBA081C0
:100A5000212004F0FDFA40B209F076FE01460C4870
:100A600006F0BAFC2061284604F0F2FA682806D0A5
:100A70002046FFF79FFF2846682104F003FB20462D
:100A800038BD00BFE00D0100D00D0100140E0100C3
:100A900000002041F0B5244983B0074600200BF048
:100AA000B7FD002836D004461F4900200BF0B0FDEA
:100AB0000546002834D01C4900200BF0A9FD06464D
:100AC0003846B6B133462A462146FFF73DFF174B5D
:100AD00040B10096186816492B46224602F06AF883
:100AE00003B0F0BD1349186803B0BDE8F04002F050
:100AF00061B8114B2A462146FFF726FF0B4B002811
:100B0000F0D018680D492B46224603B0BDE8F040EE
:100B100002F050B8384603B0BDE8F040FFF7BCBE65
:100B2000024B0749DFE700BF28160100A099FF1F0D
:100B3000DC0E01006C0E0100680E0100AC0E01001D
:100B40002C0E010004F03CBA00220D210170427508
:100B50008275C2750276704701444A70704700BFC3
:100B6000014400234B70704710B5037E0446052BEB
:100B70000DD8DFE803F00D2F38424903002100783B
:100B800004F014FDA37D00220133A375227610BD6D
:100B9000437D002B42D0827D93420FD80023837582
:100BA0004375014611F8012F22B1627DA018013270
:100BB0006275C37201330A2BF4D100222244012151
:100BC000D37A2176013BE37520780121BDE81040FE
:100BD00004F0ECBC0021007804F0E8FCE37DD3B124
:100BE0000223237610BD0121007804F0DFFCE37DB1
:100BF0000122013BE375227610BD0021007804F04C
:100C0000D5FC0423237610BD0021007804F0CEFC2F
:100C10000523237610BD0323237610BD43750146BB
:100C200011F8012F22B1627DA01801326275C372E2
:100C300001330A2BF4D1C7E7002280F80028A0F87E
:100C40000228A0F80428A0F8062870472DE9F047EC
:100C5000804608468A460AF0F3FCB8F8069809F080
:100C60000F06F601002408EB060725460CE01AF8EB
:100C70000330A3F120025E2A05D86A1C7B5550463A
:100C800095B20AF0DDFC0134A3B28342EFD34644AF
:100C90000023735509F10109A8F80698BDE8F0870B
:100CA00008B508460DF006F9C0B2A0F14103192BB2
:100CB0000BD9A0F13003092B04D91F288CBF2520A4
:100CC0003F2008BD1538C0B208BD4038C0B208BDCD
:100CD000F8B5B0F80458B0F80638AB421CD005F0AF
:100CE0000F0600EBC616044630460AF0A9FC94F83D
:100CF000007887420AD27B1C84F80038F15D2046D8
:100D000001F07F01BDE8F840FFF7CABF01350023BD
:100D1000A4F8045884F800380020F8BD38B5084617
:100D20000C46274909F016FFA0B12649204609F0D4
:100D30001BFF00283BD0244C4FF400654FF07C5142
:100D4000204609F04DFC09F02FFFC0F309002844AC
:100D500080B238BD1D49204609F0FCFE0546C0B1F1
:100D600020461B4909F0F8FD4FF480650446002138
:100D7000204609F0EFFE0028E0D14FF07C512046DC
:100D800009F02CFC09F010FFC0F30900284480B2E0
:100D900038BD1049204609F0DDFE0028E7D1204685
:100DA0000B4909F025FD4FF440650446DFE7204676
:100DB000084909F0D1FD4FF400650446D7E700BFAC
:100DC00000401C4600CEC74700C07F4400007A4464
:100DD000000020410000C84270B50D4606460F29AC
:100DE00000F28480DFE801F0161C212630393E43F2
:100DF000484D555A606B70083D4B1B68B3F8DC02D8
:100E0000B0F5805F34BF00B240F6FF7040EA0530B5
:100E100080B270BDFFF75CFF044600285FD1F5E7A4
:100E2000B0F80208C0F30B00F0E7314B1B68B3F8D1
:100E3000DE02E5E72E4B2F481B68D3F8E032A0FB1B
:100E40000330C0F34F10DBE7294B2B481B68B3F886
:100E50004832A0FB0330C008D2E7254B1B6893F84B
:100E60003502D3E7224B1B6893F83602CEE7204BBE
:100E70001B6893F82A02C9E71D4B1B68B3F82C02C4
:100E8000BEE71B4B1B68D3F85C0209F08DFE80B2F5
:100E9000B6E7174B1B68B3F8B402B1E7144B1B68F5
:100EA00093F9340280B2ABE7114B1B68B3F8B80278
:100EB00009F046FC01463046FFF730FFA0E70C4B37
:100EC0001B68B3F8D8029BE7094B186802F068FD6D
:100ED00009F036FC01463046FFF720FF90E7304628
:100EE000FFF7F6FE40EA841080B289E700208DE724
:100EF000AC99FF1F1F85EB51CDCCCCCC2DE9F04F29
:100F0000DFF8F09099F8001083B0834679B9B0F813
:100F10000448B0F80628944209D0FFF75DFF01238A
:100F2000044689F80030204603B0BDE8F08FDFF8B2
:100F3000C080DFF8B8A02B4F0F25464698F8001068
:100F40005846FFF749FF9AF800300446002B43D07B
:100F5000327837F8123083421FD0BBF80218224B88
:100F600027F81240501CC0B200250F2823F8121099
:100F700089F800500BD9012201312046ABF8021844
:100F800088F800208AF8002003B0BDE8F08F88F8C8
:100F90000000204603B0BDE8F08F134B282133F842
:100FA00012300193142005F0DBFE019BBBF8021800
:100FB0001844884213DB33780133DBB20F2B03D89C
:100FC0003370013DBAD1AEE7084A01230131ABF8D5
:100FD000021833701370F4E7054B1A78BDE7044B21
:100FE0001A78BCE7F0A1FF1FD0A1FF1F11A2FF1FBD
:100FF0005F8DFF1F10A2FF1F10B5002304468370F2
:10100000C370037143718360C36003614361836193
:10101000C361036243628362C3620363436340F656
:10102000055004F001FC044B1022A0219A71997024
:101030005A71204610BD00BF00A0064008B5054B00
:101040000C21186801F06CFDB0F5966FACBF002064
:10105000012008BDA899FF1F81637047C1637047D5
:101060000164704741647047C16470478164704790
:101070007E2938B50C46054612D07D29084609D090
:1010800004F040FC2B88E11801EB112101F0FF0175
:10109000298038BD04F036FC5D2004F033FCF1E714
:1010A0007D2004F02FFC5E2004F02CFCEAE700BF5A
:1010B00030B583B01D4D0092ADF80610AB7943F00A
:1010C0002003AB7104461021FFF7D2FF20469DF8A4
:1010D0000610FFF7CDFF20469DF80710FFF7C8FF69
:1010E00020469DF80010FFF7C3FF20469DF8011031
:1010F000FFF7BEFF20469DF80210FFF7B9FF9DF8ED
:1011000003102046FFF7B4FFB4F90000C0F1FF0060
:10111000C0B204F0F7FB0023238004F0FDFBAB79A1
:1011200083F02003AB7103B030BD00BF00A00640C8
:1011300030B583B01A4DADF80610AB7943F02003FB
:10114000AB7104460021FFF793FF20469DF806107F
:10115000FFF78EFF20469DF80710FFF789FF204616
:101160000021FFF785FF20460021FFF781FF204681
:101170000021FFF77DFF00212046FFF779FFB4F93A
:101180000000C0F1FF00C0B204F0BCFB00232380CC
:1011900004F0C2FBAB7983F02003AB7103B030BD28
:1011A00000A00640F0B5B44B85B01B6803934529F9
:1011B0000446039E00F085800D4607D9832925D07B
:1011C000E42965D06A292ED005B0F0BD002944D0AD
:1011D0002229F9D1A94B0E21186801F087FCE37888
:1011E000002B00F01F81012BEED1A54D2B68B342DF
:1011F00080F05A8162694FF400712046FFF758FF72
:1012000006F5FA7600232E60E370DDE79B4B0F2195
:10121000186801F06BFC6379042BD5D8DFE803F084
:10122000BD8EAC7C6B00954B964D1868122101F079
:101230005DFC2B68B34280F00C81E36C13B104F1C8
:1012400030009847226B20464FF42061FFF730FFB3
:1012500006F5FA762E6005B0F0BD884B0D211868B2
:1012600001F044FC2379002B00F0C580012BABD1A9
:10127000854F3B68B34280F01181A2684FF48871BA
:10128000204606F5FA76FFF713FF3E6025719BE7CF
:101290007A4B7E4D1868102101F028FC2B68B34270
:1012A00080F0E380636C13B104F12C009847E26A8C
:1012B00020464FF4A061FFF7FBFE64362E6005B0B8
:1012C000F0BD6E4B724D1868112101F00FFC2B68B8
:1012D000B34280F0C480A36C13B104F1340098478A
:1012E000626B20464FF4C061FFF7E2FE06F5FA7626
:1012F0002E6005B0F0BD674D2B68B34280F0DA80F8
:10130000A26A4FF404612046FFF7D2FE06F5FA7692
:1013100000232E60637157E75E4D2B68B34280F067
:10132000CF80626A4FF403612046FFF7C1FE2B684D
:10133000042203F5FA732B60627145E7554D2B6863
:10134000B34280F0D580E2695349002A4FEAE27344
:1013500081FB0212C0F2DA80C3EB621303EB43039A
:101360005A004FF400612046FFF7A2FE06F5FA7618
:1013700002232E60637127E7464D2B68B34280F04D
:10138000A580226A4FF402612046FFF791FE06F520
:10139000FA7603232E60637116E73E4D2B68B34245
:1013A00080F0A680276C5FB104F12803009304F15C
:1013B000200204F1240304F11C0104F11800B847D1
:1013C000A2693549002A4FEAE27381FB0212C0F29A
:1013D0009580C3EB621303EB43035A0042F00042D3
:1013E0004FF400612046FFF763FE06F5FA7601230D
:1013F0002E606371E8E6244D2B68B3426CD2A36B78
:1014000023B104F1080104F10C009847E2684FF49D
:1014100080712046FFF74CFE06F5FA7601232E6018
:101420002371D1E6164D2B68B3425BD2E36B23B137
:1014300004F1140104F11000984722694FF404717B
:101440002046FFF735FE06F5FA7601232E60E3709D
:10145000BAE620464FF42061FFF76AFEB4E6204664
:101460004FF4C061FFF764FEAEE620464FF4A06182
:10147000FFF75EFEA8E600BF84B3FF1FA899FF1F19
:1014800014A2FF1F20A2FF1F18A2FF1F1CA2FF1FF4
:1014900024A2FF1F28A2FF1F1F85EB5120464FF4F7
:1014A0008871FFF745FE8FE620464FF40071FFF785
:1014B0003FFE89E620464FF40461FFF739FE83E6DC
:1014C00020464FF40361FFF733FE7DE620464FF4DC
:1014D0000261FFF72DFE77E620464FF48071FFF79B
:1014E00027FE71E620464FF40471FFF721FE6BE6FC
:1014F00020464FF40061FFF71BFE65E6A3EB621385
:1015000003EB43035A0042F0404269E7A3EB621346
:1015100003EB43035A0042F0804222E7F8B50F4E36
:101520000546002704F004FAA0B104F011FA0C21DA
:10153000C4B2306801F0DAFA7E2C0CD0AB78002B04
:10154000F0D021462846FFF72DFEAF7004F0F0F9E9
:101550000028EAD1F8BD0123AB70E3E7A899FF1F8B
:10156000014B186800F0A2BC30A2FF1FF8B50023A1
:1015700003800546482003F06BFD0446492003F034
:1015800067FD00EB042083B240F2B572934210D89D
:10159000234A13806BB1234F013B17FA83F67C1E5D
:1015A000C7F14B07381903F053FD04F8010FA642A9
:1015B000F8D140240026204603F04AFD0134482C8F
:1015C0000644F8D11C2E0ED0174B1849186801F0AC
:1015D000F1FA4024A4F140012046C9B2013403F0DD
:1015E00051FD482CF6D1124E4024204603F030FD28
:1015F0000134482C06F8010FF7D1002421460022BF
:101600006868013403F0C2FB802CF7D1094C2068D4
:1016100000F07EFC2068BDE8F84000F091BC00BFFF
:101620002CA2FF1F3CA2FF1FA099FF1F080F010063
:1016300033A2FF1F30A2FF1F30B5002383B0044642
:1016400003804380836080F8AC30012005F04CFBC0
:1016500002230E4A009305460D4B102103F008FAB1
:101660006560284603F01AFAB82005F03DFB616872
:10167000054600F0F5FC074B20461D60FFF776FF9E
:10168000606803F01BFB204603B030BD0082FF1FE3
:101690000C98FF1F30A2FF1F013908B54F2979D8D8
:1016A000DFE801F02F34787878787878787878786F
:1016B000787878393E434878787878787878787888
:1016C0007878784D527878787878787878787878EB
:1016D000787878575E6368787878787878787878EA
:1016E0007878786D7378787878787878787878788A
:1016F00078787828284B1B68B3F9640220EAE070F8
:1017000008BD254B1B68B3F8C80208BD224B1B68F7
:10171000B3F8CA0208BD204B1B68B3F9CE0208BD5E
:101720001D4B1B68B3F8CC0208BD1B4B1B6893F91B
:10173000340208BD184B1B68D3F8E40208BD164BF1
:101740001B68B3F8480208BD134B1B6893F83602B8
:1017500008BD114B1B68D3F85C0209F04BFA08BDB9
:101760000D4B1B68B3F8DE0208BD0B4B1B68D3F8AA
:10177000540208BD084B1B68D3F8440208BD064B51
:101780001B6893F82A02C01108BD034B1B68B3F80D
:101790002C0208BD002008BDAC99FF1F2DE9F041C7
:1017A0000388354A5C1CA4B29F1C0480BFB2DE1CB7
:1017B000D15C0780B6B21D1D145D0680ADB2D75D49
:1017C000058012F806C003F1050E1FFA8EF606809A
:1017D0000633BCF1080F555D038001D8132901D9E8
:1017E000BDE8F0812548264B12F80680006813F802
:1017F0000C6000F087FB23463C1BC5EB0802002C65
:10180000B8BF6442002AB8BF524294422946E7D189
:1018100045458CBF4FF0FF320122BB4214D29F429C
:1018200004DADDE701339F42114420DB9F2B00EBFC
:101830000304F7DC667384F8AD10047B9C4203F16B
:101840000103D8BF0373EEE79F4212DC9F2B00EB2E
:10185000030407DC667384F8AD10047B9C42DCBF94
:101860005C1C0473013B9F421144EFDDB8E7BDE807
:10187000F081BDE8F08100BF3CA2FF1F30A2FF1F36
:1018800034A2FF1F10B50388084A094912685C1C7E
:101890000480C95C92F8B6308B4200D810BD104667
:1018A00000F030FBBDE8104000F0F8BB30A2FF1F95
:1018B0003CA2FF1FF0B50388104A5D1CADB29C1C12
:1018C0000580A4B2D91CD75C048089B21E1D12F811
:1018D00005E00180B5B2145D05800533072F515C2A
:1018E000038009D8535D240444EA0E641C4300EBD2
:1018F000870044EA0124C460F0BD00BF3CA2FF1F82
:10190000028870B5511C084E89B20180B55C023264
:10191000072D028006D8715C0446FFF7BDFE04EB7C
:101920008503D86070BD00BF3CA2FF1F10B50388BF
:101930000A4A0B4912685C1C0480C95C92F8B630F4
:101940008B4200D810BD0446104600F0DBFAE26876
:1019500061888068BDE8104000F02ABC30A2FF1FFB
:101960003CA2FF1F30B503880D4A0E4912685C1C6B
:101970000480C95C92F8B6308B4283B00DD904461E
:10198000104600F0BFFA2369E2686188A5696469BE
:1019900080688DE8300000F05DFC03B030BD00BF12
:1019A00030A2FF1F3CA2FF1F30B503880D4A0E492D
:1019B00012685C1C0480C95C92F8B6308B4283B01C
:1019C0000DD90446104600F09DFA2369E26861884B
:1019D000257E646980688DE8300000F09BFC03B0D0
:1019E00030BD00BF30A2FF1F3CA2FF1F10B503880F
:1019F0000C4A0D4912685C1C0480C95C92F8B63030
:101A00008B4282B00BD90446104600F07BFA236962
:101A1000E268618864698068009400F0DBFC02B0D1
:101A200010BD00BF30A2FF1F3CA2FF1F10B50388EE
:101A30000B4A0C4912685C1C0480C95C92F8B630F1
:101A40008B4200D810BD0446104600F05BFA237CA0
:101A5000E26861888068BDE8104000F019BD00BFF1
:101A600030A2FF1F3CA2FF1F70B50388104A114926
:101A700012685C1C0480C95C92F8B6308B4282B05C
:101A800014D90446104600F03DFA63692669A56939
:101A9000E2686188247F80680094F61A642404FB5D
:101AA00006F4EB1AB4FBF3F300F046FD02B070BD90
:101AB00030A2FF1F3CA2FF1F10B503880A4A0B4942
:101AC00012685C1C0480C95C92F8B6308B4200D866
:101AD00010BD0446104600F015FA618880680022A7
:101AE000BDE8104000F064BB30A2FF1F3CA2FF1F06
:101AF00030B503880D4A0E4912685C1C0480C95C2D
:101B000092F8B6308B4283B00DD90446104600F0EF
:101B1000F9F92369E2686188257E646980688DE847
:101B2000300000F071FD03B030BD00BF30A2FF1FD8
:101B30003CA2FF1F30B50188924D41804B1C9BB2E7
:101B400003806A5C541E4B2C00F27A81DFE814F0AB
:101B50007401700166016301580178017801450143
:101B600032011E0115010E010201F2007801ED00A3
:101B7000E800E300DE00D700D000780178017801AA
:101B80007801780178017801780178017801CC003A
:101B9000C800C200BC0078017801780178017801A2
:101BA0007801780178017801780178017801B8002E
:101BB000B400B000AC00A800A400A0009C00780114
:101BC000780178017801780178017801780197002F
:101BD00092008D00880083007801780178017800F8
:101BE0006D00620057004C008A1C92B202800331E3
:101BF000EC5C0180AB5C43EA0423C36130BD8A1C0A
:101C000092B202800331EC5C0180AB5C43EA0423B6
:101C1000836130BD8A1C92B202800331EC5C01808A
:101C2000AB5C43EA0423436130BD8A1C92B202805C
:101C30000331EC5C0180AB5C43EA0423036130BDFB
:101C40008A1C92B202800331EC5C0180AB5C43EAF7
:101C50000423C36030BD02310180EB5CC36130BD41
:101C600002310180EB5C836130BD02310180EB5CAD
:101C7000436130BD02310180EB5C036130BD023154
:101C80000180EB5CC36030BDBDE83040FFF730BF82
:101C9000BDE83040FFF710BFBDE83040FFF7A6BEFB
:101CA000BDE83040FFF7E0BEBDE83040FFF7BEBE04
:101CB000BDE83040FFF778BEBDE83040FFF752BEC8
:101CC000BDE83040FFF732BE2F4BBDE8304018680A
:101CD00000F042B92C4BBDE83040186800F018B94C
:101CE000BDE83040FFF7CEBDBDE83040FFF756BD40
:101CF000C26803699A4206D30123C36030BDC2683B
:101D000003699A42F8D80023C36030BDC2680369F2
:101D10009A42F1D9F7E7C26803699A42ECD3F2E735
:101D2000C26803699A42E7D1EDE7C26803699A4243
:101D3000E9D1E1E78A1C92B20331C468028089B21A
:101D4000ED5C104B018084B19B5C43EA0523194490
:101D5000018030BD8A1C92B20331C468028089B20E
:101D6000ED5C084B0180002CEED030BDC368002B29
:101D7000C9D00369002BBFD1C5E7C368002BF8D0D9
:101D8000BAE700BF3CA2FF1F30A2FF1F0231018053
:101D9000EA5C072AE9D890F8AC30002BE5D0013B8B
:101DA000DBB200EB830180F8AC3000EB8202CB6A3F
:101DB000D36030BD02310180EB5C072BD5D890F8A1
:101DC000AC201F2AD1D8511C00EB830380F8AC1043
:101DD00000EB8202DB68D36230BD8A1C92B20280C3
:101DE000EB5C1C4C0331072B0180BED8A25C072A98
:101DF000BBD800EB830300EB8202DB68D36030BD0D
:101E00008A1C92B202800331EC5C0180AB5C43EA35
:101E10000423038030BD0A23836030BD023101807A
:101E2000EB5C072BA1D800EB8303DB68836030BD3C
:101E3000BDE83040FFF764BDBDE83040FFF73ABD74
:101E400005490868002890D00449BDE8304000F0FA
:101E5000B1BE00BF3CA2FF1FA099FF1F240F0100CD
:101E600038B58368052B04460FDC0D4D03882A889E
:101E70009A4204D80BE022882B889A4207D2204647
:101E8000FFF758FEA368052BF5DD0A3BA360054B61
:101E9000186800F06DF86068BDE8384002F00EBFC9
:101EA0002CA2FF1F30A2FF1F03F08AB8B0F8B43095
:101EB0001BB32DE9F041DFF8488082B0064600F1FF
:101EC0004E07002437F8022FD8F800000B491312F0
:101ED000D2B256F82350AD6805EB82056D68AD7B34
:101EE0008DE82400224600F065FEB6F8B4300134D7
:101EF000A342E7DC02B0BDE8F0817047500F01005B
:101F0000A099FF1F132994BF50F8210000207047AB
:101F1000F0B4FF21051F00F14C06002755F8044FCF
:101F200004F1AC00024604F10C0303F8011F8342E4
:101F300002F8011FF9D1B5422773EFD1F0BC704709
:101F400038B5041F00F14C0554F8043F986800F0C0
:101F50000BF9AC42F8D138BD38B5041F00F14C057F
:101F600054F8043F986800F019F9AC42F8D138BD34
:101F700070B5B0F8B450DDB16C1E00EB45050646F7
:101F8000503501E0631C13D035F8023D1A12132AB4
:101F900004F1FF34DBB2F5DC132BF3D856F8222022
:101FA000926802EB8303586800F0A2FB631CEBD13C
:101FB00070BD00BF70B4B0F8B46042EA012256B3FD
:101FC000B0F8503093421CD000F15004002303E0DD
:101FD00034F8025F954218D00133B342F8D1312E64
:101FE00019D9322303F1280400EB4404013B01E03A
:101FF000013B023C312BFBD034F8025C2580002BE6
:10200000F6D1A0F8502070BC7047DBB2322BE6D07E
:10201000002BE7D1F5E70136A0F8B460E1E700BF97
:1020200070B50446002084E80C00207354200E464E
:1020300004F05AFE22463146054600F069F804F1E4
:10204000AC00A560014604F10C03FF2203F8012F48
:10205000834201F8012FF9D100232373204670BD7C
:102060002DE9F041142300240746884680F8B63055
:10207000A0F8B440051F4FF4A87004F035FE2346C5
:102080003A46414601340646FFF7CAFF142C45F88C
:10209000046FF0D13846BDE8F08100BF10B400F104
:1020A000AC04214600F10C03FF2203F8012FA342E8
:1020B00001F8012FF9D10023037310BC704700BF52
:1020C00003460A4600681979FFF774BF10B50C4C37
:1020D000236873B10B4A013382FB0321DA17C2EB89
:1020E000A10202EB8202A3EB420323604FF0FF3018
:1020F00010BD054B0549186800F05CFD2368E9E751
:10210000F4A9FF1F67666666A099FF1F7C0F010098
:102110002DE9F84381461646C9F800208846054651
:1021200000F150070024342004F0DEFD45F8040FD0
:10213000BD4284818473C4730461047544758461F1
:10214000C4610462446280F8284080F8294080F825
:102150002A4080F82B40C4620463C0F80080866087
:10216000E1D14846BDE8F88300F15001002250F863
:10217000043F88425A759A61DA611A62DA625A62D9
:1021800083F8282083F82A2083F8292083F82B203D
:102190001A611A75DA739A73E9D1704700F1500128
:1021A000002250F8043F88429A73FAD1704700BF6A
:1021B0002DE9F843964607460546002302E0013321
:1021C000142B11D055F8044FA6898E42F7D1667DA5
:1021D000012EF4D1A2697245F1D1A673D9B200687B
:1021E000BDE8F843FFF76CBFF0460C46814600237C
:1021F00057F8041FCD7B45B10133142BF8D1FFF7FD
:1022000065FF002804DABDE8F88301221846CA7386
:1022100009EB800100264D6801226A75EA73AA73F2
:1022200085F8286085F82A6085F8296085F82B6094
:102230002E75AC81C5F81880C1B2D9F80000EE61E6
:102240002E62EE626E622E632E61BDE8F843FFF7E8
:1022500037BF00BF2DE9F843DDF82080DDF824907A
:1022600086460646002402E00134142C1BD056F8A2
:10227000045FAF898F42F7D16F7D022FF4D1AF6930
:102280009742F1D1EF699F42EED12F6A4745EBD1DA
:10229000EF6A4F45E8D10123AB73E1B20068BDE8B6
:1022A000F843FFF70DBF0E461C46154607460021B2
:1022B0005EF8040FC37B43B101311429F8D1FFF755
:1022C00005FF011E03DABDE8F8830123C37307EBA2
:1022D000810302225B6801205A75002283F82820BE
:1022E00083F82A2083F8292083F82B201A75D873C5
:1022F00098739E819D61DC61C3F82080C3F82C90A7
:102300005A621A631A613868C9B2BDE8F843FFF728
:10231000D7BE00BF2DE9F047DDF820809DF824905E
:1023200086460646002402E00134142C1DD056F8DF
:10233000045FAF898F42F7D16F7D032FF4D1AF696E
:102340009742F1D16F6A9F42EED195F828704745C8
:10235000EAD195F82B704F45E6D10123AB73E1B27A
:102360000068BDE8F047FFF7ABBE0F461E461546B6
:10237000824600215EF8044FE37B43B1013114290A
:10238000F8D1FFF7A3FE011E03DABDE8F0870123B1
:10239000E3730AEB810300225B680120032483F8C6
:1023A000288083F82B905C7583F82A2083F82920F5
:1023B0001A75D87398739F819D615E62DAF8000088
:1023C000DA61C9B21A62DA621A631A61BDE8F047CB
:1023D000FFF776BE2DE9F047DDF8208086460646F9
:1023E000002402E00134142C1BD056F8045FAF899E
:1023F0008F42F7D195F815C0BCF1060FF2D1AF6945
:102400009742EFD16F6A9F42ECD195F8287047450B
:10241000E8D10123AB73E1B20068BDE8F047FFF7F4
:102420004FBE0C4699461746824600215EF8045F6F
:10243000EE7B46B101311429F8D1FFF747FE011EAA
:1024400003DABDE8F0870123EB730AEB8103062072
:102450005B6800225875012083F8288083F82A20C1
:1024600083F8292083F82B201A75D87398739C81E0
:102470009F61C3F82490DAF80000DA61C9B21A62E9
:10248000DA621A631A61BDE8F047FFF719BE00BFB0
:102490002DE9F04186460646002402E00134142C62
:1024A00016D056F8045FAF898F42F7D16F7D042FA5
:1024B000F4D16F6A9742F1D195F82A709F42EDD11D
:1024C0000123AB73E1B20068BDE8F041FFF7F8BD4E
:1024D0000646984617460C4600205EF8041FCD7B42
:1024E00045B101301428F8D1FFF7F0FD002803DAD8
:1024F000BDE8F0810123CB7306EB800304215D6806
:1025000001220023697585F82A8085F8283085F82E
:10251000293085F82B302B75EA73AA73AC816F6272
:10252000C1B2AB61EB612B62EB622B632B61306854
:10253000BDE8F041FFF7C4BD2DE9F0410468314D1D
:10254000247B9DF818704FEA540803FB0483A5FB15
:102550000338C8F3471886460546002302E00133D6
:10256000142B1AD055F8044FA6898E42F7D1667DF8
:10257000052EF4D1A6699642F1D194F8296046451A
:10258000EDD194F82B60BE42E9D10122A273D9B2F9
:102590000068BDE8F041FFF793BD0C4615460646BE
:1025A00000215EF8043FDA7B42B101311429F8D1F1
:1025B000FFF78CFD011E03DABDE8F0810122DA731A
:1025C00006EB810300225B6801204FF0050E83F8C3
:1025D000298083F82B7083F815E083F8282083F88E
:1025E0002A201A75D87398739C819D613068DA61CE
:1025F000C9B21A62DA625A621A631A61BDE8F0411E
:10260000FFF75EBD1F85EB512DE9F843DDF8208013
:102610009DF8249086460646002402E00134142CDE
:102620001CD056F8045FAF898F42F7D16F7D072F1A
:10263000F4D1AF699742F1D16F6A9F42EED12F6B0F
:102640004745EBD195F82B704F45E7D10123AB738C
:10265000E1B20068BDE8F843FFF732BD0E461C4604
:102660001546074600215EF8040FC37B43B10131D4
:102670001429F8D1FFF72AFD011E03DABDE8F8831B
:102680000123C37307EB810307205B6800225875A1
:10269000012083F82B9083F8282083F82A2083F8E0
:1026A00029201A75D87398739E819D615C62C3F866
:1026B0003080DA611A62DA621A613868C9B2BDE83C
:1026C000F843FFF7FDBC00BF10B4826890F82B40C0
:1026D0005318597B93F8AD301CB1127B013AD31AD1
:1026E000DBB2826910BC006803EB011102F04EBB43
:1026F000837BCBB12DE9F041437D013B0446062BA2
:1027000010D8DFE813F0300041006300A800890012
:10271000D70012002A462369616A8B4280F0148137
:102720000A332361BDE8F08170478268037D117B25
:102730004A1CD2B29A4240F2F1804BB100252946A0
:10274000A2692046FFF7C0FF237D0135AB42F6DCCE
:102750002269616A8A4225BF013300220A32237549
:102760002261BDE8F08183681B7B002BDAD0002555
:102770002946A2692046FFF7A7FFA3681B7B013506
:10278000AB42F5DCBDE8F0810369C16AC0698B42E8
:1027900012D301448B420FD2A268127B62B1002592
:1027A0002946A2692046FFF78FFFA3681B7B0135EE
:1027B000AB42F5DC2369E069226A0A3302449342A2
:1027C0002361AFD300232361BDE8F081057D90F83C
:1027D00028302B449D429DDA1026A16894F82B00E6
:1027E0000A7B95FBF2F302FB135351FA83F3013595
:1027F000597B93F8AD3010B1013AD21AD3B206FB2F
:102800000131A269206802F0C1FA227D94F82830D3
:102810001344AB42E1DC7EE790F82930002B81D0F5
:1028200000251026A26894F82B0053190135597B16
:1028300093F8AD3018B1127B013AD31ADBB206FB24
:102840000131A269206802F0A1FA94F82930AB4264
:10285000E8DCBDE8F0810369426A9342FFF460AFAF
:1028600083681B7B002BADD00025102794F82A101D
:10287000002004F075FA94F82A100646002004F0AF
:102880006FFA94F82A100302002003EB064604F0C6
:1028900067FAA3682B443218597B93F8AD3020684F
:1028A00007FB013102F072FAA3681B7B0135AB42D2
:1028B000DCDC87E7057D90F82880836808EB05015C
:1028C0008D422A461F7B57DA102600E0A368A269D2
:1028D00020682B440135597B93F8AD3006FB01315C
:1028E00002F054FA227D94F828301344AB4211468A
:1028F000ECDC2369606A8342FFF412AF94F82B305A
:1029000073BB7B1CC8EB0303DBB2013199422DDBA7
:10291000013A0123227584F82B3053E7002549B191
:102920002946A2692046FFF7CFFEA3681B7B01352D
:10293000AB42F5DC2369226B9342FFF4F1AE002336
:1029400023752361BDE8F081A368197B013292FBF6
:10295000F1F301FB1322002022752061BDE8F08114
:102960003AB9012384F82B2023752BE70132227515
:1029700028E7013A227525E72946BAE7002310B473
:102980001649C0F8A03000F14C04C0F8A430C0F8DB
:10299000A830C0F8AC30C0F8B030C0F8B430C0F8DF
:1029A000B830C0F8BC30C0F8C030C0F8C430C0F88F
:1029B000C830C0F8CC30C0F8D030C0F8D430C0F83F
:1029C000D830C0F8DC302246031F43F8041FA3426E
:1029D00042F8041FF9D110BC704700BF816967FF3E
:1029E0000CB400B50129C3B031D0022938D0042974
:1029F0003FD0032947D0062940D0072948D00829CD
:102A000054D00A2957D00B295AD0222945D01E2943
:102A10005BD020295ED0282914D1D0F8DC308BB1CE
:102A200045AB1A4602A8449900930BF06BFA2C4B65
:102A3000186838B12B4B2C491A68019202AB019AE5
:102A400000F0B8F843B05DF804EB02B07047D0F87E
:102A5000A430002BE4D1D0F8A030002BE0D1F1E776
:102A6000D0F8A830002BDBD1D0F8A030002BD7D184
:102A7000E8E7D0F8AC30002BD2D1ECE7D0F8B83092
:102A8000002BCDD1E7E7D0F8B430002BC8D1E2E776
:102A9000D0F8BC30002BC3D1DDE7D0F8D030002B0C
:102AA000BED1D0F8CC30002BBAD1CBE7D0F8C030B3
:102AB000002BB5D1CFE7D0F8C430002BB0D1CAE796
:102AC000D0F8C830002BABD1C5E7D0F8D430002BFC
:102AD000A6D1E6E7D0F8D830002BA1D1E1E700BFBE
:102AE000A099FF1F84B3FF1F6410010010B4074AB0
:102AF00083B01268019200EB8103019A1C6D40F8CB
:102B000021401A6503B010BC704700BF84B3FF1F9B
:102B100000EB810250F82130106DC01A704700BFE1
:102B2000054B82B01B680193143150F82130019895
:102B3000C01A02B0704700BF84B3FF1FF0B54FF456
:102B40007A73C0F88C30164AC0F88420002380F8CD
:102B5000883080F8903080F89430C0F880300B795D
:102B600080F888308B680F4AC0F88C300B7B156872
:102B70000D490E4EDFF838E080F8903040F6C4146E
:102B80000B7843B133789B0705D01368DEF80070EB
:102B9000DB1B182B03D813685B1BA342F0D9F0BDD5
:102BA000680D010084B3FF1F7CB5FF1F94B5FF1FA4
:102BB00060B6FF1F0EB400B5C2B043AA02A852F817
:102BC000041B01920BF09EF902A808F039FD0146A2
:102BD00002A803F0FFFE42B05DF804EB03B07047BB
:102BE00010B5194A19490446FFF7E4FF2046184971
:102BF000FFF7E0FF20461749FFF7DCFF20461649A4
:102C0000FFF7D8FF20461549FFF7D4FF20461449A7
:102C1000FFF7D0FF20461349FFF7CCFF20461249AB
:102C2000FFF7C8FF20461149FFF7C4FF20461049AF
:102C3000FFF7C0FF20460F49FFF7BCFF20460E49B3
:102C4000BDE81040FFF7B6BF880D01006810010015
:102C500070100100CC100100F810010010110100EB
:102C600018110100241101002C1101007011010044
:102C7000A0110100C0110100E411010070B50C4663
:102C8000054610492046164608F06EFB50B1204616
:102C90000D4908F069FB68B128460C49BDE8704051
:102CA000FFF788BF0123284633600949BDE870401B
:102CB000FFF780BF306007492846BDE87040FFF746
:102CC00079BF00BFF0110100F411010008120100EA
:102CD000F81101000012010070B5454D454E2B68FA
:102CE00082B00446B3F8300207F02EFD424907F0E7
:102CF00033FE07F0F3F802460B4620463F49FFF744
:102D000059FF2B68B3F9320207F01EFD3C4907F06A
:102D100023FE07F0E3F802460B4620463949FFF749
:102D200049FF2B68384993F934222046FFF742FFC8
:102D30002B68B3F8480207F007FD314907F00CFE95
:102D400007F0CCF802460B4620463049FFF732FF29
:102D50002B682F4993F836222046FFF72BFF2B686C
:102D60002046B3F87A223146FFF724FF2B68D3F8C8
:102D70005C0207F0B3F802460B4620462549FFF7F0
:102D800019FF2B682449D3F8B4222046FFF712FF1D
:102D90002B683146B3F87A222046FFF70BFF2868EC
:102DA0001E49B0F96632B0F96422B0F968020090A9
:102DB0002046FFF7FFFE286800F0F2FD18490246A2
:102DC0002046FFF7F7FE2B681649B3F8C8222046C5
:102DD000FFF7F0FE2B681449B3F8CA222046FFF72C
:102DE000E9FE124B186802B0BDE87040FEF7B8BBB0
:102DF000AC99FF1FC812010000007A441C120100A8
:102E00000000C84240120100641201008412010057
:102E1000A8120100E81201000813010028130100A4
:102E20005C1301007C1301009C1301009499FF1FA7
:102E300038B54E4D044600212868FFF769FE4C491D
:102E400002462046FFF7B6FE28680121FFF760FE24
:102E5000484902462046FFF7ADFE28680221FFF7E9
:102E600057FE454902462046FFF7A4FE2868032185
:102E7000FFF74EFE414902462046FFF79BFE2868B9
:102E80000421FFF745FE3E4902462046FFF792FE29
:102E900028680621FFF73CFE3A4902462046FFF724
:102EA00089FE28680521FFF733FE37490246204690
:102EB000FFF780FE28680721FFF72AFE3349024604
:102EC0002046FFF777FE28680821FFF721FE3049EA
:102ED00002462046FFF76EFE28680921FFF718FE1C
:102EE0002C4902462046FFF765FE28680A21FFF7B5
:102EF0000FFE294902462046FFF75CFE28680B2199
:102F0000FFF706FE254902462046FFF753FE2868D4
:102F10000D21FFF7FDFD224902462046FFF74AFE3C
:102F200028680E21FFF7F4FD1E4902462046FFF7F0
:102F300041FE28680F21FFF7EBFD1B4902462046A2
:102F4000FFF738FE28681021FFF7E2FD1749024617
:102F50002046FFF72FFE28681121FFF7D9FD1449FD
:102F600002462046BDE83840FFF724BEA899FF1F5F
:102F7000BC130100DC130100FC1301001C14010050
:102F80003C1401005C1401007C1401009C1401003D
:102F9000BC140100DC140100FC1401001C1501002C
:102FA0003C1501005C1501007C1501009C15010019
:102FB000BC15010038B519490446002009F028FB6A
:102FC000174908F0D1F900B138BD144909F020FBC8
:102FD000054640B1134908F0C7F9C8B1284612495F
:102FE00008F0C2F948B1012002F032F850B9204689
:102FF0000E49BDE83840FFF7DDBD0146012002F073
:1030000041F8F0E720460A49BDE83840FFF7D2BD55
:103010000121084602F036F8E5E700BF2816010056
:10302000DC150100E4150100EC1501000C1601008F
:10303000F415010038B505464A24204602F008F888
:103040000134024605492846FFF7B4FD5A2CF4D155
:1030500028460349BDE83840FFF7ACBD24160100FF
:10306000F41001002DE9F04182B00DF1FF36074662
:1030700033460DF10705092203F8012FAB42FBD1BE
:10308000B0461C49002009F0C3FA037863B307F087
:10309000DBFD441EE4B2072C29D8334613F8011F88
:1030A000A14219D0AB42F9D108F8014F9845E8D1B7
:1030B0004024204616F8011F013401F0E3FF482C9C
:1030C000F7D10D4B1868FEF751FA0C49384602B09B
:1030D000BDE8F041FFF76EBD0949C2B2384602B003
:1030E000BDE8F041FFF766BD38460649EFE73846D0
:1030F0000549ECE7281601009499FF1F0417010009
:10310000C016010064160100981601000B4670B548
:10311000BD490546184609F07BFA002857D0BB493F
:10312000044608F021F900283CD0B949204608F0AF
:103130001BF9002800F0AE80B649204608F014F9CB
:10314000002845D0B449204608F00EF9002800F0C8
:10315000A680B249204608F007F9002800F0A580B3
:10316000AF49204608F000F9002800F0CD80AD49B5
:10317000204608F0F9F8002800F0CB80AA49204644
:1031800008F0F2F8002800F0F5802046A74908F082
:10319000EBF8002800F0E9802846A549BDE870401A
:1031A000FFF708BD984909F033FAA249044608F030
:1031B000DBF890B19949204608F0D6F8002879D07C
:1031C00020469D4908F0D0F8002800F0A78070BD87
:1031D0002846BDE87040FFF72BBE8B4909F018FA6E
:1031E0009649044608F0C0F8002800F0CC809449C5
:1031F000204608F0B9F8002800F09D80914920464B
:1032000008F0B2F8002800F0CB808F49204608F083
:10321000ABF8002800F0DE808C49204608F0A4F8C6
:10322000002800F041818A49204608F09DF80028D6
:1032300000F047818749204608F096F8002800F002
:103240004D818549204608F08FF8002800F05A810A
:103250008249204608F088F8002800F06081804903
:10326000204608F081F8002800F066817D4920465C
:1032700008F07AF8002840F03E81634909F0C8F967
:10328000794A7A4B12680146C8322846BDE8704038
:10329000FFF7F4BC2846BDE87040FFF71DBD21468E
:1032A0007348BDE87040FDF7E1BA2846BDE87040BC
:1032B000FFF780BE544909F0ABF96049044608F0B5
:1032C00053F8002844D06B49204608F04DF80028F8
:1032D00073D06949204608F047F8002800F087803D
:1032E0002046664908F040F800287FF470AF464950
:1032F00009F08EF95C4A624B12680146D8322846C2
:10330000BDE87040FFF7BABC2846BDE87040FFF743
:1033100091BE2846BDE87040FFF7A4BE3A4909F0C7
:1033200077F9514A574B12680146DC322846BDE80E
:103330007040FFF7A3BC344909F06AF94A4A524B7E
:1033400012680146A4322846BDE87040FFF796BCDB
:103350002D4909F05DF9444A4C4B12680146CC32C4
:103360002846BDE87040FFF789BC2846BDE870409C
:10337000FFF736BC3E48FDF76DFA28464449BDE8E4
:103380007040FFF717BC204909F042F9364A414B1B
:1033900012680146A0322846BDE87040FFF76EBCB7
:1033A000194909F035F9304A3B4B12680146A832F9
:1033B0002846BDE87040FFF761BC134909F028F9C1
:1033C000294A364B12680146D0322846BDE8704083
:1033D000FFF754BC0C4909F01BF9234A304B126823
:1033E0000146B4322846BDE87040FFF747BC0649A5
:1033F00009F00EF91C4A2B4B12680146D4322846BC
:10340000BDE87040FFF73ABC2816010048170100DC
:103410009018010098180100A01801003818010048
:10342000A4180100AC180100B4180100BC18010078
:10343000C418010050170100801801005417010042
:10344000601701007C17010088170100A417010014
:10345000B0170100BC170100D0170100E4170100EC
:10346000F817010014180100A899FF1F181801008F
:103470009899FF1F4C1801005C180100701801009A
:1034800074180100881801006C1701004018010031
:103490002C16010058170100801701005018010078
:1034A00094170100641801002A4909F0B1F82A4A6A
:1034B0002A4B12680146AC322846BDE87040FFF73F
:1034C000DDBB244909F0A4F8234A254B12680146C4
:1034D000B0322846BDE87040FFF7D0BB1D4909F067
:1034E00097F81D4A1F4B12680146B8322846BDE8BE
:1034F0007040FFF7C3BB224628461B49BDE8704019
:10350000FFF758BB134909F083F8134A174B1268A9
:103510000146BC322846BDE87040FFF7AFBB0D49FD
:1035200009F076F80C4A124B12680146C032284660
:10353000BDE87040FFF7A2BB064909F069F8064AEA
:103540000C4B12680146C4322846BDE87040FFF7B4
:1035500095BB00BF28160100A899FF1FA8170100FE
:10356000B4170100C417010020180100D81701008A
:10357000EC170100041801002DE9F84FDFF828824C
:103580000446C14603F0FCF9B8B103F0BDF9C5B279
:103590000D2D14D00A2D12D094F89430002B7BD02E
:1035A000D4F88060731C2846C4F880300AF074FC9C
:1035B000A05503F0E5F90028E7D1BDE8F88FD4F86D
:1035C00080300025E55494F89430C4F88050002BE6
:1035D00066D06F49204607F0C7FE002872D06D4FB5
:1035E000AA4640F2B5760AF1010B3D88A34404E0F7
:1035F0009BB2B5420BF1020B2BD9204608F020F804
:103600001FFA8AF383423FD21BF8012CA2F1300348
:10361000DBB2092B06D9A2F16103052B2AD8A2F14E
:103620005703DBB21A010AF1020AC4F880A09BF822
:103630000010A1F13003DBB2092BD9D9A1F161034C
:10364000052B0ED8A1F15703B542DBB20BF1020BEB
:10365000D3D8134408F8053001353D80D4F880A054
:10366000C1E7A1F14103052B9ABFA1F13703DBB2FA
:103670000023BEE7A2F14103052B9DBFA2F1370352
:10368000DBB21A010022CEE70023C4F880304249A1
:103690002046FFF78FFA75E7284603F01FFA7FE709
:1036A00002213E4803F096F93D49204607F05CFEB2
:1036B00000283FD1374FC4F880000123388084F8B8
:1036C00094305FE7334F37492046FFF773FA398864
:1036D000022938D908EB0103CE1E13F8022C13F887
:1036E000013C314DB6B203EB022301369BB2464496
:1036F0004FF6FF7215F8010B80EA122080EA1010D5
:1037000040EA022280B282EA003282EA4012B542E6
:1037100092B2EFD193421BD024492046FFF74AFAD8
:10372000002384F89430C4F880300121204803F04D
:1037300051F927E721462046FFF7E8FC01211C4804
:1037400003F048F91EE71B492046FFF733FAE7E785
:10375000090A482001F096FC3978492001F092FCD2
:103760003B88002553B119F8051005F14A0001F016
:1037700089FC01353B88ADB2AB42F4D80E4B1868DA
:10378000FDF7F4FE0D492046FFF714FAC8E700BF25
:10379000D8180100F8A9FF1FA0190100F4100100BA
:1037A000A4190100E4180100FCA9FF1FF41801008E
:1037B0009C1901007C1901009499FF1F3419010024
:1037C00001F0FEBBFFFFFFFFD0B543A7D7E90067BD
:1037D00004460023002200F50871A0F88831A0F803
:1037E0008A31A0F80C32A0F80E32C0F81032C0F8BE
:1037F0001432C0F81832C1E9006740F6055084F869
:10380000283284F8293284F82A32A4F82C3284F839
:103810002E3284F82F32A4F83032A4F8323284F8F1
:10382000343284F8353284F83632C4F83832C4F889
:103830003C32C4F84032C4F84432A4F84832A4F808
:103840004A32C4F85432A4F85832A4F86432C4F8A6
:103850004C22C4F85022C4F85C22C4F86022A4F8B8
:103860006632A4F86832C4F86C32C4F87032C4F816
:103870007432A4F87832A4F87A32A4F87C32C4F80E
:10388000B432A4F8B832A4F8BA32A4F8BC32A4F81E
:10389000BE32A4F8C032A4F8C232A4F8C432A4F8EC
:1038A000C632A4F8C832A4F8CA32A4F8CC32A4F8BC
:1038B000CE32C4F8D032C4F8D432C4F8D832A4F826
:1038C000DC32A4F8DE32C4F8E032C4F8E43202F0AC
:1038D000F9F82046D0BD00BF00000000D0126341BF
:1038E00008B5064B00211868FFF71AF940F6B73300
:1038F0009842CCBF0020012008BD00BFA899FF1F3F
:1039000008B5064B02211868FFF70AF940F6B733ED
:103910009842CCBF0020012008BD00BFA899FF1F1E
:1039200008B5064B03211868FFF7FAF840F6B733DD
:103930009842CCBF0020012008BD00BFA899FF1FFE
:1039400008B5064B06211868FFF7EAF840F6B733CA
:103950009842CCBF0020012008BD00BFA899FF1FDE
:1039600008B5064B04211868FFF7DAF840F6B733BC
:103970009842CCBF0020012008BD00BFA899FF1FBE
:1039800008B5064B05211868FFF7CAF840F6B733AB
:103990009842CCBF0020012008BD00BFA899FF1F9E
:1039A000D0F8E4320248A0FB0330C0F3CF307047B8
:1039B000D55204E930B40B4AD0F81032126882B004
:1039C0000192019943B1D0F8E442B0F9CE52CA1A3B
:1039D00005FB0243C0F8E432C0F8101202B030BC5C
:1039E000704700BF84B3FF1F2DE9F84FDDE90C01DC
:1039F00014461D4606F012F941A3D3E9002306F050
:103A0000C1FA0022424B06F0E7FB0022414B06F0D0
:103A1000B9FA03F09FFB3AA3D3E9002382468B4611
:103A20002046294606F0AEFA0022394B06F0D4FBB8
:103A300003F046FB32A3D3E9002306460F46DDE937
:103A40000C0106F09FFA0022314B06F0C5FB03F093
:103A500037FBDDE90A2380468946DDE90E0106F0E1
:103A6000DDF827A3D3E9002306F08CFA0022284BC7
:103A700006F0B2FB0022274B06F084FA03F06AFB43
:103A8000424604460D464B463046394606F07AFA21
:103A900022462B4606F076FA22462B4606F072FAAC
:103AA000524604460D465B465046594606F06AFAB1
:103AB00002460B462046294606F0B2F806460F4657
:103AC00003F0BAFB32463B4604460D46002012493D
:103AD00006F0A4F803F0B0FB02460B462046294648
:103AE00003F0A8FB02460B4606F09AF806A3D3E9BA
:103AF000002306F047FABDE8F88F00BFAFF300805F
:103B000000000060FB21094000000000AE4D58415C
:103B1000008066400000E03F0000F03F59B152B124
:103B20004BB12DE9F04786B00E9C3CB90020002136
:103B300006B0BDE8F0870020002170471D4600F563
:103B40000873D3E9006782460846144606F0B4F9C4
:103B500032463B4606F040FB80460E98894606F00A
:103B6000ABF932463B4606F037FBCDE90401284667
:103B700006F0A2F932463B4606F02EFBCDE90201E3
:103B8000204606F099F932463B4606F025FB4246B0
:103B9000CDE900014B465046FFF726FFC8E700BFBE
:103BA0002DE9F04F104687B019464FA3D3E9002303
:103BB00006F0E8F900224E4B06F00EFB4AA3D3E9CB
:103BC000002306460F46DDE9120106F0DBF900226C
:103BD000474B06F001FB44A3D3E900238046894606
:103BE000DDE9140106F0CEF90022414B06F0F4FAAB
:103BF0003DA3D3E9002304460D46DDE9100106F09C
:103C0000C1F900223A4B06F0E7FA02460B4620467D
:103C1000294606F003F802460B46CDE9042303F0DB
:103C200099FACDE900014046494603F049FA0446B5
:103C30000D463046394603F043FA82468B464046ED
:103C4000494603F087FA804689463046394603F0F4
:103C500081FADDE90423CDE902011046194603F09B
:103C60002FFA4246CDE904014B465046594606F02C
:103C700089F9DDE9022306460F462046294606F06B
:103C800081F9DDE9042306F07DF902460B46304652
:103C9000394605F0C3FF22462B4606460F46DDE9AE
:103CA000000106F06FF932463B4603F0C3FA0022EA
:103CB0000F4B06F067F90CA3D3E9002306F08CFA4A
:103CC0000022002304460D4606F0CEFB38B1204604
:103CD00029460022074B05F0A3FF04460D46204667
:103CE000294607B0BDE8F08F00000060FB210940C5
:103CF000008066400080764059B152B14BB12DE949
:103D0000F04786B00E9C3CB90020002106B0BDE80B
:103D1000F0870020002170471D4600F50873D3E9A5
:103D2000006782460846144606F0C6F832463B460F
:103D300006F052FA80460E98894606F0BDF83246E3
:103D40003B4606F049FACDE90401284606F0B4F8EE
:103D500032463B4606F040FACDE90201204606F025
:103D6000ABF832463B4606F037FA4246CDE9000151
:103D70004B465046FFF714FFC8E700BFF0B590F878
:103D80002A32DB0983B0044608D0D0F84432322B03
:103D90000EDCD4F8E0221344C4F8E032D4F8382220
:103DA000D4F83C32C4F81422C4F8183203B0F0BD81
:103DB000D0F83C52D0F83832D0F81822D0F814128B
:103DC0000095FFF799FF0022002306460F4606F0F4
:103DD0005FFB60B100220A4B3046394605F020FFF8
:103DE00006F080FBD4F84432A4F8DE02D1E70022CA
:103DF000034B3046394605F011FF06F073FBF1E73F
:103E00000000E03FF0B583B0012402AD8DF804203E
:103E10008DF80540ADF800308DF802408DF8034074
:103E2000044655F8080D8860AB888B8101F10805C0
:103E3000314A0626FF20BE23FE27CE7048718F70C0
:103E40008B7193790B71422001339371C871CE1C31
:103E50004FF6FF7216F8013B534083EA0313DBB2BF
:103E6000D80080EA032080EA1222AE4282EA1312CE
:103E7000F0D10846164620F80E2B15F8013B73408A
:103E800083EA0313DBB2DA0082EA032282EA162213
:103E900082EA13131BB29EB285420E80EDD183F0ED
:103EA000940080EA0010C0B2C20082EA002282EAD6
:103EB000162282EA101000B282B20B4615120A8056
:103EC000CD73887353F8020F5A689B68A3606260D1
:103ED0002060CB7808880633E218E0540B881B1268
:103EE0005370C9782046083101F05AFE0A2003B009
:103EF000BDE8F04001F088BBB4B1FF1F2DE9F043ED
:103F0000304F314E3B68326885B00193019B9A4235
:103F100002D305B0BDE8F083DFF8B0900D4604464B
:103F20000021D9F80000FEF7FBFD40F6B738404508
:103F300015DCD9F800000B21FEF7F2FD4045E8DD65
:103F400003231A4629462046FFF75CFF3B6802938D
:103F5000029B03F57A73336005B0BDE8F083294610
:103F6000204602230122FFF74DFF29462046032366
:103F70000222FFF747FF2946204600230422FFF7CD
:103F800041FF2946204603230622FFF73BFF29462F
:103F9000204605230A22FFF735FF29462046022343
:103FA0000B22FFF72FFF2946204603230C22FFF7A1
:103FB00029FF3B680393039B03F57A73336005B0D5
:103FC000BDE8F08384B3FF1FD0B2FF1FA899FF1F85
:103FD0002DE9F047CEB00AA90746FFF78FFF01F0A1
:103FE00043FE002800F0C780B24D01F04DFEEB7893
:103FF0000022C4B22A700A2B00F2ED84DFE813F02D
:104000002B012B01150102013101EF00D900BE0087
:1040100097000B000B000A2BA74E04D03388B4EB9B
:10402000132F00F00B844FF0020885F800802B79E5
:10403000DFF884A2DFF87C9233444FF0010E514642
:104040004FF488725C720AA885F803E000F01EFF46
:10405000B8F1010F40F0C284B9F808309AF8042092
:1040600089F805200BB9A9F80A300133F2782B81C1
:1040700000238DF82B20AB709DF82F30242BAED071
:1040800000F202811B2B00F0B98300F21F81012B8B
:1040900000F0E482C0F0BC82022B00F0F981182B02
:1040A00040F03782854C03212068FEF71FFD9DF804
:1040B0004D10BDF844200E9D9DF84C30206887F8C7
:1040C000353287F836120F9C0091A7F848221099D4
:1040D0000192C7F83852BDF848200495BDF84A50FF
:1040E000C7F83C420594C7F840120391C7F8442230
:1040F00002210292A7F84A52714AFEF771FC97F822
:104100002A32DB0900F0B583D7F8D01221B1D7F8F5
:10411000D422002A40F04A84D7F83832D7F83C023B
:10412000C7F8D0321946C7F8D4020246B7E3624E48
:10413000644AF3793188D35C4B4083EA0313DBB2E2
:10414000DA0082EA032282EA112282EA1313DAB247
:104150009442338014BF0A230923EB702B79334434
:104160001C72F3788DF82B300023AB7001F07CFDCE
:1041700000287FF439AF4EB0BDE8F0874E4E2A7963
:104180004C48B31801321C7231884C4084EA041444
:10419000E4B2E30083EA042383EA1121F378D2B284
:1041A00081EA14149A422A713480DBD10822C27049
:1041B000D8E7414E3188F4714C4084EA0414E4B2EB
:1041C000E20082EA042282EA1122F37882EA1414DD
:1041D0003480002B40F0FE800822EA70C2E7364EA1
:1041E0003288B471544084EA0414E4B2E30083EAF0
:1041F000042383EA122383EA141406223480F3781A
:10420000EA70AFE72C4E32887471544084EA04148B
:10421000E4B2E30083EA042383EA122383EA14145A
:1042200005223480F378EA709CE7234E3188F470DD
:1042300084EA010383EA0313DBB2DA0082EA032291
:1042400082EA112282EA13120020042123463280DE
:104250002871E97086E7FE2C174E00F02081F37874
:1042600080E7154E32883471544084EA0414E4B275
:10427000E30083EA042383EA122383EA141403226B
:104280003480F378EA706DE7962B00F0AF8253D953
:10429000A52B00F0A38266D8982B00F09E80A32B5C
:1042A00040F03781054B084A18680821FEF798FB53
:1042B00095E600BFB4B1FF1FC0B1FF1FA899FF1F53
:1042C0006C1A0100381D0100D01C01001E2B00F0EB
:1042D000278140F2ED80212B00F0C080232B40F09D
:1042E0001881B64CB64A20680821FEF779FBBDF864
:1042F0003410BDF83620BDF83830BDF83A60BDF84E
:104300003C50A7F8BC12A7F8BE22BDF83E10BDF87D
:104310004020A7F8C032BDF84230A7F8C612206886
:10432000A7F8C262A7F8C452A7F8C822A7F8CA32F1
:104330000B21FEF7DBFB52E63E2B00F0DB8040F268
:10434000C8804A2B50D0932B40F0E3809B490C9AB5
:104350000D9B0868A7F8B822A7F8BA32994A082135
:10436000FEF73EFB3BE6AD2B7FD0FD2B40F0D1802E
:10437000924C0121206807F28128FEF7B7FB2068E4
:1043800097F88032904ACDF800800721FEF728FB8D
:104390000CAE07F520750DF1600E34460FCC744558
:1043A00028606960AA60EB60264605F11005F4D12B
:1043B0002288A378AB702A8097F8802283498448AA
:1043C000434602F0070206F09BFF81498148FCF753
:1043D0003DFC04E60722EA70C4E6784B7E4A186882
:1043E0000821FEF7FDFAFAE5744C06212068FEF775
:1043F0007DFB0F98246805F071FDCDE908010E984A
:1044000005F06CFDBDF84220BDF940300493CDE9C4
:1044100006010C98059205F061FDCDE902010D98A9
:1044200005F05CFD6D4ACDE9000120460521FEF74F
:10443000D7FA0D9D0C9CBDF94000BDF842100E9AB4
:104440000F9BC7F84C52C7F85042C7F85402A7F860
:104450005812C7F85C22C7F86032C0E5574B604A73
:1044600018680821FEF7BCFAB9E5544C5D4A20688B
:104470000A21FEF7B5FA5C490C9806F0B9F906F086
:1044800093FB0A21C7F8B4022068FEF72FFBA6E5CC
:104490004A4B564A18680821FEF7A2FA9FE54FF6E4
:1044A000FF7100230222B4703180F370EA7059E684
:1044B0001D2B2ED1414CBDF83C302068A7F87A3234
:1044C0004B4A0821FEF78CFA20680821FEF70EFB04
:1044D00085E52A2B1DD1394CBDF830302068A7F86E
:1044E0007832444A0821FEF77BFA20680721FEF75C
:1044F000FDFA74E5314CBDF848302068A7F87C32ED
:104500003D4A0821FEF76CFA20680921FEF7EEFA11
:1045100065E52A49394A08680921FEF761FA5EE52E
:10452000264C05212068FEF7E1FA0F98246805F073
:10453000D5FCD7F870320693CDE908010E9805F046
:10454000CDFCD7F86C320293CDE904010D9805F04B
:10455000C5FC2B4ACDE9000120460321FEF740FAB5
:1045600028490D9806F044F9274906F0F5F906F0B8
:104570001BFB80EAE073A3EBE0735A2BC7F86C02D5
:1045800020490E9840F36B8106F032F91E4906F07F
:10459000E3F901461B4806F021F806F005FBC7F8D1
:1045A000700219490F9806F01BF8184906F020F917
:1045B00006F020FBC7F8740211E500BFA899FF1FA1
:1045C000E41C0100781C0100EC190100201A010014
:1045D000D4B2FF1FC899FF1FB81C0100641B010063
:1045E000541C0100FC1C01000000C842381C0100E2
:1045F000F01B0100D01B0100101C0100181D010060
:10460000081B010000003443F90F494086F922439A
:10461000D54C00212068FEF769FA0C9A20689DF8B5
:10462000363000920121D14AFEF7DAF99DF8345074
:104630009DF835409DF836000C999DF837209DF87F
:10464000383087F8285287F8294287F82A02A7F8D5
:104650002C1287F82E2287F82F32C0E4C24C022198
:104660002068FEF743FABDF940202068BDF83E30CF
:1046700000920621BE4AFEF7B3F9B7F90C42B7F92A
:104680000E12BC4BBDF94020BDF83E00A7F8300229
:1046900021440B4022EAE272002BA7F8322207F5F0
:1046A000C67EC0F231812EF81300B7F90E323F2BCF
:1046B00000F3CA800133A7F80E32B7F98801B7F9C1
:1046C0008A21AC4BB7F9321202441340002B07F594
:1046D0008474C0F2668124F81310B7F98A113F2957
:1046E00040F32581B7F98831A248013318400028EA
:1046F000C0F26C8100B2A7F88801B7F90E62B7F971
:104700000C82092E00F30C81B446B14600239E4270
:104710004FF0000505DC19E03EF912209E421544D9
:1047200011D0944A03EB080A0AEA02020133002A74
:104730001BB2F1DA013A62F03F0201329E423EF9C9
:1047400012201544EDD1002DC0F2FE8009EBD9797D
:104750004FEA6903884A1D4495FBFCF31BB282FBB8
:104760000352DB17C3EBA2030929A7F8CC3200F3ED
:10477000D0808E468C46002399424FF0000505DC20
:1047800017E034F912208B4215440FD0794A1E18D5
:1047900032400133002A1BB2F3DA013A62F03F02E1
:1047A00001328B4234F912201544EFD1002DC0F2B2
:1047B000C5800CEBDC7C4CF34F036F4A9DF84E1028
:1047C00087F834121D4495FBFEF31BB282FB0312E3
:1047D000DB17C3EBA203A7F8CE3200E4624B674AB3
:1047E00018680821FEF7FCF8FFF7F9BB5E4B644A36
:1047F00018680821FEF7F4F8FFF7F1BB5A4C0421C2
:104800002068FEF773F9BDF93C10BDF93A20206825
:10481000BDF938300191009204215A4AFEF7E0F8C0
:10482000BDF83810BDF83A20BDF83C30A7F8641246
:10483000A7F86622A7F86832FFF7D1BB4FF001084E
:1048400085F80080FFF7F3BBB7F90C22494B013222
:104850001340002BC0F2B580A7F80C322DE705F00D
:10486000C7FF494906F078F806F09EF9C7F87002CC
:1048700097E6D7F8D03223B9D7F8D412002900F040
:104880009A800021D7F83832D7F83C02C7F8D01206
:104890000A46C7F8D412C7F8D812A7F8DC1200905D
:1048A0003846FFF73BF90022002304460D4605F089
:1048B000EFFD00286CD00022344B2046294605F03D
:1048C000AFF905F00FFED7F83C42D7F83832D7F8E9
:1048D000D422C7F8D802D7F8D01200943846FFF790
:1048E0000BFA0022002304460D4605F0D1FD88B3E3
:1048F0000022264B2046294605F092F905F0F2FDEC
:10490000A7F8DC02FFF76BBB013B63F03F03013309
:10491000C9E6A1F10A034FF00A0E1BB2F4462BE7D9
:10492000A6F10A034FF00A0C1BB2E146EFE6013193
:1049300009B2B7F98801A7F88A11DEE60CEBDC733F
:104940005B105B421BB238E709EBD9735B105B422B
:104950001BB2FFE600220D4B2046294605F05EF90A
:1049600005F0C0FDCCE700BFA899FF1FB0190100FA
:10497000281A01003F00008067666666E41C01009B
:10498000981C0100D01A0100F90F49400000E03FD7
:104990000022264B2046294605F040F905F0A2FDED
:1049A00091E7013B63F03F03013394E6D7F83832D7
:1049B000D7F83C0273E7D7F83832D7F83C020A46FA
:1049C0006DE7013B63F03F03013345E7013860F0D9
:1049D0003F0001308EE6164E4FF00008F3788DF858
:1049E0002B300026B8F1020FAE702B79114A104D12
:1049F00016D12B440121587A1B7A167043EA002302
:104A0000FE2CADF82830917002D0D170FFF7E7BAD4
:104A10004FF6FF7382F80380EE702B80FFF7DFBA4A
:104A2000B8F1000F7FF428ABFFF7D9BA0000E03FE0
:104A3000C0B1FF1FB4B1FF1F08B5064A064B12797B
:104A40001A7000F0BFFD054A054B106000221A7075
:104A500008BD00BF74B3FF1F1F80004058B3FF1F85
:104A600070B3FF1F10B5044602F01CF9204610BDBC
:104A7000F0B4064F064E074D074C39809DF81010D4
:104A800032602B602170F0BC704700BF60B3FF1F25
:104A90005CB3FF1F6CB3FF1F54B3FF1F714B2DE9B5
:104AA000F0471C88DFF8008204EB4404E400D8F8E7
:104AB00000002246002106F0BFFB6B4B186800285F
:104AC00000F0CC802246002106F0B6FB674F684D0F
:104AD000684EFF233B600121022000F06DFD0121A3
:104AE0000E2000F069FD0121072000F065FD012185
:104AF000082000F061FD0121062000F05DFD01218C
:104B0000142000F059FD0121152000F055FD012170
:104B1000052000F051FD584A584B127812F0100F42
:104B200018BF1D46082000F0AFFC284605F008FE1F
:104B300005460146032000F0B7FC2946042000F09A
:104B4000B3FC3C21032000F0A1FBB021042000F0C5
:104B50009DFB4B4B4B4A1A600221032000F02CFDB9
:104B600000210F2000F028FDDFF840C14649474BE7
:104B700047480860474ADCF80010DFF834E11A6063
:104B8000D8F800A0444ADFF82C81DEF80000C1F814
:104B9000008000230A61A5B201224FF00809CD82EE
:104BA0008B80A1F81C90CB80CD838A60CB608B82F8
:104BB0008B6164423168C460384CC0F800A08280C8
:104BC0000461C380C5828260A0F81C9083828361E7
:104BD000C583C1F800808B80CB808A60CB609CF855
:104BE00004000F6100F1804000F504300A24DFF872
:104BF000C880CD824FF040278C834FF08059B2247B
:104C000041F2320CCD838B828B61C8F80090C7F8DB
:104C100000C0037004709EF804102148214C01F17B
:104C2000804101F50431B3250B700D70317901F12C
:104C3000804101F50431B1250B700D7031794B11B4
:104C40009B0003F1604301F01F0503F56143103140
:104C5000AA4040F821401A60BDE8F087D8F800204B
:104C60001A6033E760B3FF1F6CB3FF1FC8F00F403B
:104C700000350C0074B3FF1F54B3FF1F801A0600E9
:104C800000A004400003010000B004403490044040
:104C90000001020000030200C4F00F40C0F00F400A
:104CA0000084FF1F394A00005CB3FF1F64B3FF1F7D
:104CB0007CB3FF1F381E01000C0008E0F8B5244C3F
:104CC0002378002BFCD1234A234B116818688142BA
:104CD00006D0224B1A8802EB4202D20000F0D6F82E
:104CE0001F4D00F06FFC2B68C01A3128F9D91D4AFE
:104CF0001D4B10681B6872B601221C4922700A689D
:104D00009342FCD219490A689342FCD317490A68B6
:104D10009342FCD81649134A164C174B0D79DFF80D
:104D200064C0DFF864E02679144F1C79144B00F05E
:104D3000E70111600121CCF80010CEF800104FF40B
:104D4000005139601E701D701C70106062B6F8BD95
:104D500070B3FF1F6CB3FF1F5CB3FF1F60B3FF1F77
:104D600058B3FF1F00900340189003400490034085
:104D70007CB3FF1F64B3FF1F74B3FF1FA0900440F8
:104D80001B800040A0A00440A0B0044070B4244B9D
:104D9000187800F00700022837D003282CD001280B
:104DA00021D0204B20481B880068B1FBF3F503FBA2
:104DB0001513012403EB430304FA05F500EBC303C9
:104DC000EEB203F11804ED434FF4000118780A42E3
:104DD00014BF3043284018700133A3424FEA5101F9
:104DE000F4D170BC7047130298B2C2F30723034397
:104DF00002F47F021A43D4E7130223F07F4323F027
:104E0000FF03C2F307421A43CBE71002131200F468
:104E10007F0003F47F430343D2B21A43C1E700BFCC
:104E200054B3FF1F60B3FF1F6CB3FF1F2DE9F041A8
:104E3000DFF85480104D114C114F124E40460021A6
:104E400001F0CCFE2A462146404605F0F3FE3846E6
:104E5000002101F0C3FE2A462146384605F0EAFE4D
:104E60003046002101F0BAFE2A4621463046BDE810
:104E7000F04105F0DFBE00BF2089FF1F654A00003A
:104E80007CB3FF1F74B3FF1F64B3FF1F844641EA66
:104E9000000313F003036DD1403A41D351F8043BB2
:104EA00040F8043B51F8043B40F8043B51F8043B04
:104EB00040F8043B51F8043B40F8043B51F8043BF4
:104EC00040F8043B51F8043B40F8043B51F8043BE4
:104ED00040F8043B51F8043B40F8043B51F8043BD4
:104EE00040F8043B51F8043B40F8043B51F8043BC4
:104EF00040F8043B51F8043B40F8043B51F8043BB4
:104F000040F8043B51F8043B40F8043B51F8043BA3
:104F100040F8043B51F8043B40F8043B403ABDD212
:104F2000303211D351F8043B40F8043B51F8043BB4
:104F300040F8043B51F8043B40F8043B51F8043B73
:104F400040F8043B103AEDD20C3205D351F8043B43
:104F500040F8043B043AF9D2043208D0D2071CBF0F
:104F600011F8013B00F8013B01D30B880380604638
:104F7000704700BF082A13D38B078DD010F00303AE
:104F80008AD0C3F10403D21ADB071CBF11F8013B1E
:104F900000F8013B80D331F8023B20F8023B7BE76D
:104FA000043AD9D3013A11F8013B00F8013BF9D298
:104FB0000B7803704B7843708B7883706046704732
:104FC000F0B51B4B1B4E596818689A68DB6885B0B2
:104FD0006C460FC4337899071DD5174A174C1378C0
:104FE000174913F0700318BF1370164A164B802729
:104FF000177000263320032226706D4608701A7041
:1050000072B6043C45F001052046A84762B62378F5
:1050100013F0700309D10D4B064901E0013B02D0AA
:105020000A78D207FAD505B0F0BD237005B0F0BDFF
:105030003C1E01000100024000000240040002404A
:105040000B000240070002400A000240410D03002D
:10505000B0F5006F0AD210B5094B1B78DB07044688
:1050600006D504F1A0500078C0B210BD00207047F2
:10507000FFF7A6FF04F1A0500078C0B210BD00BF3A
:1050800001000240B0F5006F17D238B50F4B1B7806
:10509000DA070D46044611D504F1A0500378AB425F
:1050A0000AD00B4A137813F0700318BF1370074A25
:1050B00005701378DB07FCD538BD7047FFF780FF1C
:1050C00004F1A0500378AB42EBD1F5E701000240B8
:1050D00000000240024A136801331360704700BFAA
:1050E00084B3FF1F08B5104C08E0236859050DD4A0
:1050F00023681A050FD42368DB0411D423685803EE
:10510000F3D500F033FF23685905F1D500F054FCC6
:1051100023681A05EFD500F0EBFD2368DB04EDD51D
:1051200001F0F4FEEAE700BF3480044008B5FFF761
:10513000D9FF00BF014B10221A80704700200540A4
:10514000704700BF094908B50B6830B16A4618447A
:10515000A2F58052904202D20860184608BD05F0C0
:105160007DFD0C2303604FF0FF3008BD608DFF1FF5
:10517000EFF3138070B9EFF310836BB9EFF305828F
:105180005AB94FF48070EFF311832BB1984228BFC6
:10519000184670474FF0FF3070470F2A01D8184665
:1051A000F1E7014BD05CEEE7F0E300E010B40F4B09
:1051B00053F8302092F880422CB1012369B182F873
:1051C000803010BC704703EBC0035B681A6841B9BC
:1051D00022F002021A6010BC704782F8003110BC45
:1051E000704742F003021A6010BC70474C1E010069
:1051F0001C4A02EBC00301295B6811D004291BD0B3
:1052000052F83000002280F8802229B1022920D0F3
:10521000032922D01A6070474FF480721A607047D9
:1052200052F830004FF4A27280F880121A601A68A7
:1052300022F020021A60704752F830104FF4A27228
:10524000012081F880021A601A6842F020021A6078
:10525000704740F203121A6070474FF481721A606F
:10526000704700BF4C1E010030B4054B054D064C85
:10527000002210211A602A602060196030BC70473B
:1052800014D0034004D0034000D00340282838B590
:105290002ED0002904464FDD5F4B1B78012505FA0F
:1052A00003F28A4202D8212837D938BD0338C2B266
:1052B000012A3AD9202C4AD0192C48D0574A1268D2
:1052C00002FB011222FA03F31D2800F29B80DFE8A3
:1052D00000F0928B847D9999766F99999999999913
:1052E00099999968615A53994C99999999999945BD
:1052F000494B1B780B2B08D90C2B1CBF0C3B1941BD
:105300000846BDE8384001F0D3BDC3F10C03994015
:105310000846BDE8384001F0CBBD2946FFF746FFFF
:105320002946BDE83840FFF763BF3D4A126802FBDB
:10533000011222FA03F3C7E72128B6D80021FFF7AC
:1053400035FF20460121BDE83840FFF751BF354AFF
:10535000126802FB011222FA03F3B5E73249334A1D
:105360000B604FF45173136038BD3149314A0B6003
:105370004FF45173136038BD2F49304A0B6040F22F
:105380004443136038BD2E492E4A0B6040F244431B
:10539000136038BD2C492D4A0B6040F24443136022
:1053A00038BD2B492B4A0B6040F24443136038BD93
:1053B00029492A4A0B6040F24443136038BD28490A
:1053C000284A0B6040F24443136038BD2649274AFF
:1053D0000B6040F24443136038BD2549254A0B60F9
:1053E00040F24443136038BD2349244A0B604FF414
:1053F0005173136038BD2249224A0B604FF4517338
:10540000136038BD212C3FF650AF7F29D4BF002157
:105410000121204693E700BF648DFF1F08800340F1
:105420000890034008800B4010800B4048A00440C7
:1054300018800B404CA004401880034008B0044082
:105440001080034004B004404080034018C0044072
:105450003880034014C004402880034010B004404A
:10546000208003400CB004403080034010C0044052
:10547000488003401CC0044018900340349004400E
:10548000109003403090044038B1102828BF1020FD
:10549000044AC3B2107813707047024A012310788F
:1054A00013707047648DFF1F2DE9F8430E46804648
:1054B0003249334D304605F039FB47F612230028B8
:1054C0001ABF1D464FF002094FF00109002425FACA
:1054D00004F005F035F94FF05E51074605F088F904
:1054E0000146304605F036FB30B90134072CEED1C9
:1054F000E80905F025F907463146384605F02CFA4B
:105500004FF07C5105F06AF805F074FB4FF6FF721E
:105510009042A8F1030328BF1046012B29D9B8F106
:10552000170F17D8174B23FA08F303F0010383F082
:10553000010223B9B8F1190F0FD0BDE8F883124B5F
:10554000124D13491A6044EAC9042A6008601C60BD
:10555000BDE8F883B8F1200FECD10E4B0E4D0F498A
:10556000002244EAC9041A602A6008601C60BDE891
:10557000F8830B4B0B4D0C49F2E700BF001BB74003
:10558000006CDC026006F0000080034004800340F1
:105590000880034000800B4004800B4008800B40D3
:1055A000009003400490034008900340212801D854
:1055B000FFF7FCBD704700BF212801D8FFF718BED8
:1055C000704700BF72B60C490C4B0D4A1B68086847
:1055D000126862B6520102D5322B88BF01300949E8
:1055E000C3F5BB334FF47A72FF33A1FB031302FB05
:1055F00000F000EB9310704784B3FF1F18E000E049
:1056000004ED00E0ABAAAAAA2DE9F843054672B65C
:10561000204F214B214A1B683C68126862B6520138
:1056200002D5322B88BF013495B3C3F5BB331C4E72
:10563000DFF86490DFF86480FF334FF47A72A6FBE2
:10564000031302FB04F404EB931472B6D9F80010B0
:105650003A68D8F800E062B6C1F5BB33FF33A6FB69
:1056600003031EF0806FC4EB93134FF47A7002D0E3
:10567000322988BF013200FB0233B3F57A7F04D3AD
:10568000013D05D004F57A74DFE701F073FBDCE738
:10569000BDE8F88384B3FF1F18E000E004ED00E0EC
:1056A000ABAAAAAAF8B52D4B2D49DFF8D0E0DFF858
:1056B000D0C02C4E2C4D2D4C2D4A2E4F4FF40000B7
:1056C00018604FF0807018604FF0007018604FF055
:1056D000806018604FF00060186000200860282388
:1056E0004BF6FF71CCF80010CEF800303360136039
:1056F0002B6023603B60B3629362092245F8242C3F
:10570000C4F8D80F05F57F65C7F8D41F07F5FF2744
:1057100007F5FA67C6F8F83F2B6006F5FF26C4F8D0
:10572000D42F05F5FD2504F5FF24386006F2F47644
:105730001148316005F5FF6504F5FD642B602360B9
:10574000026001F045FB3220FFF75EFF01F03AF8FE
:105750004FF4AF70BDE8F840FFF756BF08E100E036
:105760000480034014800340248003402C800340C5
:105770001C8003403480034000800B400C800340B9
:10578000088003402DE9F84F214B1B6807460BB1F9
:1057900001221A70DFF888901E4D99F80040DFF85A
:1057A00084801D4E01343F2C8ABF4FF0000A5FFAFF
:1057B00084FA5446AB462B78A34216D1FFF7D8FCA7
:1057C00040281FDC33791B06F5D59BF800300133E8
:1057D0003F2B86BF00221346DAB218F80330DBB243
:1057E000F3712A702B78A342E8D00C490A4BFFB220
:1057F00008F804700120BC22087089F800A0DA7053
:10580000BDE8F88FFF28D6DD01F0B4FAD3E700BF7A
:1058100018B4FF1F15B4FF1F00A0064014B4FF1FEB
:105820001CB4FF1F90B3FF1F274A28491368F0B527
:1058300043F4806313600A78254F264E264D274C8B
:10584000274900233B7033702B7023700B70002AA4
:1058500035D0152A26D0234B1B78012B2AD0052BB7
:1058600003D1214B4FF451721A60204B204C214937
:10587000C0F34436C0F347151E7000F01F005D7082
:1058800004224FF0020E88273C26402598729A7019
:105890004FF4005083F813E05A751F74DE702570C2
:1058A0000860F0BD144B40F213321A600D4B1B78A8
:1058B000012BD4D1114B4FF451721A60D5E7104B24
:1058C00040F213321A60C6E734800440D0B3FF1FA1
:1058D0008CB3FF1F8DB3FF1F1CB4FF1F15B4FF1F38
:1058E00014B4FF1F658DFF1F1CC0044000A00640BC
:1058F0002DE400E004E100E018C0044044A00440AE
:1059000040A00440034B1B685B0501D5FFF73ABF7D
:10591000704700BF3480044010B5044C237823B195
:1059200001F028FA2378002BFAD110BD14B4FF1F20
:10593000054A064B10781B78C0B2DBB2984238BFDC
:105940004030C01A704700BF8CB3FF1F8DB3FF1FDC
:1059500030B4154B154C1A782378D2B2DBB29A4288
:105960001ED001333F2B0ED91149124B087819680C
:105970000023C0B2237021B1D31A1A2B01DC0023FB
:105980000B7030BC70470A480A49C05C0968DDB238
:10599000C0B225700029F4D09A4238BF4032EBE7FC
:1059A0004FF0FF30EDE700BF8CB3FF1F8DB3FF1F3B
:1059B000D4B3FF1F88B3FF1FF0B4384B1A7912F02D
:1059C000300F2CD072B6997D01F0FF0200293DD036
:1059D00062B6334F334938780D78334E1C46C0B227
:1059E000EDB2431C402BE17928BF0023AB4202F10A
:1059F000FF32C9B21CBFF154184612F0FF02F0D1B9
:105A00002A4B1B68C2B23A704BB1A84236BFC5F1EF
:105A10004005401B40192728C4BF01221A701F49A6
:105A2000CA78D2B2150616D452060DD51B4B1B7977
:105A30005B0609D51E4B1F491B6800220A7003B183
:105A40001A70164B3C22DA70F0BC70474022D979AC
:105A50005A7462B6E3E70B791C06E5D5164B174E70
:105A60001C783378E4B2DBB29C420ED0144D01E0D6
:105A7000A3420AD00133402B28BF00230879E85CF9
:105A8000C0B2C871087D0728F2D9DBB20349337070
:105A90000B79180644BF7C23CB70C5E700A00640F5
:105AA0008CB3FF1F8DB3FF1FD4B3FF1F88B3FF1F3D
:105AB00018B4FF1F14B4FF1F1CB4FF1F15B4FF1F41
:105AC00090B3FF1F274A28491368F0B543F40063D9
:105AD00013600A78254F264E264D274C2749002370
