:1000000000800020BD0100005D4F0000214F000076
:10001000214F0000214F0000214F0000214F000020
:10002000214F0000214F0000214F00005D4F0000D4
:100030005D4F0000214F00005D4F0000114F000098
:100040005D4F00005D4F00005D4F00005D4F000000
:100050005D4F00005D4F00005D4F00005D4F0000F0
:100060005D4F00005D4F00005D4F00005D4F0000E0
:100070005D4F00005D4F00005D4F00005D4F0000D0
:100080005D4F00005D4F00005D4F00005D4F0000C0
:100090005D4F00005D4F00005D4F00005D4F0000B0
:1000A0005D4F00005D4F00005D4F00005D4F0000A0
:1000B0005D4F00005D4F00005D4F00005D4F000090
:1000C0005D4F00005D4F00005D4F00005D4F000080
:1000D0005D4F00005D4F00005D4F00005D4F000070
:1000E0005D4F00005D4F00005D4F00005D4F000060
:1000F0005D4F0000C95900005D4F0000695F0000BE
:100100005D4F0000097500005D4F00005D4F00006D
:100110005D4F00005D4F00005D4F00005D4F00002F
:100120005D4F00005D4F00005D4F00005D4F00001F
:100130005D4F00005D4F00005D4F00005D4F00000F
:100140005D4F00005D4F00005D4F00005D4F0000FF
:100150005D4F00005D4F00005D4F00005D4F0000EF
:100160005D4F0000316200005D4F00005D4F0000F8
:100170005D4F00005D4F00005D4F00005D4F0000CF
:100180005D4F00005D4F00005D4F00005D4F0000BF
:100190005D4F00005D4F00005D4F00005D4F0000AF
:1001A0005D4F00005D4F00005D4F00005D4F00009F
:1001B0005D4F00005D4F00005D4F0000574B4CF25B
:1001C000205210B51A804DF628121A8000BF00BFC9
:1001D00004F0C8FE524B4FF010621A60514A9A6008
:1001E000514ADA60A3F53043203B1A6812F480725A
:1001F00004D14E490A604FF4A8521A604C4B1A7849
:10020000110703D51A7842F008021A70494B4A4C7C
:100210004A482A221A704A4A00239918A14203D256
:10022000195899500433F8E7464B474900228B424E
:1002300002D243F8042BFAE74448454900235A58B0
:100240001A500433B3F5DE7FF9D1424B424A802184
:1002500003F8011B9342FBD1404B3C4A1A60404BD0
:100260000A221A70A3F5805324225A70A0221A7011
:100270009A799207FCD59A79D406FCD4394A9379B5
:1002800003F00C03082B374BF9D103221A714022DB
:100290005A719A799006FCD5324A9179314B4906C8
:1002A000FBD5314A314911600221516020221A7078
:1002B0009A7902F00C020C2AFAD12D4B2D4A1A60C1
:1002C0002D4B2E4A1A6000225A60072243F8042C54
:1002D0002B4AC3F80C2D62B605F0A4F8134B1B682B
:1002E000DA0705D5274804F06DFE274B274A1A6028
:1002F000274B1B785B0609D5234C244A236893427D
:1003000004D1204804F05EFE002323600BF012F9B4
:1003100004F02EFE06F020FEFEE700BF0E20054092
:1003200030800440823F04000100002B14D00340C1
:1003300002D0074000E007408896FF1F342D0100DF
:100340006089FF1F8896FF1FA8B4FF1F0084FF1F4E
:100350000000000000E400E05FE400E008ED00E0E1
:100360000050064000400640448004400000030165
:1003700004800440C010050014E000E0FF76010096
:1003800000002020625D0F571CE00340A5C3945A73
:1003900000F00740FFFFFFFFFFFFFFFFFFFFFFFF32
:1003A000FFFFFFFFFFFFFFFFFFFFFFFFFFFFFFFF5D
:1003B000FFFFFFFFFFFFFFFFFFFFFFFFFFFFFFFF4D
:1003C000FFFFFFFFFFFFFFFFFFFFFFFFFFFFFFFF3D
:1003D000FFFFFFFFFFFFFFFFFFFFFFFFFFFFFFFF2D
:1003E000FFFFFFFFFFFFFFFFFFFFFFFFFFFFFFFF1D
:1003F000FFFFFFFFFFFFFFFFFFFFFFFFFFFFFFFF0D
:10040000FFFFFFFFFFFFFFFFFFFFFFFFFEFFFFFFFD
:1004100010B5054C237833B9044B13B10448AFF33E
:1004200000800123237010BD8896FF1F000000008C
:100430002C2D010008B5064B1BB106480649AFF349
:1004400000800648036813B1054B03B1984708BD07
:10045000000000002C2D01008C96FF1F8896FF1FC6
:1004600000000000044B1A68B2F8C82202601B6842
:10047000B3F9CA320B60704770B1FF1F30B4124C31
:100480002568D5F83C5205602068D0F8380208602D
:100490002168D1F840120D4880FB0150C917C1EB0B
:1004A000A00111602268D2F8442202EB82025200BD
:1004B0001A602368D3F85032642202FB03F2029BD5
:1004C0001A6030BC704700BF70B1FF1F6766666678
:1004D000024B1B6893F934320360704770B1FF1F01
:1004E00038B504460D46084B1B68D3F85C02074933
:1004F0000AF0F6FD0AF0BAFF2860054B1846197D90
:1005000000F0BEF9206038BD70B1FF1F0000C84286
:10051000A496FF1F10B50446024800F0ABFB206014
:1005200010BD00BFBC96FF1F38B50546012004F082
:10053000C3FC20B10B4B18680B4900F03BFC094C85
:1005400020680A4900F038FC2068094900F036FCB0
:100550002068084900F034FC2068074900F032FCAC
:10056000284638BD54B1FF1FE104000065040000B7
:100570007D04000015050000D104000008B5044802
:1005800000F09CF80120014604F0AAFC08BD00BF61
:10059000A496FF1F08B5024800F002F908BD00BF8D
:1005A000A496FF1F08B504F04DFC034800F0ECF9D9
:1005B000024800F0C5F808BDBC96FF1FA496FF1FB7
:1005C00070B582B0094B1E68037B50F823508468D5
:1005D00000690AF0F1F8CDE90001304604492A46E5
:1005E000234602F051F902B070BD00BF64B1FF1F95
:1005F0007814010038B504460D4600680BF032FD52
:1006000030B1606829460BF02DFD20B9012000E0D3
:100610000020C0B200E0FF2040B238BD08B58068BD
:100620000BF020FD003018BF0120404208BD00BF84
:1006300008B508460AF066FF0AF0F4FB07F03EFA38
:1006400007F0B6F940B208BD2DE9F0410446164660
:100650001F46FFF7CFFF054620463146FFF7DEFF76
:10066000064620463946FFF7E3FF0746002D1CDB10
:10067000002E1DDB06F1040804EB48039D801036B4
:1006800076003046E9B204F02BFC38460AF0D4FC80
:100690000146094807F07CFA44F82800701CF9B2BA
:1006A00004F01EFC0120BDE8F0810020BDE8F081CF
:1006B0000020BDE8F08100BF0000204170B5054674
:1006C0000120014604F00CFC174C28461749184A33
:1006D0002346FFF7B9FF28461649174A2346FFF776
:1006E000B3FF4024A4F140012046C9B204F0F8FB56
:1006F0000134482CF6D14820032104F0F1FB4920B5
:10070000EC2104F0EDFB0D4D6B1E2E4605F2EB3592
:100710005C1C03F14B00801B597804F0E1FBAC42F8
:1007200001D02346F4E770BDB0140100901401001D
:10073000A0140100B8140100C41401006489FF1F53
:1007400038B5044600258582114B0360114B436088
:10075000114B8360202004F0AFFBA081212004F026
:10076000ABFB40B20AF068FC01460C4807F010FAF7
:100770002061284604F0A0FB682806D02046FFF739
:100780009DFF2846682104F0ABFB204638BD00BF22
:10079000DC14010090140100A014010000002041AD
:1007A000F0B583B00746002023490CF0BDFD044698
:1007B00018B93846FFF704FF3BE000201E490CF053
:1007C000B3FD054628B91D4B18681D4902F05CF8B9
:1007D0002FE0002018490CF0A7FD0646A0B93846C6
:1007E00021462A46174BFFF72FFF28B9134B1868ED
:1007F000154902F049F81CE0104B186813492246CD
:100800002B4602F041F814E0384621462A4633468A
:10081000FFF71AFF28B9094B18680B4902F034F8A2
:1008200007E0064B18680096094922462B4602F05D
:100830002BF803B0F0BD00BF181C010064B1FF1F0E
:10084000F414010030150100341501007415010085
:10085000A415010008B511B1012905D00BE0074B23
:100860001B68D3F8B00208BD044B1B68D3F85802CC
:100870000AF0FCFD08BD002008BD00BF70B1FF1FDD
:1008800038B504460D1D00EB45031979FFF7E2FF6B
:100890000AF0D2FB54F825100AF022FC07F088F881
:1008A00038BD00BF08B504F0CDFA08BD0D220270B6
:1008B000002242758275C2750276704701444A7003
:1008C000704700BF014400234B70704700234375FD
:1008D000C218527822B1427D511C41750244D37234
:1008E00001330A2BF4D1704710B50446037E052B63
:1008F00049D8DFE803F0031B2731383F437D73B14C
:10090000827D9A4203D300238375FFF7DFFFA37D27
:100910002344DB7A013BE3750123237601E0FFF7F3
:10092000D5FF2078012104F009FC10BD00780021DA
:1009300004F004FCE37D13B10223237610BD0323EE
:10094000237610BD0078012104F0F8FBE37D013B24
:10095000E3750123237610BD0078002104F0EEFB3F
:100960000423237610BD0078002104F0E7FB052363
:10097000237610BD0078002104F0E0FB00232376ED
:10098000A37D0133A37510BD002280F80028A0F8D4
:100990000228A0F80428A0F8062870472DE9F041A5
:1009A00080460E460024274610E0735DA3F1200226
:1009B000D2B25E2A09D87A1CB8F8061801F00F01E5
:1009C00007EBC11708F8073097B20134A5B23046DB
:1009D0000BF056FC8542E8D3B8F8063803F00F0256
:1009E00007EBC217002208F807200133A8F80638E1
:1009F000BDE8F08108B508460DF0EEFFC0B2A0F1E9
:100A00004103DBB2192B02D84038C0B208BDA0F1B7
:100A10003003DBB2092B02D81538C0B208BD1F283D
:100A200010D82D2810D82B2810D83C2810D83928B9
:100A300010D8202810D82C2810D82B2834BF3F20BD
:100A40002C2008BD252008BD262008BD272008BD74
:100A5000282008BD292008BD2A2008BD2B2008BD5C
:100A6000F8B50446B0F80458B0F80638AB421CD0CC
:100A700090F8006805F00F0700EBC7100BF000FCC2
:100A8000864206D30135A4F80458002084F80008F3
:100A9000F8BD731C84F8003806EBC716A15D20462C
:100AA00001F07F01FFF7A6FFF8BD0020F8BD00BFF1
:100AB00038B50C46084621490AF0C4FC60B120460E
:100AC0001F490AF0C9FC00B11D4C20461D490AF01F
:100AD000BBFB0446022518E020461B490AF0B2FC85
:100AE00030B1204619490AF0AFFB044601250CE05D
:100AF000204614490AF0A6FC30B9204613490AF0F2
:100B0000EFFA0446032500E00025204600210AF004
:100B100099FC38B120464FF07C510AF0D9F90AF01F
:100B2000A5FC06E020464FF07C510AF0CFF90AF010
:100B30009DFCC0F3090000EB852038BD00401C4639
:100B400000CEC7470000C84200007A4400002041A0
:100B500070B505460C460F2979D8DFE801F0081476
:100B6000191E2831363B40454D5258636873FFF7D4
:100B700077FF064600286CD02846FFF771FF40EA51
:100B8000861080B266E0B0F80208C0F30B0061E0A6
:100B9000354B1B68B3F8DA025CE0334B1B68D3F8C3
:100BA000DC02324BA3FB0020C0F34F1052E02E4B6F
:100BB0001B68B3F848022E4BA3FB0020C00849E095
:100BC000294B1B6893F8350244E0274B1B6893F8C8
:100BD00036023FE0244B1B6893F82A023AE0224B8E
:100BE0001B68B3F82C0235E01F4B1B68D3F8580282
:100BF0000AF03CFC80B22DE01B4B1B68B3F8B0023E
:100C000028E0194B1B6893F9340280B222E0164B9E
:100C10001B68B3F8B4020AF00BFA01462846FFF746
:100C200047FF17E0104B1B68B3F8D40212E00E4BDD
:100C3000186802F049FD0AF0FBF901462846FFF763
:100C400037FF07E0084B1B68B3F8D80202E000202A
:100C500000E00020240340F6FF73984294BF204335
:100C600044EA030080B270BD70B1FF1F1F85EB51D5
:100C7000CDCCCCCC2DE9F0470646324B1B782BB9B6
:100C8000B0F80428B0F806389A4250D10F252E4CFF
:100C9000DFF8C080DFF8B89030462178FFF758FFC2
:100CA00098F800308BB1237839F8137087420CD153
:100CB000264A32F813A01420282106F043F95044A4
:100CC000B6F8023898421FDA38461F4B1B78204A84
:100CD00022F81300B6F802281C4921F8132000243A
:100CE00018490C700133DBB20F2B03D8164A13706E
:100CF000074623E0012314490B701A44A6F8022882
:100D0000144A1370074619E023780133DBB20F2B26
:100D100001D8237008E001232370B6F802281A4492
:100D2000A6F8022888F80030013DB5D106E0002180
:100D3000FFF70EFF07460122024B1A703846BDE846
:100D4000F08700BF049FFF1F508DFF1FC49EFF1F31
:100D5000E49EFF1F059FFF1F10B50446002383700C
:100D6000C370037143718360C36003614361836136
:100D7000C361036243628362C362036340F605504A
:100D800004F0AAFB034B10229A71A02199705A71AA
:100D9000204610BD00A0064008B5054B18680C2180
:100DA00001F010FDB0F5966FACBF0020012008BD2A
:100DB0006CB1FF1F4163704781637047C163704727
:100DC00001647047416470470388194401EB1121A5
:100DD00001F0FF010180704770B505460C467E2981
:100DE0000BD1114E33681B6830467D21984733681C
:100DF0001B6830465E21984710E07D290BD10A4ED2
:100E000033681B6830467D21984733681B6830463D
:100E10005D21984702E0084604F078FC2846214608
:100E2000FFF7D2FF70BD00BFA0B3FF1F10B504468F
:100E300005480368B4F90010C1F1FF011B68C9B28D
:100E400098470023238010BDA0B3FF1F30B583B0A7
:100E500004460092ADF80610184DAB7943F020031C
:100E6000AB711021FFF7B8FF20469DF80610FFF781
:100E7000B3FF20469DF80710FFF7AEFF20469DF810
:100E80000010FFF7A9FF20469DF80110FFF7A4FF0F
:100E900020469DF80210FFF79FFF20469DF80310A3
:100EA000FFF79AFF2046FFF7C1FF04F0E1FCAB79A2
:100EB00083F02003AB7103B030BD00BF00A006403B
:100EC00030B583B00446ADF80610164DAB7943F04B
:100ED0002003AB710021FFF77FFF20469DF806102D
:100EE000FFF77AFF20469DF80710FFF775FF2046B1
:100EF0000021FFF771FF20460021FFF76DFF20461C
:100F00000021FFF769FF20460021FFF765FF20461B
:100F1000FFF78CFF04F0ACFCAB7983F02003AB71DE
:100F200003B030BD00A0064070B582B00446A84BA7
:100F30001D68452900F0768103D849B1222946D0A1
:100F40008EE1832900F08280E42900F04D8187E161
:100F5000A04B18680D2101F021FC237913B1012B5E
:100F60001ED07DE19C4B1B68AB4213D2636B23B157
:100F700004F10C0004F10801984720464FF48071F9
:100F8000E268FFF763FF05F5FA75934B1D600123D7
:100F9000237165E120464FF48071FFF791FF5FE117
:100FA0008D4B1B68AB420CD220464FF48871A2686F
:100FB000FFF74CFF05F5FA75874B1D600023237181
:100FC0004EE120464FF48871FFF77AFF48E1814BEC
:100FD00018680E2101F0E2FBE37813B1012B1ED05B
:100FE0003EE17E4B1B68AB4213D2A36B23B104F1ED
:100FF000100004F11401984720464FF4047122694F
:10100000FFF724FF05F5FA75744B1D600123E370AB
:1010100026E120464FF40471FFF752FF20E16F4BA9
:101020001B68AB420CD220464FF400716269FFF797
:101030000DFF05F5FA75694B1D600023E3700FE1A4
:1010400020464FF40071FFF73BFF09E1614B186840
:101050000F2101F0A3FB6379042B00F20181DFE88B
:1010600003F003427188A0005D4B1B68AB4234D291
:10107000E66B5EB104F12803009304F1180004F15B
:101080001C0104F1200204F12403B047A369002BE2
:101090000CDA5B42534A82FB0312DB17C3EB621389
:1010A00003EB43035A0042F040420AE04D4A82FB00
:1010B0000312DB17C3EB621303EB43035A0042F046
:1010C000004220464FF40061FFF7C0FE05F5FA75B7
:1010D000434B1D6001236371C2E020464FF4006161
:1010E000FFF7EEFEBCE03E4B1B68AB4224D2E36947
:1010F000002B0CDA5B423B4A82FB0312DB17C3EB8B
:10110000621303EB43035A0042F0804208E0354A81
:1011100082FB0312DB17C3EB621303EB43035A009A
:1011200020464FF40061FFF791FE05F5FA752C4B50
:101130001D600223637193E020464FF40061FFF7C6
:10114000BFFE8DE0264B1B68AB420CD220464FF40D
:101150000261226AFFF77AFE05F5FA75204B1D60E1
:10116000032363717CE020464FF40261FFF7A8FE81
:1011700076E01B4B1B68AB420DD220464FF4036157
:10118000626AFFF763FE164B1A6802F5FA721A607C
:101190000423637164E020464FF40361FFF790FE7F
:1011A0005EE00F4B1B68AB420CD220464FF404614B
:1011B000A26AFFF74BFE05F5FA75094B1D60002387
:1011C00063714DE020464FF40461FFF779FE47E07C
:1011D000A0B1FF1F6CB1FF1F0C9FFF1F089FFF1FD7
:1011E000189FFF1F1F85EB511E4B1868102101F03F
:1011F000D5FA1D4B1B68AB420ED2236C13B104F120
:101200002C00984720464FF4A061E26AFFF71EFECB
:101210006435154B1D6023E020464FF4A061FFF7B5
:101220004FFE1DE00F4B1868112101F0B7FA0F4B6C
:101230001B68AB420FD2636C13B104F130009847C6
:1012400020464FF4C061226BFFF700FE05F5FA75EA
:10125000064B1D6004E020464FF4C061FFF730FEEE
:1012600002B070BD6CB1FF1F109FFF1F149FFF1FC6
:101270002DE9F04105460F4F0C264FF0000813E012
:1012800004F028FBC4B23868314601F087FA7E2C9E
:1012900002D10123AB7007E0AB782BB12846214681
:1012A000FFF742FE85F8028004F004FB0028E7D136
:1012B000BDE8F0816CB1FF1FF8B50546002303803F
:1012C000482003F0F9FD0446492003F0F5FD00EB4A
:1012D000042083B240F2B572934210D8244A13809E
:1012E0006BB1244E741E013B16FA83F7C6F14B0610
:1012F000301903F0E1FD04F8010FBC42F8D140249D
:101300000026204603F0D8FD06440134482CF8D1CD
:101310001C2E2AD0184B1868184901F0B5FA402441
:10132000A4F140012046C9B203F0DAFD0134482C93
:10133000F6D11AE0204603F0BFFD331903F8400C44
:101340000134482CF6D100242646686821463246EE
:1013500003F05CFC0134502CF7D1094C206800F0FC
:1013600021FD206800F02EFDF8BD4024054EE1E788
:101370001C9FFF1F2C9FFF1F64B1FF1FD015010092
:10138000209FFF1F249FFF1F30B583B0044600231A
:1013900003804380836080F8AC30012005F0E4FDD9
:1013A0000546022300930A210C4A0D4B03F076FAFE
:1013B0006560284603F088FAB82005F0D5FD05469B
:1013C000616800F0C3FC074B1D602046FFF774FF07
:1013D000606803F0B7FB204603B030BD0082FF1FFA
:1013E00060B0FF1F209FFF1F08B5013940296BD84F
:1013F000DFE801F021266A6A6A6A6A6A6A6A6A6ACA
:101400006A6A6A2B30353A6A6A6A6A6A6A6A6A6A1A
:101410006A6A6A3F446A6A6A6A6A6A6A6A6A6A6A7D
:101420006A6A6A4950555A6A6A6A6A6A6A6A6A6A7C
:101430006A6A6A5F6500254B1B68B3F8C40208BD81
:10144000224B1B68B3F8C60208BD204B1B68B3F9DA
:10145000CA0208BD1D4B1B68B3F8C80208BD1B4B70
:101460001B6893F9340208BD184B1B68D3F8E002DF
:1014700008BD164B1B68B3F8480208BD134B1B6828
:1014800093F8360208BD114B1B68D3F858020AF0D6
:1014900013F808BD0D4B1B68B3F8DA0208BD0B4BFF
:1014A0001B68D3F8500208BD084B1B68D3F84402F0
:1014B00008BD064B1B6893F82A02C01108BD034BF8
:1014C0001B68B3F82C0208BD002008BD70B1FF1FD7
:1014D0002DE9F84303885C1CA4B20480354AD15C32
:1014E0009D1CADB20580165DDC1CA4B20480575D66
:1014F0001D1DADB2058012F804C05C1DA4B20480AD
:10150000555D06330380145DBCF1080F4FD82A4B9C
:1015100013F80C8013294AD8284B186800F08EFB6A
:10152000394633462A46C6EB0709B9F1000FB8BF62
:10153000C9F10009C5EB040CBCF1000FB8BFCCF138
:10154000000CE14533D1A5428CBFFF240124BE42EB
:1015500003D3B74218DDBDE8F883B74227DB064462
:101560000D3664B24F2B08DC86F8008086F85020D8
:10157000057B9D42DCBF5D1C0573224401330136AF
:101580009942EFDABDE8F88306440D3664B24F2B7A
:1015900008DC86F8008086F85020057B9D42DCBF81
:1015A0005D1C05732244013B013E9942EFDDBDE81D
:1015B000F88300BF2C9FFF1F249FFF1F209FFF1F4A
:1015C00008B503885A1C0280064AD15C064B18688D
:1015D00090F8B6308B4203D900F030FB00F0D4FB1A
:1015E00008BD00BF2C9FFF1F209FFF1F08B5024BA7
:1015F000186800F029FB08BD209FFF1F08B5024BAB
:10160000186800F0CFFB08BD209FFF1FF0B40388CF
:101610005C1CA4B204800F4AD55C991C89B201807D
:10162000165DDC1CA4B20480575C191D89B20180D0
:10163000145D05330380535C072D08D83F0447EA47
:101640000666334300EB850043EA0424C460F0BC23
:10165000704700BF2C9FFF1F38B5044603885A1CF3
:1016600092B202800649CD5C02330380895C072D6B
:1016700004D8FFF7B9FE04EB8504E06038BD00BF75
:101680002C9FFF1F03885A1C0280044AD35C072B3F
:1016900003D800EB8303DB68836070472C9FFF1F38
:1016A00010B403885A1C92B202800549CC5C023304
:1016B00003808B5C43EA042303805DF8044B70478E
:1016C0002C9FFF1F10B403885A1C92B20280074956
:1016D000CC5C02339BB20380895CC2681AB941EAD0
:1016E00004210B4403805DF8044B70472C9FFF1FBF
:1016F00010B403885A1C92B202800749CC5C0233B2
:101700009BB20380895CC2681AB141EA04210B4490
:1017100003805DF8044B70472C9FFF1F10B40388B3
:101720005A1C92B202800949CC5C023303808B5C64
:10173000072C07D8072B05D800EB8404E26800EBE0
:101740008300C2605DF8044B704700BF2C9FFF1FF1
:1017500010B5044603885A1C0280084AD15C084B25
:10176000186890F8B6308B4206D900F067FA8068A6
:101770006188E26800F05CFB10BD00BF2C9FFF1F7A
:10178000209FFF1F30B583B0044603885A1C028097
:101790000A4AD15C0A4B186890F8B6308B420BD9D4
:1017A00000F04CFA80686188E268236965690095F9
:1017B000A469019400F07EFB03B030BD2C9FFF1F95
:1017C000209FFF1F30B583B0044603885A1C028057
:1017D0000A4AD15C0A4B186890F8B6308B420BD994
:1017E00000F02CFA80686188E268236965690095D9
:1017F000247E019400F0B2FB03B030BD2C9FFF1F8C
:10180000209FFF1F10B582B0044603885A1C028037
:10181000094AD15C094B186890F8B6308B4209D957
:1018200000F00CFA80686188E268236964690094BA
:1018300000F0E8FB02B010BD2C9FFF1F209FFF1F90
:1018400010B5044603885A1C0280084AD15C084B34
:10185000186890F8B6308B4207D900F0EFF980682D
:101860006188E268237C00F01DFC10BD2C9FFF1FE7
:10187000209FFF1F70B582B0044603885A1C028067
:101880000E4AD15C0E4B186890F8B6308B4212D9D4
:1018900000F0D4F9656980686188E26823695B1BA0
:1018A000642606FB03F3A669751B247F0094B3FB33
:1018B000F5F300F041FC02B070BD00BF2C9FFF1F8C
:1018C000209FFF1F10B5044603885A1C0280084A57
:1018D000D15C084B186890F8B6308B4206D900F0FE
:1018E000ADF980686188002200F0A2FA10BD00BF47
:1018F0002C9FFF1F209FFF1F30B583B00446038835
:101900005A1C02800A4AD15C0A4B186890F8B6301B
:101910008B420BD900F092F980686188E2682369F4
:1019200065690095247E019400F062FC03B030BD2F
:101930002C9FFF1F209FFF1FC26803699A420CBFA4
:1019400001230023C3607047C26803699A4214BF31
:1019500001230023C3607047C26803699A4234BF01
:1019600001230023C3607047C26803699A4294BF91
:1019700001230023C3607047C26803699A428CBF89
:1019800001230023C3607047C26803699A422CBFD9
:1019900001230023C3607047C3680BB9036913B107
:1019A0000123C36070470023C3607047C36823B13D
:1019B000036913B10123C36070470023C3607047FC
:1019C00003885A1C0280094AD35C072B0CD890F874
:1019D000AC201F2A08D8511C80F8AC1000EB820202
:1019E00000EB8300C368D362704700BF2C9FFF1FCA
:1019F00003885A1C0280094AD35C072B0CD890F844
:101A0000AC204AB1013AD2B280F8AC2000EB83039B
:101A100000EB8202D26ADA60704700BF2C9FFF1F82
:101A200003885A1C028000EB8101024AD35CCB6020
:101A3000704700BF2C9FFF1F30B403885A1C92B21E
:101A40000280064CE55C0233038000EB8101A35C5D
:101A500043EA0525CD6030BC704700BF2C9FFF1FB7
:101A600010B502884280531C9BB203805B498A5C9C
:101A7000511E4B2900F2AA80DFE801F0325D60635D
:101A800066A8A86F9C9FA5A2696CA88A8D90939662
:101A900099A8A8A8A8A8A8A8A8A8A826292C2FA8CB
:101AA000A8A8A8A8A8A8A8A8A8A8A87275787E81A0
:101AB0007B8487A8A8A8A8A8A8A8A835393D41452F
:101AC000A8A8A8494D515559FFF702FD10BDFFF7D1
:101AD00077FD10BDFFF792FD10BDFFF787FD10BD2C
:101AE000FFF794FD10BD0021FFF79AFF10BD012103
:101AF000FFF796FF10BD0221FFF792FF10BD0321F3
:101B0000FFF78EFF10BD0421FFF78AFF10BD0021F3
:101B1000FFF792FF10BD0121FFF78EFF10BD0221DC
:101B2000FFF78AFF10BD0321FFF786FF10BD0421D8
:101B3000FFF782FF10BDFFF78FFD10BDFFF7A2FD7D
:101B400010BD0A23836010BDFFF7AAFD10BDFFF78B
:101B5000B9FD10BDFFF7CCFD10BDFFF7DFFD10BDD7
:101B6000FFF7F6FD10BDFFF70DFE10BDFFF72AFED3
:101B700010BDFFF747FE10BDFFF762FE10BDFFF777
:101B800079FE10BDFFF79EFE10BDFFF7B5FE10BD3C
:101B9000FFF7D2FE10BDFFF7D7FE10BDFFF7DCFE4A
:101BA00010BDFFF7E1FE10BDFFF7E6FE10BDFFF729
:101BB000EBFE10BDFFF704FF10BDFFF719FF10BDCE
:101BC000FFF7F4FE10BDFFF7E7FE10BD04490868FB
:101BD00010B1044900F058FE10BD00BF2C9FFF1F3C
:101BE00064B1FF1FEC15010038B504468368052B6E
:101BF00006DC02880D4B1B889A420FD20B4D06E083
:101C00000A3BA3600AE022882B889A4206D220462B
:101C1000FFF726FFA368052BF5DDF1E7044B1868F5
:101C200000F01EF8606802F08DFF38BD1C9FFF1F9A
:101C3000209FFF1F08B503F005F908BD132994BFC5
:101C400050F821000020704738B5054600242B5974
:101C5000986800F0CFF80434502CF8D138BD00BF9C
:101C600070B50646B0F8B4506C1E17D4283500EB9A
:101C7000450535F8023D1A12B3F5A05F0AD2DBB272
:101C8000092B07D856F82220926802EB8303586884
:101C900000F070FB013CB4F1FF3FEAD170BD00BF22
:101CA00070B442EA0122B0F8B4603146A6B1B0F88F
:101CB0005030934208D118E033F8025F954206D1C4
:101CC000E3B2322B12D108E000F1500300240134BA
:101CD0008C42F1D1322300E032230136A0F8B46007
:101CE00003F1270400EB440404E0002414F0FF0394
:101CF000F6D107E0312BDCBF21886180013B023C3B
:101D0000002BF7DCA0F8502070BC7047F8B50546F2
:101D10000F4600240473026043602C2005F024F970
:101D2000064639462A4600F0D3FAAE6005F10C01AA
:101D30002346FF2401F8014F81F850400133502B16
:101D4000F8D100232B732846F8BD00BF2DE9F843D6
:101D5000074689460024A0F8B440142380F8B63022
:101D6000051F4FF0B008404605F0FEF8064649460C
:101D70003A462346FFF7CAFF45F8046F0134142C96
:101D8000F1D13846BDE8F88300F10C020023FF21B1
:101D900002F8011F82F850100133502BF8D10023B4
:101DA0000373704738B5054600242859FFF7ECFF48
:101DB0000434502CF9D138BD08B5806800F0B6FA6B
:101DC00008BD00BF38B5054600242859FFF7F4FFC9
:101DD0000434502CF9D138BD08B503460A460068D2
:101DE0001979FFF75DFF08BD08B50068FFF7F4FF3C
:101DF00008BD00BF00231946C2185268917304330E
:101E0000282BF9D1704700BF4268D37B2BB1012347
:101E100082680430D17B29B900E000230121D1730D
:101E20001846704701330A2BF2D14FF0FF3070474C
:101E30002DE9F84380460F469146031F00210433E5
:101E40005D68AE89BE420DD16A7D012A0AD1AA69B8
:101E50004A4507D10123AB734046C9B2FFF7C4FF1F
:101E6000BDE8F88301310A29E9D14046FFF7CCFFEC
:101E7000011E1DDB08EB81035B689F8101245C75FB
:101E8000C3F818900022DA611A62DA625A6283F8A3
:101E900028201A6383F82A2083F8292083F82B202E
:101EA0001A611A75DC739C734046C9B2FFF79CFF38
:101EB000BDE8F8832DE9E04F8146884692469B466F
:101EC000051F002104356E68B789474518D1737D19
:101ED000022B15D1B369534512D1F3695B450FD17C
:101EE000336A089A93420BD1F36A099A934207D155
:101EF0000123B3734846C9B2FFF776FFBDE8E08F10
:101F000001310A29DED14846FFF77EFF011E22DBA0
:101F100009EB81035B68A3F80C8002225A75C3F8B1
:101F200018A0C3F81CB0089A1A62099ADA62002253
:101F30005A6283F828201A6383F82A2083F829201C
:101F400083F82B201A611A750122DA739A734846B6
:101F5000C9B2FFF749FFBDE8E08F00BF2DE9E04FB0
:101F600080460F4691469A469DF824B0051F0021F1
:101F700004356E68B389BB4219D1737D032B16D12A
:101F8000B3694B4513D1736A534510D196F8283085
:101F9000089883420BD196F82B305B4507D101237B
:101FA000B3734046C9B2FFF71FFFBDE8E08F0131B0
:101FB0000A29DDD14046FFF727FF011E20DB08EB91
:101FC00081035B689F8103225A75C3F81890002231
:101FD000DA611A62DA62C3F824A0089883F828004C
:101FE0001A6383F82A2083F8292083F82BB01A611A
:101FF0001A750122DA739A734046C9B2FFF7F4FEEC
:10200000BDE8E08F2DE9D04F8146884692469B4639
:10201000041F002104346668B789474515D1737DD4
:10202000062B12D1B36953450FD1736A5B450CD1AE
:1020300096F828300898834207D10123B3734846A5
:10204000C9B2FFF7D1FEBDE8D08F01310A29E1D135
:102050004846FFF7D9FE011E21DB09EB81035B68CF
:10206000A3F80C8006225A75C3F818A00022DA6182
:102070001A62DA62C3F824B0089883F828001A6359
:1020800083F82A2083F8292083F82B201A611A75F7
:102090000122DA739A734846C9B2FFF7A5FEBDE87C
:1020A000D08F00BF2DE9D04F8146884692469B468F
:1020B000041F002104346668B789474511D1737D38
:1020C000042B0ED1736A53450BD196F82A305B4529
:1020D00007D10123B3734846C9B2FFF785FEBDE8B7
:1020E000D08F01310A29E5D14846FFF78DFE011E48
:1020F0001FDB09EB81035B68A3F80C8004225A758F
:1021000000229A61DA611A62DA62C3F824A083F8C5
:1021100028201A6383F82AB083F8292083F82B201B
:102120001A611A750122DA739A734846C9B2FFF729
:102130005BFEBDE8D08F00BF2DE9F04707460E4695
:1021400090469DF820A0044654F80429127B4FEADB
:10215000520902FB03932549A1FB0329C9F347193F
:10216000002104346568AA89B24215D16A7D052A26
:1021700012D1AA6942450FD195F829204A450BD1C1
:1021800095F82B20524507D10122AA733846C9B2CF
:10219000FFF72AFEBDE8F08701310A29E1D1384670
:1021A000FFF732FE011E1EDB07EB81035B689E8199
:1021B00005225A75C3F818800022DA611A62DA62C1
:1021C0005A6283F828201A6383F82A2083F829901A
:1021D00083F82BA01A611A750122DA739A733846B4
:1021E000C9B2FFF701FEBDE8F08700BF1F85EB51C4
:1021F0002DE9E04F80460F4691469A469DF824B05F
:10220000051F002104356E68B389BB4218D1737D68
:10221000072B15D1B3694B4512D1736A53450FD1C2
:10222000336B089883420BD196F82B305B4507D16E
:102230000123B3734046C9B2FFF7D6FDBDE8E08F76
:1022400001310A29DED14046FFF7DEFD011E20DB09
:1022500008EB81035B689F8107225A75C3F81890C9
:102260000022DA611A62DA62C3F824A083F8282017
:102270000898186383F82A2083F8292083F82BB064
:102280001A611A750122DA739A734046C9B2FFF7D0
:10229000ABFDBDE8E08F00BF10B4002484818473DF
:1022A000C4730461047544758461C461046244624A
:1022B00080F8284080F8294080F82A4080F82B4098
:1022C000C4620463016082605DF8044B704700BF24
:1022D0002DE9F843064689461746326000244FF040
:1022E0003408404604F040FE054649463A46FFF7AA
:1022F000D3FF33195D600434282CF2D13046BDE899
:10230000F88300BF002343758361C3610362C36226
:10231000436280F8283080F82A3080F8293080F82D
:102320002B3003610375C3738373704738B505465B
:1023300000242B195868FFF7E5FF0434282CF8D146
:1023400038BD00BF10B5034684682144487B91F82E
:102350005D2093F82B1019B1217B01398A1AD2B272
:1023600000EB8001186802EB41019A6902F04EFC13
:1023700010BD00BFF8B50446837B002B00F04981F7
:10238000437D013B062B00F24481DFE813F00E0091
:102390001F004100BF0007007B000D0190F82930AD
:1023A0000025002B40F0E680F8BD83681B7B002BE6
:1023B00000F02F81002520462946A269FFF7C2FFC1
:1023C0000135A3681B7BAB42F5DCF8BD0369C26A2B
:1023D000934211D3C1690A4493420DD283681B7B97
:1023E00053B1002520462946A269FFF7ABFF01350E
:1023F000A3681B7BAB42F5DC23690A332361216AA6
:10240000E2690A449342C0F0048100232361F8BDCD
:10241000057D90F828302B449D4220DAA1680B7B83
:1024200095FBF3F203FB125251FA82F2517B92F8C0
:102430005D2094F82B0010B1013B9A1AD2B201EB47
:102440008101206802EB4101A26902F0DFFB013546
:10245000237D94F828201A44AA42DFDC00E02B46B2
:102460002269616A8A420AD30133A268127B93FB14
:10247000F2F102FB1133237500232361F8BD0A3208
:102480002261F8BD83681F7B90F82860037D1D469C
:102490009A19934215DAA3682B4493F85D105B7B7D
:1024A00003EB8303206801EB4301A26902F0AEFB5A
:1024B0000135237D194694F828201A44AA42EADC03
:1024C00000E019462269606A82421CD394F82B20EE
:1024D0006AB901317A1C921BD2B29142A3BF012288
:1024E00084F82B2003F1FF330133237508E02BB967
:1024F00001232375002384F82B3001E0013B237571
:1025000000232361F8BD0A322261F8BD0369426AE3
:1025100093422CD383681B7B33B300252E46304671
:1025200094F82A1004F00EFD0746304694F82A105D
:1025300004F008FD000200EB0747304694F82A102B
:1025400004F000FDA3682B4493F85D105B7B03EB64
:1025500083033A18206801EB430102F057FB013571
:10256000A3681B7BAB42DADC00232361F8BD0A338E
:102570000361F8BDA1684A19537B92F85D2094F875
:102580002B0018B1097B01398A1AD2B203EB8301FF
:10259000206802EB4101A26902F038FB013594F892
:1025A0002930AB42E6DCF8BD83681A7B037D511C01
:1025B000C9B2994202D80025BAB920E04BB1002532
:1025C00020462946A269FFF7BDFE0135237DAB42B7
:1025D000F6DC2269616A8A4204D301332375002341
:1025E0002361F8BD0A322261F8BD20462946A2695E
:1025F000FFF7A8FE0135A3681B7BAB42F5DC23691E
:10260000226B934203D3002323752361F8BD0A3361
:102610002361F8BD0023C0F8A030C0F8A430C0F892
:10262000A830C0F8AC30C0F8B030C0F8B430C0F852
:10263000B830C0F8BC30C0F8C030C0F8C430C0F802
:10264000C830C0F8CC30C0F8D030C0F8D430C0F8B2
:10265000D830C0F8DC30021F034942F8041F11656E
:102660000133142BF9D17047816967FF0CB400B5B1
:10267000C3B0012908D1D0F8A430002B74D1D0F810
:10268000A030002B70D17EE0022908D1D0F8A8300C
:10269000002B69D1D0F8A030002B65D173E004295C
:1026A00008D1D0F8AC30002B5ED1D0F8A030002B90
:1026B0005AD168E0032908D1D0F8B430002B53D1A7
:1026C000D0F8A030002B4FD15DE0062908D1D0F81A
:1026D000B830002B48D1D0F8A030002B44D152E0C4
:1026E000072906D1D0F8BC30F3BBD0F8A030DBBB53
:1026F00049E0082906D1D0F8C030ABBBD0F8A030F3
:1027000093BB40E00A2906D1D0F8C43063BBD0F8AF
:10271000A0304BBB37E00B2906D1D0F8C8301BBB2B
:10272000D0F8A03003BB2EE0222906D1D0F8D0305B
:10273000D3B9D0F8CC30BBB925E01E2906D1D0F8EA
:10274000D4308BB9D0F8CC3073B91CE0202906D135
:10275000D0F8D83043B9D0F8CC302BB913E02829C1
:1027600011D1D0F8DC3073B145AA019202A8449986
:102770000CF058F9064B186828B1064B1A68064940
:1027800002AB00F081F843B05DF804EB02B0704793
:1027900064B1FF1FA0B1FF1F1816010000EB8103F9
:1027A0001A6D40F82120024A12681A65704700BF6E
:1027B000A0B1FF1F00EB81031A6D50F82100101A21
:1027C000704700BF034B1B68143150F82100181AE2
:1027D000704700BFA0B1FF1F08B504F07BF908BD2A
:1027E00008B504F02BF908BD08B504F053F908BD8D
:1027F00008B504F007FA08BD08B5084604F0F6F974
:1028000008BD00BF08B50846114604F071F908BDBF
:102810004B1E9BB299B10133C1184FF6FF7210F8ED
:10282000013B83EA222383EA131343EA022282EA6A
:10283000033282EA43139AB28842F0D101E04FF6A4
:10284000FF721046704700BF10B40022C0F880200D
:1028500080F888204FF47A74C0F88C4080F890207B
:10286000084CC0F8844080F894200A7980F88820C9
:102870008A68C0F88C200A7B80F890205DF8044BB1
:10288000704700BF301601000EB430B5C2B0044628
:1028900045AA52F8041B019202A80CF0C3F804F1F7
:1028A000840502A809F0ECFC0246D4F884305B6889
:1028B000284602A9984742B0BDE8304003B07047AF
:1028C00010B504461849194AFFF7DEFF204618499B
:1028D000FFF7DAFF20461749FFF7D6FF20461649D3
:1028E000FFF7D2FF20461549FFF7CEFF20461449D7
:1028F000FFF7CAFF20461349FFF7C6FF20461249DB
:10290000FFF7C2FF20461149FFF7BEFF20461049DE
:10291000FFF7BAFF20460F49FFF7B6FF20460E49E2
:10292000FFF7B2FF10BD00BF1C16010048160100E2
:1029300060160100BC160100E81601000017010036
:1029400008170100141701001C170100601701008F
:1029500090170100B0170100D417010070B50546AB
:102960000C4616460846144909F07CFB30B9012391
:10297000336028461149FFF787FF70BD2046104994
:1029800009F070FB30B90023336028460D49FFF78A
:102990007BFF70BD54B9346828460B49064B084A82
:1029A000002C18BF1A46FFF76FFF70BD2846074975
:1029B000FFF76AFF70BD00BFE0170100E8170100D4
:1029C000E4170100F01701001C160100F8170100C0
:1029D00070B582B00446424D2B68B3F8300208F05F
:1029E0002BFB404908F030FC07F0E6FE02460B46A0
:1029F00020463D49FFF748FF2B68B3F9320208F043
:102A00001BFB3A4908F020FC07F0D6FE02460B46B5
:102A100020463749FFF738FF2B682046354993F9A0
:102A20003422FFF731FF2B68B3F8480208F004FBAB
:102A30002E4908F009FC07F0BFFE02460B4620466F
:102A40002D49FFF721FF2B6820462C4993F83622A9
:102A5000FFF71AFF2A4E2B6820463146B3F876223C
:102A6000FFF712FF2B68D3F8580207F0A5FE0246C5
:102A70000B4620462349FFF707FF2B6820462249D3
:102A8000D3F8B022FFF700FF2B6820463146B3F899
:102A90007622FFF7F9FE2968B1F96022B1F96232B6
:102AA000B1F96412009120461849FFF7EDFE28683D
:102AB00000F00AFE024620461549FFF7E5FE2B68A6
:102AC00020461449B3F8C422FFF7DEFE2B682046E7
:102AD0001149B3F8C622FFF7D7FE02B070BD00BFA0
:102AE00070B1FF1F00007A440C1801000000C842BA
:102AF00030180100541801007418010098180100E2
:102B0000B8180100D8180100F818010018190100C0
:102B10004C1901006C1901008C19010038B50446EC
:102B20004D4D28680021FFF745FE024620464B49DF
:102B3000FFF7AAFE28680121FFF73CFE0246204667
:102B40004749FFF7A1FE28680221FFF733FE02463E
:102B500020464449FFF798FE28680321FFF72AFE24
:102B6000024620464049FFF78FFE28680421FFF700
:102B700021FE024620463D49FFF786FE28680621D1
:102B8000FFF718FE024620463949FFF77DFE286808
:102B90000521FFF70FFE024620463649FFF774FE77
:102BA00028680721FFF706FE024620463249FFF754
:102BB0006BFE28680821FFF7FDFD024620462F49DD
:102BC000FFF762FE28680921FFF7F4FD0246204660
:102BD0002B49FFF759FE28680A21FFF7EBFD024653
:102BE00020462849FFF750FE28680B21FFF7E2FD39
:102BF000024620462449FFF747FE28680D21FFF7CB
:102C0000D9FD024620462149FFF73EFE28680E21E5
:102C1000FFF7D0FD024620461D49FFF735FE286824
:102C20000F21FFF7C7FD024620461A49FFF72CFE89
:102C300028681021FFF7BEFD024620461649FFF71F
:102C400023FE28681121FFF7B5FD024620461349EF
:102C5000FFF71AFE38BD00BF6CB1FF1FAC190100B1
:102C6000CC190100EC1901000C1A01002C1A01000A
:102C70004C1A01006C1A01008C1A0100AC1A0100F8
:102C8000CC1A0100EC1A01000C1B01002C1B0100E6
:102C90004C1B01006C1B01008C1B0100AC1B0100D4
:102CA00038B50446002016490AF03EFB154909F0E4
:102CB000D9F918BB12490AF037FB054688B1124909
:102CC00009F0D0F920B90120014602F009F908E025
:102CD00028460E4909F0C6F918B90120002102F072
:102CE000FFF8012002F0E8F820B120460849FFF77C
:102CF000CBFD38BD20460749FFF7C6FD38BD00BFF4
:102D0000181C0100CC1B0100D41B0100DC1B0100BE
:102D1000E41B0100FC1B010070B505464A24084E67
:102D2000204602F0C9F8024628463146FFF7ACFDBE
:102D300001345A2CF4D128460249FFF7A5FD70BD95
:102D4000141C0100E416010010B504460348FDF709
:102D500015FC20460249FFF797FD10BD5CB1FF1F2F
:102D60001C1C01002DE9F04782B081460DF10705DA
:102D70000DF1FF33092203F8012FAB42FBD10DF116
:102D8000FF36DFF8A0800027EA46384641460AF0C1
:102D9000CBFA037823B948461D49FFF775FD34E0A7
:102DA00008F0B4FB0246411EC9B2072904D89DF8B9
:102DB00000308B4205D109E048461649FFF764FD13
:102DC00023E0534613F8014FA14205D1484612496A
:102DD000D2B2FFF759FD18E09D42F3D106F8011F6A
:102DE000AE42D2D1402400AB2344204613F8401C0D
:102DF00002F076F80134482CF5D1084B1868FEF73C
:102E00005BFA48460649FFF73FFD02B0BDE8F08790
:102E1000541C0100881C0100B01C010058B1FF1FA8
:102E2000F41C0100181C010038B5054608469549F8
:102E30000AF07AFA0446002800F0C981924909F0A4
:102E400011F9002840F076818E490AF06DFA0446A7
:102E50008E4909F007F9002840F0C48089490AF03A
:102E600063FA04468A4909F0FDF858B985490AF021
:102E70005BFA0146874B1A682846A032864BFFF75B
:102E80006DFD38BD2046854909F0ECF858B97D49FB
:102E90000AF04AFA01467F4B1A682846A432804B52
:102EA000FFF75CFD38BD20467E4909F0DBF858B9D4
:102EB00074490AF039FA0146764B1A682846A83256
:102EC000794BFFF74BFD38BD2046784909F0CAF829
:102ED00058B96C490AF028FA01466E4B1A68284620
:102EE000B432734BFFF73AFD38BD2046714909F003
:102EF000B9F858B963490AF017FA0146654B1A68E0
:102F00002846AC326C4BFFF729FD38BD20466B4993
:102F100009F0A8F858B95B490AF006FA01465D4B7A
:102F20001A682846B032664BFFF718FD38BD2046B8
:102F3000644909F097F858B952490AF0F5F9014681
:102F4000544B1A682846B8325F4BFFF707FD38BD6F
:102F500020465E4909F086F858B94A490AF0E4F972
:102F600001464C4B1A682846BC32594BFFF7F6FC19
:102F700038BD2046574909F075F858B941490AF05B
:102F8000D3F90146434B1A682846C032524BFFF72B
:102F9000E5FC38BD2046514909F064F858B9394973
:102FA0000AF0C2F901463B4B1A682846C4324C4B22
:102FB000FFF7D4FC38BD20464A4909F053F858B908
:102FC00030490AF0B1F90146324B1A682846C83236
:102FD000454BFFF7C3FC38BD284644492246FFF75E
:102FE00053FC38BD2046424909F03CF8002840F027
:102FF0008F8024490AF098F90446254909F032F8EF
:1030000058B920490AF090F90146224B1A6828461F
:10301000CC32384BFFF7A2FC38BD2046364909F0C8
:1030200021F858B917490AF07FF90146194B1A6877
:103030002846D032314BFFF791FC38BD204630494D
:1030400009F010F858B90F490AF06EF90146114B12
:103050001A682846D4322B4BFFF780FC38BD204637
:10306000294908F0FFFF002840F0B18005490AF027
:103070005BF90146074B1A682846D832234BFFF705
:103080006DFC38BD181C0100381D0100401D0100F9
:10309000441D01006CB1FF1F481D0100501D0100BF
:1030A0005C1D01006C1D0100701D0100781D0100F8
:1030B000841D0100941D0100981D0100A01D010048
:1030C000A41D0100AC1D0100B41D0100C01D0100C4
:1030D000C81D0100D41D0100DC1D0100E81D010018
:1030E000F41D0100041E0100081E0100101E010055
:1030F000281E0100301E01003C1E0100401E010080
:103100004C1E0100541E0100601E0100641E0100DF
:1031100020462F4908F0A6FF002858D12D490AF073
:1031200003F901462C4B1A682846DC322B4BFFF77B
:1031300015FC38BD20462A4908F094FF18B92846E6
:10314000FFF746FC38BD2046264908F08BFF18B92A
:103150002846FFF7E3FC38BD2046234908F082FFEC
:1031600020B922482146FDF715FA38BD20462049EE
:1031700008F078FF18B92846FFF792FD38BD2046C1
:103180001C4908F06FFF18B92846FFF7C5FD38BD88
:103190002046194908F066FF18B92846FFF7E2FDF6
:1031A00038BD2046154908F05DFF18B92846FFF7DD
:1031B000CBFD38BD2046124908F054FF18B9284607
:1031C000FFF77EFB38BD28460E49FFF75DFB38BD93
:1031D000701E0100181C01006CB1FF1F781E010059
:1031E000801E0100881E0100901E01005CB1FF1FBF
:1031F000281E0100941E01009C1E0100A41E010057
:10320000AC1E0100B41E0100A1F13000C0B20928BB
:1032100012D9A1F16103DBB2052B03D8A1F157004C
:10322000C0B27047A1F14103DBB2052B03D8A1F175
:103230003700C0B270470020704700BF2DE9F84F3B
:103240000446DFF8D4A1C9E003F0F8FB0546C0B29C
:103250000D2802D00A2840F0B380D4F88020002343
:10326000A354C4F8803094F89430002B00F085808B
:10327000274620465D4908F0F5FE20B140F2B578BA
:10328000DFF870B167E020465949FFF7FDFABAF858
:103290000050022D37D95748431913F8026C13F820
:1032A000013C03EB0626B6B2A91E89B2FFF7B0FABD
:1032B0000246864205D020464F493346FFF7E4FADE
:1032C00025E04820290A01F00BFE49209AF8001059
:1032D00001F006FEBAF8003063B10025454E05F155
:1032E0004A00715D01F0FCFD0135ADB2BAF8003065
:1032F000AB42F4D8414B1868FDF7DEFF2046404949
:10330000FFF7C2FA03E020463E49FFF7BDFA00236B
:1033100084F89430C4F88030D4F884305B6804F1C9
:10332000840039490122984758E02046615DFFF743
:103330006BFF8146AB1CC4F8803025442046697879
:10334000FFF762FF464508D8731CAAF8003000EB6F
:1033500009100BF80600BAF80060D4F8805038461F
:1033600008F08EFFABB28342DFD30023C4F8803075
:1033700020462649FFF788FA30E004F18405D4F8A6
:1033800084305B682846224902229847204621491A
:1033900008F068FE40B9012384F894300023AAF8AD
:1033A0000030C4F8803019E020462146FFF73CFD8C
:1033B000D4F884305B6828461349012298470DE011
:1033C00094F894200AB903F011FCD4F88060731CBF
:1033D000C4F88030E8B20BF0F3FAA05503F07AFBA2
:1033E00000287FF431AFBDE8F88F00BFC81E010090
:1033F000D41E0100E8A6FF1FE41E010058B1FF1F04
:10340000241F01006C1F01008C1F0100901F010090
:10341000E4160100941F0100E4A6FF1F08B501F0A7
:1034200011FD08BDFFFFFFFF10B504460021A0F805
:103430008811A0F88A11A0F80C12A0F80E12C0F89A
:103440001012C0F81412C0F8181200F508703AA350
:10345000D3E90023C0E9002384F8281284F8291254
:1034600084F82A12A4F82C1284F82E1284F82F1251
:10347000A4F83012A4F8321284F8341284F8351209
:1034800084F83612C4F83812C4F83C12C4F840125A
:10349000C4F84412A4F84812A4F84A120023C4F84D
:1034A0004C32C4F85012A4F85412C4F85832C4F87C
:1034B0005C32A4F86012A4F86212A4F86412C4F892
:1034C0006812C4F86C12C4F87012A4F87412A4F84C
:1034D0007612A4F87812C4F8B012A4F8B412A4F8C2
:1034E000B612A4F8B812A4F8BA12A4F8BC12A4F840
:1034F000BE12A4F8C012A4F8C212A4F8C412A4F810
:10350000C612A4F8C812A4F8CA12C4F8CC12C4F89F
:10351000D012C4F8D412A4F8D812A4F8DA12C4F85D
:10352000DC12C4F8E01240F6055002F0DDFA204645
:1035300010BD00BFAFF3008000000000D012634157
:1035400070B4039CBDF91000B3F90060B4F90050E9
:10355000354495FBF0F600FB165522F8151022882D
:1035600011B2884208DCB3F90020013292FBF0F17D
:1035700000FB1120188001E00132228070BC7047EE
:10358000F0B4BDF91460BDF910C06345B8BF9C46E6
:10359000CCEB030080B204B2A34211DD002502FA95
:1035A00080F494FBF6F706FB174431F914402544E8
:1035B000013080B204B29C42F1D1002D01DA05E065
:1035C00000250CEBDC73C3F34F0305E0CCF10003E3
:1035D00003EBD373C3F34F0305FA83F595FBFCF0BC
:1035E00000B2F0BC704700BF08B5064B1868002158
:1035F000FFF7E8F840F6B7339842CCBF002001202F
:1036000008BD00BF6CB1FF1F08B5064B186802214A
:10361000FFF7D8F840F6B7339842CCBF002001201E
:1036200008BD00BF6CB1FF1F08B5064B1868032129
:10363000FFF7C8F840F6B7339842CCBF002001200E
:1036400008BD00BF6CB1FF1F08B5064B1868062106
:10365000FFF7B8F840F6B7339842CCBF00200120FE
:1036600008BD00BF6CB1FF1F08B5064B18680421E8
:10367000FFF7A8F840F6B7339842CCBF00200120EE
:1036800008BD00BF6CB1FF1F08B5064B18680521C7
:10369000FFF798F840F6B7339842CCBF00200120DE
:1036A00008BD00BF6CB1FF1F08B5064B18680B21A1
:1036B000FFF788F840F6B7339842CCBF00200120CE
:1036C00008BD00BF6CB1FF1FD0F8E002024BA3FBA6
:1036D0000020C0F3CF307047D55204E910B4094B35
:1036E0001B68D0F8102242B19A1AB0F9CA42D0F839
:1036F000E01204FB0211C0F8E012C0F810325DF8CD
:10370000044B7047A0B1FF1F2DE9F84F14461D462A
:10371000DDE90CAB5046594606F0EEFE42A3D3E974
:10372000002307F09DF80022434B07F0C3F9002265
:10373000424B07F095F804F0F1F8804689462046A0
:10374000294639A3D3E9002307F08AF800223A4B2F
:1037500007F0B0F904F0A8F806460F46504659465F
:1037600031A3D3E9002307F07BF80022324B07F0A6
:10377000A1F904F099F882468B46DDE90E01DDE9F6
:103780000A2306F0B9FE28A3D3E9002307F068F85E
:103790000022294B07F08EF90022284B07F060F831
:1037A00004F0BCF804460D464046494642464B46A6
:1037B00007F056F8804689463046394652465B4601
:1037C00007F04EF822462B4607F04AF802460B4611
:1037D0002046294607F044F802460B464046494633
:1037E00006F08CFE04460D4604F012F906460F461C
:1037F0000020134922462B4606F07EFE04F008F90D
:1038000002460B463046394604F000F902460B46A4
:1038100006F074FE06A3D3E9002307F021F8BDE803
:10382000F88F00BFAFF3008000000060FB2109406B
:1038300000000000AE4D5841008066400000E03FAF
:103840000000F03FAFF300802DE9F04786B08246DC
:10385000904699460846002933D0002A34D0002BE0
:1038600035D00E9B002B35D00AF50873D3E90045FF
:1038700006F090FF22462B4607F01CF906460F463D
:10388000404606F087FF22462B4607F013F9CDE9A4
:103890000001484606F07EFF22462B4607F00AF953
:1038A000CDE902010E9806F075FF22462B4607F07F
:1038B00001F9CDE90401504632463B46FFF724FFAB
:1038C0000AE00020002107E00020002104E00020A1
:1038D000002101E00020002106B0BDE8F08700BF14
:1038E0002DE9F04F87B0104619464FA3D3E90023C6
:1038F00006F0B6FF00224E4B07F0DCF804460D46FA
:10390000DDE9120148A3D3E9002306F0A9FF002254
:10391000474B07F0CFF806460F46DDE9140142A3F6
:10392000D3E9002306F09CFF0022414B07F0C2F8C8
:1039300080468946DDE910013BA3D3E9002306F068
:103940008FFF00223A4B07F0B5F802460B4640467F
:10395000494606F0D1FD82468B4603F0DFFFCDE9F4
:1039600000013046394603F09FFF804689462046D5
:10397000294603F099FFCDE902013046394603F0AC
:10398000CDFF06460F462046294603F0C7FFCDE986
:1039900004015046594603F087FF82468B46DDE915
:1039A000000142464B4606F05BFF04460D46DDE94A
:1039B000020132463B4606F053FF06460F4640469C
:1039C0004946DDE9042306F04BFF52465B4606F00C
:1039D00047FF02460B463046394606F08DFD02464B
:1039E0000B462046294604F011F80022104B06F041
:1039F00037FF0DA3D3E9002307F05CF804460D461A
:103A00000022002307F09EF938B120462946002203
:103A1000084B06F073FD04460D462046294607B0C4
:103A2000BDE8F08FAFF3008000000060FB2109408B
:103A300000806640008076402DE9F04786B08246DF
:103A4000904699460846002933D0002A34D0002BEE
:103A500035D00E9B002B35D00AF50873D3E900450D
:103A600006F098FE22462B4607F024F806460F463D
:103A7000404606F08FFE22462B4607F01BF8CDE9A4
:103A80000001484606F086FE22462B4607F012F853
:103A9000CDE902010E9806F07DFE22462B4607F086
:103AA00009F8CDE90401504632463B46FFF718FFBE
:103AB0000AE00020002107E00020002104E00020AF
:103AC000002101E00020002106B0BDE8F08700BF22
:103AD00070B582B0064690F82A32DB0930D0D0F8B3
:103AE0004432322B25DDD0F81412D0F81822D0F849
:103AF0003832D0F83C0200903046FFF79DFF044674
:103B00000D460022002307F031F940B12046294636
:103B10000022104B06F0F2FC07F03CF907E02046CB
:103B2000294600220B4B06F0E7FC07F033F9A6F814
:103B3000DA02D6F8DC22D6F844321344C6F8DC3276
:103B4000D6F83832C6F81432D6F83C32C6F81832F5
:103B500002B070BD0000E03FF0B583B005460C46F2
:103B6000ADF8003001238DF802308DF803308DF868
:103B700004208DF8053001F1080702AB53F8080D59
:103B800088609B88BB804223CB71FE238B70062309
:103B9000CB70FF234B71BE238B71314B9A790A7125
:103BA0009A7901329A7103313E464FF6FF7211F84D
:103BB000013B534083EA0313DBB2D80080EA0320C1
:103BC00080EA222282EA2312B142F0D1228094F8C4
:103BD00003E00EF1FF36B6B2BEF1000F13D001368E
:103BE0003E443A46218812F8013B4B4083EA0313D6
:103BF000DBB2D80080EA032080EA212181EA231386
:103C00002380B242EED1228882F0940383EA031328
:103C1000DBB2D90081EA032181EA222282EA23135E
:103C2000238007F80E30E3781F4423881B127B7033
:103C3000E2782846A11C063201F062F8E3780633E8
:103C4000EA182188E95423881B125370E17828462A
:103C5000083102F0A1F80A2001F0D0FB03B0F0BD5A
:103C6000A0AEFF1F38B504460D46264B1B68264AFA
:103C700012689A4244D2FFF7B7FC002830D12046A0
:103C8000294601220223FFF767FF20462946022228
:103C90000323FFF761FF2046294604220023FFF794
:103CA0005BFF2046294606220323FFF755FF2046E7
:103CB00029460A220523FFF74FFF204629460B22FB
:103CC0000223FFF749FF204629460C220323FFF772
:103CD00043FF0C4B1A6802F57A720B4B1A6038BD21
:103CE0002046FFF7E1FC58B9204629460322134637
:103CF000FFF732FF034B1A6802F57A72024B1A6023
:103D000038BD00BFA0B1FF1FBCAFFF1F2DE9F04FB2
:103D1000CFB006460AA9FFF7A5FFDFF8E092DFF86B
:103D2000E082B24FDFF8DCB200F029BC02F0C8F844
:103D3000C4B2AF4B00221A70DB780A2B00F2DA8093
:103D4000DFE803F00606153F2B5367819EBDBD00DB
:103D5000FE2C40F01A840222A54BDA70A54B0022FB
:103D6000DA70FE229A704FF6FF721A80C2E0A14B01
:103D7000DC709F4900220A71188884EA000282EAF6
:103D80000212D2B2D50085EA022585EA202080EA17
:103D900022121A800423CB70ACE0964B1C71198858
:103DA00084EA010282EA0212D2B2D00080EA022042
:103DB00080EA212181EA22121A8003228C4BDA70D8
:103DC00098E08C4B5C71198884EA010282EA021245
:103DD000D2B2D00080EA022080EA212181EA2212B8
:103DE0001A800522824BDA7084E0824B9C7119881C
:103DF00084EA010282EA0212D2B2D00080EA0220F2
:103E000080EA212181EA22121A800622784BDA7098
:103E100070E0784BDC71198884EA010282EA0212B0
:103E2000D2B2D00080EA022080EA212181EA221267
:103E30001A80DB781BB908226D4BDA705AE0072232
:103E40006B4BDA7056E06A4B1A79511CC9B2197182
:103E5000684B1A441472188884EA000282EA02123B
:103E6000D2B2D50085EA022585EA202080EA221216
:103E70001A80DB788B423DD108225D4BDA7039E045
:103E80005C4B1988DA795C4DAA5C4A4082EA0212DE
:103E9000D2B2D50085EA022585EA212181EA2212E3
:103EA0001A80C0B2D2B2904214BF0A220922504BEB
:103EB000DA704F4B1B794F4A13441C721AE00A2BDD
:103EC00005D0C0B24B4B1B88B0EB232F03D002228E
:103ED000474B1A7002E00122454B1A70444B0122F5
:103EE000DA7044491B790B445C720AA84FF488725B
:103EF00000F006FF3E4B1B78012B11D13C4B3D4A95
:103F000012795A711A890AB900215981384B013244
:103F10001A81384AD2788DF82B2000229A7021E03D
:103F2000344AD2788DF82B20314A107900219170D3
:103F3000022B40F031832F4B03445A7A1B7A43EA19
:103F40000223ADF828302A4B01229A701970FE2CFA
:103F500040F026830222DA70264BD9704FF6FF72AA
:103F60001A800CE39DF82F30242B00F008831ED814
:103F70001B2B00F0A9810BD8012B00F0A480002B93
:103F800048D0022B00F08082182B00F0FE80F0E277
:103F90001E2B00F0C38103D81D2B00F05782E8E2EE
:103FA000212B00F07882232B00F0B882E1E2962BDF
:103FB00000F085820ED83E2B00F0578203D82A2BC2
:103FC00000F03582D5E24A2B00F0FF81932B00F000
:103FD0006982CEE2A52B00F0878215D8982B00F0DD
:103FE0007582A32B00F07982C3E200BFF90F49402C
:103FF000A0AEFF1FACAEFF1F182301000000C84297
:104000000000344386F92243AD2B00F07482FD2B6F
:1040100026D0AEE2B64C20680021FEF7BFFB206838
:104020009DF836300C9A00920121B24AFEF71EFB31
:104030009DF8343086F828329DF8353086F82932DC
:104040009DF8363086F82A320C9BA6F82C329DF863
:10405000373086F82E329DF8383086F82F328EE2CF
:10406000A34C20680121FEF799FB06F27D2A206807
:1040700096F87C32CDF800A007219F4AFEF7F6FAA9
:104080000DF1300E06F51F740DF1600C75460FCD65
:1040900020606160A260E360AE4610346545F5D1F2
:1040A0002A88AB782280A370944C96F87C22204614
:1040B000934902F00702534607F0AEFF91482146AC
:1040C000FCF76CFC5BE28A4C20680221FEF766FB81
:1040D0002068BDF83E30BDF94020009206218A4A92
:1040E000FEF7C4FABDF83E1021EAE171A6F83012DD
:1040F000BDF9403023EAE373A6F8323206F5C675FF
:1041000006F20E23009340240194304609B22A4659
:1041100006F50373FFF714FA06F58473B6F9321245
:1041200006F5C5720092019430469A461A4606F585
:10413000C473FFF705FAB6F90C22B6F90E320A215C
:104140000091019430462946FFF71AFA6F4D85FB1E
:104150000023C017C0EBA300A6F8C802B6F9882157
:10416000B6F98A310A210091019430465146FFF791
:1041700007FA85FB0025C017C0EBA500A6F8CA0208
:104180009DF84E3086F83432F9E1594C206803210D
:10419000FEF704FB9DF84C3086F835329DF84DC093
:1041A00086F836C2BDF844E0A6F848E20E99C6F893
:1041B00038120F9AC6F83C22109DC6F84052BDF83E
:1041C0004800C6F84402BDF84AA0A6F84AA22468EE
:1041D000CDF800C0CDF804E002900395049105925B
:1041E000204602214A4AFEF741FA96F82A32DB09B4
:1041F0000ED0D6F8CC3213B1D6F8D032BBB9D6F83F
:104200003832C6F8CC32D6F83C32C6F8D0320EE09E
:10421000D6F8CC3213B9D6F8D03243B10023C6F861
:10422000CC32C6F8D032C6F8D432A6F8D832D6F896
:10423000CC12D6F8D022D6F83832D6F83C0200900C
:104240003046FFF701FB04460D460022002306F02E
:104250008DFD40B12046294600222E4B06F04EF936
:1042600006F098FD07E0204629460022294B06F07B
:1042700043F906F08FFDC6F8D402D6F8CC12D6F872
:10428000D022D6F83832D6F83C0200903046FFF7FC
:10429000D3FB04460D460022002306F067FD40B123
:1042A0002046294600221B4B06F028F906F072FD35
:1042B00007E0204629460022164B06F01DF906F0BD
:1042C00069FDA6F8D8025AE1094C20680421FEF7DE
:1042D00065FA2068BDF93830BDF93A200092BDF981
:1042E0003C20019204210C4AFEF7C0F947E100BFCF
:1042F0006CB1FF1FA01F0100DC1F0100C0AFFF1F3A
:1043000010200100BC96FF1F18200100676666663A
:104310005C2001000000E03FC0200100A44C2068A8
:104320000521FEF73BFA24680D9806F045FACDE921
:104330000001D6F8683202930E9806F03DFACDE9F6
:104340000401D6F86C3206930F9806F035FACDE9E1
:10435000080120460321974AFEF788F90D98414647
:1043600006F0BEFE394606F06FFF07F07FF8C6F88C
:1043700068020028B8BF40425A280BDC0E9841461C
:1043800006F0AEFE394606F05FFF07F06FF8C6F89C
:104390006C020EE00E98414606F0A2FE394606F089
:1043A00053FF0146404606F091FD07F05FF8C6F85E
:1043B0006C020F98394606F08BFD594606F090FEC8
:1043C00007F07AF8C6F87002D9E0794C2068062127
:1043D000FEF7E4F924680D9806F0EEF9CDE9000146
:1043E000BDF940300293BDF8423003930E9806F0B9
:1043F000E3F9CDE904010F9806F0DEF9CDE90601F5
:10440000204605216C4AFEF731F90D9BC6F84C3267
:10441000BDF94030C6F85032BDF84230A6F85432EB
:104420000E9BC6F858320F9BC6F85C32A7E0BDF869
:104430003030A6F874325E4C206808215F4AFEF7DF
:1044400015F920680721FEF7A9F998E0BDF83C307E
:10445000A6F87632564C20680821594AFEF706F92C
:1044600020680821FEF79AF989E0BDF84830A6F8DF
:1044700078324F4C20680821524AFEF7F7F820683E
:104480000921FEF78BF97AE0494B186808214E4A5A
:10449000FEF7ECF873E0464B186808214B4AFEF72C
:1044A000E5F86CE00C9BA6F8B4320D9BA6F8B6328A
:1044B0003F4B18680821464AFEF7D8F85FE03C4BAE
:1044C00018680821434AFEF7D1F858E0384B1868BD
:1044D0000821414AFEF7CAF851E0354B1868082117
:1044E0003E4AFEF7C3F84AE0314B186808213C4ABF
:1044F000FEF7BCF843E02E4C20680A21394AFEF74B
:10450000B5F80C98494606F0EBFD06F0AFFFC6F88B
:10451000B00220680A21FEF741F930E0244C2068FF
:1045200008212F4AFEF7A2F8BDF83430A6F8B832B9
:10453000BDF83630A6F8BA32BDF83830A6F8BC322D
:10454000BDF83A30A6F8BE32BDF83C30A6F8C0320D
:10455000BDF83E30A6F8C232BDF84030A6F8C432ED
:10456000BDF84230A6F8C63220680B21FEF716F9D6
:1045700005E00F4A106809211B4AFEF777F801F0A1
:104580008FFC00287FF4D2AB0EE0184BDB788DF85F
:104590002B300023164A9370002B7FF4E3ACEEE738
:1045A0000122134BDA70EAE74FB0BDE8F08F00BF8D
:1045B0006CB1FF1FF820010054210100B02101005F
:1045C000D0210100F0210100182201003422010055
:1045D000582201007822010098220100B022010037
:1045E000C4220100DC220100F8220100ACAEFF1F52
:1045F000A0AEFF1F30B585B0264B1A798DF8042088
:104600009A6802921B7B8DF80C3004AC224B44F864
:10461000103D982002F0A8FC05466946FEF714F903
:104620001E4C2560E02002F09FFC0546FDF7F2FFDE
:104630001B4B1D604FF43A7002F096FC0546FEF7E6
:10464000F3FE184B1D60482002F08EFC0546FCF777
:1046500083FB154B1D60012002F086FC0546FBF72D
:1046600063FF124B1D6041F2883000F0C7FE0D2041
:10467000012100F087FD20680D490E4AFEF704F97C
:10468000B02002F071FC0446FCF77EFE0A4B1C6071
:1046900005B030BDB4B3FF1F3016010064B1FF1F79
:1046A0006CB1FF1F70B1FF1F54B1FF1F5CB1FF1F42
:1046B000182401004816010058B1FF1F38B5354BCA
:1046C0001868FEF791FF0446D0F1010238BF0022BE
:1046D00031480121FCF7F2F8002C39D02D4D286823
:1046E000FEF792FF2C4CD0F1010238BF0022204689
:1046F0000321FCF7E3F82868FEF796FFD0F10102EA
:1047000038BF002220460421FCF7D8F82868FEF7BD
:104710009BFFD0F1010238BF002220460521FCF7A3
:10472000CDF82868FEF7A0FFD0F1010238BF0022C3
:1047300020460621FCF7C2F82868FEF7A5FFD0F155
:10474000010238BF002220460721FCF7B7F814E029
:10475000114C20460321FCF7B5F820460421FCF754
:10476000B1F820460521FCF7ADF820460621FCF7FC
:10477000A9F820460721FCF7A5F8084B1868FCF7B4
:104780000BFBD0F1010238BF002203480221FCF7E5
:1047900095F838BD70B1FF1F40B0FF1F54B1FF1F27
:1047A00010B5214B1868FFF7B1FA204B1868FCF7D9
:1047B0005FFD1F4B1868FEF741FD1E4B1C681E4B2A
:1047C0001B68A34207D804F57A721B4B1A60164B7C
:1047D0001868FFF77DF9194B1B68A34206D804F14E
:1047E000C802164B1A601648FCF77EF8154B1B687A
:1047F000A3420DD804F16402124B1A6042F2107306
:104800009C4201D9FFF75AFF074B1868FEF766FF75
:104810000D4B1B68A34206D80A340B4B1C600B4B94
:104820001868FDF7E1F910BD70B1FF1F54B1FF1F0B
:1048300064B1FF1FA0B1FF1F68B1FF1F5CB0FF1F75
:1048400040B0FF1F50B1FF1F60B1FF1F58B1FF1FE5
:1048500008B500F0F7FA0248FCF728F808BD00BFD9
:1048600040B0FF1F08B5064B1A79064B1A7000F0CE
:10487000A3FD054B18600022044B1A7008BD00BF51
:1048800090B1FF1F1F8000408CB1FF1F88B1FF1F38
:1048900010B5044602F06AFA204610BD10B4064C6A
:1048A000218006490A60064A1360064B9DF80420E1
:1048B0001A705DF8044B704776B1FF1F78B1FF1F87
:1048C00084B1FF1F74B1FF1F2DE9F843894B1D8888
:1048D00005EB4505ED00884B186800212A4607F0D6
:1048E00055F9864B186820B100212A4607F04EF989
:1048F00003E0814B1A68814B1A60FF22804B1A60DB
:104900000220012100F03EFC0E20012100F03AFCC3
:104910000720012100F036FC0820012100F032FCC4
:104920000620012100F02EFC1420012100F02AFCB9
:104930001520012100F026FC0520012100F022FCB9
:10494000704B1C7804F01004E4B26F4B6F4A002CDB
:104950000CBF14461C46082000F044FB204606F01D
:1049600067FB04460320214600F048FB0420214653
:1049700000F044FB03203C2100F026FC0420B02181
:1049800000F022FC624A634B1A600320022100F00F
:10499000F9FB0F20002100F0F5FB5F4A5F4B1A6026
:1049A00002F50072A3F5FE530C3B1A605C4F3A68A7
:1049B000DFF88CC113680023C2F800C039680B719E
:1049C0004B718B71CB7101240C724B728B72CB7259
:1049D0000B734B738B73CB730A69524A0A610B7565
:1049E0004B75A8B2CA8AC8820B764B768B76CB768B
:1049F0008A8B08228A83CE8BC8834B4E3168DFF8BE
:104A0000F880D8F80080D1F80090C1F800803168B3
:104A10000C714B718B71CB710C724B728B72CB72B0
:104A20006D42CD600D69414D0D610B754B75CD8AA1
:104A3000C8820B764B768B76CB768D8B8A83CA8B2E
:104A4000C8833B490A681568C2F800C00A68137138
:104A500053719371D371147253729372D37213732F
:104A600053739373D3731469254C14611375537581
:104A7000D48AD082137653769376D376948B0A2495
:104A80009483D48BD0834FF080502A4A106041F237
:104A900032004FF0402210603A7902F1804202F574
:104AA00004321370B2201070327902F1804202F5A4
:104AB00004321370B32010700A7902F1804202F5BB
:104AC00004321370B12313700A7902F110011A48ED
:104AD0001A4B43F8210053119B0003F1604303F587
:104AE000614302F01F02012101FA02F21A60BDE8DF
:104AF000F88300BF76B1FF1F78B1FF1F84B1FF1F9D
:104B0000C8F00F4074B1FF1F801A060000350C007A
:104B10000003010000A004400001020000B00440B6
:104B20007CB1FF1FC4F00F4098B1FF1FC0F00F40D1
:104B300090B1FF1F0C0008E0654800000084FF1FD3
:104B40002824010010B5244A137813F0FF0FFBD17D
:104B5000224B1968224B1868814206D0214B1B88D2
:104B600003EB4302D20000F0CBF81F4C00F024FC12
:104B70002368C01A3128F9D91C4B186818331B68F0
:104B800072B60121144A117019490A689342FCD285
:104B900017490A689342FCD315490A689342FCD826
:104BA00000F0E703114A1360012312490B6001F57D
:104BB00080510B604FF400510F4B19600F4B197966
:104BC0000F4B19700F49097919700F49097919703C
:104BD000106062B610BD00BF88B1FF1F84B1FF1F17
:104BE00078B1FF1F76B1FF1F8CB1FF1F009003400B
:104BF00004900340A0A00440A09004407CB1FF1F9B
:104C00001B80004098B1FF1F90B1FF1F70B4234B71
:104C10001B7803F00703022B0CD0032B14D0012BBD
:104C20001AD102F47F03100280B2C2F307220243BA
:104C30001A4311E0100200F47F00131203F47F43C3
:104C40000343D2B21A4307E0130223F07F4323F059
:104C5000FF03C2F307421A43114B1888B1FBF0F36C
:104C600001259D40EEB200FB131101EB41010D4BFC
:104C70001B6803EBC103013318204FF40001ED431F
:104C8000114213F8014C14BF34432C4003F8014C7B
:104C9000490801330138F3D170BC704774B1FF1F6C
:104CA00076B1FF1F84B1FF1F70B5104E3046002152
:104CB00001F0FEFF0E4D0F4C30462946224606F00D
:104CC0001BFC0D4E3046002101F0F2FF3046294614
:104CD000224606F011FC094E3046002101F0E8FFA3
:104CE00030462946224606F007FC70BD7CB1FF1F06
:104CF000914800006089FF1F98B1FF1F90B1FF1F0E
:104D0000844641EA000313F003036DD1403A41D3D6
:104D100051F8043B40F8043B51F8043B40F8043B95
:104D200051F8043B40F8043B51F8043B40F8043B85
:104D300051F8043B40F8043B51F8043B40F8043B75
:104D400051F8043B40F8043B51F8043B40F8043B65
:104D500051F8043B40F8043B51F8043B40F8043B55
:104D600051F8043B40F8043B51F8043B40F8043B45
:104D700051F8043B40F8043B51F8043B40F8043B35
:104D800051F8043B40F8043B51F8043B40F8043B25
:104D9000403ABDD2303211D351F8043B40F8043BC5
:104DA00051F8043B40F8043B51F8043B40F8043B05
:104DB00051F8043B40F8043B103AEDD20C3205D3D5
:104DC00051F8043B40F8043B043AF9D2043208D0CD
:104DD000D2071CBF11F8013B00F8013B01D30B883F
:104DE00003806046704700BF082A13D38B078DD01D
:104DF00010F003038AD0C3F10403D21ADB071CBFEF
:104E000011F8013B00F8013B80D331F8023B20F858
:104E1000023B7BE7043AD9D3013A11F8013B00F891
:104E2000013BF9D20B7803704B7843708B78837019
:104E300060467047024A137813F0010FFBD07047A9
:104E40000100024010B584B0174B6C4618685968D1
:104E50009A68DB680FC4154B1B7813F0020F19D04A
:104E60008022134B1A70332204331A700322013B41
:104E70001A7072B66B4643F001030E4C20469847F9
:104E800062B6237813F0700304D0237009E0013B6D
:104E900003D106E044F6216304490A7812F0010FB9
:104EA000F5D004B010BD00BF2C2401000100024069
:104EB000070002400000024010B50446B0F5006F44
:104EC0000AD2064B1B7813F0010F01D1FFF7BAFF8E
:104ED00004F1A054207810BD002010BD0100024054
:104EE00038B504460D46B0F5006F0ED2074B1B785F
:104EF00013F0010F01D1FFF7A5FF04F1A0542378AF
:104F0000AB4202D02570FFF795FF38BD010002408B
:104F1000024B1A6801321A60704700BFA0B1FF1F30
:104F200008B50D4C236813F4802F01D001F080F9EF
:104F3000236813F4806F01D000F046FD236813F45A
:104F4000006F01D001F010F8236813F4805FE9D0FE
:104F500002F0DAFAE6E700BF3480044008B5FFF754
:104F6000DFFF00BF1022014B1A8070470020054070
:104F7000704700BF024A1368184410601846704713
:104F8000548DFF1FEFF31383ABB9EFF31083ABB96D
:104F9000EFF3058323B10F2B05D9094A985C03E091
:104FA0004FF4807000E00020EFF311833BB18342A7
:104FB00038BF184670474FF0FF30704700207047E9
:104FC000F0E300E0044B00221A6004490A60044A3E
:104FD000106010221A60704714D0034004D00340C0
:104FE00000D0034018B1102828BF102000E0012095
:104FF000014B1870704700BF588DFF1F2DE9F84313
:1050000080460D460846424906F008FA002814BFBB
:105010004FF002094FF001093E4B47F612260028D7
:1050200008BF1E46304606F003F84FF05E5106F00A
:1050300057F80146284606F005FA90B901244FF0CA
:105040005E5726FA04F005F0F3FF394606F048F8FB
:105050000146284606F0F6F920B90134072CF0D1B4
:1050600000E0002426FA04F005F0E2FF294606F0ED
:10507000EBF84FF07C5105F029FF06F01DFA4FF6D2
:10508000FF73984238BF0346A8F10302D2B2012A47
:105090000DD8214A002111602048016020490B6091
:1050A00004F0070444EAC9041460BDE8F883A8F1D9
:1050B0000902D2B2012A09D9A8F11402D2B2032AF4
:1050C00004D9A8F10502D2B2012A0DD8154A00214F
:1050D00011601548016015490B6004F0070444EAAB
:1050E000C9041460BDE8F883B8F1200F02D0B8F10C
:1050F000190F0BD10E4A002111600E4801600E49B4
:105100000B6004F0070343EAC9031360BDE8F883AA
:10511000001BB740006CDC02009003400490034089
:10512000089003400080034004800340088003404F
:1051300000800B4004800B4008800B4021281ED8C3
:105140000F4B53F8303093F8802212F0FF0F08D045
:1051500019B1012283F880207047012283F80021D1
:105160007047074B03EBC000436821B11A6842F057
:1051700003021A6070471A6822F002021A60704730
:105180003C24010021281CD80E4B03EBC0035B68B4
:10519000012908D10B4A52F8302082F880124FF4CE
:1051A000A2721A607047074A52F83020002082F835
:1051B000800219B94FF480721A60704740F20312EE
:1051C0001A6070473C24010010B5044628280FD10E
:1051D0005D4B1B780B2B03D8C3F10C03994003E004
:1051E0000C2B84BF0C3B1941084601F07DFF10BD1C
:1051F000554B1B78012202FA03F0002908DC2046F7
:105200000021FFF79BFF20460121FFF7BBFF10BDE8
:105210000A46884208D820460121FFF78FFF204622
:105220000121FFF7AFFF10BDE01EC0B2012806D874
:105230004648006800FB011222FA03F310E0202C1C
:1052400001D0192C06D14248006800FB022222FA44
:1052500003F305E03F48006800FB011222FA03F364
:10526000E01E1D2864D8DFE800F0474E402B636342
:105270001D2463636363636363636332390F16637F
:105280005C63636363636355334A136040F2444273
:10529000324B1A6010BD324A136040F24442314B27
:1052A0001A6010BD304A136040F244422F4B1A601E
:1052B00010BD2F4A136040F244422E4B1A6010BDBD
:1052C0002D4A136040F244422C4B1A6010BD2C4A08
:1052D000136040F244422B4B1A6010BD2A4A1360FF
:1052E00040F24442294B1A6010BD294A136040F233
:1052F0004442284B1A6010BD274A13604FF4517284
:10530000264B1A6010BD264A13604FF45172254B8C
:105310001A6010BD244A13604FF45172234B1A6077
:1053200010BD234A13604FF45172224B1A6010BD16
:1053300020467F29D4BF00210121FFF7FFFE204630
:105340000121FFF71FFF10BD588DFF1F089003407C
:1053500008800B40088003401080034004B00440E4
:105360001880034008B00440208003400CB0044083
:105370002880034010B004403080034010C0044037
:105380003880034014C004404080034018C00440EB
:10539000488003401CC004401090034030900440FB
:1053A000189003403490044010800B4048A0044003
:1053B00018800B404CA0044072B60C4B1B680C4A82
:1053C00012680C49096862B611F0806F02D0322B66
:1053D00088BF0132C3F5BB33FF330749A1FB030389
:1053E0009B094FF47A7000FB0230704718E000E030
:1053F000A0B1FF1F04ED00E0ABAAAAAA38B505468C
:10540000FFF7DAFF044665B1FFF7D6FF001BB0F5E2
:105410007A7F03D3013D04D004F57A7401F0B8FD1E
:10542000F2E738BD10B5254B4FF400021A604FF07B
:1054300080721A604FF000721A604FF080621A603A
:105440004FF000621A6000201D4B18604BF6FF7190
:105450000433196028231B4A136008321360083292
:105460001360083213600832136008321360083288
:105470001360083213600922134C226004F5805433
:105480000434206004342160043423600834236031
:10549000143C226004F5FE24043420600B480160B3
:1054A0000B490B6008310B600A4B1A6001F092FD4A
:1054B000FA20FFF7A3FF01F033FA10BD08E100E086
:1054C000048003400C8003400080034008800B40B0
:1054D0000C800B4000800B40194B1A6842F480622C
:1054E0001A600023174A1370174A1370174A137073
:1054F000174A1370174A137040F21332164B1A6092
:105500004FF4517204331A60C0F34432134B1A70D3
:10551000C0F347125A7000F01F00987204229A706C
:105520000221D9745A7588221A743C22DA704022FA
:105530000B4B1A704FF40052A3F229331A607047D4
:10554000348004402CB2FF1FA9B1FF1F34B2FF1FEB
:105550002DB2FF1FA8B1FF1F40A0044000A00640CD
:105560002DE400E0164B9B7803F0EC0300F00302FF
:10557000134310F0040F18BF43F01003104A937048
:1055800000F00F03042B04D11346927942F040023D
:105590009A710B4B5A7902F0EF0210F0100F18BFFE
:1055A00042F01002064B5A719B7903F0EF0310F0A2
:1055B000200F18BF43F01003014A9371704700BFDA
:1055C00000A0064010B5144B1B6813F4806F21D067
:1055D000124B1B7813F0FF0F06D0104C01F0D8FCD3
:1055E000237813F0FF0FF9D14FF400520C4B1A60DF
:1055F00000230C4AD37040F203120B490A600431B5
:105600000A600A4A13700A4A13700A4B1B680BB1EE
:1056100001221A7010BD00BF34800440A8B1FF1FE2
:1056200084E100E000A0064040A004402CB2FF1F2F
:10563000A9B1FF1FA4B1FF1F10B50446094A137892
:1056400013F0FF0FFBD120460121FFF79BFD204601
:105650000021FFF773FD044B53F83420034B1A600D
:1056600010BD00BFA8B1FF1F3C24010030B2FF1FD6
:1056700010B50D4B1B6813F4806F12D021280CD885
:105680000A4C0B4B53F8303023600121FFF77AFDB1
:10569000236800221A70012010BD0020034B1860FF
:1056A00010BD002010BD00BF34800440A4B1FF1F16
:1056B0003C240100114B1B6813F4806F1BD012288F
:1056C00004D140F202320E4B1A600DE0142804D1CE
:1056D00040F202320B4B1A6006E00B4B5A7B02F091
:1056E000FE025A7300207047074B5A7B42F00102BA
:1056F0005A73012070470020704700BF3480044077
:105700000CA0044014C0044000A006402DE9F04164
:1057100007461F4B1B6813F4806F37D01D4B1B6867
:105720000BB101221A701C4B1C780134402C28BF8D
:1057300000241A4D1A4EDFF86C8017E0FFF722FCA8
:1057400040280FDC337913F0800F0FD02B78013312
:10575000402B28BF002318F80320D2B2F271DBB22D
:105760002B7003E0FF2801DD01F012FC2B78DBB287
:105770009C42E3D0FFB20B4B1F5501220A4B1A701B
:10578000E4B2054B1C70BC22054BDA70BDE8F08119
:105790003480044030B2FF1F34B2FF1F2DB2FF1F10
:1057A00000A00640ACB1FF1FA8B1FF1F2DE9F84FC4
:1057B0000746284B1B6813F4806F49D0264B1B68A3
:1057C0000BB101221A7007EB010B5F453DD2DFF8E8
:1057D0009890224EDFF88C80DFF890A099F8004076
:1057E0000134402C28BF00243578EDB2A54220D1E9
:1057F000BC2388F80330FFF7C5FB402811DC98F87C
:10580000043013F0800F10D033780133402B28BFC1
:1058100000231AF80320D2B288F80720DBB23370D5
:1058200003E0FF2801DD01F0B3FB3378DBB29D42DA
:10583000E1D017F8013B0AF804300122084B1A7036
:10584000E4B289F800405F45C8D1BC22054BDA704C
:10585000BDE8F88F3480044030B2FF1F2DB2FF1F27
:10586000A8B1FF1F00A0064034B2FF1FACB1FF1F5C
:1058700010B5064B1B7813F0FF0F06D0034C01F058
:1058800087FB237813F0FF0FF9D110BDA8B1FF1FDC
:10589000064B1B78DBB2064A1278D2B293422CBF79
:1058A0003F3202F1FF32D01A704700BF34B2FF1FFF
:1058B0002DB2FF1F054B1878C0B2054B1B78DBB229
:1058C000984238BF4030C01A704700BF2CB2FF1F4B
:1058D000A9B1FF1F10B4184B1A78D2B2174B1B781E
:1058E000DBB29A4218D001333F2B18D81449C85C58
:1058F000C0B2DCB211490C7012490968C9B19A42B0
:1059000003D300E00023D31A01E04032D31A1A2B4C
:105910000FDC00230B700CE04FF0FF3009E0084B68
:105920001878C0B20021054B1970064B1968002980
:10593000E8D15DF8044B70472CB2FF1FA9B1FF1FDF
:10594000ECB1FF1FA4B1FF1F094B1A78D2B2094B6B
:105950001B78DBB29A4207D00133402B28BF0023CB
:10596000054AD05CC0B270474FF0FF30704700BFAF
:105970002CB2FF1FA9B1FF1FECB1FF1F0D4B1B681D
:1059800013F4806F14D00C4BDA7802F0CB02DA708B
:1059900040225A74DA7842F03402DA70074B1A78EF
:1059A000D2B2074B1A70074B1B680BB100221A705A
:1059B000704700BF3480044000A00640A9B1FF1F1B
:1059C0002CB2FF1FA4B1FF1F70B43D4B1B7913F025
:1059D000300F33D072B63A4B9B7D03F0FF022BB9E8
:1059E000374BDA7940225A7462B627E062B6354BFB
:1059F0001978C9B2344B1C78E4B2314D334EEB798F
:105A0000D8B24B1C402B28BF0023A3421CBFF0542C
:105A10001946531E13F0FF02F1D1CAB2294B1A7076
:105A20002B4B1B6853B1A1422EBFC4EB0101C4F143
:105A3000400409192729C4BF01221A70204BDA78C3
:105A4000D2B212F0800F27D01B7913F0800F23D031
:105A5000204B1C78E4B2204B1B78DBB29C4210D068
:105A600017491E4D01E0A3420BD00133402B28BF44
:105A700000230879E85CC0B2C871087DC0B207286D
:105A8000F1D9DBB214490B700D4B1B7913F0800F69
:105A900002D07C210A4BD97012F0400F0ED0084B77
:105AA0001B7913F0400F09D000220D4B1A700D4BDB
:105AB0001B6803B11A703C22014BDA7070BC70474E
:105AC00000A006402CB2FF1FA9B1FF1FECB1FF1FC1
:105AD000A4B1FF1F34B2FF1F2DB2FF1FACB1FF1FD7
