:1000000000800020BD01000035500000F94F0000C5
:10001000F94F0000F94F0000F94F0000F94F0000C0
:10002000F94F0000F94F0000F94F00003550000073
:1000300035500000F94F000035500000E94F000036
:10004000355000003550000035500000355000009C
:10005000355000003550000035500000355000008C
:10006000355000003550000035500000355000007C
:10007000355000003550000035500000355000006C
:10008000355000003550000035500000355000005C
:10009000355000003550000035500000355000004C
:1000A000355000003550000035500000355000003C
:1000B000355000003550000035500000355000002C
:1000C000355000003550000035500000355000001C
:1000D000355000003550000035500000355000000C
:1000E00035500000355000003550000035500000FC
:1000F00035500000A15A000035500000416000005A
:1001000035500000E175000035500000355000000A
:1001100035500000355000003550000035500000CB
:1001200035500000355000003550000035500000BB
:1001300035500000355000003550000035500000AB
:10014000355000003550000035500000355000009B
:10015000355000003550000035500000355000008B
:100160003550000009630000355000003550000094
:10017000355000003550000035500000355000006B
:10018000355000003550000035500000355000005B
:10019000355000003550000035500000355000004B
:1001A000355000003550000035500000355000003B
:1001B000355000003550000035500000574B4CF2D0
:1001C000205210B51A804DF628121A8000BF00BFC9
:1001D00004F034FF524B4FF010621A60514A9A609B
:1001E000514ADA60A3F53043203B1A6812F480725A
:1001F00004D14E490A604FF4A8521A604C4B1A7849
:10020000110703D51A7842F008021A70494B4A4C7C
:100210004A482A221A704A4A00239918A14203D256
:10022000195899500433F8E7464B474900228B424E
:1002300002D243F8042BFAE74448454900235A58B0
:100240001A500433B3F5DE7FF9D1424B424A802184
:1002500003F8011B9342FBD1404B3C4A1A60404BD0
:100260000A221A70A3F5805324225A70A0221A7011
:100270009A799207FCD59A79D406FCD4394A9379B5
:1002800003F00C03082B374BF9D103221A714022DB
:100290005A719A799006FCD5324A9179314B4906C8
:1002A000FBD5314A314911600221516020221A7078
:1002B0009A7902F00C020C2AFAD12D4B2D4A1A60C1
:1002C0002D4B2E4A1A6000225A60072243F8042C54
:1002D0002B4AC3F80C2D62B605F010F9134B1B68BE
:1002E000DA0705D5274804F0D9FE274B274A1A60BC
:1002F000274B1B785B0609D5234C244A236893427D
:1003000004D1204804F0CAFE002323600BF07EF9DC
:1003100004F09AFE06F08CFEFEE700BF0E200540BA
:1003200030800440823F04000100002B14D00340C1
:1003300002D0074000E00740D896FF1F1C2F0100A5
:100340006089FF1FD896FF1F8CB5FF1F0084FF1F19
:100350000000000000E400E05FE400E008ED00E0E1
:100360000050064000400640448004400000030165
:1003700004800440C010050014E000E0FF76010096
:10038000000020203C621A571CE00340A5C3945A89
:1003900000F00740FFFFFFFFFFFFFFFFFFFFFFFF32
:1003A000FFFFFFFFFFFFFFFFFFFFFFFFFFFFFFFF5D
:1003B000FFFFFFFFFFFFFFFFFFFFFFFFFFFFFFFF4D
:1003C000FFFFFFFFFFFFFFFFFFFFFFFFFFFFFFFF3D
:1003D000FFFFFFFFFFFFFFFFFFFFFFFFFFFFFFFF2D
:1003E000FFFFFFFFFFFFFFFFFFFFFFFFFFFFFFFF1D
:1003F000FFFFFFFFFFFFFFFFFFFFFFFFFFFFFFFF0D
:10040000FFFFFFFFFFFFFFFFFFFFFFFFFEFFFFFFFD
:1004100010B5054C237833B9044B13B10448AFF33E
:1004200000800123237010BDD896FF1F000000003C
:10043000142F010008B5064B1BB106480649AFF35F
:1004400000800648036813B1054B03B1984708BD07
:1004500000000000142F0100DC96FF1FD896FF1F3C
:1004600000000000044B1A68B2F8C82202601B6842
:10047000B3F9CA320B60704754B2FF1F30B4124C4C
:100480002568D5F83C5205602068D0F8380208602D
:100490002168D1F840120D4880FB0150C917C1EB0B
:1004A000A00111602268D2F8442202EB82025200BD
:1004B0001A602368D3F85032642202FB03F2029BD5
:1004C0001A6030BC704700BF54B2FF1F6766666693
:1004D000024B1B6893F934320360704754B2FF1F1C
:1004E00038B504460D46084B1B68D3F85C02074933
:1004F0000AF062FE0BF026F82860054B1846197DBD
:1005000000F0BEF9206038BD54B2FF1F0000C842A1
:10051000F496FF1F10B50446024800F0ABFB2060C4
:1005200010BD00BF0C97FF1F38B50546012004F031
:100530002FFD20B10B4B18680B4900F03BFC094C18
:1005400020680A4900F038FC2068094900F036FCB0
:100550002068084900F034FC2068074900F032FCAC
:10056000284638BD38B2FF1FE104000065040000D2
:100570007D04000015050000D104000008B5044802
:1005800000F09CF80120014604F016FD08BD00BFF4
:10059000F496FF1F08B5024800F002F908BD00BF3D
:1005A000F496FF1F08B504F0B9FC034800F0ECF91D
:1005B000024800F0C5F808BD0C97FF1FF496FF1F16
:1005C00070B582B0094B1E68037B50F823508468D5
:1005D00000690AF05DF9CDE90001304604492A4678
:1005E000234602F0ABF902B070BD00BF48B2FF1F56
:1005F0005015010038B504460D4600680BF09EFD0D
:1006000030B1606829460BF099FD20B9012000E067
:100610000020C0B200E0FF2040B238BD08B58068BD
:100620000BF08CFD003018BF0120404208BD00BF18
:1006300008B508460AF0D2FF0AF060FC07F0AAFAF3
:1006400007F022FA40B208BD2DE9F04104461646F3
:100650001F46FFF7CFFF054620463146FFF7DEFF76
:10066000064620463946FFF7E3FF0746002D1CDB10
:10067000002E1DDB06F1040804EB48039D801036B4
:1006800076003046E9B204F097FC38460AF040FDA7
:100690000146094807F0E8FA44F82800701CF9B24E
:1006A00004F08AFC0120BDE8F0810020BDE8F08163
:1006B0000020BDE8F08100BF0000204170B5054674
:1006C0000120014604F078FC174C28461749184AC7
:1006D0002346FFF7B9FF28461649174A2346FFF776
:1006E000B3FF4024A4F140012046C9B204F064FCE9
:1006F0000134482CF6D14820042104F05DFC492047
:100700003B2104F059FC0D4D6B1E2E4605F23A4577
:100710005C1C03F14B00801B597804F04DFCAC428B
:1007200001D02346F4E770BD88150100681501006B
:1007300078150100901501009C1501006489FF1FC8
:1007400038B5044600258582114B0360114B436088
:10075000114B8360202004F01BFCA081212004F0B9
:1007600017FC40B20AF0D4FC01460C4807F07CFAB2
:100770002061284604F00CFC682806D02046FFF7CC
:100780009DFF2846682104F017FC204638BD00BFB5
:10079000B415010068150100781501000000204122
:1007A000F0B583B00746002023490CF029FE04462B
:1007B00018B93846FFF704FF3BE000201E490CF053
:1007C0001FFE054628B91D4B18681D4902F0B6F8F2
:1007D0002FE0002018490CF013FE0646A0B9384659
:1007E00021462A46174BFFF72FFF28B9134B1868ED
:1007F000154902F0A3F81CE0104B18681349224673
:100800002B4602F09BF814E0384621462A46334630
:10081000FFF71AFF28B9094B18680B4902F08EF848
:1008200007E0064B18680096094922462B4602F05D
:1008300085F803B0F0BD00BF001E010048B2FF1FE5
:10084000CC150100081601000C1601004C16010021
:100850007C16010008B511B1012905D00BE0074B4A
:100860001B68D3F8B00208BD044B1B68D3F85802CC
:100870000AF068FE08BD002008BD00BF54B2FF1F8B
:1008800038B504460D1D00EB45031979FFF7E2FF6B
:100890000AF03EFC54F825100AF08EFC07F0F4F83C
:1008A00038BD00BF08B504F039FB08BD0D22027049
:1008B000002242758275C2750276704701444A7003
:1008C000704700BF014400234B70704700234375FD
:1008D000C218527822B1427D511C41750244D37234
:1008E00001330A2BF4D1704710B50446037E052B63
:1008F00049D8DFE803F0031B2731383F437D73B14C
:10090000827D9A4203D300238375FFF7DFFFA37D27
:100910002344DB7A013BE3750123237601E0FFF7F3
:10092000D5FF2078012104F075FC10BD007800216E
:1009300004F070FCE37D13B10223237610BD032382
:10094000237610BD0078012104F064FCE37D013BB7
:10095000E3750123237610BD0078002104F05AFCD2
:100960000423237610BD0078002104F053FC0523F6
:10097000237610BD0078002104F04CFC0023237680
:10098000A37D0133A37510BD002280F80028A0F8D4
:100990000228A0F80428A0F8062870472DE9F041A5
:1009A00080460E460024274610E0735DA3F1200226
:1009B000D2B25E2A09D87A1CB8F8061801F00F01E5
:1009C00007EBC11708F8073097B20134A5B23046DB
:1009D0000BF0C2FC8542E8D3B8F8063803F00F02EA
:1009E00007EBC217002208F807200133A8F80638E1
:1009F000BDE8F08108B508460EF05AF8C0B2A0F183
:100A00004103DBB2192B02D84038C0B208BDA0F1B7
:100A10003003DBB2092B02D81538C0B208BD1F283D
:100A200010D82D2810D82B2810D83C2810D83928B9
:100A300010D8202810D82C2810D82B2834BF3F20BD
:100A40002C2008BD252008BD262008BD272008BD74
:100A5000282008BD292008BD2A2008BD2B2008BD5C
:100A6000F8B50446B0F80458B0F80638AB421CD0CC
:100A700090F8006805F00F0700EBC7100BF06CFC56
:100A8000864206D30135A4F80458002084F80008F3
:100A9000F8BD731C84F8003806EBC716A15D20462C
:100AA00001F07F01FFF7A6FFF8BD0020F8BD00BFF1
:100AB00038B50C46084621490AF030FD60B12046A1
:100AC0001F490AF035FD00B11D4C20461D490AF0B2
:100AD00027FC0446022518E020461B490AF01EFDAB
:100AE00030B1204619490AF01BFC044601250CE0F0
:100AF000204614490AF012FD30B9204613490AF085
:100B00005BFB0446032500E00025204600210AF097
:100B100005FD38B120464FF07C510AF045FA0AF045
:100B200011FD06E020464FF07C510AF03BFA0AF036
:100B300009FDC0F3090000EB852038BD00401C46CC
:100B400000CEC7470000C84200007A4400002041A0
:100B500070B505460C460F2979D8DFE801F0081476
:100B6000191E2831363B40454D5258636873FFF7D4
:100B700077FF064600286CD02846FFF771FF40EA51
:100B8000861080B266E0B0F80208C0F30B0061E0A6
:100B9000354B1B68B3F8DA025CE0334B1B68D3F8C3
:100BA000DC02324BA3FB0020C0F34F1052E02E4B6F
:100BB0001B68B3F848022E4BA3FB0020C00849E095
:100BC000294B1B6893F8350244E0274B1B6893F8C8
:100BD00036023FE0244B1B6893F82A023AE0224B8E
:100BE0001B68B3F82C0235E01F4B1B68D3F8580282
:100BF0000AF0A8FC80B22DE01B4B1B68B3F8B002D2
:100C000028E0194B1B6893F9340280B222E0164B9E
:100C10001B68B3F8B4020AF077FA01462846FFF7DA
:100C200047FF17E0104B1B68B3F8D40212E00E4BDD
:100C3000186802F0A9FD0AF067FA01462846FFF796
:100C400037FF07E0084B1B68B3F8D80202E000202A
:100C500000E00020240340F6FF73984294BF204335
:100C600044EA030080B270BD54B2FF1F1F85EB51F0
:100C7000CDCCCCCC2DE9F0470646324B1B782BB9B6
:100C8000B0F80428B0F806389A4250D10F252E4CFF
:100C9000DFF8C080DFF8B89030462178FFF758FFC2
:100CA00098F800308BB1237839F8137087420CD153
:100CB000264A32F813A01420282106F0AFF9504438
:100CC000B6F8023898421FDA38461F4B1B78204A84
:100CD00022F81300B6F802281C4921F8132000243A
:100CE00018490C700133DBB20F2B03D8164A13706E
:100CF000074623E0012314490B701A44A6F8022882
:100D0000144A1370074619E023780133DBB20F2B26
:100D100001D8237008E001232370B6F802281A4492
:100D2000A6F8022888F80030013DB5D106E0002180
:100D3000FFF70EFF07460122024B1A703846BDE846
:100D4000F08700BF549FFF1FA08DFF1F149FFF1F40
:100D5000349FFF1F559FFF1F10B50446002383706B
:100D6000C370037143718360C36003614361836136
:100D7000C361036243628362C362036340F605504A
:100D800004F016FC034B10229A71A02199705A713D
:100D9000204610BD00A0064008B5054B18680C2180
:100DA00001F06AFDB0F5966FACBF0020012008BDD0
:100DB00050B2FF1F4163704781637047C163704742
:100DC00001647047416470470388194401EB1121A5
:100DD00001F0FF010180704770B505460C467E2981
:100DE0000BD1114E33681B6830467D21984733681C
:100DF0001B6830465E21984710E07D290BD10A4ED2
:100E000033681B6830467D21984733681B6830463D
:100E10005D21984702E0084604F0E4FC284621469C
:100E2000FFF7D2FF70BD00BF84B4FF1F10B50446AA
:100E300005480368B4F90010C1F1FF011B68C9B28D
:100E400098470023238010BD84B4FF1F30B583B0C2
:100E500004460092ADF80610184DAB7943F020031C
:100E6000AB711021FFF7B8FF20469DF80610FFF781
:100E7000B3FF20469DF80710FFF7AEFF20469DF810
:100E80000010FFF7A9FF20469DF80110FFF7A4FF0F
:100E900020469DF80210FFF79FFF20469DF80310A3
:100EA000FFF79AFF2046FFF7C1FF04F04DFDAB7935
:100EB00083F02003AB7103B030BD00BF00A006403B
:100EC00030B583B00446ADF80610164DAB7943F04B
:100ED0002003AB710021FFF77FFF20469DF806102D
:100EE000FFF77AFF20469DF80710FFF775FF2046B1
:100EF0000021FFF771FF20460021FFF76DFF20461C
:100F00000021FFF769FF20460021FFF765FF20461B
:100F1000FFF78CFF04F018FDAB7983F02003AB7171
:100F200003B030BD00A0064070B582B00446A84BA7
:100F30001D68452900F0768103D849B1222946D0A1
:100F40008EE1832900F08280E42900F04D8187E161
:100F5000A04B18680D2101F07BFC237913B1012B04
:100F60001ED07DE19C4B1B68AB4213D2636B23B157
:100F700004F10C0004F10801984720464FF48071F9
:100F8000E268FFF763FF05F5FA75934B1D600123D7
:100F9000237165E120464FF48071FFF791FF5FE117
:100FA0008D4B1B68AB420CD220464FF48871A2686F
:100FB000FFF74CFF05F5FA75874B1D600023237181
:100FC0004EE120464FF48871FFF77AFF48E1814BEC
:100FD00018680E2101F03CFCE37813B1012B1ED000
:100FE0003EE17E4B1B68AB4213D2A36B23B104F1ED
:100FF000100004F11401984720464FF4047122694F
:10100000FFF724FF05F5FA75744B1D600123E370AB
:1010100026E120464FF40471FFF752FF20E16F4BA9
:101020001B68AB420CD220464FF400716269FFF797
:101030000DFF05F5FA75694B1D600023E3700FE1A4
:1010400020464FF40071FFF73BFF09E1614B186840
:101050000F2101F0FDFB6379042B00F20181DFE831
:1010600003F003427188A0005D4B1B68AB4234D291
:10107000E66B5EB104F12803009304F1180004F15B
:101080001C0104F1200204F12403B047A369002BE2
:101090000CDA5B42534A82FB0312DB17C3EB621389
:1010A00003EB43035A0042F040420AE04D4A82FB00
:1010B0000312DB17C3EB621303EB43035A0042F046
:1010C000004220464FF40061FFF7C0FE05F5FA75B7
:1010D000434B1D6001236371C2E020464FF4006161
:1010E000FFF7EEFEBCE03E4B1B68AB4224D2E36947
:1010F000002B0CDA5B423B4A82FB0312DB17C3EB8B
:10110000621303EB43035A0042F0804208E0354A81
:1011100082FB0312DB17C3EB621303EB43035A009A
:1011200020464FF40061FFF791FE05F5FA752C4B50
:101130001D600223637193E020464FF40061FFF7C6
:10114000BFFE8DE0264B1B68AB420CD220464FF40D
:101150000261226AFFF77AFE05F5FA75204B1D60E1
:10116000032363717CE020464FF40261FFF7A8FE81
:1011700076E01B4B1B68AB420DD220464FF4036157
:10118000626AFFF763FE164B1A6802F5FA721A607C
:101190000423637164E020464FF40361FFF790FE7F
:1011A0005EE00F4B1B68AB420CD220464FF404614B
:1011B000A26AFFF74BFE05F5FA75094B1D60002387
:1011C00063714DE020464FF40461FFF779FE47E07C
:1011D00084B2FF1F50B2FF1F5C9FFF1F589FFF1F6D
:1011E000689FFF1F1F85EB511E4B1868102101F0EF
:1011F0002FFB1D4B1B68AB420ED2236C13B104F1C5
:101200002C00984720464FF4A061E26AFFF71EFECB
:101210006435154B1D6023E020464FF4A061FFF7B5
:101220004FFE1DE00F4B1868112101F011FB0F4B11
:101230001B68AB420FD2636C13B104F130009847C6
:1012400020464FF4C061226BFFF700FE05F5FA75EA
:10125000064B1D6004E020464FF4C061FFF730FEEE
:1012600002B070BD50B2FF1F609FFF1F649FFF1F41
:101270002DE9F04105460F4F0C264FF0000813E012
:1012800004F094FBC4B23868314601F0E1FA7E2CD8
:1012900002D10123AB7007E0AB782BB12846214681
:1012A000FFF742FE85F8028004F070FB0028E7D1CA
:1012B000BDE8F08150B2FF1F08B5024B186800F07E
:1012C000D3FC08BD709FFF1FF8B5054600230380BF
:1012D000482003F05DFE0446492003F059FE00EB70
:1012E000042083B240F2B572934210D8244A13808E
:1012F0006BB1244E741E013B16FA83F7C6F14B0600
:10130000301903F045FE04F8010FBC42F8D1402427
:101310000026204603F03CFE06440134482CF8D158
:101320001C2E2AD0184B1868184901F007FB4024DE
:10133000A4F140012046C9B203F03EFE0134482C1E
:10134000F6D11AE0204603F023FE331903F8400CCF
:101350000134482CF6D100242646686821463246DE
:1013600003F0C0FC0134802CF7D1094C206800F058
:101370005FFD206800F06CFDF8BD4024054EE1E7FC
:101380006C9FFF1F7C9FFF1F48B2FF1FA816010024
:10139000709FFF1F749FFF1F30B583B0044600236A
:1013A00003804380836080F8AC30012005F048FE64
:1013B00005460223009310210C4A0D4B03F0DAFA84
:1013C0006560284603F0ECFAB82005F039FE0546C2
:1013D000616800F001FD074B1D602046FFF774FFB8
:1013E000606803F01BFC204603B030BD0082FF1F85
:1013F000B4B0FF1F709FFF1F08B501394F2979D87E
:10140000DFE801F0282D787878787878787878781F
:1014100078787832373C4178787878787878787846
:10142000787878464B78787878787878787878789B
:1014300078787850575C61787878787878787878A8
:10144000787878666C78787878787878787878783A
:1014500078787871284B1B68B3F8C40208BD264B16
:101460001B68B3F8C60208BD234B1B68B3F9CA0258
:1014700008BD214B1B68B3F8C80208BD1E4B1B6892
:1014800093F9340208BD1C4B1B68D3F8E00208BD79
:10149000194B1B68B3F8480208BD174B1B6893F83B
:1014A000360208BD144B1B68D3F858020AF070F8D6
:1014B00008BD114B1B68B3F8DA0208BD0E4B1B6860
:1014C000D3F8500208BD0C4B1B68D3F8440208BD8A
:1014D000094B1B6893F82A02C01108BD064B1B6814
:1014E000B3F82C0208BD044B1B68B3F9600220EA74
:1014F000E07008BD002008BD54B2FF1F2DE9F8437D
:1015000003885C1CA4B20480354AD15C9D1CADB23A
:101510000580165DDC1CA4B20480575D1D1DADB2B4
:10152000058012F804C05C1DA4B20480555D06332A
:101530000380145DBCF1080F4FD82A4B13F80C80C0
:1015400013294AD8284B186800F0BAFB39463346AD
:101550002A46C6EB0709B9F1000FB8BFC9F1000967
:10156000C5EB040CBCF1000FB8BFCCF1000CE14599
:1015700033D1A5428CBFFF240124BE4203D3B7421E
:1015800018DDBDE8F883B74227DB06440D3664B2A8
:101590009F2B08DC86F8008086F8A020057B9D4202
:1015A000DCBF5D1C05732244013301369942EFDA3A
:1015B000BDE8F88306440D3664B29F2B08DC86F83C
:1015C000008086F8A020057B9D42DCBF5D1C057372
:1015D0002244013B013E9942EFDDBDE8F88300BFA4
:1015E0007C9FFF1F749FFF1F709FFF1F08B503881C
:1015F0005A1C0280064AD15C064B186890F8B63037
:101600008B4203D900F05CFB00F004FC08BD00BF76
:101610007C9FFF1F709FFF1F08B5024B186800F0EA
:1016200055FB08BD709FFF1F08B5024B186800F0FE
:10163000FFFB08BD709FFF1FF0B403885C1CA4B2C1
:1016400004800F4AD55C991C89B20180165DDC1CB0
:10165000A4B20480575C191D89B20180145D053362
:101660000380535C072D08D83F0447EA06663343DE
:1016700000EB850043EA0424C460F0BC704700BF5F
:101680007C9FFF1F38B5044603885A1C92B2028023
:101690000649CD5C02330380895C072D04D8FFF72F
:1016A000ABFE04EB8504E06038BD00BF7C9FFF1FEC
:1016B00003885A1C0280044AD35C072B03D800EB32
:1016C0008303DB68836070477C9FFF1F10B403882F
:1016D0005A1C92B202800549CC5C023303808B5CB9
:1016E00043EA042303805DF8044B70477C9FFF1F8F
:1016F00010B403885A1C92B202800749CC5C0233B2
:101700009BB20380895CC2681AB941EA04210B4488
:1017100003805DF8044B70477C9FFF1F10B4038863
:101720005A1C92B202800749CC5C02339BB2038000
:10173000895CC2681AB141EA04210B4403805DF858
:10174000044B70477C9FFF1F10B403885A1C92B251
:1017500002800949CC5C023303808B5C072C07D8DC
:10176000072B05D800EB8404E26800EB8300C2601D
:101770005DF8044B704700BF7C9FFF1F10B5044607
:1017800003885A1C0280084AD15C084B186890F8FC
:10179000B6308B4206D900F093FA80686188E2681F
:1017A00000F0ACFB10BD00BF7C9FFF1F709FFF1FB0
:1017B00030B583B0044603885A1C02800A4AD15CC3
:1017C0000A4B186890F8B6308B420BD900F078FAC3
:1017D00080686188E268236965690095A46901945D
:1017E00000F0CEFB03B030BD7C9FFF1F709FFF1F3A
:1017F00030B583B0044603885A1C02800A4AD15C83
:101800000A4B186890F8B6308B420BD900F058FAA2
:1018100080686188E268236965690095247E019487
:1018200000F002FC03B030BD7C9FFF1F709FFF1FC4
:1018300010B582B0044603885A1C0280094AD15C64
:10184000094B186890F8B6308B4209D900F038FA85
:1018500080686188E26823696469009400F038FC5C
:1018600002B010BD7C9FFF1F709FFF1F10B5044684
:1018700003885A1C0280084AD15C084B186890F80B
:10188000B6308B4207D900F01BFA80686188E268A5
:10189000237C00F06DFC10BD7C9FFF1F709FFF1F1D
:1018A00070B582B0044603885A1C02800E4AD15C8F
:1018B0000E4B186890F8B6308B4212D900F000FA3F
:1018C000656980686188E26823695B1B642606FBA2
:1018D00003F3A669751B247F0094B3FBF5F300F0B6
:1018E00091FC02B070BD00BF7C9FFF1F709FFF1F67
:1018F00010B5044603885A1C0280084AD15C084B84
:10190000186890F8B6308B4206D900F0D9F9806893
:101910006188002200F0F2FA10BD00BF7C9FFF1F1B
:10192000709FFF1F30B583B0044603885A1C0280A5
:101930000A4AD15C0A4B186890F8B6308B420BD932
:1019400000F0BEF980686188E268236965690095E6
:10195000247E019400F0B0FC03B030BD7C9FFF1FDB
:10196000709FFF1FC26803699A420CBF01230023C6
:10197000C3607047C26803699A4214BF0123002301
:10198000C3607047C26803699A4234BF01230023D1
:10199000C3607047C26803699A4294BF0123002361
:1019A000C3607047C26803699A428CBF0123002359
:1019B000C3607047C26803699A422CBF01230023A9
:1019C000C3607047C3680BB9036913B10123C360D7
:1019D00070470023C3607047C36823B1036913B124
:1019E0000123C36070470023C360704703885A1CFB
:1019F0000280094AD35C072B0CD890F8AC201F2A30
:101A000008D8511C80F8AC1000EB820200EB830078
:101A1000C368D362704700BF7C9FFF1F03885A1CB6
:101A20000280094AD35C072B0CD890F8AC204AB14D
:101A3000013AD2B280F8AC2000EB830300EB8202C3
:101A4000D26ADA60704700BF7C9FFF1F03885A1C70
:101A5000028000EB8101024AD35CCB60704700BF7B
:101A60007C9FFF1F30B403885A1C92B20280064C40
:101A7000E55C0233038000EB8101A35C43EA0525AA
:101A8000CD6030BC704700BF7C9FFF1F10B502883F
:101A90004280531C9BB203805B498A5C511E4B29D8
:101AA00000F2AA80DFE801F0325D606366A8A86FEB
:101AB0009C9FA5A2696CA88A8D90939699A8A8A8C6
:101AC000A8A8A8A8A8A8A826292C2FA8A8A8A8A88C
:101AD000A8A8A8A8A8A8A87275787E817B8487A8E2
:101AE000A8A8A8A8A8A8A835393D4145A8A8A849EC
:101AF0004D515559FFF702FD10BDFFF777FD10BDA1
:101B0000FFF792FD10BDFFF787FD10BDFFF794FDB5
:101B100010BD0021FFF79AFF10BD0121FFF796FFCE
:101B200010BD0221FFF792FF10BD0321FFF78EFFCA
:101B300010BD0421FFF78AFF10BD0021FFF792FFBF
:101B400010BD0121FFF78EFF10BD0221FFF78AFFB4
:101B500010BD0321FFF786FF10BD0421FFF782FFB0
:101B600010BDFFF78FFD10BDFFF7A2FD10BD0A23CA
:101B7000836010BDFFF7AAFD10BDFFF7B9FD10BDD2
:101B8000FFF7CCFD10BDFFF7DFFD10BDFFF7F6FD41
:101B900010BDFFF70DFE10BDFFF72AFE10BDFFF7C9
:101BA00047FE10BDFFF762FE10BDFFF779FE10BDC6
:101BB000FFF79EFE10BDFFF7B5FE10BDFFF7D2FE8A
:101BC00010BDFFF7D7FE10BDFFF7DCFE10BDFFF71D
:101BD000E1FE10BDFFF7E6FE10BDFFF7EBFE10BD06
:101BE000FFF704FF10BDFFF719FF10BDFFF7F4FE6C
:101BF00010BDFFF7E7FE10BD0449086810B10449A5
:101C000000F09CFE10BD00BF7C9FFF1F48B2FF1F6D
:101C1000C416010038B504468368052B06DC02882B
:101C20000D4B1B889A420FD20B4D06E00A3BA36076
:101C30000AE022882B889A4206D22046FFF726FF28
:101C4000A368052BF5DDF1E7044B186800F04AF8AE
:101C5000606802F0E3FF38BD6C9FFF1F709FFF1F9D
:101C600008B503F05BF908BD2DE9F04182B00546E7
:101C7000B0F8B430EBB100F14E060024DFF83C8040
:101C80000D4F36F8022F130AD2B2009255F82310E6
:101C9000896801EB82025268927B0192D8F80000B9
:101CA0003946224600F04AFE0134B5F8B430A3426A
:101CB000E7DC02B0BDE8F081F016010048B2FF1F7A
:101CC000132994BF50F821000020704738B505460D
:101CD00000242B59986800F0D3F80434502CF8D124
:101CE00038BD00BF70B50646B0F8B4506C1E17D4AE
:101CF000283500EB450535F8023D1A12B3F5A05F13
:101D00000AD2DBB2132B07D856F82220926802EBD6
:101D10008303586800F090FB013CB4F1FF3FEAD127
:101D200070BD00BF70B442EA0122B0F8B460314621
:101D3000A6B1B0F85030934208D116E033F8025FF4
:101D4000954206D1E3B2322B10D108E000F15003E6
:101D5000002401348C42F1D1322300E03223312EB1
:101D600013D80136A0F8B4600FE0002414F0FF038C
:101D70000BD107E0312BDCBF21886180013B023CA5
:101D8000002BF7DCA0F8502004E003F1270400EB5F
:101D90004404EFE770BC7047F8B505460F460024D1
:101DA000047302604360542005F04AF90646394640
:101DB0002A4600F0F1FAAE6005F10C012346FF243B
:101DC00001F8014F81F8A0400133A02BF8D1002386
:101DD0002B732846F8BD00BF2DE9F8430746894616
:101DE0000024A0F8B440142380F8B630051F4FF447
:101DF000A878404605F024F9064649463A46234667
:101E0000FFF7CAFF45F8046F0134142CF1D13846AE
:101E1000BDE8F88300F10C020023FF2102F8011F46
:101E200082F8A0100133A02BF8D100230373704770
:101E300038B5054600242859FFF7ECFF0434502C30
:101E4000F9D138BD08B5806800F0D4FA08BD00BFEC
:101E500038B5054600242859FFF7F4FF0434502C08
:101E6000F9D138BD08B503460A4600681979FFF76D
:101E700059FF08BD08B50068FFF7F4FF08BD00BFB3
:101E800000231946C218526891730433502BF9D1BC
:101E9000704700BF08B54268D37B2BB1012382682D
:101EA0000430D17B29B900E000230121D173184609
:101EB00008BD0133142BF2D10C4B1B6823B90C4B1A
:101EC00018680C4900F03AFD084A136801330A48C3
:101ED00080FB0310D917C1EBA00101EB8101A3EB3B
:101EE000410313604FF0FF3008BD00BF34A7FF1F50
:101EF00048B2FF1F1C170100676666662DE9F843AC
:101F000080460F469146031F002404335D68AE8966
:101F1000BE420DD1697D01290AD1AA694A4507D17E
:101F20000123AB734046E1B2FFF7A4FFBDE8F8839D
:101F30000134142CE9D14046FFF7ACFF011E1DDB34
:101F400008EB81035B689F8101245C75C3F81890DE
:101F50000022DA611A62DA625A6283F828201A6370
:101F600083F82A2083F8292083F82B201A611A7518
:101F7000DC739C734046C9B2FFF77CFFBDE8F88371
:101F80002DE9E04F8146884692469B46051F002179
:101F900004356E68B789474518D1737D022B15D17A
:101FA000B369534512D1F3695B450FD1336A089A7F
:101FB00093420BD1F36A099A934207D10123B37379
:101FC0004846C9B2FFF756FFBDE8E08F013114293A
:101FD000DED14846FFF75EFF011E22DB09EB8103DD
:101FE0005B68A3F80C8002225A75C3F818A0C3F8E6
:101FF0001CB0089A1A62099ADA6200225A6283F8BF
:1020000028201A6383F82A2083F8292083F82B20BC
:102010001A611A750122DA739A734846C9B2FFF73A
:1020200029FFBDE8E08F00BF2DE9E04F80460F4655
:1020300091469A469DF824B0051F002104356E682C
:10204000B389BB4219D1737D032B16D1B3694B45BC
:1020500013D1736A534510D196F8283008988342FB
:102060000BD196F82B305B4507D10123B373404663
:10207000C9B2FFF7FFFEBDE8E08F01311429DDD1C1
:102080004046FFF707FF011E20DB08EB81035B687A
:102090009F8103225A75C3F818900022DA611A62F0
:1020A000DA62C3F824A0089883F828001A6383F83A
:1020B0002A2083F8292083F82BB01A611A7501228F
:1020C000DA739A734046C9B2FFF7D4FEBDE8E08FD9
:1020D0002DE9E04F8146884692469B46051F002128
:1020E00004356E68B789474515D1737D062B12D12B
:1020F000B36953450FD1736A5B450CD196F828300C
:102100000898834207D10123B3734846C9B2FFF749
:10211000B1FEBDE8E08F01311429E1D14846FFF757
:10212000B9FE011E21DB09EB81035B68A3F80C807B
:1021300006225A75C3F818A00022DA611A62DA6220
:10214000C3F824B0089883F828001A6383F82A207B
:1021500083F8292083F82B201A611A750122DA737B
:102160009A734846C9B2FFF785FEBDE8E08F00BF0D
:102170002DE9D04F8146884692469B46041F002198
:1021800004346668B789474511D1737D042B0ED19D
:10219000736A53450BD196F82A305B4507D101236A
:1021A000B3734846C9B2FFF765FEBDE8D08F013171
:1021B0001429E5D14846FFF76DFE011E1FDB09EB30
:1021C00081035B68A3F80C8004225A7500229A618F
:1021D000DA611A62DA62C3F824A083F828201A634D
:1021E00083F82AB083F8292083F82B201A611A7506
:1021F0000122DA739A734846C9B2FFF73BFEBDE885
:10220000D08F00BF2DE9F04707460E4690469DF857
:1022100020A0044654F80429127B510802FB031342
:102220002448A0FB0329C9F3471900210434656839
:10223000AA89B24215D16A7D052A12D1AA694245FE
:102240000FD195F829204A450BD195F82B205245FE
:1022500007D10122AA733846C9B2FFF70BFEBDE8C9
:10226000F08701311429E1D13846FFF713FE011E32
:102270001EDB07EB81035B689E8105225A75C3F85C
:1022800018800022DA611A62DA625A6283F8282022
:102290001A6383F82A2083F8299083F82BA01A6107
:1022A0001A750122DA739A733846C9B2FFF7E2FD54
:1022B000BDE8F0871F85EB512DE9E04F80460F46C2
:1022C00091469A469DF824B0051F002104356E689A
:1022D000B389BB4218D1737D072B15D1B3694B4528
:1022E00012D1736A53450FD1336B089883420BD1D7
:1022F00096F82B305B4507D10123B3734046C9B232
:10230000FFF7B8FDBDE8E08F01311429DED140466A
:10231000FFF7C0FD011E20DB08EB81035B689F8196
:1023200007225A75C3F818900022DA611A62DA623D
:10233000C3F824A083F828200898186383F82A207B
:1023400083F8292083F82BB01A611A750122DA73F9
:102350009A734046C9B2FFF78DFDBDE8E08F00BF1C
:1023600010B4002484818473C473046104754475BB
:102370008461C4610462446280F8284080F8294086
:1023800080F82A4080F82B40C462046301608260B8
:102390005DF8044B704700BF2DE9F84306468946B7
:1023A0001746326000244FF03408404604F048FEDF
:1023B000054649463A46FFF7D3FF33195D600434BA
:1023C000502CF2D13046BDE8F88300BF002343759E
:1023D0008361C3610362C362436280F8283080F87E
:1023E0002A3080F8293080F82B3003610375C373DD
:1023F0008373704738B5054600242B195868FFF7DA
:10240000E5FF0434502CF8D138BD00BF10B50346A9
:1024100080684218517B92F8AD2093F82B401CB194
:10242000007B0138821AD2B2186802EB01119A6956
:1024300002F058FC10BD00BFF8B50446837B002BAA
:1024400000F04181437D013B062B00F23C81DFE837
:1024500013F00E001F004100BB00070079000501CA
:1024600090F829300025002B40F0E080F8BD83680B
:102470001B7B002B00F02781002520462946A269FE
:10248000FFF7C4FF0135A3681B7BAB42F5DCF8BD49
:102490000369C26A934211D3C1690A4493420DD2BF
:1024A00083681B7B53B1002520462946A269FFF7AC
:1024B000ADFF0135A3681B7BAB42F5DC23690A3312
:1024C0002361216AE2690A449342C0F0FC80002340
:1024D0002361F8BD057D90F828302B449D421EDA1B
:1024E000A1680B7B95FBF3F203FB125251FA82F2C7
:1024F000517B92F8AD2094F82B0010B1013B9A1A51
:10250000D2B2206802EB0111A26902F0EBFB0135A7
:10251000237D94F828201A44AA42E1DC00E02B46EF
:102520002269616A8A420AD30133A268127B93FB53
:10253000F2F102FB1133237500232361F8BD0A3247
:102540002261F8BD83681F7B90F82860037D1D46DB
:102550009A19934213DAA3682B4493F8AD20597B60
:10256000206802EB0111A26902F0BCFB0135237D5A
:10257000194694F828201A44AA42ECDC00E01946D7
:102580002269606A82421CD394F82B206AB9013117
:102590007A1C921BD2B29142A3BF012284F82B2055
:1025A00003F1FF330133237508E02BB901232375B1
:1025B000002384F82B3001E0013B237500232361C5
:1025C000F8BD0A322261F8BD0369426A93422AD3F8
:1025D00083681B7B23B300252E46304694F82A10CF
:1025E00004F01CFD0746304694F82A1004F016FD4E
:1025F000000200EB0747304694F82A1004F00EFD65
:10260000A3682B4493F8AD105B7B3A18206801EB6C
:10261000031102F067FB0135A3681B7BAB42DCDCD6
:1026200000232361F8BD0A330361F8BDA268531982
:10263000597B93F8AD3094F82B0018B1127B013A16
:10264000D31ADBB2206803EB0111A26902F04AFB46
:10265000013594F82930AB42E8DCF8BD83681A7B79
:10266000037D511CC9B2994202D80025BAB920E0B5
:102670004BB1002520462946A269FFF7C7FE013568
:10268000237DAB42F6DC2269616A8A4204D30133BE
:10269000237500232361F8BD0A322261F8BD20466C
:1026A0002946A269FFF7B2FE0135A3681B7BAB4246
:1026B000F5DC2369226B934203D300232375236146
:1026C000F8BD0A332361F8BD0023C0F8A030C0F87C
:1026D000A430C0F8A830C0F8AC30C0F8B030C0F8B2
:1026E000B430C0F8B830C0F8BC30C0F8C030C0F862
:1026F000C430C0F8C830C0F8CC30C0F8D030C0F812
:10270000D430C0F8D830C0F8DC30021F034942F89A
:10271000041F11650133142BF9D17047816967FFDC
:102720000CB400B5C3B0012908D1D0F8A430002BF7
:1027300074D1D0F8A030002B70D17EE0022908D1EE
:10274000D0F8A830002B69D1D0F8A030002B65D18B
:1027500073E0042908D1D0F8AC30002B5ED1D0F85A
:10276000A030002B5AD168E0032908D1D0F8B4304A
:10277000002B53D1D0F8A030002B4FD15DE00629BB
:1027800008D1D0F8B830002B48D1D0F8A030002BB9
:1027900044D152E0072906D1D0F8BC30F3BBD0F8C1
:1027A000A030DBBB49E0082906D1D0F8C030ABBB74
:1027B000D0F8A03093BB40E00A2906D1D0F8C4304D
:1027C00063BBD0F8A0304BBB37E00B2906D1D0F863
:1027D000C8301BBBD0F8A03003BB2EE0222906D1A5
:1027E000D0F8D030D3B9D0F8CC30BBB925E01E2911
:1027F00006D1D0F8D4308BB9D0F8CC3073B91CE006
:10280000202906D1D0F8D83043B9D0F8CC302BB934
:1028100013E0282911D1D0F8DC3073B145AA019218
:1028200002A844990CF06AF9064B186828B1064BC7
:102830001A68064902AB00F081F843B05DF804EB7A
:1028400002B0704748B2FF1F84B2FF1F0418010096
:1028500000EB81031A6D40F82120024A12681A65C4
:10286000704700BF84B2FF1F00EB81031A6D50F860
:102870002100101A704700BF034B1B68143150F839
:102880002100181A704700BF84B2FF1F08B504F07A
:102890008DF908BD08B504F03DF908BD08B504F090
:1028A00065F908BD08B504F019FA08BD08B5084671
:1028B00004F008FA08BD00BF08B50846114604F048
:1028C00083F908BD4B1E9BB299B10133C1184FF675
:1028D000FF7210F8013B83EA222383EA131343EAD1
:1028E000022282EA033282EA43139AB28842F0D18A
:1028F00001E04FF6FF721046704700BF10B400228F
:10290000C0F8802080F888204FF47A74C0F88C409A
:1029100080F89020084CC0F8844080F894200A7910
:1029200080F888208A68C0F88C200A7B80F8902084
:102930005DF8044B704700BF181801000EB430B5A5
:10294000C2B0044645AA52F8041B019202A80CF03A
:10295000D5F804F1840502A809F0FEFC0246D4F87B
:1029600084305B68284602A9984742B0BDE83040F1
:1029700003B0704710B504461849194AFFF7DEFF47
:1029800020461849FFF7DAFF20461749FFF7D6FF20
:1029900020461649FFF7D2FF20461549FFF7CEFF24
:1029A00020461449FFF7CAFF20461349FFF7C6FF28
:1029B00020461249FFF7C2FF20461149FFF7BEFF2C
:1029C00020461049FFF7BAFF20460F49FFF7B6FF30
:1029D00020460E49FFF7B2FF10BD00BF08180100E6
:1029E0003018010048180100A4180100D018010097
:1029F000E8180100F0180100FC180100041901009A
:102A0000481901007819010098190100BC1901004A
:102A100070B505460C4616460846144909F08EFB6B
:102A200030B90123336028461149FFF787FF70BD95
:102A30002046104909F082FB30B900233360284654
:102A40000D49FFF77BFF70BD54B9346828460B4928
:102A5000064B084A002C18BF1A46FFF76FFF70BDDF
:102A600028460749FFF76AFF70BD00BFC81901007B
:102A7000D0190100CC190100D81901000818010073
:102A8000E019010070B582B00446444D2B68B3F8DC
:102A9000300208F03DFB424908F042FC07F0F8FE26
:102AA00002460B4620463F49FFF748FF2B68B3F923
:102AB000320208F02DFB3C4908F032FC07F0E8FE3A
:102AC00002460B4620463949FFF738FF2B6820465F
:102AD000374993F93422FFF731FF2B68B3F84802E6
:102AE00008F016FB304908F01BFC07F0D1FE024647
:102AF0000B4620462F49FFF721FF2B6820462E4921
:102B000093F83622FFF71AFF2C4E2B6820463146E9
:102B1000B3F87622FFF712FF2B68D3F8580207F0BC
:102B2000B7FE02460B4620462549FFF707FF2B68F4
:102B300020462449D3F8B022FFF700FF2B68204637
:102B40003146B3F87622FFF7F9FE2968B1F9602221
:102B5000B1F96232B1F96412009120461A49FFF7C7
:102B6000EDFE286800F010FE024620461749FFF7E8
:102B7000E5FE2B6820461649B3F8C422FFF7DEFEB7
:102B80002B6820461349B3F8C622FFF7D7FE124B35
:102B90001868FEF791FB02B070BD00BF54B2FF1F72
:102BA00000007A44F41901000000C842181A01001C
:102BB0003C1A01005C1A0100801A0100A01A0100F1
:102BC000C01A0100E01A0100001B0100341B0100C3
:102BD000541B0100741B01003CB2FF1F38B50446B2
:102BE0004D4D28680021FFF73FFE024620464B4925
:102BF000FFF7A4FE28680121FFF736FE02462046B3
:102C00004749FFF79BFE28680221FFF72DFE024689
:102C100020464449FFF792FE28680321FFF724FE6F
:102C2000024620464049FFF789FE28680421FFF745
:102C30001BFE024620463D49FFF780FE286806211C
:102C4000FFF712FE024620463949FFF777FE286853
:102C50000521FFF709FE024620463649FFF76EFEC2
:102C600028680721FFF700FE024620463249FFF799
:102C700065FE28680821FFF7F7FD024620462F4928
:102C8000FFF75CFE28680921FFF7EEFD02462046AB
:102C90002B49FFF753FE28680A21FFF7E5FD02469E
:102CA00020462849FFF74AFE28680B21FFF7DCFD84
:102CB000024620462449FFF741FE28680D21FFF710
:102CC000D3FD024620462149FFF738FE28680E2131
:102CD000FFF7CAFD024620461D49FFF72FFE286870
:102CE0000F21FFF7C1FD024620461A49FFF726FED5
:102CF00028681021FFF7B8FD024620461649FFF765
:102D00001DFE28681121FFF7AFFD0246204613493A
:102D1000FFF714FE38BD00BF50B2FF1F941B010027
:102D2000B41B0100D41B0100F41B0100141C0100A2
:102D3000341C0100541C0100741C0100941C01008F
:102D4000B41C0100D41C0100F41C0100141D01007E
:102D5000341D0100541D0100741D0100941D01006B
:102D600038B50446002016490AF04AFB154909F017
:102D7000E5F918BB12490AF043FB054688B1124930
:102D800009F0DCF920B90120014602F015F908E04C
:102D900028460E4909F0D2F918B90120002102F0A5
:102DA0000BF9012002F0F4F820B120460849FFF7A2
:102DB000C5FD38BD20460749FFF7C0FD38BD00BF3F
:102DC000001E0100B41D0100BC1D0100C41D010056
:102DD000CC1D0100E41D010070B505464A24084ED3
:102DE000204602F0D5F8024628463146FFF7A6FDF8
:102DF00001345A2CF4D128460249FFF79FFD70BDDB
:102E0000FC1D0100CC18010010B504460348FDF775
:102E1000B5FB20460249FFF791FD10BD40B2FF1FF0
:102E2000041E01002DE9F04782B081460DF107052F
:102E30000DF1FF33092203F8012FAB42FBD10DF155
:102E4000FF36DFF8A0800027EA46384641460AF000
:102E5000D7FA037823B948461D49FFF76FFD34E0E0
:102E600008F0C0FB0246411EC9B2072904D89DF8EC
:102E700000308B4205D109E048461649FFF75EFD58
:102E800023E0534613F8014FA14205D148461249A9
:102E9000D2B2FFF753FD18E09D42F3D106F8011FAF
:102EA000AE42D2D1402400AB2344204613F8401C4C
:102EB00002F082F80134482CF5D1084B1868FEF76F
:102EC00003FA48460649FFF739FD02B0BDE8F0872E
:102ED0003C1E0100701E0100981E01003CB2FF1F45
:102EE000DC1E0100001E010038B505460846954964
:102EF0000AF086FA0446002800F0C981924909F0D8
:102F00001DF9002840F076818E490AF079FA0446CE
:102F10008E4909F013F9002840F0C48089490AF06D
:102F20006FFA04468A4909F009F958B985490AF047
:102F300067FA0146874B1A682846A032864BFFF78E
:102F400067FD38BD2046854909F0F8F858B97D4934
:102F50000AF056FA01467F4B1A682846A432804B85
:102F6000FFF756FD38BD20467E4909F0E7F858B90D
:102F700074490AF045FA0146764B1A682846A83289
:102F8000794BFFF745FD38BD2046784909F0D6F862
:102F900058B96C490AF034FA01466E4B1A68284653
:102FA000B432734BFFF734FD38BD2046714909F048
:102FB000C5F858B963490AF023FA0146654B1A6807
:102FC0002846AC326C4BFFF723FD38BD20466B49D9
:102FD00009F0B4F858B95B490AF012FA01465D4BA2
:102FE0001A682846B032664BFFF712FD38BD2046FE
:102FF000644909F0A3F858B952490AF001FA0146A8
:10300000544B1A682846B8325F4BFFF701FD38BDB4
:1030100020465E4909F092F858B94A490AF0F0F999
:1030200001464C4B1A682846BC32594BFFF7F0FC5E
:1030300038BD2046574909F081F858B941490AF08E
:10304000DFF90146434B1A682846C032524BFFF75E
:10305000DFFC38BD2046514909F070F858B93949AC
:103060000AF0CEF901463B4B1A682846C4324C4B55
:10307000FFF7CEFC38BD20464A4909F05FF858B941
:1030800030490AF0BDF90146324B1A682846C83269
:10309000454BFFF7BDFC38BD284644492246FFF7A3
:1030A0004DFC38BD2046424909F048F8002840F060
:1030B0008F8024490AF0A4F90446254909F03EF816
:1030C00058B920490AF09CF90146224B1A68284653
:1030D000CC32384BFFF79CFC38BD2046364909F00E
:1030E0002DF858B917490AF08BF90146194B1A689F
:1030F0002846D032314BFFF78BFC38BD2046304993
:1031000009F01CF858B90F490AF07AF90146114B39
:103110001A682846D4322B4BFFF77AFC38BD20467C
:10312000294909F00BF8002840F0B18005490AF060
:1031300067F90146074B1A682846D832234BFFF738
:1031400067FC38BD001E0100201F0100281F010080
:103150002C1F010050B2FF1F301F0100381F01005B
:10316000441F0100541F0100581F0100601F01008F
:103170006C1F01007C1F0100801F0100881F0100DF
:103180008C1F0100941F01009C1F0100A81F01005B
:10319000B01F0100BC1F0100C41F0100D01F0100AF
:1031A000DC1F0100EC1F0100F01F0100F81F0100EF
:1031B0001020010018200100242001002820010017
:1031C000342001003C200100482001004C20010077
:1031D00020462F4908F0B2FF002858D12D490AF0A7
:1031E0000FF901462C4B1A682846DC322B4BFFF7AF
:1031F0000FFC38BD20462A4908F0A0FF18B9284620
:10320000FFF740FC38BD2046264908F097FF18B963
:103210002846FFF7E3FC38BD2046234908F08EFF1F
:1032200020B922482146FDF7B5F938BD204620498E
:1032300008F084FF18B92846FFF792FD38BD2046F4
:103240001C4908F07BFF18B92846FFF7C5FD38BDBB
:103250002046194908F072FF18B92846FFF7E2FD29
:1032600038BD2046154908F069FF18B92846FFF710
:10327000CBFD38BD2046124908F060FF18B928463A
:10328000FFF778FB38BD28460E49FFF757FB38BDDE
:1032900058200100001E010050B2FF1F60200100F5
:1032A00068200100702001007820010040B2FF1F5B
:1032B000102001007C200100842001008C200100EE
:1032C000942001009C200100A1F13000C0B2092827
:1032D00012D9A1F16103DBB2052B03D8A1F157008C
:1032E000C0B27047A1F14103DBB2052B03D8A1F1B5
:1032F0003700C0B270470020704700BF2DE9F84F7B
:103300000446DFF8D4A1C9E003F004FC0546C0B2CE
:103310000D2802D00A2840F0B380D4F88020002382
:10332000A354C4F8803094F89430002B00F08580CA
:10333000274620465D4908F001FF20B140F2B578EC
:10334000DFF870B167E020465949FFF7F7FABAF89D
:103350000050022D37D95748431913F8026C13F85F
:10336000013C03EB0626B6B2A91E89B2FFF7AAFA02
:103370000246864205D020464F493346FFF7DEFA23
:1033800025E04820290A01F017FE49209AF800108C
:1033900001F012FEBAF8003063B10025454E05F188
:1033A0004A00715D01F008FE0135ADB2BAF8003097
:1033B000AB42F4D8414B1868FDF786FF20464049E0
:1033C000FFF7BCFA03E020463E49FFF7B7FA0023B7
:1033D00084F89430C4F88030D4F884305B6804F109
:1033E000840039490122984758E02046615DFFF783
:1033F0006BFF8146AB1CC4F88030254420466978B9
:10340000FFF762FF464508D8731CAAF8003000EBAE
:1034100009100BF80600BAF80060D4F8805038465E
:1034200008F09AFFABB28342DFD30023C4F88030A8
:1034300020462649FFF782FA30E004F18405D4F8EB
:1034400084305B6828462249022298472046214959
:1034500008F074FE40B9012384F894300023AAF8E0
:103460000030C4F8803019E020462146FFF73CFDCB
:10347000D4F884305B6828461349012298470DE050
:1034800094F894200AB903F01DFCD4F88060731CF2
:10349000C4F88030E8B20BF0FFFAA05503F086FBC9
:1034A00000287FF431AFBDE8F88F00BFB0200100E5
:1034B000BC2001003CA7FF1FCC2001003CB2FF1F35
:1034C0000C21010054210100742101007821010028
:1034D000CC1801007C21010038A7FF1F08B501F0BE
:1034E0001DFD08BDFFFFFFFF10B504460021A0F839
:1034F0008811A0F88A11A0F80C12A0F80E12C0F8DA
:103500001012C0F81412C0F8181200F508703AA38F
:10351000D3E90023C0E9002384F8281284F8291293
:1035200084F82A12A4F82C1284F82E1284F82F1290
:10353000A4F83012A4F8321284F8341284F8351248
:1035400084F83612C4F83812C4F83C12C4F8401299
:10355000C4F84412A4F84812A4F84A120023C4F88C
:103560004C32C4F85012A4F85412C4F85832C4F8BB
:103570005C32A4F86012A4F86212A4F86412C4F8D1
:103580006812C4F86C12C4F87012A4F87412A4F88B
:103590007612A4F87812C4F8B012A4F8B412A4F801
:1035A000B612A4F8B812A4F8BA12A4F8BC12A4F87F
:1035B000BE12A4F8C012A4F8C212A4F8C412A4F84F
:1035C000C612A4F8C812A4F8CA12C4F8CC12C4F8DF
:1035D000D012C4F8D412A4F8D812A4F8DA12C4F89D
:1035E000DC12C4F8E01240F6055002F0E9FA204679
:1035F00010BD00BFAFF3008000000000D012634197
:1036000070B4039CBDF91000B3F90060B4F9005028
:10361000354495FBF0F600FB165522F8151022886C
:1036200011B2884208DCB3F90020013292FBF0F1BC
:1036300000FB1120188001E00132228070BC70472D
:10364000F0B4BDF91460BDF910C06345B8BF9C4625
:10365000CCEB030080B204B2A34211DD002502FAD4
:1036600080F494FBF6F706FB174431F91440254427
:10367000013080B204B29C42F1D1002D01DA05E0A4
:1036800000250CEBDC73C3F34F0305E0CCF1000322
:1036900003EBD373C3F34F0305FA83F595FBFCF0FB
:1036A00000B2F0BC704700BF08B5064B1868002197
:1036B000FFF7E2F840F6B7339842CCBF0020012074
:1036C00008BD00BF50B2FF1F08B5064B18680221A5
:1036D000FFF7D2F840F6B7339842CCBF0020012064
:1036E00008BD00BF50B2FF1F08B5064B1868032184
:1036F000FFF7C2F840F6B7339842CCBF0020012054
:1037000008BD00BF50B2FF1F08B5064B1868062160
:10371000FFF7B2F840F6B7339842CCBF0020012043
:1037200008BD00BF50B2FF1F08B5064B1868042142
:10373000FFF7A2F840F6B7339842CCBF0020012033
:1037400008BD00BF50B2FF1F08B5064B1868052121
:10375000FFF792F840F6B7339842CCBF0020012023
:1037600008BD00BF50B2FF1F08B5064B18680B21FB
:10377000FFF782F840F6B7339842CCBF0020012013
:1037800008BD00BF50B2FF1FD0F8E002024BA3FB00
:103790000020C0F3CF307047D55204E910B4094B74
:1037A0001B68D0F8102242B19A1AB0F9CA42D0F878
:1037B000E01204FB0211C0F8E012C0F810325DF80C
:1037C000044B704784B2FF1F2DE9F84F14461D4685
:1037D000DDE90CAB5046594606F0FAFE42A3D3E9A8
:1037E000002307F0A9F80022434B07F0CFF900228D
:1037F000424B07F0A1F804F0FDF8804689462046C8
:10380000294639A3D3E9002307F096F800223A4B62
:1038100007F0BCF904F0B4F806460F465046594686
:1038200031A3D3E9002307F087F80022324B07F0D9
:10383000ADF904F0A5F882468B46DDE90E01DDE91D
:103840000A2306F0C5FE28A3D3E9002307F074F885
:103850000022294B07F09AF90022284B07F06CF858
:1038600004F0C8F804460D464046494642464B46D9
:1038700007F062F8804689463046394652465B4634
:1038800007F05AF822462B4607F056F802460B4638
:103890002046294607F050F802460B464046494666
:1038A00006F098FE04460D4604F01EF906460F4643
:1038B0000020134922462B4606F08AFE04F014F934
:1038C00002460B463046394604F00CF902460B46D8
:1038D00006F080FE06A3D3E9002307F02DF8BDE82B
:1038E000F88F00BFAFF3008000000060FB210940AB
:1038F00000000000AE4D5841008066400000E03FEF
:103900000000F03FAFF300802DE9F04786B082461B
:10391000904699460846002933D0002A34D0002B1F
:1039200035D00E9B002B35D00AF50873D3E900453E
:1039300006F09CFF22462B4607F028F906460F4664
:10394000404606F093FF22462B4607F01FF9CDE9CB
:103950000001484606F08AFF22462B4607F016F97A
:10396000CDE902010E9806F081FF22462B4607F0B2
:103970000DF9CDE90401504632463B46FFF724FFDE
:103980000AE00020002107E00020002104E00020E0
:10399000002101E00020002106B0BDE8F08700BF53
:1039A0002DE9F04F87B0104619464FA3D3E9002305
:1039B00006F0C2FF00224E4B07F0E8F804460D4621
:1039C000DDE9120148A3D3E9002306F0B5FF002288
:1039D000474B07F0DBF806460F46DDE9140142A32A
:1039E000D3E9002306F0A8FF0022414B07F0CEF8F0
:1039F00080468946DDE910013BA3D3E9002306F0A8
:103A00009BFF00223A4B07F0C1F802460B464046A6
:103A1000494606F0DDFD82468B4603F0EBFFCDE91B
:103A200000013046394603F0ABFF80468946204608
:103A3000294603F0A5FFCDE902013046394603F0DF
:103A4000D9FF06460F462046294603F0D3FFCDE9AD
:103A500004015046594603F093FF82468B46DDE948
:103A6000000142464B4606F067FF04460D46DDE97D
:103A7000020132463B4606F05FFF06460F464046CF
:103A80004946DDE9042306F057FF52465B4606F03F
:103A900053FF02460B463046394606F099FD024672
:103AA0000B462046294604F01DF80022104B06F074
:103AB00043FF0DA3D3E9002307F068F804460D4641
:103AC0000022002307F0AAF938B120462946002237
:103AD000084B06F07FFD04460D462046294607B0F8
:103AE000BDE8F08FAFF3008000000060FB210940CB
:103AF00000806640008076402DE9F04786B082461F
:103B0000904699460846002933D0002A34D0002B2D
:103B100035D00E9B002B35D00AF50873D3E900454C
:103B200006F0A4FE22462B4607F030F806460F4664
:103B3000404606F09BFE22462B4607F027F8CDE9CB
:103B40000001484606F092FE22462B4607F01EF87A
:103B5000CDE902010E9806F089FE22462B4607F0B9
:103B600015F8CDE90401504632463B46FFF718FFF1
:103B70000AE00020002107E00020002104E00020EE
:103B8000002101E00020002106B0BDE8F08700BF61
:103B900070B582B0064690F82A32DB0930D0D0F8F2
:103BA0004432322B25DDD0F81412D0F81822D0F888
:103BB0003832D0F83C0200903046FFF79DFF0446B3
:103BC0000D460022002307F03DF940B1204629466A
:103BD0000022104B06F0FEFC07F048F907E02046F3
:103BE000294600220B4B06F0F3FC07F03FF9A6F83C
:103BF000DA02D6F8DC22D6F844321344C6F8DC32B6
:103C0000D6F83832C6F81432D6F83C32C6F8183234
:103C100002B070BD0000E03FF0B583B005460C4631
:103C2000ADF8003001238DF802308DF803308DF8A7
:103C300004208DF8053001F1080702AB53F8080D98
:103C400088609B88BB804223CB71FE238B70062348
:103C5000CB70FF234B71BE238B71314B9A790A7164
:103C60009A7901329A7103313E464FF6FF7211F88C
:103C7000013B534083EA0313DBB2D80080EA032000
:103C800080EA222282EA2312B142F0D1228094F803
:103C900003E00EF1FF36B6B2BEF1000F13D00136CD
:103CA0003E443A46218812F8013B4B4083EA031315
:103CB000DBB2D80080EA032080EA212181EA2313C5
:103CC0002380B242EED1228882F0940383EA031368
:103CD000DBB2D90081EA032181EA222282EA23139E
:103CE000238007F80E30E3781F4423881B127B7073
:103CF000E2782846A11C063201F06EF8E37806331C
:103D0000EA182188E95423881B125370E178284669
:103D1000083102F0ADF80A2001F0DCFB03B0F0BD81
:103D2000F4AEFF1F38B504460D46264B1B68264AE5
:103D300012689A4244D2FFF7B7FC002830D12046DF
:103D4000294601220223FFF767FF20462946022267
:103D50000323FFF761FF2046294604220023FFF7D3
:103D60005BFF2046294606220323FFF755FF204626
:103D700029460A220523FFF74FFF204629460B223A
:103D80000223FFF749FF204629460C220323FFF7B1
:103D900043FF0C4B1A6802F57A720B4B1A6038BD60
:103DA0002046FFF7E1FC58B9204629460322134676
:103DB000FFF732FF034B1A6802F57A72024B1A6062
:103DC00038BD00BF84B2FF1F10B0FF1F2DE9F04FB8
:103DD000CFB006460AA9FFF7A5FFDFF8E092DFF8AB
:103DE000E082B24FDFF8DCB200F035BC02F0D4F86C
:103DF000C4B2AF4B00221A70DB780A2B00F2DA80D3
:103E0000DFE803F00606153F2B5367819EBDBD001A
:103E1000FE2C40F026840222A54BDA70A54B00222E
:103E2000DA70FE229A704FF6FF721A80C2E0A14B40
:103E3000DC709F4900220A71188884EA000282EA35
:103E40000212D2B2D50085EA022585EA202080EA56
:103E500022121A800423CB70ACE0964B1C71198897
:103E600084EA010282EA0212D2B2D00080EA022081
:103E700080EA212181EA22121A8003228C4BDA7017
:103E800098E08C4B5C71198884EA010282EA021284
:103E9000D2B2D00080EA022080EA212181EA2212F7
:103EA0001A800522824BDA7084E0824B9C7119885B
:103EB00084EA010282EA0212D2B2D00080EA022031
:103EC00080EA212181EA22121A800622784BDA70D8
:103ED00070E0784BDC71198884EA010282EA0212F0
:103EE000D2B2D00080EA022080EA212181EA2212A7
:103EF0001A80DB781BB908226D4BDA705AE0072272
:103F00006B4BDA7056E06A4B1A79511CC9B21971C1
:103F1000684B1A441472188884EA000282EA02127A
:103F2000D2B2D50085EA022585EA202080EA221255
:103F30001A80DB788B423DD108225D4BDA7039E084
:103F40005C4B1988DA795C4DAA5C4A4082EA02121D
:103F5000D2B2D50085EA022585EA212181EA221222
:103F60001A80C0B2D2B2904214BF0A220922504B2A
:103F7000DA704F4B1B794F4A13441C721AE00A2B1C
:103F800005D0C0B24B4B1B88B0EB232F03D00222CD
:103F9000474B1A7002E00122454B1A70444B012234
:103FA000DA7044491B790B445C720AA84FF488729A
:103FB00000F012FF3E4B1B78012B11D13C4B3D4AC8
:103FC00012795A711A890AB900215981384B013284
:103FD0001A81384AD2788DF82B2000229A7021E07D
:103FE000344AD2788DF82B20314A10790021917013
:103FF000022B40F03D832F4B03445A7A1B7A43EA4D
:104000000223ADF828302A4B01229A701970FE2C39
:1040100040F032830222DA70264BD9704FF6FF72DD
:104020001A8018E39DF82F30242B00F014831ED83B
:104030001B2B00F0A9810BD8012B00F0A480002BD2
:1040400048D0022B00F08C82182B00F0FE80FCE29E
:104050001E2B00F0CF8103D81D2B00F06382F4E209
:10406000212B00F08482232B00F0C482EDE2962BFA
:1040700000F091820ED83E2B00F0638203D82A2BE9
:1040800000F04182E1E24A2B00F00B82932B00F01A
:104090007582DAE2A52B00F0938215D8982B00F0F8
:1040A0008182A32B00F08582CFE200BFF90F494047
:1040B000F4AEFF1F00AFFF1F002501000000C84243
:1040C0000000344386F92243AD2B00F08082FD2BA3
:1040D00026D0BAE2BC4C20680021FEF7B9FB20686C
:1040E0009DF836300C9A00920121B84AFEF718FB71
:1040F0009DF8343086F828329DF8353086F829321C
:104100009DF8363086F82A320C9BA6F82C329DF8A2
:10411000373086F82E329DF8383086F82F329AE202
:10412000A94C20680121FEF793FB06F27D2A206846
:1041300096F87C32CDF800A00721A54AFEF7F0FAE8
:104140000DF1300E06F51F740DF1600C75460FCDA4
:1041500020606160A260E360AE4610346545F5D131
:104160002A88AB782280A3709A4C96F87C2220464D
:10417000994902F00702534607F0BAFF97482146D3
:10418000FCF70CFC67E2904C20680221FEF760FB14
:104190002068BDF83E30BDF9402000920621904ACB
:1041A000FEF7BEFABDF83E1021EAE171A6F8301222
:1041B000BDF9403023EAE373A6F8323206F5C6753E
:1041C00006F20E23009340240194304609B22A4699
:1041D00006F50373FFF714FA06F58473B6F9321285
:1041E00006F5C5720092019430469A461A4606F5C5
:1041F000C473FFF705FAB6F90C22B6F90E320A219C
:104200000091019430462946FFF71AFA754D85FB57
:104210000023C017C0EBA300A6F8C802B6F9882196
:10422000B6F98A310A210091019430465146FFF7D0
:1042300007FA85FB0025C017C0EBA500A6F8CA0247
:104240009DF84E3086F8343205E25F4C2068032139
:10425000FEF7FEFA9DF84C3086F835329DF84DC0D9
:1042600086F836C2BDF844E0A6F848E20E99C6F8D2
:1042700038120F9AC6F83C22109DC6F84052BDF87D
:104280004800C6F84402BDF84AA0A6F84AA224682D
:10429000CDF800C0CDF804E002900395049105929A
:1042A00020460221504AFEF73BFA96F82A32DB09F3
:1042B0000ED0D6F8CC3213B1D6F8D032BBB9D6F87E
:1042C0003832C6F8CC32D6F83C32C6F8D0320EE0DE
:1042D000D6F8CC3213B9D6F8D03243B10023C6F8A1
:1042E000CC32C6F8D032C6F8D432A6F8D832D6F8D6
:1042F000CC12D6F8D022D6F83832D6F83C0200904C
:104300003046FFF701FB04460D460022002306F06D
:1043100099FD40B1204629460022344B06F05AF957
:1043200006F0A4FD07E02046294600222F4B06F0A8
:104330004FF906F09BFDC6F8D402D6F8CC12D6F899
:10434000D022D6F83832D6F83C0200903046FFF73B
:10435000D3FB04460D460022002306F073FD40B156
:10436000204629460022214B06F034F906F07EFD56
:1043700007E02046294600221C4B06F029F906F0EA
:1043800075FDA6F8D80266E10F4C20680421FEF7FF
:104390005FFA2068BDF93830BDF93A200092BDF9C6
:1043A0003C2001920421124AFEF7BAF9BDF83830D8
:1043B000A6F86032BDF83A30A6F86232BDF83C305B
:1043C000A6F8643247E100BF50B2FF1F8821010008
:1043D000C421010014B0FF1FF82101000C97FF1F3A
:1043E0000022010067666666442201000000E03F8B
:1043F000A8220100A44C20680521FEF729FA2468B0
:104400000D9806F045FACDE90001D6F8683202931E
:104410000E9806F03DFACDE90401D6F86C32069309
:104420000F9806F035FACDE9080120460321974A96
:10443000FEF776F90D98414606F0BEFE394606F0C5
:104440006FFF07F07FF8C6F868020028B8BF404247
:104450005A280BDC0E98414606F0AEFE394606F0AF
:104460005FFF07F06FF8C6F86C020EE00E98414649
:1044700006F0A2FE394606F053FF0146404606F01C
:1044800091FD07F05FF8C6F86C020F98394606F008
:104490008BFD594606F090FE07F07AF8C6F87002D8
:1044A000D9E0794C20680621FEF7D2F924680D98EE
:1044B00006F0EEF9CDE90001BDF940300293BDF8F8
:1044C000423003930E9806F0E3F9CDE904010F980A
:1044D00006F0DEF9CDE90601204605216C4AFEF71B
:1044E0001FF90D9BC6F84C32BDF94030C6F850326A
:1044F000BDF84230A6F854320E9BC6F858320F9BD6
:10450000C6F85C32A7E0BDF83030A6F874325E4CD5
:10451000206808215F4AFEF703F920680721FEF7AB
:1045200097F998E0BDF83C30A6F87632564C2068F2
:104530000821594AFEF7F4F820680821FEF788F9A7
:1045400089E0BDF84830A6F878324F4C2068082141
:10455000524AFEF7E5F820680921FEF779F97AE07A
:10456000494B186808214E4AFEF7DAF873E0464BCB
:10457000186808214B4AFEF7D3F86CE00C9BA6F8AC
:10458000B4320D9BA6F8B6323F4B18680821464A54
:10459000FEF7C6F85FE03C4B18680821434AFEF777
:1045A000BFF858E0384B18680821414AFEF7B8F8C0
:1045B00051E0354B186808213E4AFEF7B1F84AE051
:1045C000314B186808213C4AFEF7AAF843E02E4C0C
:1045D00020680A21394AFEF7A3F80C98494606F0EC
:1045E000EBFD06F0AFFFC6F8B00220680A21FEF727
:1045F0002FF930E0244C206808212F4AFEF790F86C
:10460000BDF83430A6F8B832BDF83630A6F8BA3264
:10461000BDF83830A6F8BC32BDF83A30A6F8BE3244
:10462000BDF83C30A6F8C032BDF83E30A6F8C23224
:10463000BDF84030A6F8C432BDF84230A6F8C63204
:1046400020680B21FEF704F905E00F4A10680921E4
:104650001B4AFEF765F801F08FFC00287FF4C6AB1B
:104660000EE0184BDB788DF82B300023164A937040
:10467000002B7FF4D7ACEEE70122134BDA70EAE7A8
:104680004FB0BDE8F08F00BF50B2FF1FE022010025
:104690003C23010098230100B8230100D823010026
:1046A000002401001C2401004024010060240100BA
:1046B0008024010098240100AC240100C4240100DE
:1046C000E024010000AFFF1FF4AEFF1F30B585B03E
:1046D000264B1A798DF804209A6802921B7B8DF87C
:1046E0000C3004AC224B44F8103D982002F0A8FC9A
:1046F00005466946FEF702F91E4C2560E02002F0EF
:104700009FFC0546FDF7E0FF1B4B1D604FF43A7020
:1047100002F096FC0546FEF7E7FE184B1D604820A8
:1047200002F08EFC0546FCF717FB154B1D600120BF
:1047300002F086FC0546FBF7F7FE124B1D6041F2C6
:10474000883000F0C7FE0D20012100F087FD2068B1
:104750000D490E4AFEF7F2F8B02002F071FC044653
:10476000FCF71AFE0A4B1C6005B030BD98B4FF1F61
:104770001818010048B2FF1F50B2FF1F54B2FF1FAC
:1047800038B2FF1F40B2FF1F0026010030180100A1
:104790003CB2FF1F38B5354B1868FEF785FF04465D
:1047A000D0F1010238BF002231480121FCF786F820
:1047B000002C39D02D4D2868FEF786FF2C4CD0F107
:1047C000010238BF002220460321FCF777F8286851
:1047D000FEF78AFFD0F1010238BF002220460421F3
:1047E000FCF76CF82868FEF78FFFD0F1010238BFA4
:1047F000002220460521FCF761F82868FEF794FFA7
:10480000D0F1010238BF002220460621FCF756F8FD
:104810002868FEF799FFD0F1010238BF0022204638
:104820000721FCF74BF814E0114C20460321FCF75C
:1048300049F820460421FCF745F820460521FCF7FD
:1048400041F820460621FCF73DF820460721FCF7F9
:1048500039F8084B1868FCF79FFAD0F1010238BF0D
:10486000002203480221FCF729F838BD54B2FF1F8B
:1048700094B0FF1F38B2FF1F10B5214B1868FFF727
:10488000A5FA204B1868FCF7F3FC1F4B1868FEF7DD
:1048900035FD1E4B1C681E4B1B68A34207D804F550
:1048A0007A721B4B1A60164B1868FFF771F9194B97
:1048B0001B68A34206D804F1C802164B1A601648BA
:1048C000FCF712F8154B1B68A3420DD804F16402E3
:1048D000124B1A6042F210739C4201D9FFF75AFF43
:1048E000074B1868FEF75AFF0D4B1B68A34206D80A
:1048F0000A340B4B1C600B4B1868FDF78BF910BD8D
:1049000054B2FF1F38B2FF1F48B2FF1F84B2FF1F0F
:104910004CB2FF1FB0B0FF1F94B0FF1F34B2FF1F97
:1049200044B2FF1F3CB2FF1F08B500F0F7FA02487F
:10493000FBF7BCFF08BD00BF94B0FF1F08B5064BD6
:104940001A79064B1A7000F0A3FD054B186000227F
:10495000044B1A7008BD00BF74B2FF1F1F800040D7
:1049600070B2FF1F6CB2FF1F10B5044602F06AFA66
:10497000204610BD10B4064C218006490A60064A44
:104980001360064B9DF804201A705DF8044B7047C5
:104990005AB2FF1F5CB2FF1F68B2FF1F58B2FF1F61
:1049A0002DE9F843894B1D8805EB4505ED00884B43
:1049B000186800212A4607F055F9864B186820B17F
:1049C00000212A4607F04EF903E0814B1A68814B1B
:1049D0001A60FF22804B1A600220012100F03EFC89
:1049E0000E20012100F03AFC0720012100F036FCE6
:1049F0000820012100F032FC0620012100F02EFCED
:104A00001420012100F02AFC1520012100F026FCD1
:104A10000520012100F022FC704B1C7804F01004EA
:104A2000E4B26F4B6F4A002C0CBF14461C460820A2
:104A300000F044FB204606F067FB044603202146B5
:104A400000F048FB0420214600F044FB03203C21F9
:104A500000F026FC0420B02100F022FC624A634BE7
:104A60001A600320022100F0F9FB0F20002100F062
:104A7000F5FB5F4A5F4B1A6002F50072A3F5FE5327
:104A80000C3B1A605C4F3A68DFF88CC11368002356
:104A9000C2F800C039680B714B718B71CB71012466
:104AA0000C724B728B72CB720B734B738B73CB7319
:104AB0000A69524A0A610B754B75A8B2CA8AC88244
:104AC0000B764B768B76CB768A8B08228A83CE8BBD
:104AD000C8834B4E3168DFF8F880D8F80080D1F8F1
:104AE0000090C1F8008031680C714B718B71CB71F3
:104AF0000C724B728B72CB726D42CD600D69414D61
:104B00000D610B754B75CD8AC8820B764B768B7613
:104B1000CB768D8B8A83CA8BC8833B490A6815681C
:104B2000C2F800C00A68137153719371D371147283
:104B300053729372D372137353739373D373146951
:104B4000254C146113755375D48AD082137653762D
:104B50009376D376948B0A249483D48BD0834FF0AE
:104B600080502A4A106041F232004FF0402210601B
:104B70003A7902F1804202F504321370B2201070CB
:104B8000327902F1804202F504321370B3201070C2
:104B90000A7902F1804202F504321370B1231370D6
:104BA0000A7902F110011A481A4B43F821005311F7
:104BB0009B0003F1604303F5614302F01F020121F2
:104BC00001FA02F21A60BDE8F88300BF5AB2FF1F73
:104BD0005CB2FF1F68B2FF1FC8F00F4058B2FF1F42
:104BE000801A060000350C000003010000A00440FC
:104BF0000001020000B0044060B2FF1FC4F00F408B
:104C00007CB2FF1FC0F00F4074B2FF1F0C0008E021
:104C10003D4900000084FF1F1026010010B5244A02
:104C2000137813F0FF0FFBD1224B1968224B186841
:104C3000814206D0214B1B8803EB4302D20000F0D7
:104C4000CBF81F4C00F024FC2368C01A3128F9D996
:104C50001C4B186818331B6872B60121144A117076
:104C600019490A689342FCD217490A689342FCD357
:104C700015490A689342FCD800F0E703114A136013
:104C8000012312490B6001F580510B604FF4005174
:104C90000F4B19600F4B19790F4B19700F49097998
:104CA00019700F4909791970106062B610BD00BF04
:104CB0006CB2FF1F68B2FF1F5CB2FF1F5AB2FF1F2A
:104CC00070B2FF1F0090034004900340A0A0044076
:104CD000A090044060B2FF1F1B8000407CB2FF1F09
:104CE00074B2FF1F70B4234B1B7803F00703022B31
:104CF0000CD0032B14D0012B1AD102F47F03100225
:104D000080B2C2F3072202431A4311E0100200F4FA
:104D10007F00131203F47F430343D2B21A4307E028
:104D2000130223F07F4323F0FF03C2F307421A4329
:104D3000114B1888B1FBF0F301259D40EEB200FB4A
:104D4000131101EB41010D4B1B6803EBC103013350
:104D500018204FF40001ED43114213F8014C14BF29
:104D600034432C4003F8014C490801330138F3D196
:104D700070BC704758B2FF1F5AB2FF1F68B2FF1FC6
:104D800070B5104E3046002101F0FEFF0E4D0F4C65
:104D900030462946224606F01BFC0D4E30460021C7
:104DA00001F0F2FF30462946224606F011FC094E7A
:104DB0003046002101F0E8FF30462946224606F041
:104DC00007FC70BD60B2FF1F694900006089FF1FCA
:104DD0007CB2FF1F74B2FF1F844641EA000313F048
:104DE00003036DD1403A41D351F8043B40F8043BF2
:104DF00051F8043B40F8043B51F8043B40F8043BB5
:104E000051F8043B40F8043B51F8043B40F8043BA4
:104E100051F8043B40F8043B51F8043B40F8043B94
:104E200051F8043B40F8043B51F8043B40F8043B84
:104E300051F8043B40F8043B51F8043B40F8043B74
:104E400051F8043B40F8043B51F8043B40F8043B64
:104E500051F8043B40F8043B51F8043B40F8043B54
:104E600051F8043B40F8043B403ABDD2303211D3F4
:104E700051F8043B40F8043B51F8043B40F8043B34
:104E800051F8043B40F8043B51F8043B40F8043B24
:104E9000103AEDD20C3205D351F8043B40F8043BF4
:104EA000043AF9D2043208D0D2071CBF11F8013BF2
:104EB00000F8013B01D30B8803806046704700BFB8
:104EC000082A13D38B078DD010F003038AD0C3F1C7
:104ED0000403D21ADB071CBF11F8013B00F8013BA9
:104EE00080D331F8023B20F8023B7BE7043AD9D368
:104EF000013A11F8013B00F8013BF9D20B7803703D
:104F00004B7843708B78837060467047024A137801
:104F100013F0010FFBD070470100024010B584B0C0
:104F2000174B6C46186859689A68DB680FC4154BB4
:104F30001B7813F0020F19D08022134B1A70332202
:104F400004331A700322013B1A7072B66B4643F0A9
:104F500001030E4C2046984762B6237813F0700385
:104F600004D0237009E0013B03D106E044F621633D
:104F700004490A7812F0010FF5D004B010BD00BF4B
:104F80001426010001000240070002400000024018
:104F900010B50446B0F5006F0AD2064B1B7813F02B
:104FA000010F01D1FFF7BAFF04F1A054207810BD22
:104FB000002010BD0100024038B504460D46B0F592
:104FC000006F0ED2074B1B7813F0010F01D1FFF7D2
:104FD000A5FF04F1A0542378AB4202D02570FFF75F
:104FE00095FF38BD01000240024B1A6801321A6079
:104FF000704700BF84B2FF1F08B50D4C236813F43F
:10500000802F01D001F080F9236813F4806F01D064
:1050100000F046FD236813F4006F01D001F010F892
:10502000236813F4805FE9D002F0DAFAE6E700BF04
:105030003480044008B5FFF7DFFF00BF1022014BAA
:105040001A80704700200540704700BF024A13686D
:105050001844106018467047A48DFF1FEFF31383A8
:10506000ABB9EFF31083ABB9EFF3058323B10F2B8B
:1050700005D9094A985C03E04FF4807000E00020F5
:10508000EFF311833BB1834238BF184670474FF0AE
:10509000FF30704700207047F0E300E0044B00222F
:1050A0001A6004490A60044A106010221A607047AE
:1050B00014D0034004D0034000D0034018B110289E
:1050C00028BF102000E00120014B1870704700BF7E
:1050D000A88DFF1F2DE9F84380460D46084642493A
:1050E00006F008FA002814BF4FF002094FF001093A
:1050F0003E4B47F61226002808BF1E46304606F0F3
:1051000003F84FF05E5106F057F80146284606F0C6
:1051100005FA90B901244FF05E5726FA04F005F025
:10512000F3FF394606F048F80146284606F0F6F93E
:1051300020B90134072CF0D100E0002426FA04F055
:1051400005F0E2FF294606F0EBF84FF07C5105F040
:1051500029FF06F01DFA4FF6FF73984238BF034649
:10516000A8F10302D2B2012A0DD8214A0021116010
:105170002048016020490B6004F0070444EAC90498
:105180001460BDE8F883A8F10902D2B2012A09D956
:10519000A8F11402D2B2032A04D9A8F10502D2B2AE
:1051A000012A0DD8154A00211160154801601549E2
:1051B0000B6004F0070444EAC9041460BDE8F883F6
:1051C000B8F1200F02D0B8F1190F0BD10E4A00210F
:1051D00011600E4801600E490B6004F0070343EABA
:1051E000C9031360BDE8F883001BB740006CDC0204
:1051F0000090034004900340089003400080034067
:10520000048003400880034000800B4004800B4072
:1052100008800B4021281ED80F4B53F8303093F8EC
:10522000802212F0FF0F08D019B1012283F88020EC
:105230007047012283F800217047074B03EBC00041
:10524000436821B11A6842F003021A6070471A6875
:1052500022F002021A6070472426010021281CD87F
:105260000E4B03EBC0035B68012908D10B4A52F8CF
:10527000302082F880124FF4A2721A607047074AF9
:1052800052F83020002082F8800219B94FF4807261
:105290001A60704740F203121A607047242601001A
:1052A00010B5044628280FD15D4B1B780B2B03D873
:1052B000C3F10C03994003E00C2B84BF0C3B194154
:1052C000084601F07DFF10BD554B1B78012202FA04
:1052D00003F0002908DC20460021FFF79BFF204651
:1052E0000121FFF7BBFF10BD0A46884208D82046BF
:1052F0000121FFF78FFF20460121FFF7AFFF10BD0F
:10530000E01EC0B2012806D84648006800FB011222
:1053100022FA03F310E0202C01D0192C06D14248C8
:10532000006800FB022222FA03F305E03F48006810
:1053300000FB011222FA03F3E01E1D2864D8DFE807
:1053400000F0474E402B63631D2463636363636314
:1053500063636332390F16635C636363636363552E
:10536000334A136040F24442324B1A6010BD324A55
:10537000136040F24442314B1A6010BD304A136052
:1053800040F244422F4B1A6010BD2F4A136040F286
:1053900044422E4B1A6010BD2D4A136040F2444225
:1053A0002C4B1A6010BD2C4A136040F244422B4B28
:1053B0001A6010BD2A4A136040F24442294B1A6019
:1053C00010BD294A136040F24442284B1A6010BDB8
:1053D000274A13604FF45172264B1A6010BD264ABB
:1053E00013604FF45172254B1A6010BD244A1360AC
:1053F0004FF45172234B1A6010BD234A13604FF4CF
:105400005172224B1A6010BD20467F29D4BF002163
:105410000121FFF7FFFE20460121FFF71FFF10BD0E
:10542000A88DFF1F0890034008800B4008800340B0
:105430001080034004B004401880034008B00440CA
:10544000208003400CB004402880034010B004408A
:105450003080034010C004403880034014C0044032
:105460004080034018C00440488003401CC00440F2
:105470001090034030900440189003403490044052
:1054800010800B4048A0044018800B404CA0044002
:1054900072B60C4B1B680C4A12680C49096862B65C
:1054A00011F0806F02D0322B88BF0132C3F5BB33BD
:1054B000FF330749A1FB03039B094FF47A7000FBFC
:1054C0000230704718E000E084B2FF1F04ED00E0F6
:1054D000ABAAAAAA38B50546FFF7DAFF044665B1BC
:1054E000FFF7D6FF001BB0F57A7F03D3013D04D050
:1054F00004F57A7401F0B8FDF2E738BD10B5254B1C
:105500004FF400021A604FF080721A604FF0007280
:105510001A604FF080621A604FF000621A6000203B
:105520001D4B18604BF6FF710433196028231B4A8A
:1055300013600832136008321360083213600832B7
:1055400013600832136008321360083213600922B6
:10555000134C226004F5805404342060043421602C
:105560000434236008342360143C226004F5FE24D4
:10557000043420600B4801600B490B6008310B605C
:105580000A4B1A6001F092FDFA20FFF7A3FF01F029
:1055900033FA10BD08E100E0048003400C800340B2
:1055A0000080034008800B400C800B4000800B40C3
:1055B000194B1A6842F480621A600023174A13706C
:1055C000174A1370174A1370174A1370174A13704B
:1055D00040F21332164B1A604FF4517204331A60C2
:1055E000C0F34432134B1A70C0F347125A7000F0E4
:1055F0001F00987204229A700221D9745A75882269
:105600001A743C22DA7040220B4B1A704FF400528D
:10561000A3F229331A6070473480044010B3FF1F8F
:105620008DB2FF1F18B3FF1F11B3FF1F8CB2FF1FF6
:1056300040A0044000A006402DE400E0164B9B78FB
:1056400003F0EC0300F00302134310F0040F18BF43
:1056500043F01003104A937000F00F03042B04D1A1
:105660001346927942F040029A710B4B5A7902F03C
:10567000EF0210F0100F18BF42F01002064B5A71E3
:105680009B7903F0EF0310F0200F18BF43F01003D5
:10569000014A9371704700BF00A0064010B5144B3B
:1056A0001B6813F4806F21D0124B1B7813F0FF0F8F
:1056B00006D0104C01F0D8FC237813F0FF0FF9D17D
:1056C0004FF400520C4B1A6000230C4AD37040F286
:1056D00003120B490A6004310A600A4A13700A4A2D
:1056E00013700A4B1B680BB101221A7010BD00BF6A
:1056F000348004408CB2FF1F84E100E000A006402B
:1057000040A0044010B3FF1F8DB2FF1F88B2FF1FDF
:1057100010B50446094A137813F0FF0FFBD1204659
:105720000121FFF79BFD20460021FFF773FD044B8D
:1057300053F83420034B1A6010BD00BF8CB2FF1F1A
:105740002426010014B3FF1F10B50D4B1B6813F482
:10575000806F12D021280CD80A4C0B4B53F83030F4
:1057600023600121FFF77AFD236800221A700120CF
:1057700010BD0020034B186010BD002010BD00BFFD
:105780003480044088B2FF1F24260100114B1B689F
:1057900013F4806F1BD0122804D140F202320E4B5A
:1057A0001A600DE0142804D140F202320B4B1A604B
:1057B00006E00B4B5A7B02F0FE025A730020704742
:1057C000074B5A7B42F001025A73012070470020B8
:1057D000704700BF348004400CA0044014C0044053
:1057E00000A006402DE9F04107461F4B1B6813F44B
:1057F000806F37D01D4B1B680BB101221A701C4BF8
:105800001C780134402C28BF00241A4D1A4EDFF8B2
:105810006C8017E0FFF722FC40280FDC337913F08F
:10582000800F0FD02B780133402B28BF002318F8AE
:105830000320D2B2F271DBB22B7003E0FF2801DD4E
:1058400001F012FC2B78DBB29C42E3D0FFB20B4B91
:105850001F5501220A4B1A70E4B2054B1C70BC2282
:10586000054BDA70BDE8F0813480044014B3FF1FAB
:1058700018B3FF1F11B3FF1F00A0064090B2FF1F17
:105880008CB2FF1F2DE9F84F0746284B1B6813F415
:10589000806F49D0264B1B680BB101221A7007EBB1
:1058A000010B5F453DD2DFF89890224EDFF88C80E7
:1058B000DFF890A099F800400134402C28BF002464
:1058C0003578EDB2A54220D1BC2388F80330FFF72C
:1058D000C5FB402811DC98F8043013F0800F10D07D
:1058E00033780133402B28BF00231AF80320D2B2AB
:1058F00088F80720DBB2337003E0FF2801DD01F0F8
:10590000B3FB3378DBB29D42E1D017F8013B0AF8D4
:1059100004300122084B1A70E4B289F800405F4558
:10592000C8D1BC22054BDA70BDE8F88F3480044042
:1059300014B3FF1F11B3FF1F8CB2FF1F00A006405E
:1059400018B3FF1F90B2FF1F10B5064B1B7813F062
:10595000FF0F06D0034C01F087FB237813F0FF0FF5
:10596000F9D110BD8CB2FF1F064B1B78DBB2064A83
:105970001278D2B293422CBF3F3202F1FF32D01ADA
:10598000704700BF18B3FF1F11B3FF1F054B1878F6
:10599000C0B2054B1B78DBB2984238BF4030C01A0A
:1059A000704700BF10B3FF1F8DB2FF1F10B4184B1C
:1059B0001A78D2B2174B1B78DBB29A4218D0013357
:1059C0003F2B18D81449C85CC0B2DCB211490C7026
:1059D00012490968C9B19A4203D300E00023D31ADF
:1059E00001E04032D31A1A2B0FDC00230B700CE0BD
:1059F0004FF0FF3009E0084B1878C0B20021054B8A
:105A00001970064B19680029E8D15DF8044B7047FE
:105A100010B3FF1F8DB2FF1FD0B2FF1F88B2FF1F50
:105A2000094B1A78D2B2094B1B78DBB29A4207D0E5
:105A30000133402B28BF0023054AD05CC0B2704719
:105A40004FF0FF30704700BF10B3FF1F8DB2FF1F34
:105A5000D0B2FF1F0D4B1B6813F4806F14D00C4B9A
:105A6000DA7802F0CB02DA7040225A74DA7842F027
:105A70003402DA70074B1A78D2B2074B1A70074B10
:105A80001B680BB100221A70704700BF34800440BD
:105A900000A006408DB2FF1F10B3FF1F88B2FF1F8A
:105AA00070B43D4B1B7913F0300F33D072B63A4BC4
:105AB0009B7D03F0FF022BB9374BDA7940225A74F1
:105AC00062B627E062B6354B1978C9B2344B1C7800
:105AD000E4B2314D334EEB79D8B24B1C402B28BF8A
