:1000000000800020BD010000354A0000F9490000D1
:10001000F9490000F9490000F9490000F9490000D8
:10002000F9490000F9490000F9490000354A00008B
:10003000354A0000F9490000354A0000E94900004E
:10004000354A0000354A0000354A0000354A0000B4
:10005000354A0000354A0000354A0000354A0000A4
:10006000354A0000354A0000354A0000354A000094
:10007000354A0000354A0000354A0000354A000084
:10008000354A0000354A0000354A0000354A000074
:10009000354A0000354A0000354A0000354A000064
:1000A000354A0000354A0000354A0000354A000054
:1000B000354A0000354A0000354A0000354A000044
:1000C000354A0000354A0000354A0000354A000034
:1000D000354A0000354A0000354A0000354A000024
:1000E000354A0000354A0000354A0000354A000014
:1000F000354A0000A1540000354A0000415A000072
:10010000354A0000556F0000354A0000354A0000AE
:10011000354A0000354A0000354A0000354A0000E3
:10012000354A0000354A0000354A0000354A0000D3
:10013000354A0000354A0000354A0000354A0000C3
:10014000354A0000354A0000354A0000354A0000B3
:10015000354A0000354A0000354A0000354A0000A3
:10016000354A0000095D0000354A0000354A0000AC
:10017000354A0000354A0000354A0000354A000083
:10018000354A0000354A0000354A0000354A000073
:10019000354A0000354A0000354A0000354A000063
:1001A000354A0000354A0000354A0000354A000053
:1001B000354A0000354A0000354A0000574B4CF2E2
:1001C000205210B51A804DF628121A8000BF00BFC9
:1001D00004F034FC524B4FF010621A60514A9A609E
:1001E000514ADA60A3F53043203B1A6812F480725A
:1001F00004D14E490A604FF4A8521A604C4B1A7849
:10020000110703D51A7842F008021A70494B4A4C7C
:100210004A482A221A704A4A00239918A14203D256
:10022000195899500433F8E7464B474900228B424E
:1002300002D243F8042BFAE74448454900235A58B0
:100240001A500433B3F5DE7FF9D1424B424A802184
:1002500003F8011B9342FBD1404B3C4A1A60404BD0
:100260000A221A70A3F5805324225A70A0221A7011
:100270009A799207FCD59A79D406FCD4394A9379B5
:1002800003F00C03082B374BF9D103221A714022DB
:100290005A719A799006FCD5324A9179314B4906C8
:1002A000FBD5314A314911600221516020221A7078
:1002B0009A7902F00C020C2AFAD12D4B2D4A1A60C1
:1002C0002D4B2E4A1A6000225A60072243F8042C54
:1002D0002B4AC3F80C2D62B604F010FE134B1B68BA
:1002E000DA0705D5274804F0D9FB274B274A1A60BF
:1002F000274B1B785B0609D5234C244A236893427D
:1003000004D1204804F0CAFB002323600AF036FE23
:1003100004F09AFB06F046FBFEE700BF0E20054006
:1003200030800440823F04000100002B14D00340C1
:1003300002D0074000E007409892FF1FF823010019
:100340006089FF1F9892FF1FC4A0FF1F0084FF1F3A
:100350000000000000E400E05FE400E008ED00E0E1
:100360000050064000400640448004400000030165
:1003700004800440C010050014E000E0FF76010096
:100380000000202091409B561CE00340A5C3945AD6
:1003900000F00740FFFFFFFFFFFFFFFFFFFFFFFF32
:1003A000FFFFFFFFFFFFFFFFFFFFFFFFFFFFFFFF5D
:1003B000FFFFFFFFFFFFFFFFFFFFFFFFFFFFFFFF4D
:1003C000FFFFFFFFFFFFFFFFFFFFFFFFFFFFFFFF3D
:1003D000FFFFFFFFFFFFFFFFFFFFFFFFFFFFFFFF2D
:1003E000FFFFFFFFFFFFFFFFFFFFFFFFFFFFFFFF1D
:1003F000FFFFFFFFFFFFFFFFFFFFFFFFFFFFFFFF0D
:10040000FFFFFFFFFFFFFFFFFFFFFFFFFEFFFFFFFD
:1004100010B5054C237833B9044B13B10448AFF33E
:1004200000800123237010BD9892FF1F0000000080
:10043000F023010008B5064B1BB106480649AFF38F
:1004400000800648036813B1054B03B1984708BD07
:1004500000000000F02301009C92FF1F9892FF1FF4
:1004600000000000044B1A68B2F8C82202601B6842
:10047000B3F9CA320B607047909DFF1F30B4124C25
:100480002568D5F83C5205602068D0F8380208602D
:100490002168D1F840120D4880FB0150C917C1EB0B
:1004A000A00111602268D2F8442202EB82025200BD
:1004B0001A602368D3F85032642202FB03F2029BD5
:1004C0001A6030BC704700BF909DFF1F676666666C
:1004D000024B1B6893F9343203607047909DFF1FF5
:1004E00038B504460D46084B1B68D3F85C02074933
:1004F0000AF01EFB0AF0E2FC2860054B1846197D45
:1005000000F09AF9206038BD909DFF1F0000C8429E
:10051000B492FF1F10B50446024800F07BFB206038
:1005200010BD00BFCC92FF1F38B50546012004F076
:100530002FFA20B10B4B18680B4900F0EFFB094C68
:1005400020680A4900F0ECFB2068094900F0EAFB4A
:100550002068084900F0E8FB2068074900F0E6FB46
:10056000284638BD749DFF1FE104000065040000AB
:100570007D04000015050000D104000008B5044802
:1005800000F09CF80120014604F016FA08BD00BFF7
:10059000B492FF1F08B5024800F0DEF808BD00BFA6
:1005A000B492FF1F08B504F0B9F9034800F0C8F988
:1005B000024800F0A1F808BDCC92FF1FB492FF1FC3
:1005C00070B582B0094B1E68037B50F823508468D5
:1005D000006909F019FECDE90001304604492A46B8
:1005E000234602F01BF802B070BD00BF849DFF1FC0
:1005F000900D010038B504460D4600680BF056FA20
:1006000030B1606829460BF051FA20B9012000E0B2
:100610000020C0B200E0FF2040B238BD08B58068BD
:100620000BF044FA003018BF0120404208BD00BF63
:1006300008B508460AF08EFC0AF01CF906F064FFC3
:1006400006F0DCFE40B208BD2DE9F0410446164636
:100650001F46FFF7CFFF054620463146FFF7DEFF76
:10066000064620463946FFF7E3FF0746002D1CDB10
:10067000002E1DDB06F1040804EB48039D801036B4
:1006800076003046E9B204F097F938460AF0FCF9F2
:100690000146094806F0A2FF44F82800701CF9B290
:1006A00004F08AF90120BDE8F0810020BDE8F08166
:1006B0000020BDE8F08100BF0000204138B50546AC
:1006C0000120014604F078F9064C28460649074AFD
:1006D0002346FFF7B9FF28460549064A2346FFF798
:1006E000B3FF38BDC80D0100A80D0100B80D010011
:1006F000D00D0100DC0D010038B5044600258582CF
:10070000114B0360114B4360114B8360202004F0B8
:100710003FF9A081212004F03BF940B20AF0B4F97E
:1007200001460C4806F05AFF2061284604F030F9D3
:10073000592806D02046FFF7C1FF2846592104F06A
:100740003BF9204638BD00BFF40D0100A80D0100A3
:10075000B80D010000002041F0B583B0074600202D
:1007600023490CF005FB044618B93846FFF728FF6B
:100770003BE000201E490CF0FBFA054628B91D4B52
:1007800018681D4901F04AFF2FE0002018490CF0BD
:10079000EFFA0646A0B9384621462A46174BFFF71E
:1007A00053FF28B9134B1868154901F037FF1CE0B7
:1007B000104B1868134922462B4601F02FFF14E016
:1007C000384621462A463346FFF73EFF28B9094BF3
:1007D00018680B4901F022FF07E0064B18680096E5
:1007E000094922462B4601F019FF03B0F0BD00BFB6
:1007F0000C0E0100849DFF1F100E01004C0E010025
:10080000500E0100900E0100C00E010008B511B19C
:10081000012905D00BE0074B1B68D3F8B00208BDD7
:10082000044B1B68D3F858020AF048FB08BD0020AF
:1008300008BD00BF909DFF1F38B504460D1D00EB9D
:1008400045031979FFF7E2FF0AF01EF954F8251065
:100850000AF06EF906F0D2FD38BD00BF08B504F00D
:100860005DF808BD0D220270002242758275C275C6
:100870000276704701444A70704700BF014400236C
:100880004B70704700234375C218527822B1427DE5
:10089000511C41750244D37201330A2BF4D17047C5
:1008A00010B50446037E052B49D8DFE803F0031B8F
:1008B0002731383F437D73B1827D9A4203D30023B1
:1008C0008375FFF7DFFFA37D2344DB7A013BE375EC
:1008D0000123237601E0FFF7D5FF2078012104F002
:1008E00099F910BD0078002104F094F9E37D13B16B
:1008F0000223237610BD0323237610BD0078012147
:1009000004F088F9E37D013BE3750123237610BDF4
:100910000078002104F07EF90423237610BD0078CE
:10092000002104F077F90523237610BD007800211B
:1009300004F070F900232376A37D0133A37510BD65
:10094000002280F80028A0F80228A0F80428A0F8C7
:10095000062870472DE9F04180460E4600242746C0
:1009600010E0735DA3F12002D2B25E2A09D87A1C8E
:10097000B8F8061801F00F0107EBC11708F80730A7
:1009800097B20134A5B230460BF09EF98542E8D308
:10099000B8F8063803F00F0207EBC217002208F878
:1009A00007200133A8F80638BDE8F08108B50846ED
:1009B0000DF0A0FCC0B2A0F14103DBB2192B02D8AC
:1009C0004038C0B208BDA0F13003DBB2092B02D819
:1009D0001538C0B208BD1F2810D82D2810D82B28D4
:1009E00010D83C2810D8392810D8202810D82C2806
:1009F00010D82B2834BF3F202C2008BD252008BD4F
:100A0000262008BD272008BD282008BD292008BDB4
:100A10002A2008BD2B2008BDF8B50446B0F80458BC
:100A2000B0F80638AB421CD090F8006805F00F070C
:100A300000EBC7100BF048F9864206D30135A4F845
:100A40000458002084F80008F8BD731C84F80038AE
:100A500006EBC716A15D204601F07F01FFF7A6FF58
:100A6000F8BD0020F8BD00BF38B50C460846214946
:100A70000AF010FA60B120461F490AF015FA00B1D9
:100A80001D4C20461D490AF007F90446022518E0CE
:100A900020461B490AF0FEF930B1204619490AF0F8
:100AA000FBF8044601250CE0204614490AF0F2F94F
:100AB00030B9204613490AF03BF80446032500E00C
:100AC0000025204600210AF0E5F938B120464FF014
:100AD0007C5109F025FF0AF0F1F906E020464FF0BD
:100AE0007C5109F01BFF0AF0E9F9C0F3090000EBA3
:100AF000852038BD00401C4600CEC7470000C842D4
:100B000000007A440000204170B505460C460F29CC
:100B10006FD8DFE801F00814196E1E272C31363B20
:100B200043484E595E69FFF777FF0646002862D0BA
:100B30002846FFF771FF40EA861080B25CE0B0F80B
:100B40000208C0F30B0057E0304B1B68B3F8DA0221
:100B500052E02E4B1B68B3F848022D4BA3FB00203C
:100B6000C00849E0294B1B6893F8350244E0274B45
:100B70001B6893F836023FE0244B1B6893F82A0267
:100B80003AE0224B1B68B3F82C0235E01F4B1B6880
:100B9000D3F858020AF092F980B22DE01B4B1B6883
:100BA000B3F8B00228E0194B1B6893F9340280B205
:100BB00022E0164B1B68B3F8B40209F061FF01464E
:100BC0002846FFF751FF17E0104B1B68B3F8D4021B
:100BD00012E00E4B186802F0F3FA09F051FF0146DB
:100BE0002846FFF741FF07E0084B1B68B3F8D8021F
:100BF00002E0002000E00020240340F6FF7398424A
:100C000094BF204344EA030080B270BD909DFF1F53
:100C1000CDCCCCCC38B50446244B1B6893F82A12B3
:100C2000234A1278914209D00721FFF76DFF1F4B2D
:100C30001B6893F82A221E4B1A7038BDB3F82C2279
:100C40001C4B1B789A4209D00821FFF75DFF174B18
:100C50001B68B3F82C22174B1A7038BD164B1B7843
:100C6000CBB9B0F80428B0F806389A420CD112E09B
:100C70000122124B1A70B4F802381344A4F8023857
:100C800000220D4B1A7038BD0021FFF73DFF0122F5
:100C9000094B1A7038BD094D29784B1C2B70204622
:100CA000FFF732FF2B780F2BE2D8E9E7909DFF1F6B
:100CB000D69AFF1FD59AFF1FD49AFF1F6489FF1F82
:100CC00010B5044600238370C370037143718360C1
:100CD000C360036143618361C361036243628362F2
:100CE000C362036340F6055004F062F9034B10221F
:100CF0009A71A02199705A71204610BD00A006403B
:100D000008B5054B18680C2101F042FCB0F5966F50
:100D1000ACBF0020012008BD8C9DFF1F41637047C0
:100D200081637047C16370470164704741647047D5
:100D30000388194401EB112101F0FF010180704784
:100D400070B505460C467E290BD1114E33681B68E1
:100D500030467D21984733681B6830465E219847AE
:100D600010E07D290BD10A4E33681B6830467D2187
:100D7000984733681B6830465D21984702E0084673
:100D800004F030FA28462146FFF7D2FF70BD00BFBD
:100D9000C09FFF1F10B5044605480368B4F9001052
:100DA000C1F1FF011B68C9B298470023238010BD21
:100DB000C09FFF1F30B583B004460092ADF8061007
:100DC000184DAB7943F02003AB711021FFF7B8FF4A
:100DD00020469DF80610FFF7B3FF20469DF8071048
:100DE000FFF7AEFF20469DF80010FFF7A9FF204651
:100DF0009DF80110FFF7A4FF20469DF80210FFF7B1
:100E00009FFF20469DF80310FFF79AFF2046FFF74B
:100E1000C1FF04F099FAAB7983F02003AB7103B002
:100E200030BD00BF00A0064030B583B00446ADF829
:100E30000610164DAB7943F02003AB710021FFF78C
:100E40007FFF20469DF80610FFF77AFF20469DF8A9
:100E50000710FFF775FF20460021FFF771FF2046BE
:100E60000021FFF76DFF20460021FFF769FF2046B4
:100E70000021FFF765FF2046FFF78CFF04F064FABE
:100E8000AB7983F02003AB7103B030BD00A0064006
:100E900070B582B00446A84B1D68452900F07681E4
:100EA00003D849B1222946D08EE1832900F08280FF
:100EB000E42900F04D8187E1A04B18680D2101F075
:100EC00053FB237913B1012B1ED07DE19C4B1B6892
:100ED000AB4213D2636B23B104F10C0004F108019F
:100EE000984720464FF48071E268FFF763FF05F5ED
:100EF000FA75934B1D600123237165E120464FF481
:100F00008071FFF791FF5FE18D4B1B68AB420CD204
:100F100020464FF48871A268FFF74CFF05F5FA757B
:100F2000874B1D60002323714EE120464FF48871EA
:100F3000FFF77AFF48E1814B18680E2101F014FB9E
:100F4000E37813B1012B1ED03EE17E4B1B68AB4210
:100F500013D2A36B23B104F1100004F114019847DC
:100F600020464FF404712269FFF724FF05F5FA7556
:100F7000744B1D600123E37026E120464FF4047199
:100F8000FFF752FF20E16F4B1B68AB420CD22046AB
:100F90004FF400716269FFF70DFF05F5FA75694BB3
:100FA0001D600023E3700FE120464FF40071FFF74E
:100FB0003BFF09E1614B18680F2101F0D5FA637915
:100FC000042B00F20181DFE803F003427188A000E6
:100FD0005D4B1B68AB4234D2E66B5EB104F1280373
:100FE000009304F1180004F11C0104F1200204F143
:100FF0002403B047A369002B0CDA5B42534A82FBFF
:101000000312DB17C3EB621303EB43035A0042F0F6
:1010100040420AE04D4A82FB0312DB17C3EB621326
:1010200003EB43035A0042F0004220464FF40061B4
:10103000FFF7C0FE05F5FA75434B1D600123637190
:10104000C2E020464FF40061FFF7EEFEBCE03E4BED
:101050001B68AB4224D2E369002B0CDA5B423B4AAB
:1010600082FB0312DB17C3EB621303EB43035A004B
:1010700042F0804208E0354A82FB0312DB17C3EBE3
:10108000621303EB43035A0020464FF40061FFF75D
:1010900091FE05F5FA752C4B1D600223637193E0F8
:1010A00020464FF40061FFF7BFFE8DE0264B1B6822
:1010B000AB420CD220464FF40261226AFFF77AFE5F
:1010C00005F5FA75204B1D60032363717CE0204613
:1010D0004FF40261FFF7A8FE76E01B4B1B68AB42A2
:1010E0000DD220464FF40361626AFFF763FE164B90
:1010F0001A6802F5FA721A600423637164E02046EC
:101100004FF40361FFF790FE5EE00F4B1B68AB42AC
:101110000CD220464FF40461A26AFFF74BFE05F59E
:10112000FA75094B1D60002363714DE020464FF4B2
:101130000461FFF779FE47E0C09DFF1F8C9DFF1FF4
:10114000DC9AFF1FD89AFF1FE89AFF1F1F85EB51FB
:101150001E4B1868102101F007FA1D4B1B68AB42AB
:101160000ED2236C13B104F12C00984720464FF4A3
:10117000A061E26AFFF71EFE6435154B1D6023E097
:1011800020464FF4A061FFF74FFE1DE00F4B18689B
:10119000112101F0E9F90F4B1B68AB420FD2636CD0
:1011A00013B104F13000984720464FF4C061226B20
:1011B000FFF700FE05F5FA75064B1D6004E02046BA
:1011C0004FF4C061FFF730FE02B070BD8C9DFF1F71
:1011D000E09AFF1FE49AFF1F2DE9F04105460F4FEB
:1011E0000C264FF0000813E004F0E0F8C4B23868B1
:1011F000314601F0B9F97E2C02D10123AB7007E032
:10120000AB782BB128462146FFF742FE85F80280D5
:1012100004F0BCF80028E7D1BDE8F0818C9DFF1FE9
:1012200010B40170427083705DF8044B704700BFCA
:1012300010B4016042608360019BC360029B036144
:10124000039B4361049B8361059BC361BDF8183018
:1012500003845DF8044B704700220270704700BFA2
:101260000378092B04D800EB83025160013303702B
:10127000704700BF2DE9F04387B006468946904687
:101280001F46242005F096FB05460E9B00930F9BFE
:101290000193109C0294119C0394129C0494BDF839
:1012A0004C300593494642463B46FFF7C1FF304666
:1012B0002946FFF7D5FF07B0BDE8F0830023037090
:1012C00043601946C21891600433642BFAD1704709
:1012D0002DE9F04F89B005460823037100246C27DF
:1012E000384605F067FB0646FFF7E8FF2B199E60BE
:1012F0000434202CF4D1012005F05CFB04460223C9
:1013000000930821054A064B03F034F82C60204670
:1013100003F046F80024264604E000BF0082FF1FC9
:10132000B09CFF1F28682146324603F0DBF90134E8
:10133000402CF7D1286803F071F9032005F03AFB3F
:101340008146FF2100221346FFF76AFF032005F0C4
:1013500031FB82460021FF220B46FFF761FF03208D
:1013600005F028FB804600210A46FF23FFF758FFBF
:10137000032005F01FFB0646FF210A460023FFF766
:101380004FFF032005F016FB044600210A460B46DA
:10139000FFF746FF032005F00DFB8346FF210A46B9
:1013A0000B46FFF73DFF2C2005F004FB0746FFF737
:1013B00053FF0094019402940394CDF810A00022EE
:1013C00005923846494622462346FFF753FFAB684D
:1013D0009F60EB689F602B699F606B699F602C200A
:1013E00005F0E8FA0746FFF737FF009401940294EE
:1013F000039404940023059338462146224623464D
:10140000FFF738FFAB68DF60EB68DF602B69DF60F8
:101410006B69DF602C2005F0CDFA0746FFF71CFF53
:10142000CDF800B0CDF804B0CDF808B0CDF80CB0D0
:10143000CDF810A000220592384649465A465B4630
:10144000FFF718FFAB681F61EB681F612B691F6115
:101450006B691F612C2005F0ADFA0790FFF7FCFEC9
:10146000009401940294039404944FF4167305932A
:101470000798214622462346FFF7FCFE009401947C
:1014800002940394CDF810A0642705970798494665
:1014900022462346FFF7EEFE009401940294CDF815
:1014A0000CB0CDF810A00597079849465A46234638
:1014B000FFF7E0FE00940194CDF808B0CDF80CB031
:1014C000CDF810A00597079849465A465B46FFF7A6
:1014D000D1FECDF800B0CDF804B0CDF808B0CDF80D
:1014E0000CB0CDF810A00597079849465A465B46C0
:1014F000FFF7C0FEAB68079A5A61EB685A612B6927
:101500005A616B695A612C2005F054FA8346FFF743
:10151000A3FE009401940294CDF80CA0CDF810A085
:1015200005975846214622462346FFF7A3FE00941E
:101530000194CDF808A0CDF80CA004940597584666
:10154000214622462346FFF795FE0094CDF804A0DD
:10155000CDF808A0039404940597584621462246E6
:101560002346FFF787FECDF800A0CDF804A0029433
:101570000394049405975846214622462346FFF7D4
:1015800079FECDF800A00194029403940494059789
:101590005846214622465346FFF76CFE00940194BC
:1015A00002940394049405975846214652465346A4
:1015B000FFF760FE0094019402940394049405974D
:1015C0005846514652462346FFF754FE0094019474
:1015D00002940394CDF810A0059758465146224630
:1015E0002346FFF747FEAB68C3F818B02C2005F080
:1015F000E1F98346FFF730FE0094019402940394CE
:1016000004940597584649464A462346FFF732FE5A
:10161000009401940294039404940597584621463B
:101620004A464B46FFF726FECDF8009001940294FF
:101630000394049405975846214622464B46FFF7EB
:1016400019FECDF80090CDF8049002940394049410
:1016500005975846214622462346FFF70BFE009485
:10166000CDF80490CDF8089003940494059758465B
:10167000214622462346FFF7FDFD00940194CDF854
:101680000890CDF80C9004940597584621462246C0
:101690002346FFF7EFFD009401940294CDF80C90DF
:1016A000CDF8109005975846214622462346FFF76D
:1016B000E1FD0094019402940394CDF810900597F5
:1016C0005846494622462346FFF7D4FDEB68C3F847
:1016D00018B02C2005F06EF98346FFF7BDFD00948D
:1016E00001940294CDF80C90CDF8109005975846CF
:1016F000214622462346FFF7BDFD00940194CDF814
:101700000890CDF80C90049405975846214622463F
:101710002346FFF7AFFD0094CDF80490CDF8089074
:101720000394049405975846214622462346FFF722
:10173000A1FDCDF80090CDF8049002940394049498
:1017400005975846214622462346FFF793FDCDF8DC
:1017500000900194029403940494059758462146FE
:1017600022464B46FFF786FD0094019402940394B1
:1017700004940597584621464A464B46FFF77AFDA2
:1017800000940194029403940494059758464946A2
:101790004A462346FFF76EFD009401940294039499
:1017A000CDF8109005975846494622462346FFF744
:1017B00061FD2B69C3F818B02C2005F0FBF88346B7
:1017C000FFF74AFD00940194029403940494059752
:1017D0005846514652462346FFF74CFD009401946B
:1017E0000294039404940597584621465246534662
:1017F000FFF740FDCDF800A00194029403940494F7
:1018000005975846214622465346FFF733FDCDF84B
:1018100000A0CDF804A002940394049405975846C0
:10182000214622462346FFF725FD0094CDF804A06B
:10183000CDF808A003940494059758462146224603
:101840002346FFF717FD00940194CDF808A0CDF8CA
:101850000CA0049405975846214622462346FFF7DC
:1018600009FD009401940294CDF80CA0CDF810A0CD
:1018700005975846214622462346FFF7FBFC009475
:10188000019402940394CDF810A005975846514650
:1018900022462346FFF7EEFC6B69C3F818B02C20F4
:1018A00005F088F88346FFF7D7FC00940194029472
:1018B0000394049405975846314632462346FFF771
:1018C000D9FC00940194029403940494059758461B
:1018D000214632463346FFF7CDFC00960194029430
:1018E0000394049405975846214622463346FFF751
:1018F000C1FC0096019602940394049405975846FF
:10190000214622462346FFF7B5FC00940196029635
:101910000394049405975846214622462346FFF730
:10192000A9FC0094019402960396049405975846E6
:10193000214622462346FFF79DFC00940194029421
:101940000396049605975846214622462346FFF7FC
:1019500091FC0094019402940394049605975846D0
:10196000314622462346FFF785FCAB68C3F81CB01E
:101970002C2005F01FF88346FFF76EFC00940194BD
:101980000294039404940597584631463246234600
:10199000FFF770FC0094019402940394049405975B
:1019A0005846214632463346FFF764FC00960194C0
:1019B00002940394049405975846214622463346E0
:1019C000FFF758FC0096019602940394049405973F
:1019D0005846214622462346FFF74CFC00940196C8
:1019E00002960394049405975846214622462346BE
:1019F000FFF740FC00940194029603960494059727
:101A00005846214622462346FFF734FC00940194B1
:101A1000029403960496059758462146224623468B
:101A2000FFF728FC00940194029403940496059710
:101A30005846314622462346FFF71CFCEB68C3F8A4
:101A40001CB02C2004F0B6FF8346FFF705FC009481
:101A50000194029403940494059758463146324603
:101A60002346FFF707FC0094019402940394049426
:101A700005975846214632463346FFF7FBFB009652
:101A800001940294039404940597584621462246F3
:101A90003346FFF7EFFB00960196029403940494FB
:101AA00005975846214622462346FFF7E3FB00945C
:101AB00001960296039404940597584621462246BF
:101AC0002346FFF7D7FB00940194029603960494F3
:101AD00005975846214622462346FFF7CBFB009444
:101AE000019402940396049605975846214622468F
:101AF0002346FFF7BFFB00940194029403940496DD
:101B000005975846314622462346FFF7B3FB2B691B
:101B1000C3F81CB02C2004F04DFF8346FFF79CFB5C
:101B20000094019402940394049405975846314616
:101B300032462346FFF79EFB0094019402940394DF
:101B4000049405975846214632463346FFF792FBE8
:101B500000960194029403940494059758462146F4
:101B600022463346FFF786FB0096019602940394C3
:101B7000049405975846214622462346FFF77AFBF0
:101B800000940196029603940494059758462146C2
:101B900022462346FFF76EFB0094019402960396BB
:101BA000049405975846214622462346FFF762FBD8
:101BB0000094019402940396049605975846214692
:101BC00022462346FFF756FB0094019402940394A7
:101BD000049605975846314622462346FFF74AFBAE
:101BE0006B69C3F81CB02C2004F0E4FE8346FFF7B9
:101BF00033FB00940194029403940494059758468F
:101C0000414642462346FFF735FB00940194029477
:101C10000394049405975846214642464346FFF7ED
:101C200029FBCDF800800194029403940494059755
:101C30005846214622464346FFF71CFBCDF800805C
:101C4000CDF80480029403940494059758462146E5
:101C500022462346FFF70EFB0094CDF80480CDF812
:101C6000088003940494059758462146224623464B
:101C7000FFF700FB00940194CDF80880CDF80C80AC
:101C8000049405975846214622462346FFF7F2FA68
:101C9000009401940294CDF80C80CDF81080059743
:101CA0005846214622462346FFF7E4FA0094019461
:101CB00002940394CDF81080059758464146224679
:101CC0002346FFF7D7FAAB68C3F820B02C2004F006
:101CD00071FE8346FFF7C0FA0094019402940394C6
:101CE000049405975846414642462346FFF7C2FAF8
:101CF0000094019402940394049405975846214655
:101D000042464346FFF7B6FACDF8008001940294AC
:101D10000394049405975846214622464346FFF70C
:101D2000A9FACDF80080CDF80480029403940494BD
:101D300005975846214622462346FFF79BFA009412
:101D4000CDF80480CDF80880039404940597584694
:101D5000214622462346FFF78DFA00940194CDF8E0
:101D60000880CDF80C8004940597584621462246F9
:101D70002346FFF77FFA009401940294CDF80C807B
:101D8000CDF8108005975846214622462346FFF796
:101D900071FA0094019402940394CDF81080059791
:101DA0005846414622462346FFF764FAEB68C3F8DB
:101DB00020B02C2004F0FEFD8346FFF74DFA00947E
:101DC0000194029403940494059758464146424670
:101DD0002346FFF74FFA009401940294039404946D
:101DE00005975846214642464346FFF743FACDF849
:101DF0000080019402940394049405975846214668
:101E000022464346FFF736FACDF80080CDF804802D
:101E1000029403940494059758462146224623468B
:101E2000FFF728FA0094CDF80480CDF808800394D9
:101E3000049405975846214622462346FFF71AFA8E
:101E400000940194CDF80880CDF80C800494059797
:101E50005846214622462346FFF70CFA0094019487
:101E60000294CDF80C80CDF8108005975846214695
:101E700022462346FFF7FEF900940194029403944E
:101E8000CDF8108005975846414622462346FFF775
:101E9000F1F92B69C3F820B02C2004F08BFD8346A8
:101EA000FFF7DAF9009401940294039404940597DF
:101EB0005846414642462346FFF7DCF90094019418
:101EC000029403940494059758462146424643469B
:101ED000FFF7D0F9CDF800800194029403940494A4
:101EE00005975846214622464346FFF7C3F9CDF8E9
:101EF0000080CDF80480029403940494059758461A
:101F0000214622462346FFF7B5F90094CDF8048018
:101F1000CDF808800394049405975846214622463C
:101F20002346FFF7A7F900940194CDF80880CDF877
:101F30000C80049405975846214622462346FFF715
:101F400099F9009401940294CDF80C80CDF810809A
:101F500005975846214622462346FFF78BF9009401
:101F6000019402940394CDF8108005975846414699
:101F700022462346FFF77EF96B69C3F820B02C2078
:101F800004F018FD8046FFF767F90094019402946D
:101F90000394049405974046214622462346FFF7C2
:101FA00069F9CDF800A0CDF804A0CDF808A0CDF8CF
:101FB0000CA0CDF810A00597404651465246534616
:101FC000FFF758F9AB68C3F824806B69C3F8248025
:101FD0002C2004F0EFFC8046FFF73EF9CDF800908E
:101FE000CDF80490CDF80890CDF80C90CDF8109075
:101FF0000597404649464A464B46FFF73BF9009451
:102000000194029403940494059740462146224685
:102010002346FFF72FF92B69C3F82480EB68C3F838
:1020200024802C2004F0C6FC8046FFF715F90094AC
:102030000194029403940494059740462146224655
:102040002346FFF717F9CDF800A0CDF804A0CDF88E
:1020500008A0CDF80CA0CDF810A005974046514639
:1020600052465346FFF706F9AB68C3F828806B6900
:10207000C3F828802C2004F09DFC8046FFF7ECF884
:1020800000940194029403940494059740462146D9
:1020900022462346FFF7EEF8CDF80090CDF80490E5
:1020A000CDF80890CDF80C90CDF8109005974046EB
:1020B00049464A464B46FFF7DDF82B69C3F82880AE
:1020C000EB68C3F828802C2004F074FC0446FFF76A
:1020D000C3F8009601960296039604960023059392
:1020E0002046314632463346FFF7C4F8AB68DC621F
:1020F0006B69DC622B69DC62EB68DC62284609B044
:10210000BDE8F08FF8B50746187802EB80025668F4
:10211000308C069A02445A60CD0000243359197855
:102120005A78120242EA01429B78386829461A43DB
:1021300002F0D8FA04340135202CEFD1F8BD00BFED
:102140002DE9F04383B08046704B1A68B2F8C6326E
:1021500040F219418B4240F28380A3F21A4189B2C6
:10216000632940F28180A3F27E4189B263297FD93D
:10217000A3F2E24189B263290DD84FF00109D2F8E8
:102180005C02634908F07CFE08B94FF000095FFA71
:1021900089F9032787E0A3F2465189B263296BD9F5
:1021A000A3F2AA5189B263290DD84FF00109D2F8E0
:1021B0005C02574908F064FE08B94FF000095FFA65
:1021C00089F905276FE0A3F20E6189B263290DD862
:1021D0004FF00109D2F85C024D4908F051FE08B9F0
:1021E0004FF000095FFA89F906275CE0A3F27261FB
:1021F00089B2632944D9A3F2D66189B2632943D94C
:10220000A3F23A7189B2632942D940F29D718B429F
:1022100042D9B2F82C32102B1ED8DFE803F0091D8A
:1022200041111D1D15191D1D1D1D1D1D1D1D0D00FF
:102230004FF00009042736E04FF00009082732E08C
:102240004FF0000909272EE04FF0000906272AE089
:102250004FF00009052726E04FF000094F4622E025
:102260004FF000094F461EE04FF0000901271AE029
:102270004FF00009022716E04FF00009042712E092
:102280004FF0000907270EE04FF0000908270AE089
:102290004FF00009092706E04FF000094F4602E021
:1022A0004FF0000907271B4B1E68454600247FB2EC
:1022B000AB68BA1C53F82220E2B15968B14219D870
:1022C000B9F1000F09D0117818780138084490FB53
:1022D000F1FE01FB1E01197007E01878013011783A
:1022E00090FBF1FE01FB1E0119700096404621464D
:1022F000FFF708FF01340435082CD9D1D8F80000C5
:1023000002F08CF903B0BDE8F08300BF909DFF1F81
:10231000CDCC4C3DC09DFF1FA1F13000C0B20928BB
:1023200012D9A1F16103DBB2052B03D8A1F157004B
:10233000C0B27047A1F14103DBB2052B03D8A1F174
:102340003700C0B270470020704700BF2DE9F04150
:1023500080460E461446084609F0B6FCA04238BF37
:10236000C4B2274664B10024204605014046315DD1
:10237000FFF7D2FF28440134BC42F6DBBDE8F08110
:102380000020BDE8F08100BF10B50C460B78702B23
:1023900006D101310222FFF7D9FF0E4B187010BD94
:1023A000732B06D101310222FFF7D0FF0A4B1880B0
:1023B00010BD612B0DD101310222FFF7C7FF074B82
:1023C0001870033400E00634204609F07DFC05282F
:1023D000F9D810BDEF9AFF1FEC9AFF1FEE9AFF1F6E
:1023E0000023C0F8A030C0F8A430C0F8A830C0F86E
:1023F000AC30C0F8B030C0F8B430C0F8B830C0F875
:10240000BC30C0F8C030C0F8C430C0F8C830C0F824
:10241000CC30C0F8D030C0F8D430C0F8D830C0F8D4
:10242000DC30021F034942F8041F11650133142BED
:10243000F9D17047816967FF0CB400B5C3B00129B9
:1024400008D1D0F8A430002B74D1D0F8A030002BE4
:1024500070D17EE0022908D1D0F8A830002B69D1D4
:10246000D0F8A030002B65D173E0042908D1D0F852
:10247000AC30002B5ED1D0F8A030002B5AD168E0F0
:10248000032908D1D0F8B430002B53D1D0F8A030B4
:10249000002B4FD15DE0062908D1D0F8B830002BD1
:1024A00048D1D0F8A030002B44D152E0072906D102
:1024B000D0F8BC30F3BBD0F8A030DBBB49E0082932
:1024C00006D1D0F8C030ABBBD0F8A03093BB40E011
:1024D0000A2906D1D0F8C43063BBD0F8A0304BBB7A
:1024E00037E00B2906D1D0F8C8301BBBD0F8A0309C
:1024F00003BB2EE0222906D1D0F8D030D3B9D0F8D2
:10250000CC30BBB925E01E2906D1D0F8D4308BB928
:10251000D0F8CC3073B91CE0202906D1D0F8D830DF
:1025200043B9D0F8CC302BB913E0282911D1D0F819
:10253000DC3073B145AA019202A844990BF000FF68
:10254000064B186828B1064B1A68064902AB00F022
:1025500065F843B05DF804EB02B07047849DFF1F3F
:10256000C09DFF1FEC0E010000EB81031A6D40F8C7
:102570002120024A12681A65704700BFC09DFF1FE4
:1025800000EB81031A6D50F82100101A704700BF4C
:10259000034B1B68143150F82100181A704700BF14
:1025A000C09DFF1F08B504F001F808BD08B503F091
:1025B000B1FF08BD08B503F0D9FF08BD08B504F0A8
:1025C0008DF808BD08B5084604F07CF808BD00BFCA
:1025D00008B50846114603F0F7FF08BD10B4002205
:1025E000C0F8802080F888204FF47A74C0F88C40BE
:1025F00080F89020084CC0F8844080F894200A7934
:1026000080F888208A68C0F88C200A7B80F89020A7
:102610005DF8044B704700BF000F01000EB430B5E9
:10262000C2B0044645AA52F8041B019202A80BF05E
:1026300087FE04F1840502A809F046FB0246D4F89F
:1026400084305B68284602A9984742B0BDE8304014
:1026500003B0704710B504461649174AFFF7DEFF6E
:1026600020461649FFF7DAFF20461549FFF7D6FF47
:1026700020461449FFF7D2FF20461349FFF7CEFF4B
:1026800020461249FFF7CAFF20461149FFF7C6FF4F
:1026900020461049FFF7C2FF20460F49FFF7BEFF53
:1026A00020460E49FFF7BAFF20460D49FFF7B6FF57
:1026B00010BD00BFF00E0100180F0100300F010027
:1026C0008C0F0100B80F0100D00F0100D80F0100DE
:1026D000E40F0100EC0F0100301001006010010058
:1026E0008010010070B505460C4616460846144990
:1026F00009F0DCF930B90123336028461149FFF7AE
:102700008DFF70BD2046104909F0D0F930B9002383
:10271000336028460D49FFF781FF70BD54B9346816
:1027200028460B49064B084A002C18BF1A46FFF7EB
:1027300075FF70BD28460749FFF770FF70BD00BFE9
:102740008C10010094100100901001009C100100F9
:10275000F00E0100A410010070B582B004463E4D99
:102760002B68B3F8300208F08FF93C4908F094FA6E
:1027700007F04AFD02460B4620463949FFF74EFF57
:102780002B68B3F9320208F07FF9364908F084FA71
:1027900007F03AFD02460B4620463349FFF73EFF5D
:1027A0002B682046314993F93422FFF737FF2B6815
:1027B000B3F8480208F068F92A4908F06DFA07F002
:1027C00023FD02460B4620462949FFF727FF2B68C9
:1027D0002046284993F83622FFF720FF264E2B6823
:1027E00020463146B3F87622FFF718FF2B68D3F85E
:1027F000580207F009FD02460B4620461F49FFF725
:102800000DFF2B6820461E49D3F8B022FFF706FFC4
:102810002B6820463146B3F87622FFF7FFFE296881
:10282000B1F96022B1F96232B1F964120091204627
:102830001449FFF7F3FE286800F0C2FC0246204668
:102840001149FFF7EBFE2B6820461049B3F8C6226A
:10285000FFF7E4FE02B070BD909DFF1F00007A44B8
:10286000B81001000000C842DC1001000011010096
:1028700020110100441101006411010084110100C4
:10288000A4110100C4110100F81101001812010087
:1028900038B504464D4D28680021FFF771FE024609
:1028A00020464B49FFF7BAFE28680121FFF768FE72
:1028B000024620464749FFF7B1FE28680221FFF78C
:1028C0005FFE024620464449FFF7A8FE2868032120
:1028D000FFF756FE024620464049FFF79FFE286854
:1028E0000421FFF74DFE024620463D49FFF796FEC4
:1028F00028680621FFF744FE024620463949FFF7C3
:102900008DFE28680521FFF73BFE0246204636492A
:10291000FFF784FE28680721FFF732FE02462046B3
:102920003249FFF77BFE28680821FFF729FE02469F
:1029300020462F49FFF772FE28680921FFF720FE85
:10294000024620462B49FFF769FE28680A21FFF757
:1029500017FE024620462849FFF760FE28680B2133
:10296000FFF70EFE024620462449FFF757FE28686F
:102970000D21FFF705FE024620462149FFF74EFED6
:1029800028680E21FFF7FCFD024620461D49FFF78F
:1029900045FE28680F21FFF7F3FD024620461A493D
:1029A000FFF73CFE28681021FFF7EAFD02462046AB
:1029B0001649FFF733FE28681121FFF7E1FD0246B3
:1029C00020461349FFF72AFE38BD00BF8C9DFF1F2C
:1029D000381201005812010078120100981201000B
:1029E000B8120100D8120100F812010018130100FA
:1029F00038130100581301007813010098130100E7
:102A0000B8130100D8130100F813010018140100D5
:102A10003814010038B50446002016490AF0A8F918
:102A2000154909F043F818BB12490AF0A1F9054607
:102A300088B1124909F03AF820B90120014601F0A5
:102A4000BBFF08E028460E4909F030F818B901200C
:102A5000002101F0B1FF012001F09AFF20B12046D2
:102A60000849FFF7DBFD38BD20460749FFF7D6FDD3
:102A700038BD00BF0C0E01005814010060140100A5
:102A800068140100701401008814010010B5044698
:102A90000348FDF773FD20460249FFF7BFFD10BD57
:102AA0007C9DFF1FA014010038B5054608469549D6
:102AB0000AF05EF90446002800F0B781924908F058
:102AC000F5FF002840F076818E490AF051F904465E
:102AD0008E4908F0EBFF002840F0C48089490AF0D5
:102AE00047F904468A4908F0E1FF58B985490AF0D8
:102AF0003FF90146874B1A682846A032864BFFF7FC
:102B0000F1FD38BD2046854908F0D0FF58B97D4910
:102B10000AF02EF901467F4B1A682846A432804BF2
:102B2000FFF7E0FD38BD20467E4908F0BFFF58B9E9
:102B300074490AF01DF90146764B1A682846A832F6
:102B4000794BFFF7CFFD38BD2046784908F0AEFF3E
:102B500058B96C490AF00CF901466E4B1A682846C0
:102B6000B432734BFFF7BEFD38BD2046714908F003
:102B70009DFF58B963490AF0FBF80146654B1A6896
:102B80002846AC326C4BFFF7ADFD38BD20466B4993
:102B900008F08CFF58B95B490AF0EAF801465D4B32
:102BA0001A682846B032664BFFF79CFD38BD2046B8
:102BB000644908F07BFF58B952490AF0D9F8014638
:102BC000544B1A682846B8325F4BFFF78BFD38BD6F
:102BD00020465E4908F06AFF58B94A490AF0C8F829
:102BE00001464C4B1A682846BC32594BFFF77AFD18
:102BF00038BD2046574908F059FF58B941490AF0F5
:102C0000B7F80146434B1A682846C032524BFFF7CB
:102C100069FD38BD2046514908F048FF58B9394987
:102C20000AF0A6F801463B4B1A682846C4324C4BC2
:102C3000FFF758FD38BD20464A4908F037FF58B91C
:102C400030490AF095F80146324B1A682846C832D6
:102C5000454BFFF747FD38BD284644492246FFF75C
:102C6000DDFC38BD2046424908F020FF002840F036
:102C70008F8024490AF07CF80446254908F016FFA5
:102C800058B920490AF074F80146224B1A682846C0
:102C9000CC32384BFFF726FD38BD2046364908F0C8
:102CA00005FF58B917490AF063F80146194B1A682D
:102CB0002846D032314BFFF715FD38BD204630494C
:102CC00008F0F4FE58B90F490AF052F80146114BCA
:102CD0001A682846D4322B4BFFF704FD38BD204636
:102CE000294908F0E3FE002840F09F8005490AF0DA
:102CF0003FF80146074B1A682846D832234BFFF7A6
:102D0000F1FC38BD0C0E0100C8140100D014010004
:102D1000D41401008C9DFF1FD8140100E0140100A1
:102D2000EC140100FC14010000150100081501005D
:102D300014150100241501002815010030150100AB
:102D4000341501003C150100441501005015010027
:102D500058150100641501006C150100781501007B
:102D6000841501009415010098150100A0150100BB
:102D7000B8150100C0150100CC150100D0150100E7
:102D8000DC150100E4150100F0150100F415010047
:102D90002046264908F08AFE002846D1244909F039
:102DA000E7FF0146234B1A682846DC32224BFFF727
:102DB00099FC38BD2046214908F078FE18B928460C
:102DC000FFF7CAFC38BD20461D4908F06FFE18B950
:102DD0002846FFF75DFD38BD20461A4908F066FE1B
:102DE00020B919482146FDF7D5FB38BD20461749C3
:102DF00008F05CFE18B92846FFF70CFE38BD2046E7
:102E0000134908F053FE18B92846FFF73FFE38BDB6
:102E10002046104908F04AFE18B92846FFF71AFC68
:102E200038BD28460C49FFF7F9FB38BD00160100F4
:102E30000C0E01008C9DFF1F0816010010160100EA
:102E400018160100201601007C9DFF1FB815010017
:102E5000241601002C160100341601002DE9F84358
:102E60000446DFF8B080284FDFF8AC9046E003F06E
:102E700051FB0546C0B20D2835D104F18405D4F8C4
:102E800084305B682846414602229847D4F8802067
:102E90000023A354C4F880302046394608F006FECB
:102EA00018B9012384F8943028E02046494608F0F8
:102EB000FDFD18B9002384F894301FE094F8943095
:102EC0002BB1124B18682146FFF75EFA16E0204638
:102ED0002146FFF7E9FDD4F884305B6828460C49A9
:102EE000012298470AE003F0EDFBD4F88060731CE0
:102EF000C4F88030E8B20BF0F1F9A05503F056FBAE
:102F00000028B4D1BDE8F88348160100789DFF1F62
:102F100064160100B40F01005816010008B501F055
:102F2000FDFC08BDFFFFFFFF10B504460021A0F81F
:102F30008811A0F88A11A0F80C12A0F80E12C0F89F
:102F40001012C0F81412C0F8181200F5087038A357
:102F5000D3E90023C0E9002384F8281284F8291259
:102F600084F82A12A4F82C1284F82E1284F82F1256
:102F7000A4F83012A4F8321284F8341284F835120E
:102F800084F83612C4F83812C4F83C12C4F840125F
:102F9000C4F84412A4F84812A4F84A120023C4F852
:102FA0004C32C4F85012A4F85412C4F85832C4F881
:102FB0005C32A4F86012A4F86212A4F86412C4F897
:102FC0006812C4F86C12C4F87012A4F87412A4F851
:102FD0007612A4F87812C4F8B012A4F8B412A4F8C7
:102FE000B612A4F8B812A4F8BA12A4F8BC12A4F845
:102FF000BE12A4F8C012A4F8C212A4F8C412A4F815
:10300000C612A4F8C812A4F8CA12C4F8CC12C4F8A4
:10301000D012C4F8D412A4F8D812A4F8DA12C4F862
:10302000DC1240F6055002F0CBFA204610BD00BF7E
:1030300000000000D012634170B4039CBDF9100081
:10304000B3F90060B4F90050354495FBF0F600FB8D
:10305000165522F81510228811B2884208DCB3F9FF
:103060000020013292FBF0F100FB1120188001E0FA
:103070000132228070BC7047F0B4BDF91460BDF914
:1030800010C06345B8BF9C46CCEB030080B204B2CD
:10309000A34211DD002502FA80F494FBF6F706FB4B
:1030A000174431F914402544013080B204B29C42E7
:1030B000F1D1002D01DA05E000250CEBDC73C3F340
:1030C0004F0305E0CCF1000303EBD373C3F34F03CD
:1030D00005FA83F595FBFCF000B2F0BC704700BF29
:1030E00008B5064B18680021FFF752FA40F6B733CF
:1030F0009842CCBF0020012008BD00BF8C9DFF1F5F
:1031000008B5064B18680221FFF742FA40F6B733BC
:103110009842CCBF0020012008BD00BF8C9DFF1F3E
:1031200008B5064B18680321FFF732FA40F6B733AB
:103130009842CCBF0020012008BD00BF8C9DFF1F1E
:1031400008B5064B18680621FFF722FA40F6B73398
:103150009842CCBF0020012008BD00BF8C9DFF1FFE
:1031600008B5064B18680421FFF712FA40F6B7338A
:103170009842CCBF0020012008BD00BF8C9DFF1FDE
:1031800008B5064B18680521FFF702FA40F6B73379
:103190009842CCBF0020012008BD00BF8C9DFF1FBE
:1031A00008B5064B18680B21FFF7F2F940F6B73364
:1031B0009842CCBF0020012008BD00BF8C9DFF1F9E
:1031C000D0F8DC02024BA3FB0020C0F3CF307047E5
:1031D000D55204E910B4094B1B68D0F8102242B153
:1031E0009A1AB0F9CA42D0F8DC1204FB0211C0F8F6
:1031F000DC12C0F810325DF8044B7047C09DFF1F11
:103200002DE9F84F14461D46DDE90CAB50465946F2
:1032100006F09AFE42A3D3E9002307F049F8002202
:10322000434B07F06FF90022424B07F041F804F0DE
:103230009BF8804689462046294639A3D3E90023D6
:1032400007F036F800223A4B07F05CF904F052F828
:1032500006460F465046594631A3D3E9002307F0EE
:1032600027F80022324B07F04DF904F043F882466C
:103270008B46DDE90E01DDE90A2306F065FE28A391
:10328000D3E9002307F014F80022294B07F03AF99C
:103290000022284B07F00CF804F066F804460D46AF
:1032A0004046494642464B4607F002F8804689466A
:1032B0003046394652465B4606F0FAFF22462B4618
:1032C00006F0F6FF02460B462046294606F0F0FFC0
:1032D00002460B464046494606F038FE04460D4677
:1032E00004F0BCF806460F460020134922462B4640
:1032F00006F02AFE04F0B2F802460B463046394684
:1033000004F0AAF802460B4606F020FE06A3D3E915
:10331000002306F0CDFFBDE8F88F00BFAFF30080BB
:1033200000000060FB21094000000000AE4D584144
:10333000008066400000E03F0000F03FAFF30080F7
:103340002DE9F04786B08246904699460846002906
:1033500033D0002A34D0002B35D00E9B002B35D033
:103360000AF50873D3E9004506F03CFF22462B46D8
:1033700007F0C8F806460F46404606F033FF2246DF
:103380002B4607F0BFF8CDE90001484606F02AFFBA
:1033900022462B4607F0B6F8CDE902010E9806F05A
:1033A00021FF22462B4607F0ADF8CDE90401504637
:1033B00032463B46FFF724FF0AE00020002107E0E9
:1033C0000020002104E00020002101E00020002175
:1033D00006B0BDE8F08700BF2DE9F04F87B010467A
:1033E00019464FA3D3E9002306F062FF00224E4B9B
:1033F00007F088F804460D46DDE9120148A3D3E939
:10340000002306F055FF0022474B07F07BF80646E5
:103410000F46DDE9140142A3D3E9002306F048FF7B
:103420000022414B07F06EF880468946DDE9100125
:103430003BA3D3E9002306F03BFF00223A4B07F001
:1034400061F802460B464046494606F07DFD82463D
:103450008B4603F089FFCDE900013046394603F081
:1034600049FF804689462046294603F043FFCDE9BF
:1034700002013046394603F077FF06460F462046E4
:10348000294603F071FFCDE904015046594603F087
:1034900031FF82468B46DDE9000142464B4606F08D
:1034A00007FF04460D46DDE9020132463B4606F0C1
:1034B000FFFE06460F4640464946DDE9042306F076
:1034C000F7FE52465B4606F0F3FE02460B463046D8
:1034D000394606F039FD02460B462046294603F0E0
:1034E000BBFF0022104B06F0E3FE0DA3D3E900233F
:1034F00007F008F804460D460022002307F04AF9B9
:1035000038B1204629460022084B06F01FFD04462C
:103510000D462046294607B0BDE8F08FAFF3008086
:1035200000000060FB21094000806640008076407A
:103530002DE9F04786B08246904699460846002914
:1035400033D0002A34D0002B35D00E9B002B35D041
:103550000AF50873D3E9004506F044FE22462B46DF
:1035600006F0D0FF06460F46404606F03BFE2246D8
:103570002B4606F0C7FFCDE90001484606F032FEB3
:1035800022462B4606F0BEFFCDE902010E9806F05A
:1035900029FE22462B4606F0B5FFCDE90401504630
:1035A00032463B46FFF718FF0AE00020002107E003
:1035B0000020002104E00020002101E00020002183
:1035C00006B0BDE8F08700BF70B582B00646D0F8FF
:1035D0001412D0F81822D0F83832D0F83C420094B7
:1035E000FFF7A6FF04460D460022002307F0E6F889
:1035F00040B12046294600220C4B06F0A7FC07F0FC
:10360000F1F807E0204629460022084B06F09CFC12
:1036100007F0E8F8A6F8DA02D6F83832C6F814321D
:10362000D6F83C32C6F8183202B070BD0000E03F58
:10363000F0B583B005460C46ADF8003001238DF897
:1036400002308DF803308DF804208DF8053001F13B
:10365000080702AB53F8080D88609B88BB804223A3
:10366000CB71FE238B700623CB70FF234B71BE23DF
:103670008B71314B9A790A719A7901329A710331BF
:103680003E464FF6FF7211F8013B534083EA0313A5
:10369000DBB2D80080EA032080EA222282EA2312E9
:1036A000B142F0D1228094F803E00EF1FF36B6B2B9
:1036B000BEF1000F13D001363E443A46218812F87D
:1036C000013B4B4083EA0313DBB2D80080EA0320BE
:1036D00080EA212181EA23132380B242EED122889D
:1036E00082F0940383EA0313DBB2D90081EA032159
:1036F00081EA222282EA2313238007F80E30E3783E
:103700001F4423881B127B70E2782846A11C0632D6
:1037100001F062F8E3780633EA182188E954238837
:103720001B125370E1782846083102F0A1F80A20F4
:1037300001F0D0FB03B0F0BDF09AFF1F38B504468E
:103740000D46264B1B68264A12689A4244D2FFF760
:10375000C7FC002830D12046294601220223FFF76A
:1037600067FF2046294602220323FFF761FF204618
:10377000294604220023FFF75BFF20462946062244
:103780000323FFF755FF204629460A220523FFF7AA
:103790004FFF204629460B220223FFF749FF204610
:1037A00029460C220323FFF743FF0C4B1A6802F54E
:1037B0007A720B4B1A6038BD2046FFF7F1FC58B9FE
:1037C0002046294603221346FFF732FF034B1A68AF
:1037D00002F57A72024B1A6038BD00BFC09DFF1F10
:1037E0000C9CFF1F2DE9F04FCFB006460AA9FFF74A
:1037F000A5FFDFF8E092DFF8E082B24FDFF8DCB23D
:1038000000F029BC02F0C8F8C4B2AF4B00221A7015
:10381000DB780A2B00F2DA80DFE803F00606153FBA
:103820002B5367819EBDBD00FE2C40F01A840222FE
:10383000A54BDA70A54B0022DA70FE229A704FF683
:10384000FF721A80C2E0A14BDC709F4900220A710E
:10385000188884EA000282EA0212D2B2D50085EA10
:10386000022585EA202080EA22121A800423CB70E8
:10387000ACE0964B1C71198884EA010282EA0212BC
:10388000D2B2D00080EA022080EA212181EA22120D
:103890001A8003228C4BDA7098E08C4B5C7119888B
:1038A00084EA010282EA0212D2B2D00080EA022047
:1038B00080EA212181EA22121A800522824BDA70E5
:1038C00084E0824B9C71198884EA010282EA021228
:1038D000D2B2D00080EA022080EA212181EA2212BD
:1038E0001A800622784BDA7070E0784BDC71198808
:1038F00084EA010282EA0212D2B2D00080EA0220F7
:1039000080EA212181EA22121A80DB781BB9082281
:103910006D4BDA705AE007226B4BDA7056E06A4B57
:103920001A79511CC9B21971684B1A44147218885B
:1039300084EA000282EA0212D2B2D50085EA0225A8
:1039400085EA202080EA22121A80DB788B423DD162
:1039500008225D4BDA7039E05C4B1988DA795C4DEE
:10396000AA5C4A4082EA0212D2B2D50085EA022558
:1039700085EA212181EA22121A80C0B2D2B2904295
:1039800014BF0A220922504BDA704F4B1B794F4A61
:1039900013441C721AE00A2B05D0C0B24B4B1B8893
:1039A000B0EB232F03D00222474B1A7002E0012212
:1039B000454B1A70444B0122DA7044491B790B4481
:1039C0005C720AA84FF4887200F006FF3E4B1B7829
:1039D000012B11D13C4B3D4A12795A711A890AB90F
:1039E00000215981384B01321A81384AD2788DF83A
:1039F0002B2000229A7021E0344AD2788DF82B20B7
:103A0000314A107900219170022B40F031832F4B05
:103A100003445A7A1B7A43EA0223ADF828302A4B32
:103A200001229A701970FE2C40F026830222DA706F
:103A3000264BD9704FF6FF721A800CE39DF82F3099
:103A4000242B00F008831ED81B2B00F0A9810BD873
:103A5000012B00F0A480002B48D0022B00F08082C4
:103A6000182B00F0FE80F0E21E2B00F0C38103D87B
:103A70001D2B00F05782E8E2212B00F07882232BE7
:103A800000F0B882E1E2962B00F085820ED83E2B42
:103A900000F0578203D82A2B00F03582D5E24A2B5A
:103AA00000F0FF81932B00F06982CEE2A52B00F09D
:103AB000878215D8982B00F07582A32B00F07982AD
:103AC000C3E200BFF90F4940F09AFF1FFC9AFF1FA5
:103AD000E01901000000C8420000344386F9224387
:103AE000AD2B00F07482FD2B26D0AEE2B64C2068E0
:103AF0000021FEF739FD20689DF836300C9A0092BF
:103B00000121B24AFEF798FC9DF8343086F828323D
:103B10009DF8353086F829329DF8363086F82A32FD
:103B20000C9BA6F82C329DF8373086F82E329DF883
:103B3000383086F82F328EE2A34C20680121FEF740
:103B400013FD06F27D2A206896F87C32CDF800A09D
:103B500007219F4AFEF770FC0DF1300E06F51F7429
:103B60000DF1600C75460FCD20606160A260E360CE
:103B7000AE4610346545F5D12A88AB782280A37013
:103B8000944C96F87C222046934902F00702534653
:103B900007F066FF91482146FCF7DCFE5BE28A4CA9
:103BA00020680221FEF7E0FC2068BDF83E30BDF938
:103BB0004020009206218A4AFEF73EFCBDF83E10E6
:103BC00021EAE171A6F83012BDF9403023EAE3732F
:103BD000A6F8323206F5C67506F20E23009340248D
:103BE0000194304609B22A4606F50373FFF724FA1A
:103BF00006F58473B6F9321206F5C5720092019487
:103C000030469A461A4606F5C473FFF715FAB6F918
:103C10000C22B6F90E320A21009101943046294651
:103C2000FFF72AFA6F4D85FB0023C017C0EBA300F6
:103C3000A6F8C802B6F98821B6F98A310A2100919E
:103C4000019430465146FFF717FA85FB0025C0174F
:103C5000C0EBA500A6F8CA029DF84E3086F83432B3
:103C6000F9E1594C20680321FEF77EFC9DF84C30A9
:103C700086F835329DF84DC086F836C2BDF844E06E
:103C8000A6F848E20E99C6F838120F9AC6F83C22F8
:103C9000109DC6F84052BDF84800C6F84402BDF871
:103CA0004AA0A6F84AA22468CDF800C0CDF804E0E6
:103CB0000290039504910592204602214A4AFEF79C
:103CC000BBFB96F82A32DB090ED0D6F8CC3213B102
:103CD000D6F8D032BBB9D6F83832C6F8CC32D6F8DE
:103CE0003C32C6F8D0320EE0D6F8CC3213B9D6F852
:103CF000D03243B10023C6F8CC32C6F8D032C6F871
:103D0000D432A6F8D832D6F8CC12D6F8D022D6F8CB
:103D10003832D6F83C0200903046FFF711FB0446DB
:103D20000D460022002306F049FD40B120462946F9
:103D300000222E4B06F00AF906F054FD07E020465B
:103D400029460022294B06F0FFF806F04BFDC6F885
:103D5000D402D6F8CC12D6F8D022D6F83832D6F81B
:103D60003C0200903046FFF7E3FB04460D4600227C
:103D7000002306F023FD40B12046294600221B4BBC
:103D800006F0E4F806F02EFD07E020462946002262
:103D9000164B06F0D9F806F025FDA6F8D8025AE130
:103DA000094C20680421FEF7DFFB2068BDF938309C
:103DB000BDF93A200092BDF93C20019204210C4A41
:103DC000FEF73AFB47E100BF8C9DFF1F681601001C
:103DD000A4160100109CFF1FD8160100CC92FF1FF3
:103DE000E016010067666666241701000000E03FE8
:103DF00088170100A44C20680521FEF7B5FB246854
:103E00000D9806F001FACDE90001D6F86832029368
:103E10000E9806F0F9F9CDE90401D6F86C32069354
:103E20000F9806F0F1F9CDE9080120460321974AE1
:103E3000FEF702FB0D98414606F07AFE394606F081
:103E40002BFF07F03BF8C6F868020028B8BF4042D5
:103E50005A280BDC0E98414606F06AFE394606F0F9
:103E60001BFF07F02BF8C6F86C020EE00E984146D7
:103E700006F05EFE394606F00FFF0146404606F0AA
:103E80004DFD07F01BF8C6F86C020F98394606F096
:103E900047FD594606F04CFE07F036F8C6F87002AA
:103EA000D9E0794C20680621FEF75EFB24680D9866
:103EB00006F0AAF9CDE90001BDF940300293BDF842
:103EC000423003930E9806F09FF9CDE904010F9854
:103ED00006F09AF9CDE90601204605216C4AFEF765
:103EE000ABFA0D9BC6F84C32BDF94030C6F85032E3
:103EF000BDF84230A6F854320E9BC6F858320F9BDC
:103F0000C6F85C32A7E0BDF83030A6F874325E4CDB
:103F1000206808215F4AFEF78FFA20680721FEF724
:103F200023FB98E0BDF83C30A6F87632564C20686A
:103F30000821594AFEF780FA20680821FEF714FB91
:103F400089E0BDF84830A6F878324F4C2068082147
:103F5000524AFEF771FA20680921FEF705FB7AE064
:103F6000494B186808214E4AFEF766FA73E0464B43
:103F7000186808214B4AFEF75FFA6CE00C9BA6F824
:103F8000B4320D9BA6F8B6323F4B18680821464A5A
:103F9000FEF752FA5FE03C4B18680821434AFEF7EF
:103FA0004BFA58E0384B18680821414AFEF744FAAA
:103FB00051E0354B186808213E4AFEF73DFA4AE0C9
:103FC000314B186808213C4AFEF736FA43E02E4C84
:103FD00020680A21394AFEF72FFA0C98494606F064
:103FE000A7FD06F06BFFC6F8B00220680A21FEF7B5
:103FF000BBFA30E0244C206808212F4AFEF71CFA57
:10400000BDF83430A6F8B832BDF83630A6F8BA326A
:10401000BDF83830A6F8BC32BDF83A30A6F8BE324A
:10402000BDF83C30A6F8C032BDF83E30A6F8C2322A
:10403000BDF84030A6F8C432BDF84230A6F8C6320A
:1040400020680B21FEF790FA05E00F4A106809215D
:104050001B4AFEF7F1F901F08FFC00287FF4D2AB88
:104060000EE0184BDB788DF82B300023164A937046
:10407000002B7FF4E3ACEEE70122134BDA70EAE7A2
:104080004FB0BDE8F08F00BF8C9DFF1FC01701002F
:104090001C1801007818010098180100B8180100D8
:1040A000E0180100FC18010020190100401901006E
:1040B00060190100781901008C190100A419010090
:1040C000C0190100FC9AFF1FF09AFF1F30B585B0A0
:1040D000264B1A798DF804209A6802921B7B8DF882
:1040E0000C3004AC224B44F8103D982002F062FCE6
:1040F00005466946FEF772FA1E4C2560E02002F084
:1041000059FC0546FEF76CF91B4B1D604FF43870E7
:1041100002F050FC0546FEF707FF184B1D604820D3
:1041200002F048FC0546FCF7CBFD154B1D60012055
:1041300002F040FC0546FCF7F7F9124B1D6041F216
:10414000883000F0C7FE0D20012100F087FD2068B7
:104150000D490E4AFEF762FA282002F02BFC0446B5
:10416000FDF7B6F80A4B1C6005B030BDD09FFF1FAD
:10417000000F0100849DFF1F8C9DFF1F909DFF1F5E
:10418000749DFF1F7C9DFF1FE01A0100180F0100A6
:10419000789DFF1F38B5354B1868FEF7A1FF044620
:1041A000D0F1010238BF002231480121FCF762FB47
:1041B000002C39D02D4D2868FEF7A2FF2C4CD0F1F1
:1041C000010238BF002220460321FCF753FB286878
:1041D000FEF7A6FFD0F1010238BF002220460421DD
:1041E000FCF748FB2868FEF7ABFFD0F1010238BFAF
:1041F000002220460521FCF73DFB2868FEF7B0FFB2
:10420000D0F1010238BF002220460621FCF732FB24
:104210002868FEF7B5FFD0F1010238BF0022204622
:104220000721FCF727FB14E0114C20460321FCF783
:1042300025FB20460421FCF721FB20460521FCF745
:104240001DFB20460621FCF719FB20460721FCF741
:1042500015FB084B1868FCF753FDD0F1010238BF7D
:10426000002203480221FCF705FB38BD909DFF1F8B
:10427000909CFF1F749DFF1F10B5214B1868FFF71E
:10428000B1FA204B1868FCF7A7FF1F4B1868FEF720
:10429000E5FD1E4B1C681E4B1B68A34207D804F5A6
:1042A0007A721B4B1A60164B1868FFF78DF9194B81
:1042B0001B68A34206D804F1C802164B1A601648C0
:1042C000FCF7EEFA154B1B68A3420DD804F164020B
:1042D000124B1A6042F210739C4201D9FFF75AFF49
:1042E000074B1868FEF776FF0D4B1B68A34206D8F4
:1042F0000A340B4B1C600B4B1868FDF721FF10BDF7
:10430000909DFF1F749DFF1F849DFF1FC09DFF1F79
:10431000889DFF1FAC9CFF1F909CFF1F709DFF1F7F
:10432000809DFF1F789DFF1F08B500F0F7FA024837
:10433000FCF798FA08BD00BF909CFF1F08B5064B1C
:104340001A79064B1A7000F0A3FD054B1860002285
:10435000044B1A7008BD00BFB09DFF1F1F800040B6
:10436000AC9DFF1FA89DFF1F10B5044602F06AFA1E
:10437000204610BD10B4064C218006490A60064A4A
:104380001360064B9DF804201A705DF8044B7047CB
:10439000969DFF1F989DFF1FA49DFF1F949DFF1FCB
:1043A0002DE9F843894B1D8805EB4505ED00884B49
:1043B000186800212A4607F00DF9864B186820B1CD
:1043C00000212A4607F006F903E0814B1A68814B69
:1043D0001A60FF22804B1A600220012100F03EFC8F
:1043E0000E20012100F03AFC0720012100F036FCEC
:1043F0000820012100F032FC0620012100F02EFCF3
:104400001420012100F02AFC1520012100F026FCD7
:104410000520012100F022FC704B1C7804F01004F0
:10442000E4B26F4B6F4A002C0CBF14461C460820A8
:1044300000F044FB204606F023FB044603202146FF
:1044400000F048FB0420214600F044FB03203C21FF
:1044500000F026FC0420B02100F022FC624A634BED
:104460001A600320022100F0F9FB0F20002100F068
:10447000F5FB5F4A5F4B1A6002F50072A3F5FE532D
:104480000C3B1A605C4F3A68DFF88CC1136800235C
:10449000C2F800C039680B714B718B71CB7101246C
:1044A0000C724B728B72CB720B734B738B73CB731F
:1044B0000A69524A0A610B754B75A8B2CA8AC8824A
:1044C0000B764B768B76CB768A8B08228A83CE8BC3
:1044D000C8834B4E3168DFF8F880D8F80080D1F8F7
:1044E0000090C1F8008031680C714B718B71CB71F9
:1044F0000C724B728B72CB726D42CD600D69414D67
:104500000D610B754B75CD8AC8820B764B768B7619
:10451000CB768D8B8A83CA8BC8833B490A68156822
:10452000C2F800C00A68137153719371D371147289
:1045300053729372D372137353739373D373146957
:10454000254C146113755375D48AD0821376537633
:104550009376D376948B0A249483D48BD0834FF0B4
:1045600080502A4A106041F232004FF04022106021
:104570003A7902F1804202F504321370B2201070D1
:10458000327902F1804202F504321370B3201070C8
:104590000A7902F1804202F504321370B1231370DC
:1045A0000A7902F110011A481A4B43F821005311FD
:1045B0009B0003F1604303F5614302F01F020121F8
:1045C00001FA02F21A60BDE8F88300BF969DFF1F52
:1045D000989DFF1FA49DFF1FC8F00F40949DFF1FD3
:1045E000801A060000350C000003010000A0044002
:1045F0000001020000B004409C9DFF1FC4F00F406A
:10460000B89DFF1FC0F00F40B09DFF1F0C0008E0D9
:104610003D4300000084FF1FF01A010010B5244A3A
:10462000137813F0FF0FFBD1224B1968224B186847
:10463000814206D0214B1B8803EB4302D20000F0DD
:10464000CBF81F4C00F024FC2368C01A3128F9D99C
:104650001C4B186818331B6872B60121144A11707C
:1046600019490A689342FCD217490A689342FCD35D
:1046700015490A689342FCD800F0E703114A136019
:10468000012312490B6001F580510B604FF400517A
:104690000F4B19600F4B19790F4B19700F4909799E
:1046A00019700F4909791970106062B610BD00BF0A
:1046B000A89DFF1FA49DFF1F989DFF1F969DFF1F94
:1046C000AC9DFF1F0090034004900340A0A0044055
:1046D000A09004409C9DFF1F1B800040B89DFF1FC1
:1046E000B09DFF1F70B4234B1B7803F00703022B10
:1046F0000CD0032B14D0012B1AD102F47F0310022B
:1047000080B2C2F3072202431A4311E0100200F400
:104710007F00131203F47F430343D2B21A4307E02E
:10472000130223F07F4323F0FF03C2F307421A432F
:10473000114B1888B1FBF0F301259D40EEB200FB50
:10474000131101EB41010D4B1B6803EBC103013356
:1047500018204FF40001ED43114213F8014C14BF2F
:1047600034432C4003F8014C490801330138F3D19C
:1047700070BC7047949DFF1F969DFF1FA49DFF1F57
:1047800070B5104E3046002101F0FEFF0E4D0F4C6B
:1047900030462946224606F0D7FB0D4E3046002112
:1047A00001F0F2FF30462946224606F0CDFB094EC5
:1047B0003046002101F0E8FF30462946224606F047
:1047C000C3FB70BD9C9DFF1F694300006089FF1FF4
:1047D000B89DFF1FB09DFF1F844641EA000313F000
:1047E00003036DD1403A41D351F8043B40F8043BF8
:1047F00051F8043B40F8043B51F8043B40F8043BBB
:1048000051F8043B40F8043B51F8043B40F8043BAA
:1048100051F8043B40F8043B51F8043B40F8043B9A
:1048200051F8043B40F8043B51F8043B40F8043B8A
:1048300051F8043B40F8043B51F8043B40F8043B7A
:1048400051F8043B40F8043B51F8043B40F8043B6A
:1048500051F8043B40F8043B51F8043B40F8043B5A
:1048600051F8043B40F8043B403ABDD2303211D3FA
:1048700051F8043B40F8043B51F8043B40F8043B3A
:1048800051F8043B40F8043B51F8043B40F8043B2A
:10489000103AEDD20C3205D351F8043B40F8043BFA
:1048A000043AF9D2043208D0D2071CBF11F8013BF8
:1048B00000F8013B01D30B8803806046704700BFBE
:1048C000082A13D38B078DD010F003038AD0C3F1CD
:1048D0000403D21ADB071CBF11F8013B00F8013BAF
:1048E00080D331F8023B20F8023B7BE7043AD9D36E
:1048F000013A11F8013B00F8013BF9D20B78037043
:104900004B7843708B78837060467047024A137807
:1049100013F0010FFBD070470100024010B584B0C6
:10492000174B6C46186859689A68DB680FC4154BBA
:104930001B7813F0020F19D08022134B1A70332208
:1049400004331A700322013B1A7072B66B4643F0AF
:1049500001030E4C2046984762B6237813F070038B
:1049600004D0237009E0013B03D106E044F6216343
:1049700004490A7812F0010FF5D004B010BD00BF51
:10498000F41A01000100024007000240000002404A
:1049900010B50446B0F5006F0AD2064B1B7813F031
:1049A000010F01D1FFF7BAFF04F1A054207810BD28
:1049B000002010BD0100024038B504460D46B0F598
:1049C000006F0ED2074B1B7813F0010F01D1FFF7D8
:1049D000A5FF04F1A0542378AB4202D02570FFF765
:1049E00095FF38BD01000240024B1A6801321A607F
:1049F000704700BFC09DFF1F08B50D4C236813F41E
:104A0000802F01D001F080F9236813F4806F01D06A
:104A100000F046FD236813F4006F01D001F010F898
:104A2000236813F4805FE9D002F094FAE6E700BF50
:104A30003480044008B5FFF7DFFF00BF1022014BB0
:104A40001A80704700200540704700BF024A136873
:104A500018441060184670476889FF1FEFF31383EE
:104A6000ABB9EFF31083ABB9EFF3058323B10F2B91
:104A700005D9094A985C03E04FF4807000E00020FB
:104A8000EFF311833BB1834238BF184670474FF0B4
:104A9000FF30704700207047F0E300E0044B002235
:104AA0001A6004490A60044A106010221A607047B4
:104AB00014D0034004D0034000D0034018B11028A4
:104AC00028BF102000E00120014B1870704700BF84
:104AD0006C89FF1F2DE9F84380460D460846424980
:104AE00006F0C4F9002814BF4FF002094FF0010985
:104AF0003E4B47F61226002808BF1E46304605F0FA
:104B0000BFFF4FF05E5106F013F80146284606F04D
:104B1000C1F990B901244FF05E5726FA04F005F070
:104B2000AFFF394606F004F80146284606F0B2F910
:104B300020B90134072CF0D100E0002426FA04F05B
:104B400005F09EFF294606F0A7F84FF07C5105F0CE
:104B5000E5FE06F0D9F94FF6FF73984238BF0346D9
:104B6000A8F10302D2B2012A0DD8214A0021116016
:104B70002048016020490B6004F0070444EAC9049E
:104B80001460BDE8F883A8F10902D2B2012A09D95C
:104B9000A8F11402D2B2032A04D9A8F10502D2B2B4
:104BA000012A0DD8154A00211160154801601549E8
:104BB0000B6004F0070444EAC9041460BDE8F883FC
:104BC000B8F1200F02D0B8F1190F0BD10E4A002115
:104BD00011600E4801600E490B6004F0070343EAC0
:104BE000C9031360BDE8F883001BB740006CDC020A
:104BF000009003400490034008900340008003406D
:104C0000048003400880034000800B4004800B4078
:104C100008800B4021281ED80F4B53F8303093F8F2
:104C2000802212F0FF0F08D019B1012283F88020F2
:104C30007047012283F800217047074B03EBC00047
:104C4000436821B11A6842F003021A6070471A687B
:104C500022F002021A607047041B010021281CD8B0
:104C60000E4B03EBC0035B68012908D10B4A52F8D5
:104C7000302082F880124FF4A2721A607047074AFF
:104C800052F83020002082F8800219B94FF4807267
:104C90001A60704740F203121A607047041B01004B
:104CA00010B5044628280FD15D4B1B780B2B03D879
:104CB000C3F10C03994003E00C2B84BF0C3B19415A
:104CC000084601F037FF10BD554B1B78012202FA50
:104CD00003F0002908DC20460021FFF79BFF204657
:104CE0000121FFF7BBFF10BD0A46884208D82046C5
:104CF0000121FFF78FFF20460121FFF7AFFF10BD15
:104D0000E01EC0B2012806D84648006800FB011228
:104D100022FA03F310E0202C01D0192C06D14248CE
:104D2000006800FB022222FA03F305E03F48006816
:104D300000FB011222FA03F3E01E1D2864D8DFE80D
:104D400000F0474E402B63631D246363636363631A
:104D500063636332390F16635C6363636363635534
:104D6000334A136040F24442324B1A6010BD324A5B
:104D7000136040F24442314B1A6010BD304A136058
:104D800040F244422F4B1A6010BD2F4A136040F28C
:104D900044422E4B1A6010BD2D4A136040F244422B
:104DA0002C4B1A6010BD2C4A136040F244422B4B2E
:104DB0001A6010BD2A4A136040F24442294B1A601F
:104DC00010BD294A136040F24442284B1A6010BDBE
:104DD000274A13604FF45172264B1A6010BD264AC1
:104DE00013604FF45172254B1A6010BD244A1360B2
:104DF0004FF45172234B1A6010BD234A13604FF4D5
:104E00005172224B1A6010BD20467F29D4BF002169
:104E10000121FFF7FFFE20460121FFF71FFF10BD14
:104E20006C89FF1F0890034008800B4008800340F6
:104E30001080034004B004401880034008B00440D0
:104E4000208003400CB004402880034010B0044090
:104E50003080034010C004403880034014C0044038
:104E60004080034018C00440488003401CC00440F8
:104E70001090034030900440189003403490044058
:104E800010800B4048A0044018800B404CA0044008
:104E900072B60C4B1B680C4A12680C49096862B662
:104EA00011F0806F02D0322B88BF0132C3F5BB33C3
:104EB000FF330749A1FB03039B094FF47A7000FB02
:104EC0000230704718E000E0C09DFF1F04ED00E0D5
:104ED000ABAAAAAA38B50546FFF7DAFF044665B1C2
:104EE000FFF7D6FF001BB0F57A7F03D3013D04D056
:104EF00004F57A7401F072FDF2E738BD10B5254B68
:104F00004FF400021A604FF080721A604FF0007286
:104F10001A604FF080621A604FF000621A60002041
:104F20001D4B18604BF6FF710433196028231B4A90
:104F300013600832136008321360083213600832BD
:104F400013600832136008321360083213600922BC
:104F5000134C226004F58054043420600434216032
:104F60000434236008342360143C226004F5FE24DA
:104F7000043420600B4801600B490B6008310B6062
:104F80000A4B1A6001F04CFDFA20FFF7A3FF01F075
:104F900033FA10BD08E100E0048003400C800340B8
:104FA0000080034008800B400C800B4000800B40C9
:104FB000194B1A6842F480621A600023174A137072
:104FC000174A1370174A1370174A1370174A137051
:104FD00040F21332164B1A604FF4517204331A60C8
:104FE000C0F34432134B1A70C0F347125A7000F0EA
:104FF0001F00987204229A700221D9745A7588226F
:105000001A743C22DA7040220B4B1A704FF4005293
:10501000A3F229331A607047348004404C9EFF1F6E
:10502000C99DFF1F549EFF1F4D9EFF1FC89DFF1F60
:1050300040A0044000A006402DE400E0164B9B7801
:1050400003F0EC0300F00302134310F0040F18BF49
:1050500043F01003104A937000F00F03042B04D1A7
:105060001346927942F040029A710B4B5A7902F042
:10507000EF0210F0100F18BF42F01002064B5A71E9
:105080009B7903F0EF0310F0200F18BF43F01003DB
:10509000014A9371704700BF00A0064010B5144B41
:1050A0001B6813F4806F21D0124B1B7813F0FF0F95
:1050B00006D0104C01F092FC237813F0FF0FF9D1C9
:1050C0004FF400520C4B1A6000230C4AD37040F28C
:1050D00003120B490A6004310A600A4A13700A4A33
:1050E00013700A4B1B680BB101221A7010BD00BF70
:1050F00034800440C89DFF1F84E100E000A006400A
:1051000040A004404C9EFF1FC99DFF1FC49DFF1F70
:1051100010B50446094A137813F0FF0FFBD120465F
:105120000121FFF79BFD20460021FFF773FD044B93
:1051300053F83420034B1A6010BD00BFC89DFF1FF9
:10514000041B0100509EFF1F10B50D4B1B6813F48C
:10515000806F12D021280CD80A4C0B4B53F83030FA
:1051600023600121FFF77AFD236800221A700120D5
:1051700010BD0020034B186010BD002010BD00BF03
:1051800034800440C49DFF1F041B0100114B1B68A9
:1051900013F4806F1BD0122804D140F202320E4B60
:1051A0001A600DE0142804D140F202320B4B1A6051
:1051B00006E00B4B5A7B02F0FE025A730020704748
:1051C000074B5A7B42F001025A73012070470020BE
:1051D000704700BF348004400CA0044014C0044059
:1051E00000A006402DE9F04107461F4B1B6813F451
:1051F000806F37D01D4B1B680BB101221A701C4BFE
:105200001C780134402C28BF00241A4D1A4EDFF8B8
:105210006C8017E0FFF722FC40280FDC337913F095
:10522000800F0FD02B780133402B28BF002318F8B4
:105230000320D2B2F271DBB22B7003E0FF2801DD54
:1052400001F0CCFB2B78DBB29C42E3D0FFB20B4BDE
:105250001F5501220A4B1A70E4B2054B1C70BC2288
:10526000054BDA70BDE8F08134800440509EFF1F8A
:10527000549EFF1F4D9EFF1F00A00640CC9DFF1FA8
:10528000C89DFF1F2DE9F84F0746284B1B6813F4F4
:10529000806F49D0264B1B680BB101221A7007EBB7
:1052A000010B5F453DD2DFF89890224EDFF88C80ED
:1052B000DFF890A099F800400134402C28BF00246A
:1052C0003578EDB2A54220D1BC2388F80330FFF732
:1052D000C5FB402811DC98F8043013F0800F10D083
:1052E00033780133402B28BF00231AF80320D2B2B1
:1052F00088F80720DBB2337003E0FF2801DD01F0FE
:105300006DFB3378DBB29D42E1D017F8013B0AF820
:1053100004300122084B1A70E4B289F800405F455E
:10532000C8D1BC22054BDA70BDE8F88F3480044048
:10533000509EFF1F4D9EFF1FC89DFF1F00A00640EF
:10534000549EFF1FCC9DFF1F10B5064B1B7813F01A
:10535000FF0F06D0034C01F041FB237813F0FF0F41
:10536000F9D110BDC89DFF1F064B1B78DBB2064A62
:105370001278D2B293422CBF3F3202F1FF32D01AE0
:10538000704700BF549EFF1F4D9EFF1F054B1878AE
:10539000C0B2054B1B78DBB2984238BF4030C01A10
:1053A000704700BF4C9EFF1FC99DFF1F10B4184BD4
:1053B0001A78D2B2174B1B78DBB29A4218D001335D
:1053C0003F2B18D81449C85CC0B2DCB211490C702C
:1053D00012490968C9B19A4203D300E00023D31AE5
:1053E00001E04032D31A1A2B0FDC00230B700CE0C3
:1053F0004FF0FF3009E0084B1878C0B20021054B90
:105400001970064B19680029E8D15DF8044B704704
:105410004C9EFF1FC99DFF1F0C9EFF1FC49DFF1FB9
:10542000094B1A78D2B2094B1B78DBB29A4207D0EB
:105430000133402B28BF0023054AD05CC0B270471F
:105440004FF0FF30704700BF4C9EFF1FC99DFF1FEC
:105450000C9EFF1F0D4B1B6813F4806F14D00C4B78
:10546000DA7802F0CB02DA7040225A74DA7842F02D
:105470003402DA70074B1A78D2B2074B1A70074B16
:105480001B680BB100221A70704700BF34800440C3
:1054900000A00640C99DFF1F4C9EFF1FC49DFF1F1B
:1054A00070B43D4B1B7913F0300F33D072B63A4BCA
:1054B0009B7D03F0FF022BB9374BDA7940225A74F7
:1054C00062B627E062B6354B1978C9B2344B1C7806
:1054D000E4B2314D334EEB79D8B24B1C402B28BF90
:1054E0000023A3421CBFF0541946531E13F0FF02C1
:1054F000F1D1CAB2294B1A702B4B1B6853B1A14290
:105500002EBFC4EB0101C4F1400409192729C4BF0F
:1055100001221A70204BDA78D2B212F0800F27D015
:105520001B7913F0800F23D0204B1C78E4B2204B62
:105530001B78DBB29C4210D017491E4D01E0A342FC
:105540000BD00133402B28BF00230879E85CC0B2A0
:10555000C871087DC0B20728F1D9DBB214490B70BD
:105560000D4B1B7913F0800F02D07C210A4BD970B0
:1055700012F0400F0ED0084B1B7913F0400F09D0EA
:1055800000220D4B1A700D4B1B6803B11A703C22A0
:10559000014BDA7070BC704700A006404C9EFF1FA4
:1055A000C99DFF1F0C9EFF1FC49DFF1F549EFF1F20
:1055B0004D9EFF1FCC9DFF1FC89DFF1F509EFF1FCC
:1055C000194B1A6842F400621A600023174A1370DC
:1055D000174A1370174A1370174A1370174A13703B
:1055E00040F21332164B1A604FF4517204331A60B2
:1055F000C0F34432134B1A70C0F347125A7000F0D4
:105600001F00987204229A700221D9745A75882258
:105610001A743C22DA7040220B4B1A704FF400428D
:10562000A3F22B331A60704734800440C09EFF1FE2
:10563000569EFF1FC89EFF1FC19EFF1F559EFF1F46
:105640000CB0044000B006402FE400E0164B9B78FD
:1056500003F0EC0300F00302134310F0040F18BF33
:1056600043F01003104A937000F00F03042B04D191
:105670001346927942F040029A710B4B5A7902F02C
:10568000EF0210F0100F18BF42F01002064B5A71D3
:105690009B7903F0EF0310F0200F18BF43F01003C5
:1056A000014A9371704700BF00B0064010B5114B1E
:1056B0001B6813F4006F1CD00F4B1B7813F0FF0F07
:1056C00006D00D4C01F08AF9237813F0FF0FF9D1C1
:1056D0004FF40042094B1A600023094AD37040F28C
:1056E000031208490A6004310A60074A1370074A26
:1056F000137010BD34800440559EFF1F84E100E00C
:1057000000B006400CB00440C09EFF1F569EFF1F15
:1057100010B50446094A137813F0FF0FFBD1204659
:105720000121FFF79BFA20460021FFF773FA044B93
:1057300053F83420034B1A6010BD00BF559EFF1F65
:10574000041B0100C49EFF1F0D4B1B6813F4006F68
:1057500013D016280AD14FF440720A4B1A600A4B34
:105760005A7B42F008025A7301207047064B5A7B5D
:1057700002F0F7025A73002070470020704700BF04
:105780003480044004B0044000B006400D4B1B6858
:1057900013F4006F13D017280AD14FF440720A4B4C
:1057A0001A600A4B5A7B42F001025A73012070477B
:1057B000064B5A7B02F0FE025A730020704700200D
:1057C000704700BF3480044008B0044000B0064079
:1057D0002DE9F04107461F4B1B6813F4006F37D0CB
:1057E0001D4B1B680BB101221A701C4B1C78013435
:1057F000282C28BF00241A4D1A4EDFF86C8017E0C1
:10580000FFF72CF940280FDC337913F0800F0FD00D
:105810002B780133282B28BF002318F80320D2B29D
:10582000F271DBB22B7003E0FF2801DD01F0D6F846
:105830002B78DBB29C42E3D0FFB20B4B1F55012209
:105840000A4B1A70E4B2054B1C70BC22054BDA708F
:10585000BDE8F08134800440C49EFF1FC89EFF1F36
:10586000C19EFF1F00B00640589EFF1F559EFF1FA0
:105870002DE9F84F0746284B1B6813F4006F49D0F9
:10588000264B1B680BB101221A7007EB010B5F4519
:105890003DD2DFF89890224EDFF88C80DFF890A0A0
:1058A00099F800400134282C28BF00243578EDB247
:1058B000A54220D1BC2388F80330FFF7CFF8402859
:1058C00011DC98F8043013F0800F10D033780133D6
:1058D000282B28BF00231AF80320D2B288F807200B
:1058E000DBB2337003E0FF2801DD01F077F8337895
:1058F000DBB29D42E1D017F8013B0AF804300122E7
:10590000084B1A70E4B289F800405F45C8D1BC2248
:10591000054BDA70BDE8F88F34800440C49EFF1F49
:10592000C19EFF1F559EFF1F00B00640C89EFF1F6F
:10593000589EFF1F10B5064B1B7813F0FF0F06D0C3
:10594000034C01F04BF8237813F0FF0FF9D110BD91
:10595000559EFF1F064B1B78DBB2064A1278D2B267
:1059600093422CBF273202F1FF32D01A704700BF9A
:10597000C89EFF1FC19EFF1F054B1878C0B2054B84
:105980001B78DBB2984238BF4030C01A704700BF66
:10599000C09EFF1F569EFF1F0A4B1A78D2B20A4BB9
:1059A0001B78DBB29A4209D00133402B28BF002379
:1059B000064AD05CDBB2044A137070474FF0FF30E8
:1059C000704700BFC09EFF1F569EFF1F809EFF1F97
:1059D000094B1A78D2B2094B1B78DBB29A4207D036
:1059E0000133402B28BF0023054AD05CC0B270476A
:1059F0004FF0FF30704700BFC09EFF1F569EFF1F35
:105A0000809EFF1F0A4B1B6813F4006F0FD0094BD9
:105A1000DA7802F0CB02DA7040225A74DA7842F077
:105A20003402DA70044B1A78D2B2044B1A70704701
:105A30003480044000B00640569EFF1FC09EFF1FEA
:105A400070B4364B1B7913F0300F25D072B6334B40
:105A50009B7D03F0FF022BB9304BDA7940225A7458
:105A600062B619E062B62E4B1978C9B22D4B1D787B
:105A7000EDB22A4C2C4EE379D8B24B1C402B28BFF8
:105A80000023AB421CBFF0541946531E13F0FF0213
:105A9000F1D1C9B2224B1970204BDA78D2B212F090
:105AA000800F27D01B7913F0800F23D01F4B1C7859
:105AB000E4B21F4B1B78DBB29C4210D017491D4D3E
:105AC00001E0A3420BD00133282B28BF0023087923
:105AD000E85CC0B2C871087DC0B20728F1D9DBB25A
